:1000000000000320D1010000D1CF000089CF000003
:1000100089CF000089CF000089CF000089CF000080
:1000200089CF000089CF000089CF0000D1CF000028
:10003000D1CF000089CF000091E3000095E30000DC
:10004000D1CF0000D1CF0000D1CF0000D1CF000030
:10005000D1CF0000D1CF0000D1CF0000D1CF000020
:10006000D1CF0000D1CF0000D1CF0000D1CF000010
:10007000D1CF0000D1CF0000D1CF0000D1CF000000
:10008000D1CF0000D1CF0000D1CF0000D1CF0000F0
:10009000D1CF0000D1CF0000D1CF0000D1CF0000E0
:1000A00079C7000085C70000D1CF0000D1CF000084
:1000B000D1CF0000D1CF0000D1CF0000D1CF0000C0
:1000C000D1CF0000D1CF0000D1CF0000D1CF0000B0
:1000D000D1CF0000D1CF0000D1CF0000D1CF0000A0
:1000E000D1CF0000D1CF0000D1CF0000D1CF000090
:1000F000D1CF0000D1CF0000D1CF0000D1CF000080
:10010000D1CF0000D1CF0000D1CF0000D1CF00006F
:10011000D1CF0000B1D50000D1CF0000D1CF000079
:10012000D1CF0000D1CF0000D1CF0000D1CF00004F
:10013000D1CF0000D1CF0000D1CF0000D1CF00003F
:10014000D1CF0000D1CF0000D1CF0000D1CF00002F
:10015000D1CF0000D1CF0000D1CF0000D1CF00001F
:10016000D1CF0000D1CF000091C70000B9940000AA
:10017000E9940000C5940000E5940000E1940000BB
:10018000D1940000CD7B0000D1CF0000D1CF000082
:10019000D1CF0000D1CF0000D1CF0000D1CF0000DF
:1001A000D1CF0000D1CF0000D1CF00009DC700000B
:1001B000D1CF0000D1CF0000ED9400001D950000CC
:1001C000F9940000199500001595000005950000B0
:1001D0005C4B4CF2205210B51A804DF628121A8052
:1001E00000BF00BF0CF0F8FE574B4FF030621A60B2
:1001F000564A9A60564ADA60564B4FF470021A60BB
:10020000554B564A1A60564B1A78110703D51A787F
:1002100042F008021A70534B5349AA221A70534AEB
:10022000534B8B4204D252F8040F43F8040BF8E707
:10023000504B514900228B4202D243F8042BFAE77B
:100240004E494F4A002352F8230041F8230001335E
:10025000742BF8D14B4B4C4A802103F8011B93427D
:10026000FBD14A4B454A1A60494B8A221A70A3F5C2
:10027000805324225A70A0221A709A799207FCD5D2
:100280009A79D406FCD4434A937903F00C03082BE3
:10029000FAD1414B60221A7002331A78802AFCD1BD
:1002A0003C4B01221A715D225A719A799006FCD555
:1002B0009979384A4906FBD5384B394919600021EC
:1002C000596020231370937903F00C030C2BFAD19F
:1002D000344B354A1A60354A354C136813F4807331
:1002E00003D123604FF4A8531360324B324A1A6093
:1002F00000225A60072243F8042C304AC3F80C2D20
:1003000062B60CF0E5FF2368DA0705D52C480CF03F
:100310003BFF2C4B2C4A1A602C4B1B785B0609D5F3
:10032000284C294B22689A4204D125480CF02CFF16
:10033000002323600CF056FE0FF0B2FA0EF062FBC1
:10034000FEE700BF0E20054030800440823F0400DD
:100350000100002B88ED00E0002008E0030000858C
:1003600002D0074000E00740281DFF1FB8520100DF
:100370003007FF1F281DFF1FA89AFF1F0002FF1F45
:100380000000000000E400E064E400E008ED00E0AC
:10039000005006400040064001E007404480044011
:1003A0000000060204800440C010070010D0034083
:1003B00014D0034014E000E01FBF02000000202022
:1003C00067951B631CE00340A5C3945A00F00740E7
:1003D000FFFFFFFFFFFFFFFFFFFFFFFFFFFFFFFF2D
:1003E000FFFFFFFFFFFFFFFFFFFFFFFFFFFFFFFF1D
:1003F000FFFFFFFFFFFFFFFFFFFFFFFFFFFFFFFF0D
:10040000FFFFFFFFFFFFFFFFFFFFFFFFDEF9FFFF23
:1004100010B5054C237833B9044B13B10448AFF33E
:1004200000800123237010BD281DFF1F0000000065
:10043000B4520100084B10B51BB108490848AFF38E
:1004400000800848036803B910BD074B002BFBD0A0
:10045000BDE81040184700BF000000002C1DFF1F22
:10046000B4520100281DFF1F00000000002070474B
:100470004FF0FF30704700BF704700BF704700BFAC
:10048000704700BF0023034A19460E2013700CF07A
:100490008FBE00BFF42BFF1F0123034A19460E2015
:1004A00013700CF085BE00BFF42BFF1F10B5034B7B
:1004B0000360044602F060FF204610BD1C3B0100B3
:1004C000836C13B1184605F013BAC06C08B103F081
:1004D000C3B94FF0FF30704708B50CF083FE034BF3
:1004E0001860BDE808400CF049BE00BF942FFF1F04
:1004F000F8B50D46064609F061FA044609F04EFAD1
:10050000074609F03BFAA4F2BC739BB27F2B02D8DA
:10051000FAB20C2A22D90023338009F0FFF90646EB
:1005200009F00CFA044609F019FAF3B2172B12D8A5
:10053000E3B23B2B0FD8C3B23B2B0CD8F3026401C0
:1005400003F4FF2304F4FF542343C0F346000343A2
:100550009BB22B80F8BD00232B80F8BDC0B21F28B2
:10056000D9D87F0107F4FF57384340EA43239BB2B1
:10057000D2E700BF00B5836C83B063B11846012297
:100580000DF1070105F0E6F801280CD19DF80700F0
:1005900003B05DF804FBC06C28B101220DF1070126
:1005A00003F084F8F0E74FF0FF30F1E700B50146C3
:1005B00083B0084808F06EFD074B084A196801919E
:1005C00013680749019808600133136003B05DF8B0
:1005D00004FB00BFD032FF1F2499FF1FA42FFF1F71
:1005E000901FFF1F00B5014683B0084808F052FD78
:1005F000074B084A19680191136807490198086078
:100600000133136003B05DF804FB00BFB865FF1F42
:100610002499FF1FA82FFF1F9823FF1F826C62B130
:10062000137803F0080303F0FF0003B3D3695069A4
:10063000181A48BF6FF000407047C16CC1B191F803
:10064000313003F0080303F0FF0083B1D1E9042344
:10065000D1E90001101A30B463EB010100256FF0FD
:1006600000448D4208BF844200D2204630BC70470F
:1006700008467047836C13B1184605F053BAC06C36
:1006800008B103F011BE704770B5264CADF5047D7E
:1006900025460DE005F05EF80346002B4FF400718F
:1006A00004A819DD0DF0CCFC0DF0A0FC01281DDC28
:1006B000A36C4FF4007204A91846002BEAD1E86C31
:1006C00050B104A94FF4007202F0F0FF0346002B72
:1006D0004FF4007104A8E5DC002105200CF068FD52
:1006E000104802F049FE0DF5047D70BD78230A2202
:1006F00068460D490DF0DCFF69460C480EF0A6F87F
:1007000068460EF039F80A4968460EF075F86946F1
:1007100006480EF0EBF8064668460EF02DF8002E5F
:10072000C6D0D9E7402FFF1FC412FF1F9C23FF1F15
:100730002840010000B5836C83B08DF8071043B1E9
:10074000184601220DF1070105F02EFA03B05DF8FD
:1007500004FBC06C0028F9D001220DF1070103F061
:10076000BBFE03B05DF804FBF0B51A4EB06CADF5FE
:10077000037D3746F8B14FF4007202A904F0EAFF96
:10078000002821DD0DF107040DF2072514F8012FD3
:10079000114901A80FF09CFE01A80FF031FF01469E
:1007A00001A80DF04DFCAC42F0D10C480DF010FE4C
:1007B000B06C0028DFD1F86C30B14FF4007202A9A0
:1007C00002F074FF0028DDDC024802F0D5FD0DF5D3
:1007D000037DF0BD402FFF1F383B0100C412FF1FF7
:1007E00070B5044608460D460FF00AFF236802461E
:1007F000294620465B68BDE87040184738B5044676
:1008000008460D460FF0FCFE2368024629465B6849
:1008100020469847054620460DF0DAFD284438BDAD
:1008200010B5064C002120460AF0F4F804F202212B
:1008300020220348BDE810400CF00EB8641DFF1FD5
:100840005C2EFF1FF8B506460D4600240F4A1048DF
:10085000611E02F1100E314411F8017F12F8013FC0
:100860007B40724500F8013FF6D10A4B0A490B481C
:100870000A2209F05DFD10222819064914440BF0E4
:10088000EBFFB4F5007FE1D1F8BD00BF1F32FF1FC1
:100890004B2EFF1F2032FF1FB023FF1F4C2EFF1FC8
:1008A00070B5204B2049214AD3F8785400248EB0EB
:1008B00006460C701470E5B10246294601236846CD
:1008C0008DF800408DF801408DF8024004F034FFAF
:1008D000F8B1174B196821B132460123154802F0CF
:1008E0005FFD012105200CF063FCFFF7CDFE0EB08B
:1008F00070BDD3F87C1461B10246012368468DF8BF
:1009000031508DF832508DF8335003F0ADFA002895
:10091000DFD11B2108480DF093FB08480DF058FD6E
:100920000EB070BD8024FF1F2F2FFF1F6B07FF1F0E
:100930008032FF1F402FFF1F403B0100C412FF1FEA
:100940002DE9F04F414B4249D3F87874414DA3B0A3
:1009500000264FF47A720E9581460E708DF83C6039
:100960008DF84460209621961092002F53D039467E
:10097000684601234A466C468DF800608DF8016098
:100980008DF8026004F0D8FE002855D0324B19686B
:100990000DF1380821B14A464046012302F000FD1E
:1009A00020986FF0004A4FF0000BD8B103781A0777
:1009B00006D440460E9502F0DFFC23B0BDE8F08F70
:1009C000C26943699A42F4D00122214604F0C2FE72
:1009D00001280CBF9DF80000FF200DF0B5FB20980A
:1009E0000028E3D121980028E3D090F831301B078C
:1009F000DFD5D0E90423D0E90067921B63EB07033E
:100A00009B4508BF924501D3002AD2D0012221463E
:100A100002F04CFEDCE7D3F87C1469B16846012390
:100A20004A466C468DF831708DF832708DF833700F
:100A300003F01AFA0028A9D11B2108480DF000FB89
:100A400007480DF0C5FC0DF13808B2E78024FF1F00
:100A50002F2FFF1F1C3B01008032FF1F403B010076
:100A6000C412FF1F10B5044614F8013B184633B1F9
:100A70002E2BF9D00EF03CFF0028F5D110BD01203F
:100A800010BD00BF84B030B593B016AC84E80F0041
:100A90009DF870509DF867400CF0A4FB9DF86630FF
:100AA0001699009003F001032A46029301911D9BC1
:100AB0001549039405A80FF00BFD05A80FF0A0FD44
:100AC000014605A80DF0BCFAACB1651EEDB21035BB
:100AD00016AB1D440DF1670414F8012F0B4904A84F
:100AE0000FF0F6FC04A80FF08BFD014604A80DF0F2
:100AF000A7FAAC42F0D106480DF06AFC13B0BDE88D
:100B0000304004B0704700BF5C3B0100783B0100FF
:100B1000C412FF1F70B5134C04F5916526460121E0
:100B20000E200CF045FB32200CF080FB00210E2043
:100B30000CF03EFB32200CF079FB4FF000010A482C
:100B400007F05CF80848C4F8845406F085FC0028D7
:100B5000E5D1D6F88414034802F066FC0028DED004
:100B600070BD00BF8024FF1F0829FF1F08B51E4B62
:100B70001B78CBB11D491E48FFF764FE27200121D9
:100B80000CF016FB1B4B986CC0B14FF40072174968
:100B900005F00AF8B0F5007F1AD11749174B01206C
:100BA000002208701A6008BD4FF4007210490F4807
:100BB0000BF052FE0F4B986C0028E6D1D86C38B180
:100BC0004FF40072094903F087FCB0F5007FE4D0D0
:100BD0000C210B480DF034FA0A480DF0F9FBBDE882
:100BE0000840FFF797BF00BF6A07FF1FEC29FF1FF0
:100BF000382CFF1F402FFF1F2E2FFF1F802EFF1F9F
:100C0000803B0100C412FF1F204B99784A1CD2B2CE
:100C10003A2A9A701BD05B2A26D02F392A2984BF02
:100C200030229A705A783A2A16D05B2A23D0303A6A
:100C30002A2A84BF30229A701A783A2A11D05B2A65
:100C400020D0303A2A2A84BF30229A70704741223D
:100C50009A705A783A2AE8D141225A701A783A2A78
:100C6000EDD141221A7070475A780132D2B2302148
:100C70005A709970D7E71A780132D2B230211A70BF
:100C80005970DAE730221A70704700BF7829FF1FC9
:100C90002DE9F04F804E814F85B0701C40F23A2212
:100CA00000210FF0B9F906F101080023C8F111097C
:100CB00006F23A2534463B8009EB04000CF07AF842
:100CC00004F8010FA542F7D1754CC4F51275023531
:100CD00004F12A0928190CF06DF804F8010FA14558
:100CE000704BF7D1704871490193062284180BF0BC
:100CF000B3FD019B6E4D93E8070003C403F10A01A5
:100D00002280681C20220BF0A7FDA01C0922694943
:100D10000BF0A2FD0B3405F1200AA94619F8012FAA
:100D2000654903A80FF0D4FB2046022203A90BF06B
:100D300093FDCA4504F10204F0D170200DF06AFE63
:100D40005E4CDFF8AC91834608F0B8FEA4F5BA70AB
:100D5000C9F800B00FF054FCA4F5BA710246584629
:100D600008F096FFD9F80000554908F0B3FFD9F80C
:100D7000000070210DF050FE09225249A4F1090033
:100D80000BF06AFD15F8012F4B4903A80FF0A0FBEB
:100D9000BDF80C3024F8023BAA45F3D100234A48A1
:100DA00047494A4D1A4600F5C8740AF0A1F8484B65
:100DB00093E80300C8F8B40188F8B81104F14008BA
:100DC00014F8012F3C4903A80FF082FB28460222A9
:100DD00003A90BF041FDA04505F10205F0D13D4806
:100DE0000DF0F6FA3C4B196821B343233B4A3C48CB
:100DF00002F0D6FAF0B13A4D002402E004F0D4FE3D
:100E0000013438480FF0FCFBA0424FF0010203A967
:100E10003DD9AB6C16F8010F8DF80C001846002B6D
:100E2000ECD1EB6C012203A91846002BE8D003F0AB
:100E300053FBE5E735212C480DF002F925480DF06C
:100E4000C7FA26480FF0DCFB014624480DF0F8F8FD
:100E500020480DF0BDFA172124480DF0F1F81D4887
:100E60000DF0B6FA1F480FF0CBFB01461D480DF000
:100E7000E7F818480DF0ACFA40F23A220021194880
:100E80000FF0CAF800233B8005B0BDE8F08F14488E
:100E900002F072FADFE700BFAB2FFF1F302FFF1FFA
:100EA0007B29FF1F7C29FF1FBE30FF1F903B0100E5
:100EB000431DFF1F983B0100A43B01002031FF1F91
:100EC000441DFF1FAC3B0100641DFF1F6531FF1F68
:100ED000083C0100C412FF1F8032FF1F0832FF1FB1
:100EE0003032FF1FAC2FFF1FD03B0100B83B010089
:100EF0003829FF1F30B5754B1B7895B0002B52D0A9
:100F0000734C744A23680193019B11685B1A312B5F
:100F100000F2C080704B1B78002B2ED023686F4AE4
:100F20000793079B11686A485B1A312B00F2C08057
:100F30006B4B1B785BB123686A4A0D930D9B11685C
:100F400063485B1A312B00F2968015B030BD664BBA
:100F50001B78002B6AD02368644A0F930F9B11689B
:100F60005B485B1AB3F5FA7FEFD3614C01682378D5
:100F7000109183F00103109984E05E4B1B78002BE5
:100F800040D023685C4A0993099B116850485B1A5A
:100F9000B3F5FA7FCCD3594D01682B780A9183F0D1
:100FA00001030A998BE0564B494C1B78B3B1236877
:100FB000544A0393039B11685B1AB3F5FA7FA9D3D4
:100FC000514821680378049183F00103049D037064
:100FD0001946062015600CF0EBF89BE723684B4A96
:100FE0000593059B11685B1AC82B93D92368069358
:100FF000069B454D13600123194606202B700CF00B
:10100000D7F887E7226842490B920B9A0868304D5F
:10101000121AC82A8CD92A680C920C98374A086090
:101020001946052013700CF0C3F881E7226839498E
:101030001192119A09682648521AB2F5967F84D304
:10104000026835491292129A0968521AB2F5967FCF
:10105000FFF47BAF026831491392139A0968521A60
:10106000B2F5967FFFF471AF214A19460E20137036
:101070000CF09EF869E71E4C016823780E910E99DA
:1010800083F0010311600E20194623700CF090F8D4
:1010900015B030BD1C4821680378029183F001032C
:1010A000029D03701946062015600CF081F831E7A7
:1010B000124D01682B780891089983F001031160A3
:1010C000052019462B700CF073F831E71C32FF1F16
:1010D0002499FF1F142FFF1FA22FFF1FF02BFF1FAC
:1010E000AC23FF1F442EFF1F6024FF1FE831FF1FAA
:1010F000F42BFF1F102FFF1F182FFF1F902FFF1F14
:10110000982FFF1F6C24FF1F002CFF1FEC2BFF1FCD
:10111000402EFF1F901FFF1F9823FF1F9421FF1FCA
:101120002DE9F04340F6010095B00BF043FECA4EA6
:10113000CA4C336920700025C94A717B04924FF074
:10114000120E0124132718462A460594039500958C
:101150002B46CDF808E001970AF028FB32466021C3
:10116000C04809F0C9FB002800F080822E21BE484B
:10117000BE4FBF4E0CF064FFBE480DF029F9294662
:10118000B84809F061FD2A462946B64809F096FCA0
:101190001421B9480CF054FFB6480DF019F9B74BBB
:1011A000B7481D704FF480710DF0EEFA21462A20E9
:1011B0000CF012F8214629200CF00EF821462820C8
:1011C0000CF00AF829462A200BF0F2FF29462920C4
:1011D0000BF0EEFF294628200BF0EAFF21460620FF
:1011E0000BF0FAFF214605200BF0F6FF21460E20FA
:1011F0000BF0F2FF214627200BF0EEFFA14B3C70D5
:10120000214606201C7034700BF0D2FF397805207F
:101210000BF0CEFF31780E200BF0CAFF02211C200C
:101220000BF0DAFF9849994808F0BAF998499748BD
:1012300008F0B8F99749954808F0B6F996499348E7
:1012400008F0B4F99549914808F0B2F932218F4875
:1012500008F0A0F94FF4FA618C4808F09FF94FF4B8
:10126000FA718A4808F098F9FFF7DAFA8C4B8D4A40
:1012700003F1100113F8010F02F8010F9942F9D19F
:10128000894A8A488A4C8B4D802108F091FD8A4B0F
:101290000FCB85E80F000021A4F1FF0009F076FFD5
:1012A000132186480CF0CCFE724804F140050DF085
:1012B0008FF814F8012F824906A80FF009F906A843
:1012C0000FF09EF9014606A80CF0BAFEA542F0D137
:1012D00068487C4C0DF07CF87B4900252B460822A1
:1012E000A1F58070009509F03FFE1B2177480CF0B6
:1012F000A7FE2B464FF6FF726C495A4809F0C4FE10
:1013000010227349601C0BF0A7FA04F1100514F8C1
:10131000012F6B4906A80FF0DBF806A80FF070F953
:10132000014606A80CF08CFEA542F0D151480DF004
:101330004FF801216748002407F0EEFA01216648C2
:1013400007F0EAFA23462146644A6248009407F00F
:10135000E1FC2346614A60480094214607F0DAFC2C
:1013600021465C4807F070FB21465B4807F06CFBA8
:101370000121584807F0E4FA0121574807F0E0FA44
:10138000574B58489A7B082142F001029A73D9734F
:1013900008F02EFB08F024FB022800F06F811B21CF
:1013A00051480CF04DFE33480DF012F8012008F0C2
:1013B0002DFB08F003FB044608F0F0FA054608F0A0
:1013C000DDFA814608F0AAFA064608F0B7FA0746A1
:1013D00008F0C4FA80460BF005FF444BCDF80090AE
:1013E0001968CDF80C80401A2B46224640490490DB
:1013F000029701963F48404C0FF06AF83D480FF0C5
:10140000FFF801463B480CF01BFE1A480CF0E0FFC9
:1014100004F59165394B3A4A1A6028464FF00001AD
:1014200006F0ECFB2846C4F8845406F015F80028B2
:1014300000F07C8133490F48FFF7E0F9FFF76AFBC2
:10144000182131480CF0FCFDD4F878342A4A002BDE
:1014500000F064815AE000BFF098FF1F6A07FF1F89
:10146000A0860100641DFF1F103C0100902FFF1F8C
:10147000F42BFF1FC412FF1F403C01002E2FFF1F43
:101480009C23FF1F002CFF1FB52600003C29FF1FD7
:10149000611D00007D040000850400009904000027
:1014A0005B2EFF1F032CFF1FB023FF1FDC29FF1F34
:1014B000631EFF1F2032FF1F042CFF1FFC3D010095
:1014C000A43B0100272CFF1F641EFF1F783C010076
:1014D000551FFF1FD032FF1FB865FF1FA098FF1FC9
:1014E000842EFF1FD9040000943C0100942FFF1F9D
:1014F000CC3C0100E42EFF1F8024FF1FCC32FF1FD5
:10150000F1040000F03C0100203D0100D9690139DF
:1015100000230A228A480CF085FF89480CF058FF06
:10152000172188480CF08CFDD4F87804864B0028ED
:1015300000F0EC8005F0B0FA014600230A22804852
:101540000CF070FF7E480CF043FFD4F878047E4B1B
:10155000002800F0D48005F09FFA41F287339842CA
:1015600040F2B680794B7A481C6017210CF068FD78
:10157000784E042528460BF01DFC01350A2D06F88F
:10158000010BF7D1734D2846FFF76CFA20B9724B67
:1015900093E803002860A980704E0C253746284642
:1015A0000BF008FC0135102D07F8010BF7D16B4D3E
:1015B0002846FFF757FA08B9694B2B60052169489F
:1015C0000CF03EFD5E480CF003FF624B664A674933
:1015D00067480EF07DFF172166480CF031FD644826
:1015E0000FF00EF8014662480CF02AFD54480CF04A
:1015F000EFFE584B5C4A6049009660480EF068FF69
:10160000544B0096584A5E495E480EF061FFD4F88C
:1016100078544D4B002D4AD0294601230025574AC6
:101620008DF8185006A88DF819508DF81A5004F04E
:1016300083F805463DB343200BF0F4FA07EE900A19
:10164000FAEEEF7A504C51493D48FDEEE77A17EE3D
:10165000902AC4ED007A0CF0D7FE4D494D4B012085
:10166000042208701A8015B0BDE8F0831F214A4893
:101670000CF0E6FC32480CF0ABFEFEE74749304880
:10168000FFF7BCF892E6D4F878142F4B39B306A8CC
:1016900001233C4A8DF818508DF819508DF81A50D6
:1016A00004F04AF80028C6D0FFF7F2FAC3E7D3F8EF
:1016B0007C140029BFD00123304A8DF8495006A878
:1016C0008DF84A508DF84B5002F0CEFB0546B1E73D
:1016D00033491B48FFF792F8FFF71CFA42E7D3F8AB
:1016E0007C140029A7D006A80123264A8DF849506A
:1016F0008DF84A508DF84B5002F0B6FBD2E7D3F884
:101700007C040028E4D003F0D5FD26E7D3F87C0460
:1017100000283FF411AF03F0CDFD0DE7D2F87C14A3
:1017200000293FF4F5AED1F82814F1E6D4F884147A
:10173000204601F079FE00283FF47CAE80E600BF31
:10174000C412FF1F3C3D01008024FF1F8032FF1F99
:10175000883D01006424FF1F103E01007829FF1F0F
:1017600030303000A03D0100D829FF1FA83D010006
:101770009C2FFF1FB03D0100C83D01000832FF1F34
:10178000D43D0100142CFF1FA02EFF1FE03D0100DF
:101790006B07FF1F2C2FFF1F583C0100B03C0100BE
:1017A000543D01002DE9F04F7F4D8048804F814E20
:1017B00085B009210CF044FC2C887C493819092299
:1017C00009340BF049F806F1200A2C80B3461BF8C7
:1017D000012F7949DFF8D091DFF8D48103A80EF00A
:1017E00077FE03A80EF00CFF014603A80CF028FCBE
:1017F0002C880222381903A90BF02EF80234D345A5
:101800002C80E4D170200DF005F96C4C834608F073
:1018100055F94046C4F800B00EF0F2FE41460246CB
:10182000584608F035FA2068654908F053FA2068F0
:1018300070210DF0F1F8092162480CF001FCB9F8B3
:101840000040604908EB0400092209340BF004F859
:10185000A9F8004016F8012F5749DFF84C81DFF84E
:10186000509103A80EF034FE03A80EF0C9FE014605
:1018700003A80CF0E5FB2C880222381903A90AF012
:10188000EBFF023456452C80E4D100234E484C49EE
:101890001A4600F5C87609F02BFB05214B480CF0E1
:1018A000CFFBB8F80040494909EB04000522053494
:1018B0000AF0D2FFA8F8004006F1400816F8012F00
:1018C0003D4903A80EF004FE03A80EF099FE014660
:1018D00003A80CF0B5FB2C880222381903A90AF0E2
:1018E000BBFF0234B0452C80E8D139480CF070FDC4
:1018F000384B00933849394B394A3A480EF0E8FDE5
:10190000394B196829B34323364A384801F048FD5A
:10191000F8B1374E354F002402E004F045F90134A8
:1019200023480EF06DFEA0424FF0010203A936D904
:10193000BB6C16F8010F8DF80C001846002BECD18B
:10194000FB6C012203A91846002BE8D002F0C4FD6D
:10195000E5E70E2127480CF073FB1D480CF038FD1D
:1019600020480EF04DFE01461E480CF069FB184859
:101970000CF02EFD0E480EF043FE01460C480CF014
:101980005FFB13480CF024FD40F23A220021084886
:101990000EF042FB00232B8005B0BDE8F08F13480A
:1019A00001F0EAFCE6E700BF302FFF1F983B010083
:1019B000AC2FFF1F431DFF1FA43B01003829FF1F51
:1019C000441DFF1FAC3B0100641DFF1F083C0100CC
:1019D000C412FF1F7829FF1FC83D01006424FF1FA8
:1019E000D829FF1F0832FF1F8032FF1F3032FF1F30
:1019F000AB2FFF1F183E01002DE9F0475E4F86B068
:101A00000BF0F0FB5D4A3B781060002B00F09780F4
:101A10005B4B1B68072B40F29580DFF8B891594C5F
:101A200059484FF4FE72214608F034F8C4F8FC011E
:101A3000FFF79CF8554A936C002B00F09680D3F882
:101A40001CA05248524D534EDFF88C8101F094FC9B
:101A500003AC04220C2150480BF0F4F95246204606
:101A60004E490EF035FD94E8070003C54C492A8025
:101A7000D9F800004FF4007208F00AF94949D9F882
:101A8000000008F027F9D9F8000070210CF0C4FF1D
:101A9000A81C202243490AF0DFFEA5F108002A22F3
:101AA00040F24A210BF0CEF906213F480CF0C8FA6B
:101AB00035883D49062208EB05000AF0CDFE0635C3
:101AC000204635800EF09CFD014620460CF0B8FA09
:101AD000358821460A2208EB05000A350AF0BCFECB
:101AE0003580FFF75FFE314EDFF8F0E03048314DD2
:101AF000314A002400942346CEF800402146047069
:101B000034602E482C6007F005F9214623462A4A06
:101B100000942B4807F0FEF843203C700BF082F84D
:101B200007EE900AFAEEEF7A264C27492748FDEE99
:101B3000E77A17EE902AC4ED007A0CF065FC06B047
:101B4000BDE8F0879C011649DFF888902048C4F56D
:101B50000074224601EB83110AF07EFE2246D9F87A
:101B600000001B4908F094F859E7D36C13B1D3F87F
:101B700010A066E79A4664E72E2FFF1FEC31FF1F87
:101B8000802EFF1F382CFF1F9C2EFF1F402FFF1F92
:101B90007C29FF1F302FFF1F7829FF1F283E0100DF
:101BA000EC29FF1F441DFF1F903B01007424FF1F01
:101BB0003C2EFF1F3C2FFF1FA098FF1FD032FF1F9E
:101BC000B865FF1FA02EFF1FE03D0100C412FF1FDC
:101BD000941FFF1F3829FF1FAC2FFF1F7024FF1F0A
:101BE00010B5214B9A6C8EB0002A36D01F4BD3F81B
:101BF0007844CCB12146012300241D4A8DF80040D1
:101C000068468DF801408DF8024003F095FDD8B18B
:101C1000184B196821B10123154A134801F0C0FB84
:101C2000FEF7A2FD0EB010BDD3F87C1461B1012304
:101C30000F4A8DF8314068468DF832408DF83340B8
:101C400002F012F90028E3D11B210B480CF0F8F93F
:101C50000A480CF0BDFB0EB010BDDB6C002BC5D1EB
:101C6000FFF7CAFEC2E700BF402FFF1F8024FF1FFF
:101C7000142CFF1F8032FF1F403B0100C412FF1FC6
:101C8000F0B5334B9A6C8FB00746002A59D0314DCE
:101C9000D5F87844BCB121466846002401233A4671
:101CA0006E468DF800408DF801408DF8024003F03B
:101CB00043FDD0B91B2128480CF0C2F927480CF08D
:101CC00087FB0FB0F0BDD5F87C140029F2D0684630
:101CD00001233A466E468DF831408DF832408DF83A
:101CE000334002F0C1F80028E4D0D5F87844194B0D
:101CF00094B121463A460024022330468DF8004034
:101D00008DF801408DF8024003F016FD0028D8D070
:101D1000304604F005FAD4E7D3F87C140029D0D07B
:101D20003A46022330468DF831408DF832408DF826
:101D3000334002F099F80028C3D0304602F0A0F9F1
:101D4000BFE7DB6C002BA2D1FFF756FE9FE700BF79
:101D5000402FFF1F8024FF1F403B0100C412FF1FC4
:101D600008B5FFF749FEBDE80840FFF7D9B900BF45
:101D70002DE9F04F89B007F021FE044607F00EFE72
:101D8000054607F0FBFD804607F0C8FD064607F054
:101D9000D5FD074607F0E2FD804A814BCDF8008073
:101DA00043F2E42103905058595804912B4622469F
:101DB0007C490297019605907B487C4D7C4F7D4E77
:101DC0000EF086FB78480EF01BFC014676480CF0BE
:101DD00037F92C887449242238190AF03DFD24343F
:101DE00075482C800EF00CFC014673480CF028F965
:101DF0002C8871490C2238190AF02EFD0C3404216C
:101E00006E482C800CF01CF92C886C49381904227F
:101E100004340AF021FD06F1090A2C8016F8012F7E
:101E20006749DFF88881DFF8889107A80EF050FB3A
:101E300007A80EF0E5FB014607A80CF001F92C8875
:101E40000222381907A90AF007FD0234B2452C8096
:101E5000E4D104215B485C4E0CF0F2F8B8F8004085
:101E6000584909EB0400042204340AF0F5FC06F199
:101E7000100BA8F80040DFF8648118E032780EF00B
:101E800027FB07A80EF0BCFB014607A80CF0D8F80A
:101E90002C88DFF81891DFF818A13819022207A959
:101EA00001360AF0D9FC02345E452C800BD098F83C
:101EB000003043491A4607A8002BDFD1404907A844
:101EC0000EF006FBDDE705214048414E0CF0B8F866
:101ED000B9F800403D490AEB0400052205340AF038
:101EE000BBFC06F1100BA9F8004018E032780EF0A8
:101EF000EFFA07A80EF084FB014607A80CF0A0F843
:101F00002C88DFF8A890DFF8A8A03819022207A9CA
:101F100001360AF0A1FC02345E452C800BD098F803
:101F2000003027491A4607A8002BDFD1244907A80B
:101F30000EF0CEFADDE705212648274E0CF080F89A
:101F4000B9F8004023490AEB0400052205340AF0E1
:101F500083FC06F14008A9F8004016F8012F184943
:101F600007A80EF0B5FA07A80EF04AFB014607A82D
:101F70000CF066F82C880222381907A90AF06CFCCC
:101F8000023446452C80E8D140F23A22102108481C
:101F90000AF058FF09B0BDE8F08F00BFB865FF1F19
:101FA000D032FF1F303E0100E42EFF1F302FFF1FF5
:101FB000AC2FFF1FA81EFF1F142CFF1F583E01004F
:101FC000A43B0100603E0100042CFF1F683E01009D
:101FD000282CFF1F703E0100B41EFF1F6A07FF1F61
:101FE00010B52E492E4B002282B0012470200C60C7
:101FF0001A700CF00FFD044607F060FD294B1C60C1
:10200000FEF702FE284B2949294A2A480EF060FAB9
:10201000294B196829B14323264A284801F0C0F901
:1020200030BB0E2126480CF00BF826480CF0D0F9F6
:1020300020480EF0E5FA01461E480CF001F8214850
:102040000CF0C6F91D4B204A9C6C04211180B4B1E0
:102050000021204603F082FC68B91C4B1C4A1B6817
:10206000019301991B4B116001221A7002B010BD3F
:10207000FFF77EFEE6E7204603F05AFDEDE7DC6C55
:10208000002CEAD000220023204601F0FDFB0028AE
:10209000E3D0204602F0AEF9DFE700BFF82BFF1FC8
:1020A0002E2FFF1F3829FF1F7829FF1F783E0100C0
:1020B0006424FF1F142CFF1F8032FF1F402FFF1FBF
:1020C000183E0100C412FF1F2C2FFF1F2499FF1F71
:1020D000242CFF1F3C2EFF1FF0B5434B1B7883B011
:1020E000002B6BD00BF07EF8404C414A41492160F7
:1020F000064692E80300404B404F186004251971D2
:102100002A463F493D8004F2DF100AF0A5FB2A462B
:102110003C493D4F04F2E3100AF09EFB2A463B493E
:1021200004F2E7100AF098FB394806F0D9FF84F86A
:10213000EB01384806F0D4FF002584F8EC01344860
:1021400084F8ED5106F0D2FF84F8EE01314806F034
:10215000CDFF082284F8EF012F4984F8F05104F2F2
:10216000F1100AF079FB21464FF4FE722B4807F07C
:1021700091FCC4F8FC01FEF7F9FC3B680133B3F5B0
:10218000E11F3B601DD24FF40072FF2117480DF094
:1021900043FF0BF027F802A9801B41F8040D03222E
:1021A0001F480AF059FB1F4A137883F001031946B0
:1021B000052013700AF0FCFF03B0F0BDFFF710FF1D
:1021C00090E7112118480BF03BFF2B460A22396893
:1021D00016480CF027F915480CF0FAF83D60FFF7A7
:1021E0000BFCFEF79DFFCEE73C2EFF1F382CFF1F98
:1021F000983E010043414E32342FFF1F2C2FFF1F0A
:102200007024FF1F7424FF1FF82BFF1F3C2FFF1F9C
:10221000D032FF1FB865FF1F142CFF1F9C2EFF1F1D
:10222000312EFF1F902FFF1F843E0100C412FF1F9D
:102230002DE9F0434D4B4E4D1B7883B0002B68D1F8
:102240004C4A4D4E1378DFF85C81494F83F001030F
:102250001946062013700AF0ABFF2B8847495A1C19
:102260000978F1542A8007F009FB2C8802A904227E
:1022700041F8080D30190AF0EFFA201D08F10401A9
:10228000042216FA80F00AF0E7FA04F10800414649
:1022900004220C3416FA80F00AF0DEFA98F80F9057
:1022A0002C800AF09FFF364B2C881B68C01A02A9AD
:1022B0004FEA096920F07F4040EA090041F8040D27
:1022C000042230190AF0C8FA201D16FA80F008F12D
:1022D000100108220AF0C0FAD8F800300C34A4B279
:1022E0009B002C800AD4B4F5ED7F02D803B0BDE882
:1022F000F08303B0BDE8F043FFF7EEBE214A137848
:1023000083F0010319460E2013700AF051FF3C8838
:10231000E9E70AF067FF2B881B4A1C4C191F82FB58
:102320000123CA17C2EB2312322303FB12132060CE
:10233000002B85D1164C2168072981D8154A164BE8
:1023400002EB8112013A03F1400012F8011F03F879
:10235000011F8342F9D1114B11491868402207F03F
:1023600097FC2368013323606AE700BF2E2FFF1F0D
:102370002C2FFF1F002CFF1F382CFF1F7C2EFF1F50
:10238000942FFF1FF42BFF1F1F85EB51EC31FF1F14
:10239000802EFF1FEC29FF1FA32EFF1F3829FF1FD0
:1023A000A42EFF1FF031FF1F70B5384D384B2A683F
:1023B0001B7888B006460592364A05991160002BB5
:1023C00055D1354B354C1B78002B41D1236833490F
:1023D00013F0005412D0324B1B78002B31D1314A0C
:1023E000136801331360304A137883F001031946F0
:1023F0000E2013700AF0DCFE08B070BD2B4A1046A8
:102400001A408242F8D10B7C03F0F003102BF3D179
:10241000234B27481B7827494474032630228474B1
:10242000C673016002742BB3012BE5D12B68224ADD
:102430000793079B12689B1A012BDDD9FEF7D2F890
:10244000DAE7012BCFD11D4A136801331360CAE7C5
:10245000039604F1100393E80300114A13780293E2
:102460008DE8030094E80F00FEF70CFBAEE7FFF7E2
:10247000DFFEA6E72B68124A0693069B12689B1A9A
:10248000012BB9D9FEF792F8B6E700BF2499FF1FD8
:102490006B07FF1F242CFF1F2F2FFF1FF031FF1F83
:1024A0007C2EFF1F082FFF1FF42BFF1F00F9DA00FF
:1024B000842EFF1FF900DA189823FF1F0C2FFF1F2F
:1024C000901FFF1F10B582B002A80024012200F85F
:1024D000014D40F601010AF0B5FC054B21462720CD
:1024E0001C700AF065FEFFF787FA02B010BD00BF4E
:1024F0006A07FF1F10B582B002A80124224600F827
:10250000014D40F601010AF09DFC054B21462720B4
:102510001C700AF04DFEFFF76FFA02B010BD00BF4D
:102520006A07FF1FFFFFFFFF454BD3F878042DE933
:10253000704300286FD0C469057904F0ADFA013CFE
:10254000064618213F480BF07BFD00230A22214656
:102550003D480BF067FF3C480BF03AFF17213B4822
:102560000BF06EFD00230A22314637480BF05AFF6C
:1025700035480BF02DFF152135480BF061FD002388
:102580000A22294630480BF04DFF2F480BF020FF60
:10259000112130480BF054FD28460CF07BFC80469E
:1025A000894630460CF076FC42464B460CF0E8FC7F
:1025B00000224FF081430CF0E3FC1FA3D3E900237A
:1025C0000CF008FE41EC100B02211F480BF074FFC9
:1025D0001D480BF0FDFE12211F480BF031FD204677
:1025E0000CF058FC42464B460CF0CAFC00224FF05F
:1025F00081430CF0C5FC10A3D3E900230CF0EAFDE5
:1026000041EC100B022110480BF056FF0E48BDE8BC
:1026100070430BF0DDBED3F87C0448B190F83D3434
:10262000D0F8284401259D4002F044FE064688E784
:1026300005460446064684E70000000080842E41DB
:102640008024FF1F203D0100C412FF1F3C3D0100FC
:10265000A03E0100B83E0100CC3E010000B50E4B8B
:102660000E4A1B680E4883B0019301990D4B11600F
:10267000012200211A7006F0E7F900210A4806F04D
:10268000E3F9102109480BF0DBFC09480BF0A0FE30
:1026900003B05DF804FB00BF2499FF1F7824FF1FDF
:1026A000D032FF1F212CFF1FB865FF1FE03E010045
:1026B000C412FF1FFFF7D2BF10B50B4A0B4C0C48DA
:1026C000002301212370137006F0BEF9012109488F
:1026D00006F0BAF9112108480BF0B2FC0748BDE832
:1026E00010400BF075BE00BF6A24FF1F212CFF1F96
:1026F000D032FF1FB865FF1FF43E0100C412FF1F58
:1027000038B517210F48104C0BF09AFC43F2E42522
:102710000E4B0A225959204600230BF083FE204617
:102720000BF056FE17210A480BF08AFC094B204695
:1027300059590A2200230BF075FE2046BDE83840A7
:102740000BF046BE283F0100C412FF1FD032FF1F0E
:10275000403F0100B865FF1F10B514210E480F4C13
:102760000BF06EFC0E4B0A221968204600230BF07A
:1027700059FE20460BF02CFE14210A480BF060FC99
:10278000094B204619680A2200230BF04BFE204615
:10279000BDE810400BF01CBE583F0100C412FF1FE3
:1027A000082FFF1F703F01000C2FFF1F70B586B070
:1027B000FFF722F9184B194C194E00256420C3F875
:1027C0007854C3F87C540AF031FD2946204605F0C0
:1027D00015FA2046346004F03FFE40B11121114843
:1027E0000BF02EFC10480BF0F3FD06B070BD0E4B45
:1027F0000E4A316801A802F04DF804210C480BF094
:102800001FFC09480BF0E4FD64200AF00FFDFEF701
:1028100081F906B070BD00BF8024FF1FA829FF1FEB
:10282000382EFF1F883F0100C412FF1F9821FF1F91
:102830009C3F01002DE9F041AA49AB4890B006F059
:10284000CDFB002840F03E81A649A84806F0C6FB13
:10285000002840F02C81A64CA64D23680193019BD3
:10286000296840F6B7325B1A934204D9A24B1B7811
:10287000002B40F00A81FEF73DFBA04A1378002BA5
:1028800000F09B809E4F3B78022B236800F204816E
:102890009C4A0393039B106895491B1AFA2B54D941
:1028A0000B68994D05930598DFF89CE209682B8821
:1028B000964E0491DEF800C036F81330049910608B
:1028C0009348DFF898E20374CCEB01021B0A032162
:1028D0004374012A4FF00003C173C0F800E0837411
:1028E00001D9FDF763FE8B4B1B6853B123688A4AFD
:1028F0000693069B12689B1A012B02D98448FDF7A8
:1029000071FE864A137883F0010319460E20137076
:102910000AF04EFC2B887C4A01339BB21A2B40F202
:10292000DF803B787E4D013300243B7014802046CD
:102930001B210BF017FF013436F8102035F8023F49
:102940002A801B2C26F81030F1D10BF04FFB012808
:102950002DDD78230A220CA872490BF0A9FE0CA9E0
:1029600071480BF073FF0CA80BF006FF6F490CA821
:102970000BF042FF0CA96C480BF0B8FF04460CA802
:102980000BF0FAFE002C7DD169490CA80BF034FF46
:102990000CA965480BF0AAFF05460CA80BF0ECFE4D
:1029A000002D00F0DF80634B1C700BF02DFB6248A4
:1029B00006F06CFE10B0BDE8F081604A1178002985
:1029C000C3D05F4F3978022900F2878023685D4ABF
:1029D0000893089B116846485B1AFA2BB5D903681F
:1029E000494D0A930A9E584900682B88DFF8708188
:1029F0000990D1F800E0464838F81330099916607C
:102A00004374CEEB01021B0A504E8374082102234B
:102A1000012AC1730660037401D9FDF7C7FD3D4B60
:102A20001B6853B123683C4A0B930B9B12689B1A9B
:102A3000012B02D93648FDF7D5FD384A137883F0CB
:102A4000010319460E2013700AF0B2FB2B882E4AA0
:102A500001339BB2082B43D93B783D4D2B4E0133BC
:102A600000243B701480204609210BF07BFE0134CA
:102A700035F8023F36F810202A80092C28F810304B
:102A8000F1D162E7FFF7ACF88FE7FEF7B5FF2368F7
:102A90000293029B2B60EEE607932A4B0798274987
:102AA00018600023012008703B7013704DE7194A2D
:102AB0002849136801330124184613600C70FFF78E
:102AC00073FCC8E6244A23491368013300241846DE
:102AD00013600C70FFF768FCB6E63B70137034E7C8
:102AE000138032E7F031FF1FD032FF1FB865FF1FA0
:102AF0002499FF1F242CFF1F3C2EFF1F212CFF1F9A
:102B00007C24FF1F7824FF1FE631FF1F3407FF1FBF
:102B1000842EFF1F7424FF1F9823FF1FF42BFF1F19
:102B20003207FF1FC412FF1F9C23FF1FA43F010099
:102B3000A83F01006B07FF1F3C29FF1F6A24FF1FEE
:102B40007D24FF1FFC2BFF1F901FFF1FF9FFDA18CA
:102B50006A07FF1F7C2EFF1F7024FF1FF9FFEA1872
:102B60006C07FF1FA7490CA80BF046FE0CA9A6484E
:102B70000BF0BCFE04460CA80BF0FEFD7CB9A3498B
:102B80000CA80BF039FE0CA99F480BF0AFFE0446D1
:102B90000CA80BF0F1FD64B1FEF72EFF05E7FEF780
:102BA000BFFA0C219A480BF04BFA9A480BF010FC34
:102BB000FBE699490CA80BF01FFE0CA992480BF0FC
:102BC00095FE04460CA80BF0D7FD14B1FFF7ACFC42
:102BD000EBE692490CA80BF00FFE0CA98A480BF00B
:102BE00085FE05460CA80BF0C7FDBDB18C4ED6F88E
:102BF000780430B100F23C4023462246854903F078
:102C000067FDD6F87C0400283FF4CFAE002300F522
:102C100088601A467F4901F071F9C6E681490CA81F
:102C20000BF0EAFD0CA978480BF060FE04460CA8F6
:102C30000BF0A2FDBCB17A4ED6F8780430B12B4629
:102C400000F23C400E22734903F042FDD6F87C04AA
:102C500000283FF4AAAE00F5886000230E226D49DB
:102C600001F04CF9A1E670490CA80BF0C5FD0CA9C8
:102C700065480BF03BFE04460CA80BF07DFD14B13B
:102C8000FFF794FD91E669490CA80BF0B5FD0CA97E
:102C90005D480BF02BFE04460CA80BF06DFD14B143
:102CA000FFF72EFD81E662490CA80BF0A5FD0CA9EB
:102CB00055480BF01BFE04460CA80BF05DFD14B14B
:102CC000FFF74AFD71E65B490CA80BF095FD0CA9D6
:102CD0004D480BF00BFE04460CA80BF04DFD3CB12B
:102CE000554B56494B4801221A70FDF787FD5CE6AB
:102CF00053490CA80BF080FD0CA943480BF0F6FDDE
:102D000005460CA80BF038FD15B14B4B1C704CE67A
:102D10004C490CA80BF070FD0CA93B480BF0E6FDEC
:102D200004460CA80BF028FD14B1FFF797FC3CE615
:102D300045490CA80BF060FD0CA933480BF0D6FDFB
:102D400004460CA80BF018FD14B1FFF7B5FC2CE6F7
:102D50003E490CA80BF050FD0CA92B480BF0C6FD0A
:102D600004460CA80BF008FD14B1FFF7C3FB1CE6EA
:102D700037490CA80BF040FD0CA923480BF0B6FD19
:102D800005460CA80BF0F8FC15B1FFF79BFB0CE611
:102D900030490CA80BF030FD0CA91B480BF0E2FDEC
:102DA00004460CA80BF0E8FC74B12946042216482E
:102DB0000BF0FCFD2B460D220CA913480BF0DCFD9B
:102DC0000CA8FDF76DFDF0E523490CA80BF014FDF0
:102DD0000CA90D480BF0C6FD05460CA80BF0CCFC69
:102DE000002D3BD02146042207480BF0DFFD23468F
:102DF0000D220CA904480BF0BFFD0CA8FEF740FF04
:102E0000D3E500BFB03F01009C23FF1FB83F010086
:102E1000083F0100C412FF1FBC3F0100C03F01007A
:102E20008024FF1FC43F0100CC3F0100D43F0100BC
:102E3000DC3F0100E43F01002F2FFF1F183F01007E
:102E4000F03F0100FC3F0100084001001440010078
:102E5000204001002C400100344001007C490CA8B6
:102E60000BF0CAFC0CA97B480BF040FD04460CA8F3
:102E70000BF082FC1CB17848FDF762FD95E5754CBE
:102E800076490CA80BF0B8FC20460CA90BF06AFDA3
:102E900005460CA80BF070FC65B10322002120460A
:102EA0000BF084FDA368052B41D06D496D48FDF7FB
:102EB000A5FC7AE56C490CA80BF09EFC0CA92046F9
:102EC0000BF050FD06460CA80BF056FC002E5BD014
:102ED0000622294620460BF069FD20460BF082FDB4
:102EE0002B460CA9042220460BF046FDA2685F4B3E
:102EF0005F491D60032A198099703BD0022A32D0A5
:102F0000012A04BF9DF830209A705848FDF7AAFDA9
:102F100020B304220C21554809F094FF554951482B
:102F2000FDF75EFC51494F48FDF768FC3DE5204642
:102F30000BF058FD0023204606224F490BF01CFDE4
:102F4000062204214C4809F07DFF4C494548FDF715
:102F500047FC49494348FDF751FC26E548494148AB
:102F6000FDF74CFC21E59DF830109DF8312059709B
:102F70009A70CAE79DF830009DF831109DF8322014
:102F8000187059709A70C0E73E490CA80BF034FCD9
:102F900020460CA90BF0AAFC04460CA80BF0ECFB95
:102FA000002C50D038492F48FDF728FC37492D48D0
:102FB000FDF724FC36492B48FDF720FC354929480C
:102FC000FDF71CFC34492748FDF718FC3349254818
:102FD000FDF714FC32492348FDF710FC3149214824
:102FE000FDF70CFC30491F48FDF708FC2F491D4830
:102FF000FDF704FC2E491B48FDF700FC2D4919483C
:10300000FDF7FCFB2C491748FDF7F8FB2B49154849
:10301000FDF7F4FB2A491348FDF7F0FB2949114855
:10302000FDF7ECFB28490F48FDF7E8FB27490D4861
:10303000FDF7E4FB26490B48FDF7E0FB254909486D
:10304000FDF7DCFBB1E424490648FDF7D7FBACE40F
:103050003C4001009C23FF1F0832FF1F4840010035
:1030600060400100C412FF1F944001007829FF1F37
:10307000303030009C4001006424FF1F4C400100B0
:10308000B4400100CC400100D4400100F0400100F8
:103090003441010084410100C0410100E4410100CC
:1030A00004420100284201004C4201007442010028
:1030B000AC420100D0420100084301003C43010042
:1030C0005C4301007C430100C44301000C44010047
:1030D0004044010084440100F44401002DE9F04F14
:1030E00093B009F01DFE7F4B7F48804D804E814F8D
:1030F000DFF85CA2DFF85C92DFF85C82002483F8E2
:10310000014283F8224283F8234206F08FFC7A4B77
:103110007A49C3F898644FF0260B794EC3F8784487
:103120002A46C3F87C4483F8944483F8AB44C3F83C
:10313000AC44C3F8887483F8A8B4C3F8B0641846E4
:103140000BF060FD6F49704E0C714FF47A738B6019
:1031500001936E4B0C732A468C64CC640B6008465A
:1031600051460BF04FFDDFF8F4E1019BCEF808303B
:103170008EF804408EF80C407046644BCEF8003058
:103180002A465146CEF84840CEF84C400BF03AFD66
:10319000214648460BF030FB2A46414648460BF094
:1031A00031FDDFF8BC915A4801231A461C2106F074
:1031B000C9F9214648460BF01FFB2A4641464846BE
:1031C0000BF020FD0AF00EF8524B18600AF00AF8D6
:1031D000514B18600AF006F8504B514A1968039198
:1031E000DDF80C9019680491DDF8108019680591DC
:1031F000DDF814C01968069110604A48DDF818E03F
:1032000019680791C0F800904748DDF81CA01968BC
:103210000891C0F80080454808991A680992C0F8DA
:1032200000C0DFF840814248099AD3F80090CDF8F9
:103230002890C8F800E0C0F800A0DFF82C81DFF883
:103240002CC13C48DDF828E0C8F80010CCF800207C
:10325000C0F800E01A680B92DDF82CA01A680C92F6
:10326000DDF830901A680D920D991A680E920E983A
:103270001A680F92DDF83C801A681092DFF8F0E0CF
:10328000DDF840C01B681193194BCEF810302A4B63
:10329000CEF800702A46294DC3F80090284B8EF8CE
:1032A00020B0C5F800A0DDF84490DFF8C8B0254F85
:1032B000254DC3F80090124B8EF80C40CBF800104F
:1032C0003860C5F800C02149C6F8008070468EF805
:1032D0002340CEF82830CEF824400BF093FC13B0F6
:1032E000BDE8F08F641DFF1F9C2EFF1F3007FF1FDE
:1032F00084470100DC4701008024FF1F8104000097
:1033000003200038402FFF1F402EFF1F1C3B0100F1
:103310003C29FF1F942FFF1FEC31FF1F2499FF1F33
:103320001832FF1F6C24FF1FE831FF1F182FFF1FEB
:10333000442EFF1F9823FF1F7824FF1F9421FF1F97
:10334000482EFF1F242CFF1FEC2BFF1F79040000C9
:10335000AD0400001C2FFF1F79E700003032FF1F73
:103360009C23FF1F142FFF1FF02BFF1F901FFF1F19
:10337000A829FF1FFC2BFF1F10B50446806C28B145
:1033800002F056F910B10023A36410BDE06C28B11F
:1033900000F0BCF810B10023E36410BD002010BDA4
:1033A00000293BD02DE9F0410C46054698461746CA
:1033B000FFF7E2FFD4F87864B6B105F110012420DC
:1033C00005F01CF90021017041708170D4F8781467
:1033D000A86443463A4602F0AFF910B10120BDE8B7
:1033E000F081A864BDE8F081D4F87C34C3B105F164
:1033F0001001382005F002F980F8316080F8326061
:1034000080F83360D4F87C14E86443463A4600F010
:103410002BFD0028E2D1E864BDE8F0810020704770
:103420000020BDE8F08100BF70B500260546C0F859
:103430008014C0F8786401464FF48F6005F0DEF820
:103440000446466001F0EAFCC4F8106204F503701B
:1034500001F0E4FC84F83C6484F8716484F87264DC
:1034600084F87364D5F88064C5F87C4431462046FE
:10347000012201F09BFD68B104F58866304600F03A
:1034800045F82146304600F0ADF850B11E4B012002
:103490001D6070BD02463146204601F087FD0028C0
:1034A000EAD10026C5F87C6429464FF48C6005F00B
:1034B000A5F8C67180F83C6480F83D6480F83E64ED
:1034C000D5F88064C5F8780401223146044603F03B
:1034D0003BFB80B104F23C46304602F0A9F821469D
:1034E000304602F031F90028D0D1074B0020186097
:1034F000C5F8780470BD02463146204603F024FB2F
:103500000028E7D1F1E700BF8032FF1F10B5044665
:1035100000F0CAFE002384F8313084F8333010BD47
:10352000F0B50878202803D111F8010F2028FBD02E
:1035300051600878002851D02F282BD05C2820D04B
:10354000A0F12204E4B21D2C1DD9DFF894E04E1C3A
:1035500000247C28A0F12005374612D05E2D10D81B
:1035600016F8010BA0F12205EDB2013478B32F2833
:1035700011D05C282EFA05F703D01D2DE9D8FD07E0
:10358000E7D50020F0BD164D25FA04F4E607DCD59A
:103590000020F0BD00240F193E4625462F2002E0F2
:1035A00016F8010F01352028FAD02F28F8D0294429
:1035B000196044B1394611F8013D2E2B01D0202B62
:1035C00008D1013CF7D1204610600120F0BD1F60FA
:1035D0000F19EFE7FF2CF6DD0020F0BD1960F3E7CF
:1035E0000101003590F831200AB10020704738B54C
:1035F00004460D46114638220CF00EFD40230120F2
:1036000084F8313084F83300256238BD2DE9F04765
:1036100000F1240307468A4693E8070084B097F830
:1036200031300DF1040888E80700002B3AD097F8F4
:103630003030012B36D94FF001090024B9F1010FC8
:1036400014BF202240224146386A01F0ABFD012818
:1036500028D100224146386A01F08AFD10B3037870
:10366000C12B1FD1054604F10F0635F8021FA9B181
:10367000DAF800307E2994BFC9B23F211B680134BB
:1036800050469847A642F0D109F1010997F8303029
:103690005FFA89F94B45D1D8304600E0204604B0A6
:1036A000BDE8F087002004B0BDE8F0872DE9F047C1
:1036B00090F833300446D80782B040F1B2800D460E
:1036C0005906164640F1B880D4E90001D4E9042334
:1036D00010EB060841F100094B4508BF4245C0F018
:1036E000B180002E00F0B080A146F9E80623B04674
:1036F00055E0134371D194F831305B064CBFD0F8DC
:103700002C14E169A16190F83DE4D0F82434023929
:103710007F0A01FA0EF2F9181144BAF1000F48D1EC
:10372000B8F5007F45D3D0F81432994241D0B8F5AE
:10373000806F59D394F8332052064FEA582A07D4A1
:10374000012202FA0EFEC7EB0E07BA4528BFBA46A1
:1037500099424FEA4A270CD30AEB01029A4208D950
:1037600000F50370019101F0BFFB002859D0206AD9
:103770000199D0F8380402685346D2F80CA02A46C2
:10378000D04700284DD038460021D4E90023121834
:103790004B41B8EB07083D44C4E9002354D0206AEC
:1037A000D0F830741740C7F3080A002FA1D0A169E0
:1037B000A9E700F50370002201F036FB88B3CAF5D3
:1037C0000077474528BF474600EB0A013A4628469E
:1037D00009F042F838460021D7E794F8333059060B
:1037E0000FD5A16901318DE7D0F8380403682A4666
:1037F0009B689847A8B14FF4007000214FF4007700
:10380000C3E74A46A16901F0F9FC40B2002808DB91
:1038100002D0206AA16976E794F8313013F0500F96
:1038200014D194F832304FF0FF3043F0020384F8A3
:10383000323002B0BDE8F08794F831301A073FF516
:1038400043AF4EE7161A4CE74FF00008C8EB0600EE
:1038500002B0BDE8F08700BFF0B583B001220DF1E2
:1038600007010446D0E900678569FFF71FFF0128BB
:1038700008BF9DF80700A56118BF4FF0FF30C4E9ED
:10388000006703B0F0BD00BF2DE9F04F90F831E0C4
:10389000856983B00446BEF1000F1BD0D0E900015A
:1038A000994208BF904216461F463BD056EA07038E
:1038B00007D10023A3610120C4E9006703B0BDE87C
:1038C000F08F1EF0080F0AD0D4E90423BB4208BFD2
:1038D000B24204D2A561002003B0BDE8F08F236A94
:1038E000019393F83DC494F833A00CF1090C5FFAEE
:1038F0008CFC16F1FF3247F1FF33CCF1200803FABC
:1039000008FB22FA0CF242EA0B02ACF1200B23FA7C
:103910000BF31AF0400F42EA030205D0E3691A44A0
:10392000A261C8E70120D7E710F1FF3941F1FF3A62
:1039300029FA0CFC0AFA08F84CEA080C2AFA0BFBE4
:103940004CEA0B0C6245534617D21EF0400F16BFCF
:10395000019BE369D3F82C34A361904604F1180964
:103960004A46B8F1000FA6D0A169206A01F046FCD2
:1039700008F1FF380028F3D1ACE750EA0103E4D0A6
:10398000CCEB0202E9E700BF2DE9F04F93B090F8CD
:10399000314000920D469DF87010029106462CB9F8
:1039A0009A4695F8313013F0500F07D1002086F871
:1039B000310086F8330013B0BDE8F08F009B002B78
:1039C00000F0118122465146009801F011FD95F852
:1039D00031300490002B40F0FB80B84A0AF10E030E
:1039E00082FB03121A44DB17C3EBE203029ADBB239
:1039F00002F00702059302334FF000095FFA83FBE0
:103A000042F0400301924C464F46039320220AA9FC
:103A10002846FFF74BFE00283DD02028C6D19DF850
:103A200028301A0663D4002C5ED12A68A969079150
:103A3000203A08920134E4B26BB3C02B00F09E80B0
:103A4000C12B5FD0852BE1D13822002130460CF00C
:103A5000E3FA9DF82C309DF8292086F8302003F0F9
:103A60003702DB0658BF42F0080286F831202B6887
:103A7000296AAA697262203B3162B36295F83330D9
:103A8000C3F3801386F82C3020220AA92846FFF7BA
:103A90000DFE0028C1D1029B03F04203422B85D1C9
:103AA000009B002B82D05C450DD39EE020287FF444
:103AB0007DAF24B92A68A9690791203A0892DCB23F
:103AC000A34540F2928020220AA92846FFF7EEFD86
:103AD000631C0028EAD12846AF6900F015FC0028D5
:103AE0003FF464AFAF61EBE75C45A5D2A2E7B9F163
:103AF000000FA2D15C4538BF0024852B86D14FF042
:103B00000109A1E7C7EB0A085FFA88F8B8F10F0FBF
:103B100028BF4FF00F0843463A4600990AA801F023
:103B200085FC00284BD04744FFB2BA457FF46EAF06
:103B3000029B18063FF53AAF029B13F0320F05D0F7
:103B400096F8313013F0110F7FF430AF029AD1069E
:103B5000134640F1B5809A077FF528AF0022002375
:103B60003046FFF791FE00283FF420AF304600F0CA
:103B700041FC00283FF41AAF01201CE79DF82930D2
:103B80009DF8042086F833209F0744BF9DF80C3031
:103B900086F83330DDE90C23DDE91001C6E90423A2
:103BA0000F9BF361009BC6E90201002BC0D09DF87A
:103BB0002B30534505D04FF000094F4626E781468C
:103BC00024E7BDF82C30049A9342F4D100271DE776
:103BD000D5E9002313433FF400AF00220023C5E9D9
:103BE0000023AC61F9E60493F7E695F83330382208
:103BF000C3F380130021304607AC8DF824300CF05D
:103C00000BFA2B6A029D336294E8070005F0070760
:103C1000082567F07D0986F831500AF11E0706F184
:103C2000240585E80700FFB2009DCDF800904FF015
:103C3000000818460122214601F09AFA8146002820
:103C40003FF4B4AE90F90020002AFFF6AFAE202278
:103C500000210CF0E1F9B8F1000F53D0B8F1010FD9
:103C60003FD0C8EB08120F2FA2F11E024FF0C10186
:103C7000384628BF0F20D2B289F8001058B109F198
:103C8000020300B203EB40002A4412F8011B23F8A0
:103C9000021B9842F9D108F101085FFA88F8C34580
:103CA0001BD920222146306A01F07CFA01287FF4DA
:103CB0007DAE0F3FFFB2306ABCE700BF89888888BD
:103CC000029B9B067FF558AFD6E904233046FFF7E9
:103CD000DBFD00287FF450AF68E6304600F0E4FAE0
:103CE00069E69DF80030C021032289F8001089F8A8
:103CF000012086F83330BDF8103089F803A0A9F808
:103D00000430C8E7059B5A1CD2B285210B4B89F8B9
:103D1000001086F8302089F801201A68002ABAD0ED
:103D20000DF11A0106A89047BDF81A10BDF8182029
:103D3000A9F80810A9F80A20ADE700BFCC32FF1F90
:103D400090F8313053B930B591F8314014F0500447
:103D500083B00D4604D1204603B030BD002070472B
:103D6000D5E90045002504F01F042C4302D0184675
:103D700003B030BD00921A46FFF706FE03B030BD17
:103D80002DE9F041044694B094F83150039200209C
:103D90008DF849008DF84A008DF84B0035B99846EA
:103DA00091F8313013F0500F0E4603D1002014B0BB
:103DB000BDE8F08113782F2B154627D001271BE093
:103DC000039B1B782046002B35D0059A9DF81030B8
:103DD0000097FFF7D9FD342221460028E6D006A837
:103DE00008F03AFD204600F05FFA0023039D84F8B6
:103DF000313084F8333006AE294603AB04AA20469E
:103E0000FFF78EFB31460028DAD1CFE70135039565
:103E100029782F29FAD0D1B1382206A80021376A93
:103E20000CF0FAF84022012306AE0E978DF84920D7
:103E30008DF84B30C2E79DF81030059ACDF8008020
:103E400031462046FFF7A0FD14B0BDE8F0813822CE
:103E50002046356A0CF0E0F840230120256284F802
:103E6000313084F83300A2E721B1DBB201F588617B
:103E7000FFF786BF0846704770B586B006AD0022D2
:103E80000469436905F8042D0E4619460A220023E9
:103E900020460BF06DFB303400EB8003A4EB4304B1
:103EA00050EA010205F8014D0B460446EDD102AB84
:103EB0009D4206D92946202201F8012D9942FBD1C5
:103EC00002AD28460CF09CFB3368024629465B682D
:103ED0003046984706B070BD034610B5006A0C46E0
:103EE000002203F1240101F043F928B1C168204602
:103EF000BDE8104004F07EBB10BD00BF2DE9F043CB
:103F00008FB000241746804600221E4600230D462F
:103F10008DF831408DF832408DF8334007F00209BA
:103F2000FFF7B2FC0122414668465FFA89F9FFF7C4
:103F300007FF002840D09DF83130980701D5F907D8
:103F400030D5002446B12B68013420211B68284657
:103F5000E4B29847A642F6D1B9F1000F3FD17A07F3
:103F600033D429466846FFF751FB9DF8313013F0F2
:103F7000500F24D12B680D211B68284698472B68C9
:103F80000A211B68284698473B070BD59DF831301E
:103F900013F0500F06D0B31CDBB23A4629466846F0
:103FA000FFF7ACFF6846FFF7B1FA012241466846C9
:103FB000FFF7C6FE0028BED10FB0BDE8F0832B6826
:103FC0002F211B6828469847D4E729466846FFF703
:103FD00053FF2B6820211B6828469847C1E72946D4
:103FE0006846FFF779FF2B6820211B682846984711
:103FF000B5E700BF8169F8B50446006A01B1013137
:10400000012200F079FF012806462FD9012301463D
:104010001A46206A01F03AF8074638B3A06994F8C6
:10402000333030B35A0613D5421C964225D023F0C4
:10403000400284F83320E36905E0206A01F0E8F8E3
:10404000A0B1A0692B465D1C834219462A46F4D3D1
:104050004FF0FF323146206A01F0DAF830B1A16941
:1040600059B13246206A01F0D3F830B900273846FA
:10407000F8BD43F0400384F83330A6613846F8BDFC
:104080002DE9F04300F12403054693E8070085B0CD
:1040900095F8333001AE86E807009A071BD5E96929
:1040A000E9B9002401223146286A01F061F801349F
:1040B000E4B280B1037803F07F03037095F83030E9
:1040C000A34231D3002CEDD020223146286A01F0E2
:1040D00069F80128E6D0002005B0BDE8F0835B0652
:1040E000286A1CD5D5E9022390F83D440934E4B28E
:1040F00012F1FF3843F1FF39C4F1200709FA07F73D
:1041000028FA04F2A4F1200329FA03F33A431A43EC
:104110000132002300F0BAFF0028C2D1DBE701F032
:1041200089F80028BDD1D6E72C6A0023204685F8FF
:10413000313085F8333000F0D7FE0028CBD004F5BD
:10414000037000F0D1FE0028C5D0D4F8380403680D
:104150005B699847C0E700BF2DE9F04F00F1240AE2
:1041600006469AE8070087B00DF10C0888E80700BA
:104170000027DFF830B1B9463C4600224146306A9C
:1041800000F0F6FFFBB2054630B10078C0284DD0F4
:10419000C1282BD0852809D096F8323043F001038E
:1041A00086F83230002007B0BDE8F08F96F8311065
:1041B000DBF8002095F8019001F03701A980AAB141
:1041C000306A019390F80C1241F0010180F80C1252
:1041D0000DF10A0102A89047BDF80A10BDF80820A9
:1041E0002878019BA9812982EA816A82002115F839
:1041F00001E0E20342EA54041EFA84F40129A4B265
:1042000001F101010DD01F29F1D999452CD02022AF
:104210004146306A00F0C6FF012807F10107ACD023
:10422000BAE785280CBF04210221E0E796F8332085
:1042300012F0400F6A7814BF42F0020222F002022C
:104240006A70D6E90401C5E90201D6E90201F26902
:104250006A61C5E90601316A91F80C2242F0010257
:1042600081F80C222878C1E751460122306A00F01B
:104270007FFF002890D0356A4480284600F034FE45
:10428000002889D005F5037000F02EFE002883D0A9
:10429000D5F8380403685B69984700283FF47CAF81
:1042A00081E700BFCC32FF1F90F8312092B138B5C2
:1042B00090F8332011060FD4056A0446284600F012
:1042C00013FE88B994F8323043F0010384F8323099
:1042D000002038BD0120704702F07F0280F83320B3
:1042E000BDE83840FFF738BF05F5037000F0FCFD6E
:1042F0000028E7D0D5F8380403685B6998470028A0
:10430000E0D0012038BD00BF2DE9F04190F83130F8
:104310005906044663D48068236AD3F834341844B9
:10432000B0F1806F02D30020BDE8F0812046FFF796
:1043300061FE0028F7D0266A96F80C32DA0706F5F7
:10434000037550D4284606F5067600F067FD4FF455
:104350000072002130460BF05FFE226AA36992F8DA
:104360003D04D2F82414A3F10208012708FA00F84A
:1043700017FA00F3884418BF002511D0D2F838048A
:10438000036808EB05019B69324698470135002810
:10439000C9D0226A92F83D3407FA03F3AB42EDD854
:1043A00094F831305B0615D494F8333063F07F0312
:1043B00084F83330D2F83464D4E90223D4E9040118
:1043C00092194FF000077B4180197941C4E902231B
:1043D000C4E904012046BDE8F041FFF765BF006A6B
:1043E00000F0A2FF98E7284600F07EFD0028A9D142
:1043F00099E700BF90F833309A0718D5F0B5C56932
:1044000083B08DB103F04003044603F0FF0083B98D
:10441000A169002941D10195E1612946206A00F096
:1044200009FF30BB002000E0012003B0F0BD0020F8
:104430007047206AA16990F83D34D4E902670933D6
:10444000DBB216F1FF36C3F1200E47F1FF3726FA33
:1044500003F207FA0EFE203B42EA0E0227FA03F3AC
:104460001A430132B1B1013D6D1A01312A44019163
:104470000ABBD4E9000194F8333063F07F03C4E948
:104480000201C4E9040184F833302046FFF70CFF31
:1044900003B0F0BD0195E161EAE702AA42F8040D1C
:1044A000206A00F0ABFE40B20028BBDB0AD1019DC0
:1044B000002DDED0B1E70023019900F0E7FD0028D0
:1044C000D7D1AFE74FF0FF32A169206A00F0A0FE1C
:1044D0000028ECD1A6E700BF2DE9F04F90F833306B
:1044E00085B09C07064601920AD496F8323043F014
:1044F000010386F832304FF0FF3005B0BDE8F08F91
:104500005A078A4600F11281019B002B00F022819C
:104510003146F1E80623DDF8048003919346306AC2
:10452000B569D0F830445B461C40C4F308094CBB65
:10453000002D00F0BE8096F833305B0640F1DD8040
:10454000D6E9022390F83D740937FFB212F1FF3229
:1045500043F1FF33C7F1200E03FA0EFE22FA07F1F2
:10456000203F23FA07F741EA0E01F36939430B4470
:104570009D42C0F0B5803046FFF73CFD0028B4D026
:10458000306AB569D0F8247490F83DE4640A023DBD
:10459000E11905FA0EF52944B9F1000F40F08280C7
:1045A000B8F5007F57D2D6E90423D6E90045B8F51F
:1045B000007F474628BF4FF400779D4208BF9442D2
:1045C00034BF0122032200F5037000F02DFC002807
:1045D0008BD048443A465146B94408F03DF9B9F504
:1045E000007F00F0928038460021D6E90023D6E90A
:1045F000044512EB000B43EB010C65455A4663463C
:1046000008BF5C45BA44C7EB0808C6E9002309D2D5
:1046100096F8331064465B46C6E9043461F07F01C6
:1046200086F83310B8F1000F7FF479AF5A4663462D
:10463000D6E90201994208BF90427FD3474B1B68DD
:10464000002B00F0858096F83330019863F07F03EB
:1046500086F8333051E7B8F5806F2ED3012303FA83
:104660000EFEC4EB0E0ED0F814324FEA58247445F7
:1046700028BF744699424FEA442709D362189A42E8
:1046800006D900F50370029100F0C8FB306A029968
:10469000D0F83804056823465246EC69A047002844
:1046A000A1D122E7C9F50077474528BF4746012237
:1046B00089E7F569BDB1B56164E7D0F81432994274
:1046C0002CD0D0F83804036852469B6998470028DC
:1046D0003FF40BAF4FF4007000214FF4007784E7F4
:1046E0000135B5614EE73046FFF784FC00283FF402
:1046F000FCAEB569F561306A44E72946039A00F0DB
:104700007DFD00287FF43CAF35E7306A00F503708B
:1047100000F0EAFB00287FF466AFE6E600F50370E0
:10472000029100F07BFB306A0299CAE7D0E90423CA
:10473000FFF7AAF800283FF4D8AEE5E696F8331064
:10474000019861F07F01C6E9022386F83310D4E6B0
:104750000198D2E6D6E900236AE700BFCC32FF1FFA
:104760008368C3F308038BB100210269D15401337C
:10477000B3F5007FF9D1C3680269016810B41C6801
:10478000A469184623465DF8044B1847012070477A
:1047900082680346C2F30802006930B481545D6840
:1047A000986840F2FF1401EB75010130A242596094
:1047B000986002D0012030BC7047D868196804683E
:1047C0001A69A4694D1C1D60234630BC184700BF00
:1047D00038B50C46C9B20546FFF7DAFF00B938BD57
:1047E000210A2846BDE83840FFF7D2BF2DE9F8433B
:1047F00000268046016086604660B0B200F0A0FDF1
:10480000B042814605460DD001464046FFF7E0FF25
:10481000A0B30136B6F5803FEFD34046BDE8F8437C
:10482000FFF79EBF741CB4F5803F14D1C6F58037E6
:10483000B7F5007F4FF480341AD2A9B24046FFF793
:10484000C7FF0135D0B1A542F7D32E46E2E70134C8
:10485000B4F5803FEAD0A0B200F072FDA042F6D0DD
:10486000A71BB7F5007F03D2A642E6D34E46C4E7A6
:104870004FF6FF714046FFF7ABFF10B90020BDE8CF
:10488000F883B9B24046FFF7A3FF0028F6D02646CA
:10489000C0E700BF2DE9F04F16460A68C160066107
:1048A0008DB08146126908460F4698469047B0F58C
:1048B000801F15D2B8F1000F0DD0D8F80030AB49E9
:1048C0005B68152240469847D8F80030A8495B68D5
:1048D00040460F229847002420460DB0BDE8F08FD7
:1048E0000222012301E090424CD90133DBB2202B9C
:1048F0004FEA4202F7D1A3F10B0252100121D4B2C8
:10490000914005940391013301245B1004FA03F3F1
:10491000049303FA04FA9B000193019BC01A20FA46
:1049200002F303FA02F400214FF4007230460293BE
:104930004FF0010B0BF070FB0025FF230721FE2237
:1049400086F8C21186F8C32186F8BFB186F8C0B1D7
:1049500086F8C15186F8C43186F8C5313B68C6F87F
:10496000C6A14AF6552254449B69C6F8CA41A6F826
:10497000FE212946324638469847B0B9B8F1000FB3
:10498000A2D1A8E71C2BB6D808221A2B059200F258
:10499000B0814FF4004301934FF4807303934FF4BD
:1049A00000534FF4804A0493B7E729464FF400724E
:1049B00030460BF031FBEB233370762090214522FB
:1049C0006C4B7070B170F2701B68B464049C0B93F4
:1049D00034657465029CDDF82CE0F46558209DF880
:1049E00014407564462141225423F564A6F86A50A8
:1049F00086F86D4086F870502024C6F864E0307167
:104A00004FF0040C4FF480754FF0090E8020717147
:104A1000B271F371C6F840A0C6F858A086F86EB01F
:104A200034727472B472C6F860C0A6F8685006F1A9
:104A3000770386F86CE006F2FD1186F86F00F42229
:104A400003F8012F9942FBD14AF655220023A6F81C
:104A5000FE211C46012501E001330135A3F16A0264
:104A6000012A04D9702BF7D0F25C02EB7404B5F57F
:104A7000007FF1D13B6832469B69514638469847E2
:104A800000283FF47BAF3B6832469B690AF10C017A
:104A90003846984700283FF471AF2A460021304637
:104AA0000BF0BAFA4AF65523A6F8FE310AF10903CB
:104AB0000593731ECDF824900AF1010B069306F2BC
:104AC000FF15CDF820A09946CA464B4613F8012F92
:104AD0009D4202EB7404F9D13B6832469B6959460A
:104AE0003846984700283FF449AF3B6832469B69F7
:104AF0000BF10C013846984700283FF43FAF059B67
:104B00000BF1010B5B45DFD1DDF82490CDF81CA043
:104B10004FF40072DDF820A0002130460BF07CFA43
:104B2000CDF82090DDF814900AF10B0B069B13F8DA
:104B3000012F9D4202EB7404F9D13B6832469B6918
:104B400049463846984700283FF418AF3B6832463C
:104B50009B6909F10C013846984700283FF40EAFD5
:104B600009F101035B4507D09946DFE704450100E1
:104B7000644501002499FF1FCDF81490DDF82090C2
:104B8000331F06F5FE7243F8044F9342FBD13B6896
:104B900059469B6932463846984700283FF4EEAEA6
:104BA0003B6805999B690D31324638469847002885
:104BB0003FF4E4AEB8F1000F06D0D8F800308949D0
:104BC0005B680C2240469847029B4FF4007200211C
:104BD00030469D000BF020FA3346F82203F8132BE1
:104BE000049A0799524405F2072514466A0A1046AA
:104BF000FF2201F8012F8B42FBD14FF0000B23461F
:104C0000CDF810905C46AD0B81469B4604E0002C2D
:104C100068D00134A1451CD0B4FBF5F305FB134368
:104C20004BB9012270494046B8F1000F03D0D8F8C3
:104C300000305B6898473B6832469B6904EB0B0188
:104C4000384698470028E2D1B8F1000F7FF43CAE17
:104C500041E6DDF81090B8F1000F30D0D8F8003000
:104C600062495B68022240469847029C039B0734D6
:104C7000E40804F2FF156D0A9D423FF625AE4FF49D
:104C80000072002130460BF0C7F9072333704FF054
:104C9000000B06E0BBF1000F7ED00BF1010B5D4570
:104CA0002BD03B6801999B69324659443846984756
:104CB0000028EFD1B8F1000F7FF406AE0BE6029C9E
:104CC000039B0734E40804F2FF156D0A9D423FF68A
:104CD00002AE4FF40072414630460BF09DF90723B7
:104CE0003370D4E74FF40072214630460BF094F94C
:104CF0008FE74FF48071039105E6B8F1000F5ED0A5
:104D00003B494046FBF76CFD039B4FEA4A0A0AEB1E
:104D100003014846FFF76AFD00283FF4D5ADD9F8F6
:104D20000830039AB3EB422F3FF6CEAD31494046EF
:104D3000FBF756FD4FF40072002130460BF06CF982
:104D40000323822281200221337086F820007163C0
:104D500086F84020D9F8042072647365039AD9F864
:104D60000830B3650025B4630AEB420AF56504E038
:104D7000F5B1039B01359D4211D03B6832469B69DA
:104D80000AEB05013846984704460028F0D1B8F1EF
:104D9000000F7FF499AD9EE586F800B07DE7B8F18D
:104DA000000F3FF499AD40461349FBF719FD93E519
:104DB0004FF40072294630460BF02EF9D9E7039BD9
:104DC0004FEA4A0A0AEB03014846FFF70FFD0028A5
:104DD0003FF481ADD9F80830039AB3EB422F3FF688
:104DE0007AADA7E71C450100983F0100404501004E
:104DF0002C450100444501005445010010B500F167
:104E00000C0204464068A16803689B69984718B182
:104E1000237823F00103237010BD00BF00224FF060
:104E2000FF33027083607047F8B54568FDB1836851
:104E30008B42044617460E460ED00378DA0712D48A
:104E4000BB0716D504F10C0507F00102002313433C
:104E500023702846A660F8BD10F90C3B07F001024C
:104E600013432370F8BDFFF7C9FF0028E8D10020E5
:104E7000F8BD6068036804F10C059B682A4631465A
:104E800098470028E0D1F2E738B50C46D0F81C145A
:104E9000154601EBD41100F503700022FFF7C4FFA3
:104EA00040B1A400C4F3080403595A1C04D02B6079
:104EB000012038BDFF2038BD002038BD38B50C4674
:104EC000D0F81C14154601EBD41100F50370012233
:104ED000FFF7AAFF034628B1A400C4F30804012089
:104EE0001D5138BD38BD00BF0378DB0701D4012058
:104EF0007047FFF783BF00BF2DE9F84F804691460A
:104F00008B46002944D08F1ED8F828349F423BD2CC
:104F100007F00705012303FA05F5EDB2C7F3C80A48
:104F20003E463C46D8F82414002201EB143140469A
:104F3000FFF77AFFC0B110F80A100AE04A452AD0FC
:104F4000A74210D0D8F82824944217D213F0FF05B6
:104F50000CD001340D424FEA4503A4EB0602EDD01C
:104F6000A7422646EED10120BDE8F88F0AF1010ADA
:104F7000BAF5007F4FF00105DDD101E0002634468F
:104F80004FF0000A0125CDE70027BA460125C7E703
:104F9000D0F81874B8E7BBF1000F04D1B9F1010FD4
:104FA00008BFC8F81864B01CBDE8F88FF8B504460F
:104FB00000234FF0FF3600F50377C0F83814416046
:104FC000C0F810121546384684F83C34237084F833
:104FD0000C32A660C4F814621A461946FFF724FF83
:104FE000042D0CD8064650B15DB905222649F01CA7
:104FF0000BF074FB18B996F86C30092B19D000200F
:10500000F8BD6B1E00EB031393F8BE2112F07F0274
:10501000F5D193F8C231002BF1D000EB05153846DD
:10502000D5F8B6512946FFF7FFFE06460028DCD129
:10503000E5E7336D2B44C4F81C34736DC4F8203499
:10504000B36D1D44C4F82454F36DC4F82834336E92
:10505000C4F82C3496F86D3084F83D3401250933BA
:1050600005FA03F35A1EC4F818040146C4F8343490
:10507000C4F8302420462A46FFF73EFF402384F838
:105080003C342846F8BD00BF744501002DE9F047C7
:1050900002398046D0F8280415468A18824238D84A
:1050A0009A46D8F81834BAF1000F35D1994238BF72
:1050B000C8F8181401F007040122D8F8243402FAC1
:1050C00004F4E4B203EB1139C1F3C80601224946E6
:1050D00040469144FFF7A8FED8B1871900F500704B
:1050E00017F8012B224214BF01260026564582EAFA
:1050F00004024FEA44040CD0013D07F8012C15D0FE
:1051000014F0FF04EED1B84226464FF00104E7D177
:10511000DCE70020BDE8F0879942CBD89A42C9D994
:10512000824228BF0022C8F81824C3E70120BDE846
:10513000F08700BF70B582B002AE054646F8041D88
:105140000024D5F8283401990133994202D900206E
:1051500002B070BD32462846FFF796FE40B20028E6
:10516000F5DB04F10104ECD1204602B070BD00BFB4
:10517000F8B50E4696E82800D0F83014D0F824444C
:1051800090F83D742940023B04EB5121BB40194487
:1051900000F50370FFF748FE18B17368C3F3080306
:1051A0001844F8BD70B54C680D46A318D0F83014FB
:1051B0006B6090F83D340C4009332244DBB222FA94
:1051C00003F406463CB12B7A3BB12B6801332B60CC
:1051D000013C002CF7D1012070BDD6F82834296895
:1051E0000133994202D94FF0FF3070BD2A46304654
:1051F000FFF74AFE40B20128EAD070BDD0F828344B
:1052000001338B4201D2FF207047FFF73DBE00BF44
:1052100001290DD9D0F828340133994210B403D9AB
:1052200000205DF8044B70475DF8044BFFF746BE65
:1052300000207047F0B50C4683B005460E46D5F801
:10524000283401339C4202D9002003B0F0BD01AAEA
:1052500021462846FFF718FE47B2002FF4DB012C49
:10526000F2D9D5F8283401339C42EDD800222146EA
:105270002846FFF723FE0028E6D0019B01349C421C
:105280000BD1002FDBD13B46A21B31462846FFF74E
:10529000FDFE0028D8D003B0F0BDA21B314600238C
:1052A0002846FFF7F3FE0028CED0019C002FCCD07B
:1052B0002646C4E72DE9F8430024D0F8246480464C
:1052C00000F5037725463146002238460136FFF7C0
:1052D000ABFD30B300F1FF3ED8F828C41EF8010F33
:1052E000FF2805F5805913D048B108220123184240
:1052F0004FEA430118BF0134013ACBB2F7D1083568
:10530000AC450AD94D45DED01EF8010FFF28EBD180
:105310000835AC4504F10804F4D8C4EB0C00BDE832
:10532000F883BDE8F88300BF10B50446D0F82C140C
:10533000FFF700FF94F83D340933DBB2984010BD0D
:105340007E2808D8A0F16103192B8CBF00232023ED
:10535000C01A80B2704730B40023234D352405E0D5
:1053600035F8221081428CBF14461346E11A0129F8
:1053700003EB5102F4D89BB21B4935F8232090422D
:1053800019D24B240023194D05E035F82210814233
:105390008CBF14461346E11A012903EB5102F4D8DD
:1053A0009BB2124A35F82310814204BF02EB8303FB
:1053B000588830BC704701EB8303821AD9788A423F
:1053C000DFDA93F90230012B08D023B19BB21844E5
:1053D00080B230BC70474EF2A033F8E702F0010211
:1053E000801A80B2E5E700BFA84601007C450100B5
:1053F000C9B110B40144D30343EA520310F8012B9E
:10540000A2F16104192C9CBF203AD2B212FA83F2A5
:1054100092B2D30343EA5202814292B2EBD11046D8
:105420005DF8044B70471046704700BF43B370B43B
:1054300044887E2C1ED81344CD180A44023012F83A
:10544000013BE4B2A3F161011929A4F1610194BF08
:1054500020260026192994BF202100219B1B641AB5
:10546000DBB2E4B29C4205D1AA4206D030F8024F2A
:105470007E2CE4D9002070BC7047012070BC7047BE
:105480000120704738B504460D46242200210AF059
:10549000C3FDA560EB79102B08D0202B04D140234D
:1054A00001202370A07038BD002038BD20230120CA
:1054B0002370A07038BD00BF024638B552F8105FA7
:1054C00004462946806801F08FFA50B155B123692E
:1054D0000135AB42A37818BF03F0BF0363F07F032D
:1054E000A37038BDA37843F04003F7E72DE9F041FE
:1054F000037803F020032BB903F0FF0441691F4B2D
:10550000994203D900263046BDE8F0810546FFF7F1
:10551000D3FF06460028F5D02969A86801F002FAF1
:105520000746A86839462430052201F0C3F98046B1
:105530000028E7D04FF4007221460AF06DFDAB68F9
:105540001A79012A10D9012403E0AB681A79A24222
:105550000AD918680368E1199B69424698470134E3
:10556000E4B20028F1D1CDE79B7969694FF400726C
:1055700002FA03F311FA83F36B61C4E7FFFD1F0026
:1055800010B5044680680A462430A16901F092F9FA
:1055900020B1A38803F00F0300EB431010BD00BF40
:1055A00030B590F90230002B83B0044619DBA568B2
:1055B00005F1240001F0AEF930B9637843F001033E
:1055C0006370002003B030BD05F50C7001F0A2F946
:1055D0000028F2D0286803685B6998470028ECD05F
:1055E000F0E70121FFF7CCFF05460028E5D003785E
:1055F000E52BE2D023780D4A1B0744BFE369C36162
:10560000236A126843831B0C838252B10DF1060199
:1056100001A89047BDF80430BDF806202B836B82AB
:10562000EA82A37803F07F03A370C0E7CC32FF1FA8
:1056300010B50378044623B900232370A37001201A
:1056400010BDFFF7ADFF00232370A37010BD00BF96
:1056500038B5037804460D465BB920460021FFF7B4
:105660008FFF50B101462022284607F0F5F80120AF
:1056700038BDFFF795FF0028EFD1002038BD00BFEF
:10568000F0B5064693B03578019200208DF82400DD
:105690008DF825008DF826002DB91F460B7813F0E4
:1056A000700F0C4602D1002013B0F0BD13782F2BE1
:1056B000104617D10130019003782F2BFAD0002B20
:1056C00035D0A16809A8FFF7DDFE0028EBD00198CE
:1056D00009AC07E03046FFF763FF00230198337001
:1056E000B37009AC01AA03A900F092FB03AA2146FA
:1056F00001230028D7D0019D2D7830467DB100F0E0
:10570000FFFD354609AC0028CDD00FCD0FC40FCD1D
:105710000FC433782A682260002BDED0DAE73B46DC
:1057200003AA2146304600F0EBFD13B0F0BDA1689E
:105730003046FFF7A7FEB7E719B101F23C41FFF78A
:105740009FBF0846704700BF03780BB10020704729
:10575000FFF798BE2DE9F04F8378DF0783B0054649
:1057600040F190800F4601780E07914600F193803A
:105770008C0608D5826843691289C3EB42139BB239
:10578000994528BF9946B9F1000F00F0AA806B69CE
:10579000AA6888064E464FF0000805F1100AC3F3C8
:1057A000080B3FD5116A01EB5321BBF1000F53D118
:1057B000B6F5007F50D3D36A99424DD0B6F5806FCD
:1057C00072D328788006C6F3472B06D41079C8EB2D
:1057D0000000C0B2834528BF834699424FEA4B245C
:1057E0000BD35B44994208D202F12400019101F0ED
:1057F00091F8002846D0AA680199106802685B46B3
:10580000D2F80CB03A46D84700283BD06B69361B1B
:10581000234427446B6164D02978AA688806C3F3BF
:10582000080BBFD492F8058008EA5328BBF1000F9B
:1058300038D1B8F1000F35D1002B3FD149064CBF0C
:10584000116A296A2961104601F06CF8AA6808EB10
:105850000001BBF1000FABD002F12400002201F0E7
:1058600029F878B1CBF50074B44228BF344600EB78
:105870000B012246384606F0EFFFC7E72B7813F0FE
:10588000700F2FD16B784FF0FF3043F002036B7035
:1058900003B0BDE8F08FC36942699B1A994528BFE0
:1058A000994670E72969CEE7106803683A469B6815
:1058B00098470028E6D04FF40074A7E70B0705D5FA
:1058C000AB785C0602D529690131BBE7104629692E
:1058D000524601F02DF80028D4DBCFD0AA68296900
:1058E000B1E70026C6EB090003B0BDE8F08F00BFAA
:1058F00070B582B001220DF10701044646690569C1
:10590000FFF728FF012808BF9DF80700666118BF50
:105910004FF0FF30256102B070BD00BF30B5436964
:10592000C3F3431583B0044605B189B901220DF1D3
:1059300007012046FFF70EFF40B201280BD1636933
:105940001F336361A068303000EB451003B030BDF9
:1059500020334361F6E7002003B030BD2DE9F0416C
:10596000037807690446B3B142698A420E463AD0C9
:1059700041B92161A378666123F02003A37001205F
:10598000BDE8F08118070AD499060BD5A3681B89D6
:10599000B6EB431FEED927610020BDE8F081E16935
:1059A0008E42F8D8D4F808E09EF806500935E9B2DE
:1059B000501E751EC840CD40A84200D8B2B95B0643
:1059C0004CBFDEF82030236A236104F11008424600
:1059D000002DCFD02169A06800F0AAFF002805F1B2
:1059E000FF35F4DCD7E70120BDE8F0812D1AECE7A4
:1059F0002DE9F0410D4690460021242204461F4621
:105A00009DF818600AF008FBA8682B6AE36000F1B3
:105A1000300208F00F0302EB4312A060A4F80480E8
:105A2000D17A0B0711D401F017012170D37AE670F7
:105A300013F0180F04BF41F00801217017F0320F66
:105A400008D0237813F0110F04D000202070A0702C
:105A5000BDE8F08107F00705A570918A538BC66AEF
:105A6000A661FE0643EA014106D5BA07EDD591B914
:105A700065F07F05A57002E02162D369E361BB0692
:105A800002D40120BDE8F081E1692046FFF766FFFE
:105A90000028F6D1D9E700F0E3FF0028D5D0A5789B
:105AA000E6E700BF03781BB90B7813F0700F01D144
:105AB000002070472DE9F0474E6916F01F0782B0AD
:105AC00021D191460D468046BA4601E000276E6915
:105AD00000212846FFF722FFA8B103789BB12E2BA7
