:1000000000000320D101000095C400004DC4000091
:100010004DC400004DC400004DC400004DC400009C
:100020004DC400004DC400004DC4000095C4000044
:1000300095C400004DC40000A9DB0000ADDC000049
:1000400095C4000095C4000095C4000095C400004C
:1000500095C4000095C4000095C4000095C400003C
:1000600095C4000095C4000095C4000095C400002C
:1000700095C4000095C4000095C4000095C400001C
:1000800095C4000095C4000095C4000095C400000C
:1000900095C4000095C4000095C4000095C40000FC
:1000A000CDBC0000D9BC000095C4000095C4000080
:1000B00095C4000095C4000095C40000E1E4000070
:1000C00095C400000DE6000095C4000039E700006B
:1000D00095C4000031E8000095C4000095C40000FC
:1000E00095C4000095C4000095C4000095C40000AC
:1000F00095C4000095C4000095C4000095C400009C
:1001000095C4000095C4000095C4000095C400008B
:1001100095C40000B1CA000095C4000095C4000059
:1001200095C4000095C4000095C4000095C400006B
:1001300095C4000095C4000095C4000095C400005B
:1001400095C4000095C4000029E9000095C4000092
:1001500095C4000095C4000095C4000095C400003B
:1001600095C4000095C40000E5BC00001594000093
:100170004594000021940000419400003D9400004B
:100180002D940000E17A000095C4000095C40000A1
:1001900095C4000095C4000021EA000095C4000049
:1001A00095C4000095C4000095C40000F1BC000097
:1001B00095C4000095C400004994000079940000A3
:1001C0005594000075940000719400006194000043
:1001D0005C4B4CF2205210B51A804DF628121A8052
:1001E00000BF00BF0CF05AF9574B4FF030621A6055
:1001F000564A9A60564ADA60564B4FF470021A60BB
:10020000554B564A1A60564B1A78110703D51A787F
:1002100042F008021A70534B5349AA221A70534AEB
:10022000534B8B4204D252F8040F43F8040BF8E707
:10023000504B514900228B4202D243F8042BFAE77B
:100240004E494F4A002352F8230041F8230001335E
:10025000742BF8D14B4B4C4A802103F8011B93427D
:10026000FBD14A4B454A1A60494B8A221A70A3F5C2
:10027000805324225A70A0221A709A799207FCD5D2
:100280009A79D406FCD4434A937903F00C03082BE3
:10029000FAD1414B60221A7002331A78802AFCD1BD
:1002A0003C4B01221A715D225A719A799006FCD555
:1002B0009979384A4906FBD5384B394919600021EC
:1002C000596020231370937903F00C030C2BFAD19F
:1002D000344B354A1A60354A354C136813F4807331
:1002E00003D123604FF4A8531360324B324A1A6093
:1002F00000225A60072243F8042C304AC3F80C2D20
:1003000062B60CF045FA2368DA0705D52C480CF0E4
:100310009DF92C4B2C4A1A602C4B1B785B0609D597
:10032000284C294B22689A4204D125480CF08EF9BA
:10033000002323600FF082FA0CF0B6F80EF016F8E6
:10034000FEE700BF0E20054030800440823F0400DD
:100350000100002B88ED00E0002008E0030000858C
:1003600002D0074000E00740A01CFF1F4C520100D4
:100370003007FF1FA01CFF1F689CFF1F0002FF1F0C
:100380000000000000E400E064E400E008ED00E0AC
:10039000005006400040064001E007404480044011
:1003A0000000060204800440C010070010D0034083
:1003B00014D0034014E000E01FBF02000000202022
:1003C0003EA0715F1CE00340A5C3945A00F00740B3
:1003D000FFFFFFFFFFFFFFFFFFFFFFFFFFFFFFFF2D
:1003E000FFFFFFFFFFFFFFFFFFFFFFFFFFFFFFFF1D
:1003F000FFFFFFFFFFFFFFFFFFFFFFFFFFFFFFFF0D
:10040000FFFFFFFFFFFFFFFFFFFFFFFFDEF9FFFF23
:1004100010B5054C237833B9044B13B10448AFF33E
:1004200000800123237010BDA01CFF1F00000000EE
:1004300048520100084B10B51BB108490848AFF3FA
:1004400000800848036803B910BD074B002BFBD0A0
:10045000BDE81040184700BF00000000A41CFF1FAB
:1004600048520100A01CFF1F000000000020704740
:100470004FF0FF30704700BF704700BF704700BFAC
:10048000704700BF0023034A19460E2013700CF07A
:10049000EFB800BFD028FF1F0123034A19460E20E2
:1004A00013700CF0E5B800BFD028FF1F10B5034B48
:1004B0000360044602F0C8FE204610BD9C3A0100CD
:1004C000836C13B1184605F091B9C06C08B103F004
:1004D0002BB94FF0FF30704708B50CF0E3F8034B31
:1004E0001860BDE808400CF0ABB800BF7C2CFF1FC3
:1004F000F8B50D46064609F035FA044609F022FA29
:10050000074609F00FFAA4F2BC739BB27F2B02D806
:10051000FAB20C2A22D90023338009F0D3F9064617
:1005200009F0E0F9044609F0EDF9F3B2172B12D8FF
:10053000E3B23B2B0FD8C3B23B2B0CD8F3026401C0
:1005400003F4FF2304F4FF542343C0F346000343A2
:100550009BB22B80F8BD00232B80F8BDC0B21F28B2
:10056000D9D87F0107F4FF57384340EA43239BB2B1
:10057000D2E700BF00B5836C83B063B11846012297
:100580000DF1070105F064F801280CD19DF8070072
:1005900003B05DF804FBC06C28B101220DF1070126
:1005A00002F0ECFFF0E74FF0FF30F1E700B5014655
:1005B00083B0084808F012FD074B084A19680191FA
:1005C00013680749019808600133136003B05DF8B0
:1005D00004FB00BFA431FF1FF897FF1F8C2CFF1FE7
:1005E000081FFF1F00B5014683B0084808F0F6FC5D
:1005F000074B084A19680191136807490198086078
:100600000133136003B05DF804FB00BF8C64FF1F6F
:10061000F897FF1F902CFF1F1021FF1F826C62B103
:10062000137803F0080303F0FF0003B3D3695069A4
:10063000181A48BF6FF000407047C16CC1B191F803
:10064000313003F0080303F0FF0083B1D1E9042344
:10065000D1E90001101A30B463EB010100256FF0FD
:1006600000448D4208BF844200D2204630BC70470F
:1006700008467047836C13B1184605F0D1B9C06CB9
:1006800008B103F085BD704770B5264CADF5047D0B
:1006900025460DE004F0DCFF0346002B4FF400710B
:1006A00004A819DD0DF098F80DF06CF801281DDC98
:1006B000A36C4FF4007204A91846002BEAD1E86C31
:1006C00050B104A94FF4007202F058FF0346002B0A
:1006D0004FF4007104A8E5DC002105200BF0C8FFF1
:1006E000104802F0B1FD0DF5047D70BD78230A229B
:1006F00068460D490DF088FC69460C480DF05AFD1E
:1007000068460DF0E5FC0A4968460DF021FD694692
:1007100006480DF09FFD064668460DF0D9FC002EF8
:10072000C6D0D9E7282CFF1F4012FF1F1421FF1F3E
:100730008C3F010000B5836C83B08DF8071043B186
:10074000184601220DF1070105F0ACF903B05DF880
:1007500004FBC06C0028F9D001220DF1070103F061
:100760002FFE03B05DF804FBF0B51A4EB06CADF58A
:10077000037D3746F8B14FF4007202A904F068FF18
:10078000002821DD0DF107040DF2072514F8012FD3
:10079000114901A80FF06AFE01A80FF0F1FE014611
:1007A00001A80DF019F8AC42F0D10C480DF0C2FAD6
:1007B000B06C0028DFD1F86C30B14FF4007202A9A0
:1007C00002F0DCFE0028DDDC024802F03DFD0DF504
:1007D000037DF0BD282CFF1FB83A01004012FF1F17
:1007E00070B5044608460D460FF0CAFE236802465F
:1007F000294620465B68BDE87040184738B5044676
:1008000008460D460FF0BCFE2368024629465B6889
:1008100020469847054620460DF08CFA284438BDFE
:1008200038B50C4D0C4C0021284609F0C5FCD5F814
:100830000202D5F80612D5F80A22D5F80E320FC4F6
:10084000D5F81202D5F81612D5F81A22D5F81E32AC
:100850000FC438BDDC1CFF1F282BFF1F70B5204BB9
:100860002049214AD3F8785400248EB006460C70F3
:100870001470E5B102462946012368468DF8004010
:100880008DF801408DF8024004F0D4FEF8B1174B0A
:10089000196821B132460123154802F0E9FC012113
:1008A00005200BF0E5FEFFF7EFFE0EB070BDD3F8AC
:1008B0007C1461B10246012368468DF831508DF8F1
:1008C00032508DF8335003F043FA0028DFD11B215A
:1008D00008480CF081FF08480DF02CFA0EB070BDEE
:1008E0004421FF1F172CFF1F6B07FF1F5431FF1FF1
:1008F000282CFF1FC03A01004012FF1F2DE9F04FC6
:10090000414B4249D3F87874414DA3B000264FF4CF
:100910007A720E9581460E708DF83C608DF84460B9
:10092000209621961092002F53D039466846012315
:100930004A466C468DF800608DF801608DF80260C3
:1009400004F078FE002855D0324B19680DF13808B4
:1009500021B14A464046012302F08AFC20986FF0FC
:10096000004A4FF0000BD8B103781A0706D440466E
:100970000E9502F069FC23B0BDE8F08FC2694369AF
:100980009A42F4D00122214604F062FE01280CBFF5
:100990009DF80000FF200CF0A3FF20980028E3D171
:1009A00021980028E3D090F831301B07DFD5D0E93B
:1009B0000423D0E90067921B63EB07039B4508BF44
:1009C000924501D3002AD2D00122214602F0D6FD61
:1009D000DCE7D3F87C1469B1684601234A466C46CB
:1009E0008DF831708DF832708DF8337003F0B0F9F6
:1009F0000028A9D11B2108480CF0EEFE07480DF095
:100A000099F90DF13808B2E74421FF1F172CFF1F99
:100A10009C3A01005431FF1FC03A01004012FF1FF1
:100A200010B5044614F8013B184633B12E2BF9D00B
:100A30000EF02CFF0028F5D110BD012010BD00BF25
:100A400084B030B593B016AC84E80F009DF87050B8
:100A50009DF867400BF026FE9DF8663016990090D1
:100A600003F001032A46029301911D9B154903944B
:100A700005A80FF0FBFC05A80FF082FD014605A8B4
:100A80000CF0AAFEACB1651EEDB2103516AB1D44DC
:100A90000DF1670414F8012F0B4904A80FF0E6FCD0
:100AA00004A80FF06DFD014604A80CF095FEAC42C1
:100AB000F0D106480DF03EF913B0BDE8304004B067
:100AC000704700BFDC3A0100F83A01004012FF1FF6
:100AD00070B5134C04F59165264601210E200BF0EC
:100AE000C7FD32200BF002FE00210E200BF0C0FDEE
:100AF00032200BF0FBFD4FF000010A4807F008F828
:100B00000848C4F8845406F029FC0028E5D1D6F83A
:100B10008414034802F0F0FB0028DED070BD00BF53
:100B20004421FF1FCC25FF1F08B54FF40072154963
:100B300015480BF03BF9154B986C70B14FF40072EF
:100B4000114904F0AFFFB0F5007F10D11049114BEF
:100B50000120002208701A6008BDD86C38B14FF42B
:100B60000072094903F02CFCB0F5007FEED00C2197
:100B700009480CF031FE09480DF0DCF8BDE80840EA
:100B8000FFF7A6BF1429FF1FC826FF1F282CFF1F31
:100B9000162CFF1F682BFF1F003B01004012FF1F98
:100BA000204B99784A1CD2B23A2A9A701BD05B2A01
:100BB00026D02F392A2984BF30229A705A783A2AAF
:100BC00016D05B2A23D0303A2A2A84BF30229A706A
:100BD0001A783A2A11D05B2A20D0303A2A2A84BFC8
:100BE00030229A70704741229A705A783A2AE8D196
:100BF00041225A701A783A2AEDD141221A70704770
:100C00005A780132D2B230215A709970D7E71A78E7
:100C10000132D2B230211A705970DAE730221A70DC
:100C2000704700BF6426FF1F2DE9F047864D874EB1
:100C300082B0681C40F23A2200210FF0BBF905F1A6
:100C400001080023C8F1110905F23A272C46338028
:100C500009EB04000BF020FB04F8010FA742F7D1C9
:100C60007B4CC4F51277023704F12A0938190BF0CE
:100C700013FB04F8010FA145764BF7D1764CDFF852
:100C800018A22068C8F8120193E80700A488AAF8FF
:100C900004400AF106071C4603C754F80A0F3A80BD
:100CA0006168A268E3686D4FDFF8F0E10FC7206963
:100CB0006169A269E3690FC7BEE80300A7F12104D7
:100CC0009EF80020C8F8220107F1FF398AF81820A1
:100CD000CAF8141027460AF1190A17F8012F6049BB
:100CE00001A80FF0C3FBBDF804302AF8023BB94558
:100CF000F3D170200DF042FB5A4F824608F0B0FE4F
:100D00005948C7F800A00FF03BFC5749024650462F
:100D100008F090FF3868514908F0AEFF3868534F2B
:100D200070210DF02DFB524B03CB1B78C8F86B01E3
:100D3000093707F8013C47F8051C14F8012F48490A
:100D400001A80FF093FBBDF8043027F8023BA14542
:100D5000F3D1002347484149474F1A4600F5C8746C
:100D600009F0E2FC454B93E80300C8F8B40188F8A9
:100D7000B81104F1400814F8012F394901A80FF007
:100D800075FBBDF8043027F8023BA045F3D13C4881
:100D90000CF0D0FF3B4B196821B343233A4A3B4840
:100DA00002F066FAF0B1394F002402E004F07AFE56
:100DB00001342D480FF0E4FBA0424FF0010201A9DD
:100DC0003DD9BB6C15F8010F8DF804001846002BB7
:100DD000ECD1FB6C012201A91846002BE8D003F0EE
:100DE000EFFAE5E735212A480CF0F6FC24480CF030
:100DF000A1FF25480FF0C4FB014623480CF0ECFC92
:100E00001F480CF097FF172122480CF0E5FC1C4806
:100E10000CF090FF14480FF0B3FB014612480CF0A1
:100E2000DBFC17480CF086FF40F23A2200210E4806
:100E30000FF0C0F80023338002B0BDE8F0871348FC
:100E400002F002FADFE700BF932CFF1F182CFF1FF0
:100E50006726FF1F6826FF1F103B0100BC1CFF1FF9
:100E6000243B0100FC25FF1F942CFF1FFF2DFF1FBB
:100E70002C3B0100DC1CFF1F4D2EFF1F883B010097
:100E80004012FF1F5431FF1FEC30FF1F0431FF1FC2
:100E9000503B0100383B0100A62DFF1F183B01000D
:100EA00030B5754B1B7895B0002B52D0734C744AFB
:100EB00023680193019B11685B1A312B00F2C080FB
:100EC000704B1B78002B2ED023686F4A0793079B2B
:100ED00011686A485B1A312B00F2C0806B4B1B789B
:100EE0005BB123686A4A0D930D9B116863485B1AD6
:100EF000312B00F2968015B030BD664B1B78002B6D
:100F00006AD02368644A0F930F9B11685B485B1A91
:100F1000B3F5FA7FEFD3614C01682378109183F029
:100F20000103109984E05E4B1B78002B40D02368AE
:100F30005C4A0993099B116850485B1AB3F5FA7F24
:100F4000CCD3594D01682B780A9183F001030A999B
:100F50008BE0564B494C1B78B3B12368544A03933A
:100F6000039B11685B1AB3F5FA7FA9D35148216836
:100F70000378049183F00103049D03701946062051
:100F800015600BF075FB9BE723684B4A0593059BA7
:100F900011685B1AC82B93D923680693069B454DAD
:100FA00013600123194606202B700BF061FB87E7C5
:100FB000226842490B920B9A0868304D121AC82ACF
:100FC0008CD92A680C920C98374A0860194605207B
:100FD00013700BF04DFB81E7226839491192119A89
:100FE00009682648521AB2F5967F84D302683549BB
:100FF0001292129A0968521AB2F5967FFFF47BAFEB
:10100000026831491392139A0968521AB2F5967F11
:10101000FFF471AF214A19460E2013700BF028FB24
:1010200069E71E4C016823780E910E9983F0010345
:1010300011600E20194623700BF01AFB15B030BD5D
:101040001C4821680378029183F00103029D03701C
:101050001946062015600BF00BFB31E7124D0168B5
:101060002B780891089983F0010311600520194637
:101070002B700BF0FDFA31E70031FF1FF897FF1FCF
:10108000FC2BFF1F8A2CFF1FCC28FF1F2421FF1FD2
:10109000202BFF1F2521FF1FE42EFF1FD028FF1F3D
:1010A000F82BFF1F002CFF1F782CFF1F802CFF1F29
:1010B0003021FF1FDC28FF1FC828FF1F1C2BFF1F2C
:1010C000081FFF1F1021FF1F0C21FF1F2DE9F043F8
:1010D000C64EC74B717B306995B000254FF0120E9C
:1010E0000124132704932A460594039500952B4663
:1010F000CDF808E0019709F003FE32466021BD48B3
:1011000008F0D0FF002800F00E822E21BA48BB4F15
:10111000BB4E0CF061FBBB480CF00CFE2946B548F9
:1011200009F064F92A462946B24809F099F81421D1
:10113000B5480CF051FBB3480CF0FCFDB34BB44880
:101140001D704FF480710CF0CBFF21462A200BF06C
:10115000A3FA214629200BF09FFA214628200BF004
:101160009BFA29462A200BF083FA294629200BF006
:101170007FFA294628200BF07BFA214606200BF047
:101180008BFA214605200BF087FA21460E200BF042
:1011900083FA214627200BF07FFA9E4B3C702146B4
:1011A00006201C7034700BF063FA397805200BF0C0
:1011B0005FFA31780E200BF05BFA02211C200BF055
:1011C0006BFA9549954808F0A3F99549934808F0BA
:1011D000A1F99449914808F09FF993498F4808F084
:1011E0009DF992498D4808F09BF932218B4808F00F
:1011F00089F94FF4FA61894808F088F94FF4FA71D7
:10120000864808F081F9FFF70BFB2146884807F074
:1012100023FB2146874807F01FFB2B46864A84485C
:101220000095294607F016FD2B46834A8148009514
:10123000294607F00FFD21467D4807F0A5FB214612
:101240007C4807F0A1FB2146794807F019FB2146AD
:10125000784807F015FB794B79489A7B082122439F
:101260009A73D97308F098FB08F08EFB022800F0FF
:1012700062811B2173480CF0AFFA62480CF05AFDF2
:10128000012008F097FB08F06DFB044608F05AFBBC
:10129000054608F047FB814608F014FB064608F0B7
:1012A00021FB074608F02EFB80460BF0FBF9664B4E
:1012B000CDF800901968CDF80C80401A2B462246D4
:1012C00062490490029701966148624C0FF0CEF893
:1012D0005F480FF055F901465D480CF07DFA49482A
:1012E0000CF028FD04F591655B4B5C4A1A602846BA
:1012F0004FF0000106F00CFC2846C4F8845406F0B8
:101300002DF8002800F0708155493E48FFF776FA25
:10131000FFF7DEFB182153480CF05EFAD4F878345E
:101320004C4A002B00F05881D969013900230A2268
:1013300034480CF025FD33480CF0FCFC17214A48DA
:101340000CF04AFAD4F87804424B002800F03C81B3
:1013500005F024FB014600230A222A480CF010FD68
:1013600028480CF0E7FCD4F878043A4B002800F049
:10137000248105F013FB41F28733984240F2068145
:101380003A4B3B481C6017210CF026FA394E0425D5
:1013900028460AF081FF01350A2D06F8010BF7D126
:1013A000344D2846FFF73CFB20B9334B93E803004C
:1013B0002860A980314E0C25374628460AF06CFF7C
:1013C0000135102D07F8010BF7D12C4D2846FFF7FA
:1013D00027FB08B92A4B2B6005212A480CF0FCF9A1
:1013E00008480CF0A7FC234B274A4FE0C497FF1F87
:1013F000A0860100DC1CFF1F903B0100782CFF1F22
:10140000D028FF1F4012FF1FC03B0100162CFF1FFA
:101410001421FF1FDC28FF1F152500000026FF1FD9
:10142000311C00007D0400008504000099040000C8
:10143000A431FF1F8C64FF1F7497FF1F6C2BFF1FCD
:10144000D9040000F83B01007C2CFF1F303C010058
:10145000CC2BFF1F4421FF1FA031FF1FF104000010
:10146000543C0100843C0100A03C01005431FF1FAA
:10147000EC3C01002821FF1F603D01006426FF1F96
:1014800030303000043D0100C426FF1F5B495C483A
:101490000EF0ECFF17215B480CF09EF958480FF056
:1014A0006FF8014656480CF097F957480CF042FC8B
:1014B000564B574A5749009657480EF0D7FF534BA3
:1014C0000096534A554956480EF0D0FFD4F8785448
:1014D000544B002D48D006AE294630460025012346
:1014E0004D4A8DF818508DF819508DF81A5004F0A7
:1014F000A1F8054625B343200AF004FE07EE900A42
:10150000FAEEEF7A484C49493F48FDEEE77A17EE8C
:10151000902AC4ED007A0CF025FC454B01221A708C
:1015200015B0BDE8F0831F2142480CF055F936484C
:101530000CF000FCFEE740493348FFF75FF99FE6F7
:10154000D4F87814374B41B330460123344A8DF830
:1015500018508DF819508DF81A5004F06BF80028C7
:10156000C9D0FFF761FBC6E7D3F87C140029C2D0CD
:1015700006AE30460123284A8DF849508DF84A506E
:101580008DF84B5002F0E4FB0546B3E72B491E48AB
:10159000FFF734F9FFF79CFAF2E6D3F87C14002940
:1015A000A9D0304601231E4A8DF849508DF84A5083
:1015B0008DF84B5002F0CCFBD1E7D3F87C04002827
:1015C000E4D003F0EBFDD6E6D3F87C0400283FF42A
:1015D000C1AE03F0E3FDBDE6D2F87C1400293FF470
:1015E000A5AED1F82814A1E6D4F88414204601F061
:1015F00083FE00283FF488AE8CE600BF0C3D01005E
:10160000842CFF1F143D01004012FF1F2821FF1FE3
:10161000C426FF1F2C3D0100EC30FF1F383D0100A8
:10162000F028FF1F4421FF1F882BFF1F443D0100AE
:101630006B07FF1FD83B0100143C0100B83C0100C0
:101640002DE9F04F092185B08248834C834E844DAB
:101650000CF0C2F87F4B228803CB1F78B050B31830
:1016600002F1090EA4F800E005F1200959601F728B
:10167000AA461AF8012F7B49DFF8DC81774F03A8CF
:101680000EF0F4FE03A80EF07BFF014603A80CF059
:10169000A3F82388BDF80C20F252CA4503F10203D7
:1016A0002380E6D170200CF069FEDFF8F4A18346B8
:1016B00008F0D6F93846CAF800B00EF061FF394696
:1016C0000246584608F0B6FADAF80000664908F013
:1016D000D3FADAF8000070210CF052FE09216348B9
:1016E0000CF07AF8614AB8F8003003CA07EB030E31
:1016F000F85012788EF808200933CEF80410A8F8B4
:10170000003015F8012F5749DFF84C81534F03A8DB
:101710000EF0ACFE03A80EF033FF014603A80CF058
:101720005BF82388BDF80C20F2524D4503F102030B
:101730002380E6D10023DFF86C914B494C484D4D96
:101740001A4608F0F1FF484605210CF045F8B8F8B4
:101750000030D9F80000F8501F4499F804203A717D
:101760000533A8F8003005F1400715F8012F3D4971
:1017700003A80EF07BFE03A80EF002FF014603A8AB
:101780000CF02AF82388BDF80C20F252AF4203F186
:1017900002032380E9D138480CF0CCFA374B009390
:1017A0003749384B384A39480EF060FE384B1968D3
:1017B00029B34323354A374801F05AFDF8B1364E74
:1017C000344F002502E004F06DF9013523480EF096
:1017D000D7FEA8424FF0010203A936D9BB6C16F818
:1017E000010F8DF80C001846002BECD1FB6C012288
:1017F00003A91846002BE8D002F0E2FDE5E70E2130
:1018000026480BF0E9FF1C480CF094FA1F480EF034
:10181000B7FE01461D480BF0DFFF17480CF08AFAAF
:101820000E480EF0ADFE01460C480BF0D5FF1248F5
:101830000CF080FA40F23A22002108480EF0BAFB80
:101840000023238005B0BDE8F08F124801F0FCFCB6
:10185000E6E700BF183B0100182CFF1F942CFF1F68
:10186000BB1CFF1F243B0100BC1CFF1F2C3B0100C5
:10187000DC1CFF1F6C1EFF1F4012FF1F6426FF1F92
:101880002C3D01002821FF1FC426FF1FEC30FF1F45
:101890005431FF1F0431FF1F932CFF1F683D0100CF
:1018A000FC25FF1F883B01002DE9F043664F87B000
:1018B0000AF0F8FE654A3B781060002B00F0A98022
:1018C000634B1B68072B40F2A780624D624C634854
:1018D0004FF4FE72214608F0AFF8C4F8FC01FFF7A0
:1018E00023F95F4A936C002B00F0A780DE695C4807
:1018F000DFF8AC81DFF8AC9101F0A6FC03AC042268
:101900000C2158480AF010FD3246204656490EF088
:10191000ADFD94E80700434603C328681A80534985
:101920004FF4007208F086F92868514908F0A4F9CC
:1019300028684F4D70210CF023FD0FCDC8F80A0028
:10194000C8F80E10C8F81220C8F816300FCD08F1EC
:101950000A06C8F81A00C8F81E10C8F82220404627
:10196000F361DFF84481434D434E2A2240F24A217D
:101970000AF0DAFC062148460BF02EFFB8F80030DA
:10198000B9F80410D9F80000E850EA1820460633E8
:101990009180A8F800300EF0F3FD014620460BF0D0
:1019A0001BFF03CCB8F800302288E8501D440A33EE
:1019B0002A816960A8F80030304DFFF741FEDFF85A
:1019C000ECE02F482F4A002400942346CEF8004034
:1019D0002146047034602C482C6007F03BF9214606
:1019E0002346284A0094294807F034F943203C70E4
:1019F0000AF088FB07EE900AFAEEEF7A244C2549AC
:101A00002548FDEEE77A17EE902AC4ED007A0CF037
:101A1000A9F907B0BDE8F0839C0114490D4D1F489A
:101A2000C4F50074224601EB83110AF0BFF9224687
:101A300028681A4908F0FEF848E7D66C002E3FF4F3
:101A400056AF366953E700BF162CFF1FE82EFF1F65
:101A5000682BFF1FFC25FF1F1429FF1F842BFF1F6E
:101A6000282CFF1F6426FF1F783D0100C826FF1F9A
:101A7000BC1CFF1F942CFF1F3821FF1F242CFF1FAD
:101A8000182BFF1F7497FF1FA431FF1F8C64FF1FCB
:101A9000882BFF1F443D01004012FF1F0C1FFF1F3A
:101AA0006826FF1F103B0100182CFF1F3421FF1F69
:101AB00010B5214B9A6C8EB0002A36D01F4BD3F84C
:101AC0007844CCB12146012300241D4A8DF8004002
:101AD00068468DF801408DF8024003F0ABFDD8B1A7
:101AE000184B196821B10123154A134801F0C0FBB6
:101AF000FEF73AFE0EB010BDD3F87C1461B101239D
:101B00000F4A8DF8314068468DF832408DF83340E9
:101B100002F01EF90028E3D11B210B480BF05CFEFC
:101B20000A480CF007F90EB010BDDB6C002BC5D1D4
:101B3000FFF7BAFEC2E700BF282CFF1F4421FF1F9A
:101B4000F028FF1F5431FF1FC03A01004012FF1F51
:101B5000F0B5334B9A6C8FB00746002A59D0314DFF
:101B6000D5F87844BCB121466846002401233A46A2
:101B70006E468DF800408DF801408DF8024003F06C
:101B800059FDD0B91B2128480BF026FE27480CF040
:101B9000D1F80FB0F0BDD5F87C140029F2D068461A
:101BA00001233A466E468DF831408DF832408DF86B
:101BB000334002F0CDF80028E4D0D5F87844194B32
:101BC00094B121463A460024022330468DF8004065
:101BD0008DF801408DF8024003F02CFD0028D8D08C
:101BE000304604F01BFAD4E7D3F87C140029D0D097
:101BF0003A46022330468DF831408DF832408DF858
:101C0000334002F0A5F80028C3D0304602F0ACF90A
:101C1000BFE7DB6C002BA2D1FFF746FE9FE700BFBA
:101C2000282CFF1F4421FF1FC03A01004012FF1F54
:101C300008B5FFF739FEBDE80840FFF747BA00BF17
:101C40002DE9F0438BB007F08DFE044607F07AFED5
:101C5000054607F067FE804607F034FE064607F0AB
:101C600041FE074607F04EFE854A864BCDF80080C0
:101C700043F2E421039050585958049122462B46D0
:101C800081490297019605908048814C814E0EF063
:101C9000EDFB7E480EF074FC01467C480BF09CFD89
:101CA000B4F800C0DFF8E4E106EB0C070EF1200801
:101CB00075460FCD454538607960BA60FB60AE4629
:101CC00007F11007F4D1286838600CF1240C724831
:101CD000A4F800C00EF054FC6F4FDFF8DC816F4DAC
:101CE00001466D480BF078FD07CF2388F718F050B8
:101CF0000C3379604046BA60042123800BF06CFD00
:101D00002388D8F80000F0500433238005F1090936
:101D100015F8012F62495E4FDFF8788109A80EF0AF
:101D2000A5FB09A80EF02CFC014609A80BF054FDF8
:101D30002388BDF82420F252A94503F10203238031
:101D4000E6D1DFF87891574D484604210BF044FD69
:101D50003B88D9F8000048F8030004333B8005F1C4
:101D60001008514F14E02A780EF080FB09A80EF0FD
:101D700007FC014609A80BF02FFD2388BDF824209D
:101D8000F2520135023345452380414A414B0AD086
:101D90003B7843491A4609A8002BE4D1404909A8D9
:101DA0000EF064FBE2E7DFF8188107934046052157
:101DB00006920BF011FD069A079B1188D8F80000D7
:101DC00058503A4D98F804E00B44053183F804E08C
:101DD000118005F1100814E02A780EF047FB09A8DD
:101DE0000EF0CEFB014609A80BF0F6FC2388BDF8E7
:101DF0002420F2520135023345452380244A254BE5
:101E00000AD03B7826491A4609A8002BE4D1244978
:101E100009A80EF02BFBE2E7254F07933846052172
:101E200006920BF0D9FC069A079B11883868585027
:101E3000204D3F790B4405311F71118005F140079A
:101E400015F8012F164909A80EF010FB09A80EF08D
:101E500097FB014609A80BF0BFFC2388BDF824209E
:101E6000F252BD4203F102032380E9D140F23A224B
:101E7000102108480AF058FA0BB0BDE8F08300BF03
:101E80008C64FF1FA431FF1F803D0100CC2BFF1F7E
:101E9000182CFF1F942CFF1FF028FF1F201EFF1F70
:101EA000243B0100E028FF1F6A07FF1F0429FF1FD2
:101EB000C03D01002C1EFF1FA83D0100B03D0100E8
:101EC000B83D010010B52E492E4B002282B00124EE
:101ED00070200C601A700CF051FA044607F0C0FD37
:101EE000294B1C60FEF75CFE284B2949294A2A48E9
:101EF0000EF0BCFA294B196829B14323264A284819
:101F000001F0B6F930BB0E2126480BF065FC2648DF
:101F10000BF010FF20480EF033FB01461E480BF07B
:101F20005BFC21480BF006FF1D4B204A9C6C0421F2
:101F30001180B4B10021204603F08EFC68B91C4B1F
:101F40001C4A1B68019301991B4B116001221A70F6
:101F500002B010BDFFF774FEE6E7204603F066FD11
:101F6000EDE7DC6C002CEAD000220023204601F0D3
:101F7000F3FB0028E3D0204602F0B0F9DFE700BF12
:101F8000D428FF1F162CFF1FFC25FF1F6426FF1FF0
:101F9000C83D01002821FF1FF028FF1F5431FF1FFB
:101FA000282CFF1F683D01004012FF1F142CFF1F4B
:101FB000F897FF1F0029FF1F182BFF1FF0B5424B9A
:101FC0001B7883B0002B69D00AF06CFB3F4ADFF826
:101FD0003CE13F4B3F4C404F404E054692E80300EA
:101FE0001860DEF80000C4F8DF0138683C4AC4F825
:101FF000E30130681971C4F8E7010423394E3A4807
:102000001380266007F010F884F8EB013748384E4B
:1020100007F00AF8002784F8EC01334884F8ED71E2
:1020200007F008F884F8EE01304807F003F8314B68
:1020300084F8EF0103CB4FF4FE72C4F8F101C4F849
:10204000F5112D4884F8F071214607F0F5FCC4F82D
:10205000FC01FEF769FD33680133B3F5E11F33601E
:102060001FD24FF40072FF211A48244E0DF0A2FF38
:102070000AF018FB02AA401B0190337832F8040DD5
:102080001F499278A4F8F90183F001038A700520B2
:10209000194633700AF0ECFA03B0F0BDFFF712FFF7
:1020A00092E7112117480BF097FB3B460A22316853
:1020B00015480BF065FE14480BF03CFE3760FFF747
:1020C000F3FBFFF703F8CCE7182BFF1FE83D0100F7
:1020D0001C2CFF1F1429FF1F3821FF1F242CFF1F5A
:1020E000142CFF1F43414E32A431FF1F8C64FF1F8D
:1020F000D428FF1FF028FF1F842BFF1F782CFF1F01
:102100000D2BFF1FD43D01004012FF1F3421FF1F84
:10211000F0B5474B474D1B7885B0002B5BD1464A45
:10212000464913780968039145490398086083F08C
:1021300001031946062013700AF09AFA414A424EEA
:102140002B881278F25401332B8007F06BFB04AA22
:102150002B8842F80C0D3D4C1068F050191D89B2C7
:1021600003F108026068705092B22068E77BB050BB
:102170000C332B800AF096FA354A2B881268D4F873
:1021800000E0801A04A920F07F403F06074341F891
:10219000087D1A1D0868F050103403CC92B20C333D
:1021A000B4189BB21EF0005F2B80B050214D6160CF
:1021B00006D1B3F5ED7F01D9FFF700FF05B0F0BD03
:1021C000244A137883F0010319460E2013700AF095
:1021D0004FFA2B88EDE70AF065FA2B881E4A1F4C50
:1021E000191F82FB0123CA17C2EB2312322303FB00
:1021F00012132060002B92D1194C216807298ED828
:10220000184A194B02EB8112013A03F1400012F80F
:10221000011F03F8011F8342F9D1144B14491868B8
:10222000402207F007FD23680133236077E700BFF2
:10223000162CFF1F142CFF1FDC28FF1FF897FF1F11
:102240000029FF1F642BFF1F1429FF1F482BFF1FAE
:102250007C2CFF1FD028FF1F1F85EB51E82EFF1F8E
:10226000682BFF1FC826FF1F8B2BFF1FFC25FF1F9E
:102270008C2BFF1F30B5364B1B7887B00546002BE3
:1022800056D1344B344C1B78002B42D12368324951
:1022900013F0005412D0314B1B78002B32D1304A4E
:1022A0001368013313602F4A137883F00103194632
:1022B0000E2013700AF0DCF907B030BD2A4A104630
:1022C0001A408242F8D10B7C03F0F003102BF3D1BB
:1022D000224B26481B7826494474032530228474F7
:1022E000C5730160027433B3012BE5D1214B224A3F
:1022F0001B680593059B12689B1A012BDCD9FEF71E
:1023000071F9D9E7012BCED11C4A13680133136050
:10231000C9E7039504F1100393E803000F4A13780B
:1023200002938DE8030094E80F00FEF789FBADE708
:10233000FFF7EEFEA5E70F4B114A1B680493049BC1
:1023400012689B1A012BB7D9FEF730F9B4E700BF2A
:102350006B07FF1F172CFF1F482BFF1F642BFF1F4E
:10236000F02BFF1FD028FF1F00F9DA006C2BFF1F96
:10237000F900DA18F897FF1F1021FF1FF42BFF1F39
:10238000081FFF1FFFFFFFFF454BD3F878042DE91F
:10239000704300286FD0C469057904F0FFFA013C4E
:1023A000064618213F480BF017FA00230A2221465F
:1023B0003D480BF0E5FC3C480BF0BCFC17213B48CA
:1023C0000BF00AFA00230A22314637480BF0D8FCFA
:1023D00035480BF0AFFC152135480BF0FDF9002313
:1023E0000A22294630480BF0CBFC2F480BF0A2FC08
:1023F000112130480BF0F0F928460CF013FD80460F
:10240000894630460CF00EFD42464B460CF080FDEE
:1024100000224FF081430CF07BFD1FA3D3E9002382
:102420000CF0A0FE41EC100B02211F480BF0F0FC59
:102430001D480BF07FFC12211F480BF0CDF9204600
:102440000CF0F0FC42464B460CF062FD00224FF0CF
:1024500081430CF05DFD10A3D3E900230CF082FE54
:1024600041EC100B022110480BF0D2FC0E48BDE8E5
:1024700070430BF05FBCD3F87C0448B190F83D3456
:10248000D0F8284401259D4002F088FE064688E7E2
:1024900005460446064684E70000000080842E417D
:1024A0004421FF1F843C01004012FF1FA03C01009B
:1024B000F03D0100083E01001C3E010000B50E4B3E
:1024C0000E4A1B680E4883B0019301990D4B1160B1
:1024D000012200211A7006F057FA00210A4806F07E
:1024E00053FA102109480BF077F909480BF022FC48
:1024F00003B05DF804FB00BFF897FF1F3C21FF1FEE
:10250000A431FF1FFD28FF1F8C64FF1F303E010018
:102510004012FF1FFFF7D2BF10B50B4A0B4C0C48FF
:10252000002301212370137006F02EFA01210948BF
:1025300006F02AFA112108480BF04EF90748BDE8C9
:1025400010400BF0F7BB00BF2E21FF1FFD28FF1F1F
:10255000A431FF1F8C64FF1F443E01004012FF1F87
:1025600038B517210F48104C0BF036F943F2E4252B
:102570000E4B0A225959204600230BF001FC20463D
:102580000BF0D8FB17210A480BF026F9094B20461F
:1025900059590A2200230BF0F3FB2046BDE83840CE
:1025A0000BF0C8BB783E01004012FF1FA431FF1F93
:1025B000903E01008C64FF1F10B514210E480F4C93
:1025C0000BF00AF90E4B0A221968204600230BF083
:1025D000D7FB20460BF0AEFB14210A480BF0FCF8A9
:1025E000094B204619680A2200230BF0C9FB20463C
:1025F000BDE810400BF09EBBA83E01004012FF1F3B
:10260000F02BFF1FC03E0100F42BFF1F70B586B0FA
:10261000FFF74AF9184B194C194E00256420C3F8EE
:102620007854C3F87C540AF061F82946204605F036
:102630006FFA2046346004F091FE40B11121114838
:102640000BF0CAF810480BF075FB06B070BD0E4BCE
:102650000E4A316801A802F091F804210C480BF0F1
:10266000BBF809480BF066FB64200AF03FF8FEF760
:102670002FFA06B070BD00BF4421FF1F9426FF1F34
:10268000142BFF1FD83E01004012FF1FEC2EFF1F2E
:10269000EC3E01002DE9F041432090B009F032FDFD
:1026A000AC4BAD4A1B6810609842C0F2B181AB4C94
:1026B00009F0F8FF2368C01AB0F57A7F00F2A48110
:1026C000A749A84806F02EFC002840F09281A449B2
:1026D000A54806F027FC002840F08081A34CA44DBB
:1026E00023680193019B2A689B1AB3F57A7F04D370
:1026F000A04B1B78002B40F01B81FEF7D1FB9E4ABC
:102700001378002B00F08D809C4F3B78022B2368C0
:1027100000F215819A4A0393039B106893491B1A90
:10272000FA2B54D90B68974D05930598DFF88CE286
:1027300009682B88944E0491DEF800C036F81330F7
:10274000049910609148DFF88CE20374CCEB01022D
:102750001B0A03214374012A4FF00003C173C0F820
:1027600000E0837401D9FDF721FF894B1B6853B149
:102770002368884A0693069B12689B1A012B02D98C
:102780008248FDF72FFF844A137883F0010319462E
:102790000E20137009F06CFF2B887A4A01339BB22C
:1027A0001A2B40F24A813B787C4D013300243B7068
:1027B000148020461B210BF081FC013436F81020D8
:1027C00035F8023F2A801B2C26F81030F1D10AF090
:1027D000D9FF01281FDD724C724978230A220CA808
:1027E0000BF012FC0CA920460BF0E4FC0CA80BF03B
:1027F0006FFC6D490CA80BF0ABFC0CA920460BF04C
:1028000029FD05460CA80BF063FC002D6FD0FFF7E7
:102810004FF90AF0C5FF654806F00CFF10B0BDE89F
:10282000F081634A11780029D1D0624F39780229AA
:1028300000F200812368604A0893089B11684B48A6
:102840005B1AFA2BC3D903684E4D0A930A9E5B4963
:1028500000682B88DFF880810990D1F800E04B48B0
:1028600038F81330099916604374CEEB01021B0A45
:10287000534E837408210223012AC1730660037436
:1028800001D9FDF793FE424B1B6853B12368414ABF
:102890000B930B9B12689B1A012B02D93B48FDF747
:1028A000A1FE3D4A137883F0010319460E201370F0
:1028B00009F0DEFE2B88334A01339BB2082B40F22D
:1028C000BC803B783F4D304E013300243B70148078
:1028D000204609210BF0F2FB013435F8023F36F8AF
:1028E00010202A80092C28F81030F1D16FE73649E2
:1028F0000CA80BF02DFC0CA920460BF0ABFC0546F8
:102900000CA80BF0E5FB002D40F08C802F490CA8A3
:102910000BF01EFC0CA920460BF09CFC06460CA8F4
:102920000BF0D6FB002E00F08A80294B1D7070E75B
:10293000FEF7BAFF23680293029B2B60DDE6079344
:102940001D4B07981A4918600023012008703B703E
:1029500013703CE7882BFF1F602BFF1FFC30FF1F0D
:10296000482BFF1FA431FF1F8C64FF1FF897FF1F28
:102970000029FF1F182BFF1FFD28FF1F4021FF1FED
:102980003C21FF1FE02EFF1F3407FF1F6C2BFF1F92
:102990003821FF1F1021FF1FD028FF1F3207FF1F04
:1029A0001421FF1F4012FF1F183F01000026FF1FC8
:1029B0002E21FF1F4121FF1FD828FF1F081FFF1FC7
:1029C000F9FFDA186A07FF1F1C3F0100243F0100CE
:1029D0006B07FF1FF9FFEA186C07FF1FA14AA24906
:1029E000136801330124184613600C70FFF742FC92
:1029F00074E69E4A9C49136801330024184613600C
:102A00000C70FFF737FC62E609F04CFE206057E6D9
:102A1000FEF74AFF212196480AF0DEFE95480BF0AA
:102A200089F944E6944993480BF05EF991480BF01C
:102A300081F9EEE63B701370C9E61380C7E68F4953
:102A40000CA80BF085FB0CA920460BF003FC0546F7
:102A50000CA80BF03DFB4DB1FEF738FB0C2188486C
:102A60000AF0BAFE83480BF065F9D2E685490CA856
:102A70000BF06EFB0CA920460BF0ECFB05460CA8F6
:102A80000BF026FB15B1FEF70FFFC2E67E490CA83E
:102A90000BF05EFB0CA920460BF0DCFB05460CA8F6
:102AA0000BF016FB15B1FFF76FFCB2E677490CA8E7
:102AB0000BF04EFB0CA920460BF0CCFB06460CA8F5
:102AC0000BF006FBBEB1724CD4F8780430B100F2C2
:102AD0003C402B462A46674903F07CFDD4F87C0431
:102AE00000283FF496AE002300F588601A4661493D
:102AF00001F078F98DE667490CA80BF029FB0CA9C9
:102B000020460BF0A7FB05460CA80BF0E1FABDB17F
:102B10005F4CD4F8780430B100F23C4000230E2220
:102B2000544903F057FDD4F87C0400283FF471AEFB
:102B300000F5886000230E224E4901F053F968E643
:102B400055490CA80BF004FB0CA920460BF082FBA6
:102B500005460CA80BF0BCFA15B1FFF757FD58E677
:102B60004E490CA80BF0F4FA0CA94D480BF072FB7F
:102B700005460CA80BF0ACFA15B1FFF7F1FC48E6DE
:102B800048490CA80BF0E4FA0CA945480BF062FB8D
:102B900005460CA80BF09CFA15B1FFF70DFD38E6C1
:102BA00041490CA80BF0D4FA0CA93D480BF052FB9C
:102BB00005460CA80BF08CFA3DB13C4B3C492D4826
:102BC00001221A70FDF71AFE23E63A490CA80BF011
:102BD000BFFA0CA932480BF03DFB06460CA80BF0DF
:102BE00077FA16B1314B1D7013E633490CA80BF080
:102BF000AFFA0CA92A480BF02DFB05460CA80BF0E8
:102C000067FA15B1FFF75AFC03E62C490CA80BF044
:102C10009FFA0CA922480BF01DFB06460CA80BF0EE
:102C200057FA16B1FFF778FCF3E525490CA80BF02D
:102C30008FFA0CA91A480BF049FB05460CA80BF0BB
:102C400047FA002D3ED03146042215480BF062FBB6
:102C500033460D220CA912480BF042FB0CA8FDF7DD
:102C6000FDFDD6E53821FF1F642BFF1F3421FF1F18
:102C7000F43E01004012FF1FD02EFF1F2C3F010029
:102C8000583E0100343F0100383F01003C3F010045
:102C90004421FF1F403F0100483F0100503F010019
:102CA0001421FF1F583F0100603F0100172CFF1F38
:102CB000683E01006C3F0100783F0100843F010045
:102CC000903F01008D490CA80BF042FA0CA98C48EA
:102CD0000BF0FCFA06460CA80BF0FAF976B129467F
:102CE000042287480BF016FB2B460D220CA98448C2
:102CF0000BF0F6FA0CA8FEF72BFF8AE581490CA829
:102D00000BF026FA0CA97E480BF0A4FA05460CA895
:102D10000BF0DEF91DB17C48FDF7F0FD79E57B494C
:102D20000CA80BF015FA0CA975480BF0CFFA054664
:102D30000CA80BF0CDF965B10322002170480BF00F
:102D4000E9FAA368052B43D071497248FDF756FD97
:102D50005FE56B4C70490CA80BF0FAF920460CA902
:102D60000BF0B4FA05460CA80BF0B2F9002D5CD0BC
:102D70000622002120460BF0CDFA20460BF0E6FAA1
:102D80000CA90023042220460BF0AAFAA268634B88
:102D900063490020032A1860198099703BD0022AE9
:102DA00032D0012A04BF9DF830209A705B48FDF7AD
:102DB00037FE20B304220C21584809F0B5FA5949CE
:102DC0005448FDF70DFD55495248FDF717FD20E524
:102DD0004B480BF0BBFA00230622534948480BF03E
:102DE0007FFA06220421504809F09EFA4F494948CB
:102DF000FDF7F6FC4C494748FDF700FD09E54C4955
:102E00004448FDF7FBFC04E59DF830109DF83120A7
:102E100059709A70CAE79DF830009DF831109DF8FE
:102E20003220187059709A70C0E742490CA80BF014
:102E30008FF920460CA90BF00DFA04460CA80BF0F4
:102E400047F9002C54D03C493248FDF7D7FC3B49A8
:102E50003048FDF7D3FC3A492E48FDF7CFFC3949FD
:102E60002C48FDF7CBFC38492A48FDF7C7FC374909
:102E70002848FDF7C3FC36492648FDF7BFFC354915
:102E80002448FDF7BBFC34492248FDF7B7FC334921
:102E90002048FDF7B3FC32491E48FDF7AFFC31492D
:102EA0001C48FDF7ABFC30491A48FDF7A7FC2F4939
:102EB0001848FDF7A3FC2E491648FDF79FFC2D4945
:102EC0001448FDF79BFC2C491248FDF797FC2B4951
:102ED0001048FDF793FC2A490E48FDF78FFC29495D
:102EE0000C48FDF78BFC28490A48FDF787FC90E465
:102EF00026490848FDF782FC8BE400BF983F01009B
:102F00001421FF1FA03F0100EC30FF1FAC3F010068
:102F1000C43F01004012FF1FF83F01006426FF1F5D
:102F200030303000004001002821FF1FB03F010079
:102F300018400100304001003840010054400100B9
:102F400088400100CC4001001C41010058410100B3
:102F50007C4101009C410100C0410100E4410100AD
:102F60000C4201004442010068420100A0420100FD
:102F7000D4420100F4420100144301005C4301000B
:102F8000A4430100D84301001C4401008C4401000B
:102F90002DE9F04F854C864D864F874EDFF874B291
:102FA000DFF874A2DFF87492DFF8748293B009F04E
:102FB00027F9204681490BF0CBF82A4639462046AE
:102FC0000CF02AFC7E4B7F48002483F8014283F8F2
:102FD000224283F8234206F0FBFC7B4B7B49C3F87B
:102FE00088647B4EC3F898644FF0260683F8A86483
:102FF000784EC3F878442A46C3F87C4483F8944456
:1030000083F8AB44C3F8AC44C3F8B06418460CF082
:1030100003FC7149714E0C714FF47A732A460C739C
:103020008C64CC648B60C1F800A0084659460193BB
:103030000CF0F2FBDFF8ECE1019BCEF808308EF8E3
:1030400004408EF80C4070462A465946CEF800A03F
:10305000CEF84840CEF84C400CF0DEFB2146484606
:103060000BF076F82A46394648460CF0D5FB01238A
:103070001A461C215A4806F013FA214640460BF026
:1030800067F82A46394640460CF0C6FB09F00AFBB1
:10309000544B186009F006FB534B186009F002FB13
:1030A000524ADFF884C113680393DDF80CE013681B
:1030B0000493049F13680593059913680693DDF83C
:1030C0001890CCF800001368DFF860C10793DDF8B2
:1030D0001CA0CCF800E01368DFF854E10893089BCB
:1030E000CEF80070D2F80080DFF848E1CDF82480F7
:1030F0003F4F0998CEF80010D2F800C0DFF838E151
:10310000CDF828C0C7F800903A49DFF830C13A4FEF
:10311000CEF800A0DDF828E00B60CCF80000C7F87E
:1031200000E013680B93DDF82CC013680C93DDF8F6
:1031300030B013680D930D9813680E93DDF838A026
:1031400013680F93DDF83C8013681093DDF840E0BE
:103150002A4B12681192184A1A60294F1C491961AA
:103160002A464FF0260583F82050264DC7F800C0A8
:10317000C6F800B0DFF8C8C0119E2349DFF8C4903C
:10318000224F2E60134D1C730860CCF80080C7F8E6
:1031900000E018461E49C9F800A083F823409D624C
:1031A0005C620CF039FB13B0BDE8F08FD02EFF1F2E
:1031B0003007FF1FD1E000007C4701009C44010064
:1031C000DC1CFF1F842BFF1F4421FF1F8104000014
:1031D0002447010003200038282CFF1F3C21FF1F3B
:1031E0000026FF1F7C2CFF1FE82EFF1FF897FF1FF4
:1031F000FC2BFF1FCC28FF1F1021FF1F9426FF1F51
:103200000C21FF1F242BFF1FD828FF1FC828FF1FDA
:1032100079040000AD0400009C3A0100042CFF1F5B
:103220001421FF1F0431FF1FFC30FF1F3021FF1F3F
:10323000E42EFF1F002CFF1F202BFF1F081FFF1F66
:103240001C2BFF1F0029FF1F10B50446806C28B1FE
:1032500002F062F910B10023A36410BDE06C28B144
:1032600000F0BCF810B10023E36410BD002010BDD5
:1032700000293BD02DE9F0410C46054698461746FB
:10328000FFF7E2FFD4F87864B6B105F1100124200D
:1032900005F03EF90021017041708170D4F8781476
:1032A000A86443463A4602F0C5F910B10120BDE8D2
:1032B000F081A864BDE8F081D4F87C34C3B105F195
:1032C0001001382005F024F980F8316080F8326070
:1032D00080F83360D4F87C14E86443463A4600F042
:1032E00037FD0028E2D1E864BDE8F0810020704796
:1032F0000020BDE8F08100BF70B500260546C0F88B
:103300008014C0F8786401464FF48F6005F000F92E
:103310000446466001F0F6FCC4F8106204F5037040
:1033200001F0F0FC84F83C6484F8716484F8726401
:1033300084F87364D5F88064C5F87C44314620462F
:10334000012201F0A7FD68B104F58866304600F05F
:1033500045F82146304600F0ADF850B11E4B012033
:103360001D6070BD02463146204601F093FD0028E5
:10337000EAD10026C5F87C6429464FF48C6005F03C
:10338000C7F8C67180F83C6480F83D6480F83E64FC
:10339000D5F88064C5F8780401223146044603F06C
:1033A00055FB80B104F23C46304602F0B5F82146A8
:1033B000304602F047F90028D0D1074B00201860B2
:1033C000C5F8780470BD02463146204603F03EFB46
:1033D0000028E7D1F1E700BF5431FF1F10B50446C4
:1033E00000F0D6FE002384F8313084F8333010BD6D
:1033F000F0B50878202803D111F8010F2028FBD060
:1034000051600878002851D02F282BD05C2820D07C
:10341000A0F12204E4B21D2C1DD9DFF894E04E1C6B
:1034200000247C28A0F12005374612D05E2D10D84C
:1034300016F8010BA0F12205EDB2013478B32F2864
:1034400011D05C282EFA05F703D01D2DE9D8FD0711
:10345000E7D50020F0BD164D25FA04F4E607DCD5CB
:103460000020F0BD00240F193E4625462F2002E023
:1034700016F8010F01352028FAD02F28F8D029445A
:10348000196044B1394611F8013D2E2B01D0202B93
:1034900008D1013CF7D1204610600120F0BD1F602B
:1034A0000F19EFE7FF2CF6DD0020F0BD1960F3E700
:1034B0000101003590F831200AB10020704738B57D
:1034C00004460D46114638220CF074FD40230120BD
:1034D00084F8313084F83300256238BD2DE9F04797
:1034E00000F1240307468A4693E8070084B097F862
:1034F00031300DF1040888E80700002B3AD097F826
:103500003030012B36D94FF001090024B9F1010FF9
:1035100014BF202240224146386A01F0B7FD01283D
:1035200028D100224146386A01F096FD10B3037895
:10353000C12B1FD1054604F10F0635F8021FA9B1B2
:10354000DAF800307E2994BFC9B23F211B680134EC
:1035500050469847A642F0D109F1010997F830305A
:103560005FFA89F94B45D1D8304600E0204604B0D7
:10357000BDE8F087002004B0BDE8F0872DE9F047F2
:1035800090F833300446D80782B040F1B2800D463F
:103590005906164640F1B880D4E90001D4E9042365
:1035A00010EB060841F100094B4508BF4245C0F049
:1035B000B180002E00F0B080A146F9E80623B046A5
:1035C00055E0134371D194F831305B064CBFD0F80D
:1035D0002C14E169A16190F83DE4D0F8243402395B
:1035E0007F0A01FA0EF2F9181144BAF1000F48D11E
:1035F000B8F5007F45D3D0F81432994241D0B8F5E0
:10360000806F59D394F8332052064FEA582A07D4D2
:10361000012202FA0EFEC7EB0E07BA4528BFBA46D2
:1036200099424FEA4A270CD30AEB01029A4208D981
:1036300000F50370019101F0CBFB002859D0206AFE
:103640000199D0F8380402685346D2F80CA02A46F3
:10365000D04700284DD038460021D4E90023121865
:103660004B41B8EB07083D44C4E9002354D0206A1D
:10367000D0F830741740C7F3080A002FA1D0A16911
:10368000A9E700F50370002201F042FB88B3CAF5F8
:103690000077474528BF474600EB0A013A462846CF
:1036A00008F084FB38460021D7E794F833305906F8
:1036B0000FD5A16901318DE7D0F8380403682A4697
:1036C0009B689847A8B14FF4007000214FF4007731
:1036D000C3E74A46A16901F005FD40B2002808DBB6
:1036E00002D0206AA16976E794F8313013F0500FC8
:1036F00014D194F832304FF0FF3043F0020384F8D5
:10370000323002B0BDE8F08794F831301A073FF547
:1037100043AF4EE7161A4CE74FF00008C8EB06001F
:1037200002B0BDE8F08700BFF0B583B001220DF113
:1037300007010446D0E900678569FFF71FFF0128EC
:1037400008BF9DF80700A56118BF4FF0FF30C4E91E
:10375000006703B0F0BD00BF2DE9F04F90F831E0F5
:10376000856983B00446BEF1000F1BD0D0E900018B
:10377000994208BF904216461F463BD056EA0703BF
:1037800007D10023A3610120C4E9006703B0BDE8AD
:10379000F08F1EF0080F0AD0D4E90423BB4208BF03
:1037A000B24204D2A561002003B0BDE8F08F236AC5
:1037B000019393F83DC494F833A00CF1090C5FFA1F
:1037C0008CFC16F1FF3247F1FF33CCF1200803FAED
:1037D00008FB22FA0CF242EA0B02ACF1200B23FAAE
:1037E0000BF31AF0400F42EA030205D0E3691A44D2
:1037F000A261C8E70120D7E710F1FF3941F1FF3A94
:1038000029FA0CFC0AFA08F84CEA080C2AFA0BFB15
:103810004CEA0B0C6245534617D21EF0400F16BF00
:10382000019BE369D3F82C34A361904604F1180995
:103830004A46B8F1000FA6D0A169206A01F052FCF7
:1038400008F1FF380028F3D1ACE750EA0103E4D0D7
:10385000CCEB0202E9E700BF2DE9F04F93B090F8FE
:10386000314000920D469DF87010029106462CB929
:103870009A4695F8313013F0500F07D1002086F8A2
:10388000310086F8330013B0BDE8F08F009B002BA9
:1038900000F0118122465146009801F01DFD95F877
:1038A00031300490002B40F0FB80B84A0AF10E033F
:1038B00082FB03121A44DB17C3EBE203029ADBB26A
:1038C00002F00702059302334FF000095FFA83FB11
:1038D00042F0400301924C464F46039320220AA92E
:1038E0002846FFF74BFE00283DD02028C6D19DF882
:1038F00028301A0663D4002C5ED12A68A969079182
:10390000203A08920134E4B26BB3C02B00F09E80E1
:10391000C12B5FD0852BE1D13822002130460CF03D
:1039200049FB9DF82C309DF8292086F8302003F0C3
:103930003702DB0658BF42F0080286F831202B68B8
:10394000296AAA697262203B3162B36295F833300A
:10395000C3F3801386F82C3020220AA92846FFF7EB
:103960000DFE0028C1D1029B03F04203422B85D1FA
:10397000009B002B82D05C450DD39EE020287FF475
:103980007DAF24B92A68A9690791203A0892DCB270
:10399000A34540F2928020220AA92846FFF7EEFDB7
:1039A000631C0028EAD12846AF6900F021FC0028FA
:1039B0003FF464AFAF61EBE75C45A5D2A2E7B9F194
:1039C000000FA2D15C4538BF0024852B86D14FF073
:1039D0000109A1E7C7EB0A085FFA88F8B8F10F0FF1
:1039E00028BF4FF00F0843463A4600990AA801F055
:1039F00091FC00284BD04744FFB2BA457FF46EAF2C
:103A0000029B18063FF53AAF029B13F0320F05D028
:103A100096F8313013F0110F7FF430AF029AD106CF
:103A2000134640F1B5809A077FF528AF00220023A6
:103A30003046FFF791FE00283FF420AF304600F0FB
:103A40004DFC00283FF41AAF01201CE79DF82930F7
:103A50009DF8042086F833209F0744BF9DF80C3062
:103A600086F83330DDE90C23DDE91001C6E90423D3
:103A70000F9BF361009BC6E90201002BC0D09DF8AB
:103A80002B30534505D04FF000094F4626E78146BD
:103A900024E7BDF82C30049A9342F4D100271DE7A7
:103AA000D5E9002313433FF400AF00220023C5E90A
:103AB0000023AC61F9E60493F7E695F83330382239
:103AC000C3F380130021304607AC8DF824300CF08E
:103AD00071FA2B6A029D336294E8070005F007072C
:103AE000082567F07D0986F831500AF11E0706F1B6
:103AF000240585E80700FFB2009DCDF800904FF047
:103B0000000818460122214601F0A6FA8146002845
:103B10003FF4B4AE90F90020002AFFF6AFAE2022A9
:103B200000210CF047FAB8F1000F53D0B8F1010FA3
:103B30003FD0C8EB08120F2FA2F11E024FF0C101B7
:103B4000384628BF0F20D2B289F8001058B109F1C9
:103B5000020300B203EB40002A4412F8011B23F8D1
:103B6000021B9842F9D108F101085FFA88F8C345B1
:103B70001BD920222146306A01F088FA01287FF4FF
:103B80007DAE0F3FFFB2306ABCE700BF89888888EE
:103B9000029B9B067FF558AFD6E904233046FFF71A
:103BA000DBFD00287FF450AF68E6304600F0F0FA05
:103BB00069E69DF80030C021032289F8001089F8D9
:103BC000012086F83330BDF8103089F803A0A9F839
:103BD0000430C8E7059B5A1CD2B285210B4B89F8EB
:103BE000001086F8302089F801201A68002ABAD01F
:103BF0000DF11A0106A89047BDF81A10BDF818205B
:103C0000A9F80810A9F80A20ADE700BFA031FF1FEE
:103C100090F8313053B930B591F8314014F0500478
:103C200083B00D4604D1204603B030BD002070475C
:103C3000D5E90045002504F01F042C4302D01846A6
:103C400003B030BD00921A46FFF706FE03B030BD48
:103C50002DE9F043064695B096F8314003920020D6
:103C60008DF849008DF84A008DF84B0034B999461B
:103C700091F8313013F0500F0D4603D1002015B0EC
:103C8000BDE8F08313782F2B144633D04FF0010892
:103C9000214603AB04AA3046FFF7AAFB0028EDD06B
:103CA000039B1B78002B3AD09DF81030059ACDF875
:103CB000008029463046FFF7CFFD0028DED034468D
:103CC00006AF06F1300E20686168A268E3683D46E1
:103CD0000FC5103474452F46F5D120682860304652
:103CE00000F056FA002386F8313086F83330039C12
:103CF00006ADCDE70134039421782F29FAD0D1B154
:103D0000382206A800212F6A0CF054F94022012322
:103D100006AD0E978DF849208DF84B30B6E79DF82B
:103D20001030059ACDF8009029463046FFF794FDF3
:103D300015B0BDE8F083382230462C6A0CF03AF911
:103D400040230120346286F8313086F8330096E74C
:103D500021B1DBB201F58861FFF77ABF08467047F1
:103D600070B586B006AD00220469436905F8042DDC
:103D70000E4619460A22002320460BF0C1FB3034C0
:103D800000EB8003A4EB430450EA010205F8014D67
:103D90000B460446EDD102AB9D4206D929462022AE
:103DA00001F8012D9942FBD102AD28460CF0E8FB49
:103DB0003368024629465B683046984706B070BDB6
:103DC000034610B5006A0C46002203F1240101F0FD
:103DD00043F928B1C1682046BDE8104004F094BB07
:103DE00010BD00BF2DE9F0438FB000241746804678
:103DF00000221E4600230D468DF831408DF83240DA
:103E00008DF8334007F00209FFF7A6FC0122414676
:103E100068465FFA89F9FFF7FBFE002840D09DF85D
:103E20003130980701D5F90730D5002446B12B6809
:103E3000013420211B682846E4B29847A642F6D1F7
:103E4000B9F1000F3FD17A0733D429466846FFF70E
:103E500045FB9DF8313013F0500F24D12B680D2114
:103E60001B68284698472B680A211B6828469847F4
:103E70003B070BD59DF8313013F0500F06D0B31C23
:103E8000DBB23A4629466846FFF7ACFF6846FFF7C3
:103E9000A5FA012241466846FFF7BAFE0028BED1C6
:103EA0000FB0BDE8F0832B682F211B682846984788
:103EB000D4E729466846FFF753FF2B6820211B688B
:103EC00028469847C1E729466846FFF779FF2B68DF
:103ED00020211B6828469847B5E700BF8169F8B5DF
:103EE0000446006A01B10131012200F079FF012886
:103EF00006462FD9012301461A46206A01F03AF8F6
:103F0000074638B3A06994F8333030B35A0613D556
:103F1000421C964225D023F0400284F83320E36906
:103F200005E0206A01F0E8F8A0B1A0692B465D1C0D
:103F3000834219462A46F4D34FF0FF323146206AB5
:103F400001F0DAF830B1A16959B13246206A01F0C6
:103F5000D3F830B900273846F8BD43F0400384F861
:103F60003330A6613846F8BD2DE9F04300F1240353
:103F7000054693E8070085B095F8333001AE86E832
:103F800007009A071BD5E969E9B9002401223146E7
:103F9000286A01F061F80134E4B280B1037803F0DB
:103FA0007F03037095F83030A34231D3002CEDD05D
:103FB00020223146286A01F069F80128E6D0002065
:103FC00005B0BDE8F0835B06286A1CD5D5E902235D
:103FD00090F83D440934E4B212F1FF3843F1FF395F
:103FE000C4F1200709FA07F728FA04F2A4F1200324
:103FF00029FA03F33A431A430132002300F0BAFFCF
:104000000028C2D1DBE701F089F80028BDD1D6E74E
:104010002C6A0023204685F8313085F8333000F0D3
:10402000D7FE0028CBD004F5037000F0D1FE0028A5
:10403000C5D0D4F8380403685B699847C0E700BF6F
:104040002DE9F04F00F1240A06469AE8070087B0F0
:104050000DF10C0888E807000027DFF830B1B946F9
:104060003C4600224146306A00F0F6FFFBB20546AE
:1040700030B10078C0284DD0C1282BD0852809D078
:1040800096F8323043F0010386F83230002007B052
:10409000BDE8F08F96F83110DBF8002095F801901C
:1040A00001F03701A980AAB1306A019390F80C128F
:1040B00041F0010180F80C120DF10A0102A89047AD
:1040C000BDF80A10BDF808202878019BA981298233
:1040D000EA816A82002115F801E0E20342EA540411
:1040E0001EFA84F40129A4B201F101010DD01F29A7
:1040F000F1D999452CD020224146306A00F0C6FF04
:10410000012807F10107ACD0BAE785280CBF0421CC
:104110000221E0E796F8332012F0400F6A7814BFCE
:1041200042F0020222F002026A70D6E90401C5E9F7
:104130000201D6E90201F2696A61C5E90601316A44
:1041400091F80C2242F0010281F80C222878C1E794
:1041500051460122306A00F07FFF002890D0356A76
:104160004480284600F034FE002889D005F503700D
:1041700000F02EFE002883D0D5F8380403685B6970
:10418000984700283FF47CAF81E700BFA031FF1FB4
:1041900090F8312092B138B590F8332011060FD441
:1041A000056A0446284600F013FE88B994F83230B8
:1041B00043F0010384F83230002038BD01207047FD
:1041C00002F07F0280F83320BDE83840FFF738BFA7
:1041D00005F5037000F0FCFD0028E7D0D5F83804A1
:1041E00003685B6998470028E0D0012038BD00BF14
:1041F0002DE9F04190F831305906044663D48068C7
:10420000236AD3F834341844B0F1806F02D300200D
:10421000BDE8F0812046FFF761FE0028F7D0266A4E
:1042200096F80C32DA0706F5037550D4284606F5E1
:10423000067600F067FD4FF40072002130460BF067
:10424000B9FE226AA36992F83D04D2F82414A3F1BE
:104250000208012708FA00F817FA00F3884418BF8B
:10426000002511D0D2F83804036808EB05019B69DA
:104270003246984701350028C9D0226A92F83D3469
:1042800007FA03F3AB42EDD894F831305B0615D44E
:1042900094F8333063F07F0384F83330D2F8346419
:1042A000D4E90223D4E9040192194FF000077B41BD
:1042B00080197941C4E90223C4E904012046BDE81C
:1042C000F041FFF765BF006A00F0A2FF98E72846BB
:1042D00000F07EFD0028A9D199E700BF90F83330A7
:1042E0009A0718D5F0B5C56983B08DB103F04003C6
:1042F000044603F0FF0083B9A169002941D101956B
:10430000E1612946206A00F009FF30BB002000E08F
:10431000012003B0F0BD00207047206AA16990F829
:104320003D34D4E902670933DBB216F1FF36C3F13D
:10433000200E47F1FF3726FA03F207FA0EFE203B64
:1043400042EA0E0227FA03F31A430132B1B1013DEA
:104350006D1A01312A4401910ABBD4E9000194F895
:10436000333063F07F03C4E90201C4E9040184F837
:1043700033302046FFF70CFF03B0F0BD0195E1613B
:10438000EAE702AA42F8040D206A00F0ABFE40B250
:104390000028BBDB0AD1019D002DDED0B1E7002350
:1043A000019900F0E7FD0028D7D1AFE74FF0FF32C9
:1043B000A169206A00F0A0FE0028ECD1A6E700BFAA
:1043C0002DE9F04F90F8333085B09C0706460192F6
:1043D0000AD496F8323043F0010386F832304FF0B9
:1043E000FF3005B0BDE8F08F5A078A4600F1128110
:1043F000019B002B00F022813146F1E80623DDF815
:10440000048003919346306AB569D0F830445B4626
:104410001C40C4F308094CBB002D00F0BE8096F888
:1044200033305B0640F1DD80D6E9022390F83D741D
:104430000937FFB212F1FF3243F1FF33C7F1200E0B
:1044400003FA0EFE22FA07F1203F23FA07F741EAAA
:104450000E01F36939430B449D42C0F0B5803046EC
:10446000FFF73CFD0028B4D0306AB569D0F8247459
:1044700090F83DE4640A023DE11905FA0EF529447D
:10448000B9F1000F40F08280B8F5007F57D2D6E92D
:104490000423D6E90045B8F5007F474628BF4FF40E
:1044A00000779D4208BF944234BF0122032200F5E9
:1044B000037000F02DFC00288BD048443A4651464A
:1044C000B94407F073FCB9F5007F00F092803846DC
:1044D0000021D6E90023D6E9044512EB000B43EB9B
:1044E000010C65455A46634608BF5C45BA44C7EBB4
:1044F0000808C6E9002309D296F8331064465B46E3
:10450000C6E9043461F07F0186F83310B8F1000F7A
:104510007FF479AF5A466346D6E90201994208BF53
:1045200090427FD3474B1B68002B00F0858096F8A4
:104530003330019863F07F0386F8333051E7B8F5E4
:10454000806F2ED3012303FA0EFEC4EB0E0ED0F8BB
:1045500014324FEA5824744528BF744699424FEAF2
:10456000442709D362189A4206D900F503700291D4
:1045700000F0C8FB306A0299D0F838040568234679
:104580005246EC69A0470028A1D122E7C9F500777F
:10459000474528BF4746012289E7F569BDB1B561A6
:1045A00064E7D0F8143299422CD0D0F8380403686C
:1045B00052469B69984700283FF40BAF4FF40070B8
:1045C00000214FF4007784E70135B5614EE73046AE
:1045D000FFF784FC00283FF4FCAEB569F561306A52
:1045E00044E72946039A00F07DFD00287FF43CAFA4
:1045F00035E7306A00F5037000F0EAFB00287FF42D
:1046000066AFE6E600F50370029100F07BFB306ACE
:104610000299CAE7D0E90423FFF79EF800283FF487
:10462000D8AEE5E696F83310019861F07F01C6E94F
:10463000022386F83310D4E60198D2E6D6E90023A7
:104640006AE700BFA031FF1F8368C3F308038BB183
:1046500000210269D1540133B3F5007FF9D1C36859
:104660000269016810B41C68A469184623465DF805
:10467000044B18470120704782680346C2F30802C2
:10468000006930B481545D68986840F2FF1401EB12
:1046900075010130A2425960986002D0012030BCFF
:1046A0007047D868196804681A69A4694D1C1D60B0
:1046B000234630BC184700BF38B50C46C9B2054682
:1046C000FFF7DAFF00B938BD210A2846BDE83840B7
:1046D000FFF7D2BF2DE9F8430026804601608660CF
:1046E0004660B0B200F0A0FDB042814605460DD054
:1046F00001464046FFF7E0FFA0B30136B6F5803F24
:10470000EFD34046BDE8F843FFF79EBF741CB4F5F5
:10471000803F14D1C6F58037B7F5007F4FF4803461
:104720001AD2A9B24046FFF7C7FF0135D0B1A54262
:10473000F7D32E46E2E70134B4F5803FEAD0A0B2C9
:1047400000F072FDA042F6D0A71BB7F5007F03D2A0
:10475000A642E6D34E46C4E74FF6FF714046FFF748
:10476000ABFF10B90020BDE8F883B9B24046FFF7AF
:10477000A3FF0028F6D02646C0E700BF2DE9F04F82
:1047800016460A68C16006618DB081461269084606
:104790000F4698469047B0F5801F15D2B8F1000F2C
:1047A0000DD0D8F80030AB495B68152240469847D9
:1047B000D8F80030A8495B6840460F22984700248B
:1047C00020460DB0BDE8F08F0222012301E09042A7
:1047D0004CD90133DBB2202B4FEA4202F7D1A3F1CF
:1047E0000B0252100121D4B2914005940391013380
:1047F00001245B1004FA03F3049303FA04FA9B0008
:104800000193019BC01A20FA02F303FA02F400217B
:104810004FF40072304602934FF0010B0BF0CAFBCD
:104820000025FF230721FE2286F8C21186F8C32146
:1048300086F8BFB186F8C0B186F8C15186F8C43198
:1048400086F8C5313B68C6F8C6A14AF655225444DD
:104850009B69C6F8CA41A6F8FE2129463246384669
:104860009847B0B9B8F1000FA2D1A8E71C2BB6D871
:1048700008221A2B059200F2B0814FF400430193F5
:104880004FF4807303934FF400534FF4804A049322
:10489000B7E729464FF4007230460BF08BFBEB2351
:1048A00033707620902145226C4B7070B170F2709D
:1048B0001B68B464049C0B9334657465029CDDF83A
:1048C0002CE0F46558209DF814407564462141227F
:1048D0005423F564A6F86A5086F86D4086F8705047
:1048E0002024C6F864E030714FF0040C4FF480755A
:1048F0004FF0090E80207171B271F371C6F840A0BB
:10490000C6F858A086F86EB034727472B472C6F8E5
:1049100060C0A6F8685006F1770386F86CE006F2EE
:10492000FD1186F86F00F42203F8012F9942FBD1A4
:104930004AF655220023A6F8FE211C46012501E077
:1049400001330135A3F16A02012A04D9702BF7D093
:10495000F25C02EB7404B5F5007FF1D13B6832469E
:104960009B6951463846984700283FF47BAF3B6827
:1049700032469B690AF10C013846984700283FF4FB
:1049800071AF2A46002130460BF014FB4AF655233E
:10499000A6F8FE310AF109030593731ECDF82490A1
:1049A0000AF1010B069306F2FF15CDF820A09946F7
:1049B000CA464B4613F8012F9D4202EB7404F9D10D
:1049C0003B6832469B6959463846984700283FF471
:1049D00049AF3B6832469B690BF10C01384698475A
:1049E00000283FF43FAF059B0BF1010B5B45DFD186
:1049F000DDF82490CDF81CA04FF40072DDF820A063
:104A0000002130460BF0D6FACDF82090DDF8149056
:104A10000AF10B0B069B13F8012F9D4202EB740465
:104A2000F9D13B6832469B69494638469847002889
:104A30003FF418AF3B6832469B6909F10C013846D8
:104A4000984700283FF40EAF09F101035B4507D0FA
:104A50009946DFE7A444010004450100F897FF1FD1
:104A6000CDF81490DDF82090331F06F5FE7243F860
:104A7000044F9342FBD13B6859469B693246384606
:104A8000984700283FF4EEAE3B6805999B690D31CD
:104A900032463846984700283FF4E4AEB8F1000F9C
:104AA00006D0D8F8003089495B680C224046984708
:104AB000029B4FF40072002130469D000BF07AFA01
:104AC0003346F82203F8132B049A0799524405F24F
:104AD000072514466A0A1046FF2201F8012F8B426F
:104AE000FBD14FF0000B2346CDF810905C46AD0B88
:104AF00081469B4604E0002C68D00134A1451CD0BF
:104B0000B4FBF5F305FB13434BB901227049404652
:104B1000B8F1000F03D0D8F800305B6898473B68C5
:104B200032469B6904EB0B01384698470028E2D1D6
:104B3000B8F1000F7FF43CAE41E6DDF81090B8F11B
:104B4000000F30D0D8F8003062495B68022240463E
:104B50009847029C039B0734E40804F2FF156D0A92
:104B60009D423FF625AE4FF40072002130460BF017
:104B700021FA072333704FF0000B06E0BBF1000F62
:104B80007ED00BF1010B5D452BD03B6801999B69F1
:104B900032465944384698470028EFD1B8F1000F03
:104BA0007FF406AE0BE6029C039B0734E40804F294
:104BB000FF156D0A9D423FF602AE4FF4007241466A
:104BC00030460BF0F7F907233370D4E74FF4007247
:104BD000214630460BF0EEF98FE74FF480710391D8
:104BE00005E6B8F1000F5ED03B494046FBF7F8FD03
:104BF000039B4FEA4A0A0AEB03014846FFF76AFDA6
:104C000000283FF4D5ADD9F80830039AB3EB422F12
:104C10003FF6CEAD31494046FBF7E2FD4FF400725E
:104C2000002130460BF0C6F90323822281200221A5
:104C3000337086F82000716386F84020D9F804208C
:104C400072647365039AD9F80830B3650025B463BC
:104C50000AEB420AF56504E0F5B1039B01359D427C
:104C600011D03B6832469B690AEB050138469847EC
:104C700004460028F0D1B8F1000F7FF499AD9EE50D
:104C800086F800B07DE7B8F1000F3FF499AD4046DB
:104C90001349FBF7A5FD93E54FF400722946304612
:104CA0000BF088F9D9E7039B4FEA4A0A0AEB0301A4
:104CB0004846FFF70FFD00283FF481ADD9F80830D2
:104CC000039AB3EB422F3FF67AADA7E7BC4401004D
:104CD000E83E0100E0440100CC440100E44401004E
:104CE000F444010010B500F10C0204464068A168CC
:104CF00003689B69984718B1237823F00103237058
:104D000010BD00BF00224FF0FF3302708360704778
:104D1000F8B54568FDB183688B42044617460E46D8
:104D20000ED00378DA0712D4BB0716D504F10C05B0
:104D300007F001020023134323702846A660F8BD44
:104D400010F90C3B07F0010213432370F8BDFFF785
:104D5000C9FF0028E8D10020F8BD6068036804F1AD
:104D60000C059B682A46314698470028E0D1F2E7B7
:104D700038B50C46D0F81C14154601EBD41100F5DB
:104D800003700022FFF7C4FF40B1A400C4F308047D
:104D900003595A1C04D02B60012038BDFF2038BDB8
:104DA000002038BD38B50C46D0F81C14154601EB70
:104DB000D41100F503700122FFF7AAFF034628B1C2
:104DC000A400C4F3080401201D5138BD38BD00BF44
:104DD0000378DB0701D401207047FFF783BF00BFD2
:104DE0002DE9F84F804691468B46002944D08F1E0E
:104DF000D8F828349F423BD207F00705012303FA75
:104E000005F5EDB2C7F3C80A3E463C46D8F824146F
:104E1000002201EB14314046FFF77AFFC0B110F8D1
:104E20000A100AE04A452AD0A74210D0D8F8282410
:104E3000944217D213F0FF050CD001340D424FEA13
:104E40004503A4EB0602EDD0A7422646EED1012091
:104E5000BDE8F88F0AF1010ABAF5007F4FF00105AD
:104E6000DDD101E0002634464FF0000A0125CDE7F0
:104E70000027BA460125C7E7D0F81874B8E7BBF198
:104E8000000F04D1B9F1010F08BFC8F81864B01CB5
:104E9000BDE8F88FF8B5044600234FF0FF3600F563
:104EA0000377C0F838144160C0F810121546384630
:104EB00084F83C34237084F80C32A660C4F8146281
:104EC0001A461946FFF724FF042D0CD8064650B1A8
:104ED0005DB905222649F01C0BF0C0FB18B996F805
:104EE0006C30092B19D00020F8BD6B1E00EB0313AA
:104EF00093F8BE2112F07F02F5D193F8C231002B56
:104F0000F1D000EB05153846D5F8B6512946FFF724
:104F1000FFFE06460028DCD1E5E7336D2B44C4F8DC
:104F20001C34736DC4F82034B36D1D44C4F824548C
:104F3000F36DC4F82834336EC4F82C3496F86D3011
:104F400084F83D340125093305FA03F35A1EC4F8E9
:104F500018040146C4F83434C4F8302420462A46E4
:104F6000FFF73EFF402384F83C342846F8BD00BFDD
:104F7000144501002DE9F04702398046D0F8280495
:104F800015468A18824238D89A46D8F81834BAF1A9
:104F9000000F35D1994238BFC8F8181401F0070442
:104FA0000122D8F8243402FA04F4E4B203EB1139F4
:104FB000C1F3C8060122494640469144FFF7A8FEC6
:104FC000D8B1871900F5007017F8012B224214BFE1
:104FD00001260026564582EA04024FEA44040CD01A
:104FE000013D07F8012C15D014F0FF04EED1B842B2
:104FF00026464FF00104E7D1DCE70020BDE8F0874A
:105000009942CBD89A42C9D9824228BF0022C8F817
:105010001824C3E70120BDE8F08700BF70B582B057
:1050200002AE054646F8041D0024D5F8283401993F
:105030000133994202D9002002B070BD32462846A1
:10504000FFF796FE40B20028F5DB04F10104ECD135
:10505000204602B070BD00BFF8B50E4696E82800A5
:10506000D0F83014D0F8244490F83D742940023B25
:1050700004EB5121BB40194400F50370FFF748FED3
:1050800018B17368C3F308031844F8BD70B54C68D1
:105090000D46A318D0F830146B6090F83D340C40E6
:1050A00009332244DBB222FA03F406463CB12B7AE0
:1050B0003BB12B6801332B60013C002CF7D1012060
:1050C00070BDD6F8283429680133994202D94FF0CF
:1050D000FF3070BD2A463046FFF74AFE40B2012835
:1050E000EAD070BDD0F8283401338B4201D2FF20C2
:1050F0007047FFF73DBE00BF01290DD9D0F8283415
:105100000133994210B403D900205DF8044B704775
:105110005DF8044BFFF746BE00207047F0B50C4623
:1051200083B005460E46D5F8283401339C4202D997
:10513000002003B0F0BD01AA21462846FFF718FE63
:1051400047B2002FF4DB012CF2D9D5F82834013313
:105150009C42EDD8002221462846FFF723FE002876
:10516000E6D0019B01349C420BD1002FDBD13B46A2
:10517000A21B31462846FFF7FDFE0028D8D003B019
:10518000F0BDA21B314600232846FFF7F3FE00289E
:10519000CED0019C002FCCD02646C4E72DE9F843A1
:1051A0000024D0F82464804600F503772546314674
:1051B000002238460136FFF7ABFD30B300F1FF3E69
:1051C000D8F828C41EF8010FFF2805F5805913D020
:1051D00048B10822012318424FEA430118BF0134A5
:1051E000013ACBB2F7D10835AC450AD94D45DED0EE
:1051F0001EF8010FFF28EBD10835AC4504F1080477
:10520000F4D8C4EB0C00BDE8F883BDE8F88300BF18
:1052100010B50446D0F82C14FFF700FF94F83D3485
:105220000933DBB2984010BD7E2808D8A0F1610395
:10523000192B8CBF00232023C01A80B2704730B4D2
:105240000023234D352405E035F8221081428CBF20
:1052500014461346E11A012903EB5102F4D89BB21C
:105260001B4935F82320904219D24B240023194DB5
:1052700005E035F8221081428CBF14461346E11A2E
:10528000012903EB5102F4D89BB2124A35F82310DE
:10529000814204BF02EB8303588830BC704701EBA6
:1052A0008303821AD9788A42DFDA93F90230012B1C
:1052B00008D023B19BB2184480B230BC70474EF284
:1052C000A033F8E702F00102801A80B2E5E700BFE0
:1052D000484601001C450100C9B110B40144D30384
:1052E00043EA520310F8012BA2F16104192C9CBF70
:1052F000203AD2B212FA83F292B2D30343EA5202B4
:10530000814292B2EBD110465DF8044B70471046D3
:10531000704700BF43B370B444887E2C1ED813443A
:10532000CD180A44023012F8013BE4B2A3F1610146
:105330001929A4F1610194BF20260026192994BFE0
:10534000202100219B1B641ADBB2E4B29C4205D1F0
:10535000AA4206D030F8024F7E2CE4D9002070BC5F
:105360007047012070BC70470120704738B5044673
:105370000D46242200210AF01DFEA560EB79102BBA
:1053800008D0202B04D1402301202370A07038BD09
:10539000002038BD202301202370A07038BD00BF3D
:1053A000024638B552F8105F04462946806801F07D
:1053B0009DFA50B155B123690135AB42A37818BFAE
:1053C00003F0BF0363F07F03A37038BDA37843F0FD
:1053D0004003F7E72DE9F041037803F020032BB9F0
:1053E00003F0FF0441691F4B994203D90026304660
:1053F000BDE8F0810546FFF7D3FF06460028F5D04B
:105400002969A86801F010FA0746A86839462430CF
:10541000052201F0D1F980460028E7D04FF4007250
:1054200021460AF0C7FDAB681A79012A10D9012478
:1054300003E0AB681A79A2420AD918680368E11937
:105440009B69424698470134E4B20028F1D1CDE788
:105450009B7969694FF4007202FA03F311FA83F33E
:105460006B61C4E7FFFD1F0010B5044680680A4663
:105470002430A16901F0A0F920B1A38803F00F0343
:1054800000EB431010BD00BF30B590F90230002B87
:1054900083B0044619DBA56805F1240001F0BCF9CE
:1054A00030B9637843F001036370002003B030BD6E
:1054B00005F50C7001F0B0F90028F2D028680368F7
:1054C0005B6998470028ECD0F0E70121FFF7CCFF9B
:1054D00005460028E5D00378E52BE2D023780D4A75
:1054E0001B0744BFE369C361236A126843831B0C33
:1054F000838252B10DF1060101A89047BDF8043036
:10550000BDF806202B836B82EA82A37803F07F0329
:10551000A370C0E7A031FF1F10B50378044623B97C
:1055200000232370A370012010BDFFF7ADFF0023FF
:105530002370A37010BD00BF38B5037805460C4634
:10554000B3B928460021FFF78FFFA8B10168426870
:105550008368C568E56021606260A3600169426993
:105560008369C569E56121616261A361012038BD7C
:10557000FFF78AFF0028E4D1002038BDF0B50646C9
:1055800093B03578019200208DF824008DF8250025
:105590008DF826002DB91F460B7813F0700F0C46BE
:1055A00002D1002013B0F0BD13782F2B104617D175
:1055B0000130019003782F2BFAD0002B35D0A16851
:1055C00009A8FFF7D3FE0028EBD0019809AC07E04B
:1055D0003046FFF759FF002301983370B37009ACD0
:1055E00001AA03A900F092FB03AA21460123002887
:1055F000D7D0019D2D7830467DB100F0FFFD3546B6
:1056000009AC0028CDD00FCD0FC40FCD0FC4337817
:105610002A682260002BDED0DAE73B4603AA214647
:10562000304600F0EBFD13B0F0BDA1683046FFF747
:105630009DFEB7E719B101F23C41FFF79FBF084655
:10564000704700BF03780BB100207047FFF78EBE94
:105650002DE9F04F8378DF0783B0054640F1908055
:105660000F4601780E07914600F193808C0608D50D
:10567000826843691289C3EB42139BB2994528BFE4
:105680009946B9F1000F00F0AA806B69AA688806F4
:105690004E464FF0000805F1100AC3F3080B3FD542
:1056A000116A01EB5321BBF1000F53D1B6F5007F16
:1056B00050D3D36A99424DD0B6F5806F72D3287813
:1056C0008006C6F3472B06D41079C8EB0000C0B2A1
:1056D000834528BF834699424FEA4B240BD35B4452
:1056E000994208D202F12400019101F095F80028B6
:1056F00046D0AA680199106802685B46D2F80CB0DF
:105700003A46D84700283BD06B69361B23442744D0
:105710006B6164D02978AA688806C3F3080BBFD4EC
:1057200092F8058008EA5328BBF1000F38D1B8F190
:10573000000F35D1002B3FD149064CBF116A296AB1
:105740002961104601F070F8AA6808EB0001BBF16E
:10575000000FABD002F12400002201F02DF878B147
:10576000CBF50074B44228BF344600EB0B0122464F
:10577000384606F01BFBC7E72B7813F0700F2FD1CC
:105780006B784FF0FF3043F002036B7003B0BDE85D
:10579000F08FC36942699B1A994528BF994670E703
:1057A0002969CEE7106803683A469B689847002845
:1057B000E6D04FF40074A7E70B0705D5AB785C067D
:1057C00002D529690131BBE710462969524601F02B
:1057D00031F80028D4DBCFD0AA682969B1E70026C8
:1057E000C6EB090003B0BDE8F08F00BF70B582B012
:1057F00001220DF10701044646690569FFF728FFFC
:10580000012808BF9DF80700666118BF4FF0FF3000
:10581000256102B070BD00BF30B54369C3F34315C5
:1058200083B0044605B189B901220DF10701204674
:10583000FFF70EFF40B201280BD163691F3363618C
:10584000A068303000EB451003B030BD2033436119
:10585000F6E7002003B030BD2DE9F0410378076979
:105860000446B3B142698A420E463AD041B9216139
:10587000A378666123F02003A3700120BDE8F081C6
:1058800018070AD499060BD5A3681B89B6EB431FEA
:10589000EED927610020BDE8F081E1698E42F8D899
:1058A000D4F808E09EF806500935E9B2501E751E7E
:1058B000C840CD40A84200D8B2B95B064CBFDEF864
:1058C0002030236A236104F110084246002DCFD016
:1058D0002169A06800F0AEFF002805F1FF35F4DC77
:1058E000D7E70120BDE8F0812D1AECE72DE9F04162
:1058F0000D4690460021242204461F469DF818605C
:105900000AF058FBA8682B6AE36000F1300208F047
:105910000F0302EB4312A060A4F80480D17A0B07B6
:1059200011D401F017012170D37AE67013F0180F2B
:1059300004BF41F00801217017F0320F08D023781E
:1059400013F0110F04D000202070A070BDE8F0818A
:1059500007F00705A570918A538BC66AA661FE06FB
:1059600043EA014106D5BA07EDD591B965F07F0547
:10597000A57002E02162D369E361BB0602D4012075
:10598000BDE8F081E1692046FFF766FF0028F6D107
:10599000D9E700F0E7FF0028D5D0A578E6E700BFFB
:1059A00003781BB90B7813F0700F01D100207047FA
:1059B0002DE9F0474E6916F01F0782B021D19146BC
:1059C0000D468046BA4601E000276E690021284650
:1059D000FFF722FFA8B103789BB12E2BF4D0E52B63
:1059E000F2D0C27A110710D50F2AEDD15A06ECD5A4
:1059F00003F01F0790F80DA0E7E700F05DF982457E
:105A000005D0002002B0BDE8F087002FF5D1009747
:105A10004B46C6F34F1229464046FFF767FFF1E7B2
:105A200003780BB1FFF730BD0120704783789B07E7
:105A30001AD5036AB3B110B5016982B00446F1B951
:105A4000019301621946A06800F08CFFA8B1A37809
:105A500022786169E16163F07F03A370EAB90120F4
:105A600002B010BD01207047002070476FF07042F7
:105A70002169A06800F00EFF58B90020F0E702AAE3
:105A8000002342F8043D806800F0D4FE0028F4DBD7
:105A9000ECD1019B002BDAD0D4E72046FFF7F4FCD1
:105AA000DEE700BF2DE9F04783789D07044607D461
:105AB000637843F0010363704FF0FF30BDE8F08777
:105AC00088465907914600F1C2806369DA439145DF
:105AD000EED8B9F1000F00F0C1804E464FF0000A39
