:1000000000000320D1010000CDC2000085C2000025
:1000100085C2000085C2000085C2000085C20000C4
:1000200085C2000085C2000085C20000CDC200006C
:10003000CDC2000085C200008DD6000091D6000020
:10004000CDC20000CDC20000CDC20000CDC2000074
:10005000CDC20000CDC20000CDC20000CDC2000064
:10006000CDC20000CDC20000CDC20000CDC2000054
:10007000CDC20000CDC20000CDC20000CDC2000044
:10008000CDC20000CDC20000CDC20000CDC2000034
:10009000CDC20000CDC20000CDC20000CDC2000024
:1000A00075BA000081BA0000CDC20000CDC20000C8
:1000B000CDC20000CDC20000CDC20000CDC2000004
:1000C000CDC20000CDC20000CDC20000CDC20000F4
:1000D000CDC20000CDC20000CDC20000CDC20000E4
:1000E000CDC20000CDC20000CDC20000CDC20000D4
:1000F000CDC20000CDC20000CDC20000CDC20000C4
:10010000CDC20000CDC20000CDC20000CDC20000B3
:10011000CDC20000ADC80000CDC20000CDC20000BD
:10012000CDC20000CDC20000CDC20000CDC2000093
:10013000CDC20000CDC20000CDC20000CDC2000083
:10014000CDC20000CDC20000CDC20000CDC2000073
:10015000CDC20000CDC20000CDC20000CDC2000063
:10016000CDC20000CDC200008DBA00009192000007
:10017000C19200009D920000BD920000B992000063
:10018000A9920000A5790000CDC20000CDC20000F8
:10019000CDC20000CDC20000CDC20000CDC2000023
:1001A000CDC20000CDC20000CDC2000099BA00004F
:1001B000CDC20000CDC20000C5920000F592000043
:1001C000D1920000F1920000ED920000DD9200005B
:1001D0005C4B4CF2205210B51A804DF628121A8052
:1001E00000BF00BF0CF076F8574B4FF030621A603A
:1001F000564A9A60564ADA60564B4FF470021A60BB
:10020000554B564A1A60564B1A78110703D51A787F
:1002100042F008021A70534B5349AA221A70534AEB
:10022000534B8B4204D252F8040F43F8040BF8E707
:10023000504B514900228B4202D243F8042BFAE77B
:100240004E494F4A002352F8230041F8230001335E
:10025000742BF8D14B4B4C4A802103F8011B93427D
:10026000FBD14A4B454A1A60494B8A221A70A3F5C2
:10027000805324225A70A0221A709A799207FCD5D2
:100280009A79D406FCD4434A937903F00C03082BE3
:10029000FAD1414B60221A7002331A78802AFCD1BD
:1002A0003C4B01221A715D225A719A799006FCD555
:1002B0009979384A4906FBD5384B394919600021EC
:1002C000596020231370937903F00C030C2BFAD19F
:1002D000344B354A1A60354A354C136813F4807331
:1002E00003D123604FF4A8531360324B324A1A6093
:1002F00000225A60072243F8042C304AC3F80C2D20
:1003000062B60CF063F92368DA0705D52C480CF0C7
:10031000B9F82C4B2C4A1A602C4B1B785B0609D57C
:10032000284C294B22689A4204D125480CF0AAF89F
:10033000002323600BF0D4FF0EF02EFC0DF0DEFC4A
:10034000FEE700BF0E20054030800440823F0400DD
:100350000100002B88ED00E0002008E0030000858C
:1003600002D0074000E00740A01CFF1F70450100BD
:100370003007FF1FA01CFF1F3C99FF1F0002FF1F3B
:100380000000000000E400E064E400E008ED00E0AC
:10039000005006400040064001E007404480044011
:1003A0000000060204800440C010070010D0034083
:1003B00014D0034014E000E01FBF02000000202022
:1003C000523F6E621CE00340A5C3945A00F0074000
:1003D000FFFFFFFFFFFFFFFFFFFFFFFFFFFFFFFF2D
:1003E000FFFFFFFFFFFFFFFFFFFFFFFFFFFFFFFF1D
:1003F000FFFFFFFFFFFFFFFFFFFFFFFFFFFFFFFF0D
:10040000FFFFFFFFFFFFFFFFFFFFFFFFDEF9FFFF23
:1004100010B5054C237833B9044B13B10448AFF33E
:1004200000800123237010BDA01CFF1F00000000EE
:100430006C450100084B10B51BB108490848AFF3E3
:1004400000800848036803B910BD074B002BFBD0A0
:10045000BDE81040184700BF00000000A41CFF1FAB
:100460006C450100A01CFF1F000000000020704729
:100470004FF0FF30704700BF704700BF704700BFAC
:10048000704700BF0023034A19460E2013700CF07A
:100490000DB800BFA828FF1F0123034A19460E20EC
:1004A00013700CF003B800BFA828FF1F10B5034B52
:1004B0000360044602F04CFE204610BD1C2E0100D5
:1004C000836C13B1184605F0FFB8C06C08B103F097
:1004D000AFB84FF0FF30704708B50CF001F8034B90
:1004E0001860BDE808400BF0C7BF00BF502CFF1FCD
:1004F000F8B50D46064609F04DF9044609F03AF9FB
:10050000074609F027F9A4F2BC739BB27F2B02D8EF
:10051000FAB20C2A22D90023338009F0EBF8064600
:1005200009F0F8F8044609F005F9F3B2172B12D8D0
:10053000E3B23B2B0FD8C3B23B2B0CD8F3026401C0
:1005400003F4FF2304F4FF542343C0F346000343A2
:100550009BB22B80F8BD00232B80F8BDC0B21F28B2
:10056000D9D87F0107F4FF57384340EA43239BB2B1
:10057000D2E700BF00B5836C83B063B11846012297
:100580000DF1070104F0D2FF01280CD19DF80700FE
:1005900003B05DF804FBC06C28B101220DF1070126
:1005A00002F070FFF0E74FF0FF30F1E700B50146D1
:1005B00083B0084808F05AFC074B084A19680191B3
:1005C00013680749019808600133136003B05DF8B0
:1005D00004FB00BF6431FF1FB897FF1F602CFF1F93
:1005E000081FFF1F00B5014683B0084808F03EFC15
:1005F000074B084A19680191136807490198086078
:100600000133136003B05DF804FB00BF4C64FF1FAF
:10061000B897FF1F642CFF1F1021FF1F826C62B16F
:10062000137803F0080303F0FF0003B3D3695069A4
:10063000181A48BF6FF000407047C16CC1B191F803
:10064000313003F0080303F0FF0083B1D1E9042344
:10065000D1E90001101A30B463EB010100256FF0FD
:1006600000448D4208BF844200D2204630BC70470F
:1006700008467047836C13B1184605F03FB9C06C4B
:1006800008B103F0FDBC704770B5264CADF5047D94
:1006900025460DE004F04AFF0346002B4FF400719D
:1006A00004A819DD0CF04AFE0CF01EFE01281DDC2A
:1006B000A36C4FF4007204A91846002BEAD1E86C31
:1006C00050B104A94FF4007202F0DCFE0346002B87
:1006D0004FF4007104A8E5DC002105200BF0E6FED4
:1006E000104802F035FD0DF5047D70BD78230A2217
:1006F00068460D490DF058F969460C480DF022FA8C
:1007000068460DF0B5F90A4968460DF0F1F96946F9
:1007100006480DF067FA064668460DF0A9F9002E66
:10072000C6D0D9E7FC2BFF1F4012FF1F1421FF1F6B
:10073000E032010000B5836C83B08DF8071043B13F
:10074000184601220DF1070105F01AF903B05DF812
:1007500004FBC06C0028F9D001220DF1070103F061
:10076000A7FD03B05DF804FBF0B51A4EB06CADF513
:10077000037D3746F8B14FF4007202A904F0D6FEAB
:10078000002821DD0DF107040DF2072514F8012FD3
:10079000114901A80FF018F801A80FF0B1F80146AF
:1007A00001A80CF0CBFDAC42F0D10C480CF08EFF50
:1007B000B06C0028DFD1F86C30B14FF4007202A9A0
:1007C00002F060FE0028DDDC024802F0C1FC0DF5FD
:1007D000037DF0BDFC2BFF1F382E01004012FF1FD0
:1007E00070B5044608460D460FF08AF823680246A5
:1007F000294620465B68BDE87040184738B5044676
:1008000008460D460FF07CF82368024629465B68CF
:1008100020469847054620460CF058FF284438BD2E
:1008200010B5064C0021204609F0E4FB04F2022139
:1008300020220348BDE810400BF08CB9DC1CFF1FE0
:10084000002BFF1F70B5204B2049214AD3F8785464
:1008500000248EB006460C701470E5B1024629469D
:10086000012368468DF800408DF801408DF8024064
:1008700004F04EFEF8B1174B196821B1324601233E
:10088000154802F079FC012105200BF00FFEFFF75F
:10089000FBFE0EB070BDD3F87C1461B1024601239B
:1008A00068468DF831508DF832508DF8335003F092
:1008B000C7F90028DFD11B2108480CF03FFD08488C
:1008C0000CF004FF0EB070BD4421FF1FEB2BFF1F87
:1008D0006B07FF1F1431FF1FFC2BFF1F402E010071
:1008E0004012FF1F2DE9F04F414B4249D3F8787475
:1008F000414DA3B000264FF47A720E9581460E70DA
:100900008DF83C608DF84460209621961092002F5F
:1009100053D03946684601234A466C468DF800603C
:100920008DF801608DF8026004F0F2FD002855D0CA
:10093000324B19680DF1380821B14A46404601236F
:1009400002F01AFC20986FF0004A4FF0000BD8B16B
:1009500003781A0706D440460E9502F0F9FB23B03F
:10096000BDE8F08FC26943699A42F4D00122214662
:1009700004F0DCFD01280CBF9DF80000FF200CF006
:1009800061FD20980028E3D121980028E3D090F859
:1009900031301B07DFD5D0E90423D0E90067921B73
:1009A00063EB07039B4508BF924501D3002AD2D0D1
:1009B0000122214602F066FDDCE7D3F87C1469B120
:1009C000684601234A466C468DF831708DF83270C6
:1009D0008DF8337003F034F90028A9D11B210848A1
:1009E0000CF0ACFC07480CF071FE0DF13808B2E7D2
:1009F0004421FF1FEB2BFF1F1C2E01001431FF1F92
:100A0000402E01004012FF1F10B5044614F8013BB0
:100A1000184633B12E2BF9D00EF0E6F80028F5D1A8
:100A200010BD012010BD00BF84B030B593B016AC2E
:100A300084E80F009DF870509DF867400BF050FD62
:100A40009DF866301699009003F001032A46029340
:100A500001911D9B1549039405A80EF0B5FE05A84C
:100A60000EF04EFF014605A80CF068FCACB1651E07
:100A7000EDB2103516AB1D440DF1670414F8012FCB
:100A80000B4904A80EF0A0FE04A80EF039FF0146A1
:100A900004A80CF053FCAC42F0D106480CF016FE52
:100AA00013B0BDE8304004B0704700BF5C2E0100B9
:100AB000782E01004012FF1F70B5134C04F59165AC
:100AC000264601210E200BF0F1FC32200BF02CFD0C
:100AD00000210E200BF0EAFC32200BF025FD4FF038
:100AE00000010A4806F076FF0848C4F8845406F06E
:100AF0009FFB0028E5D1D6F88414034802F080FB60
:100B00000028DED070BD00BF4421FF1FCC25FF1F91
:100B100008B54FF40072154915480BF01BF8154B3A
:100B2000986C70B14FF40072114904F029FFB0F5D0
:100B3000007F10D11049114B0120002208701A606B
:100B400008BDD86C38B14FF40072094903F0B0FB0E
:100B5000B0F5007FEED00C2109480CF0EFFB0948FE
:100B60000CF0B4FDBDE80840FFF7A6BFEC28FF1F5E
:100B7000A026FF1FFC2BFF1FEA2BFF1F3C2BFF1F94
:100B8000802E01004012FF1F204B99784A1CD2B2E0
:100B90003A2A9A701BD05B2A26D02F392A2984BF83
:100BA00030229A705A783A2A16D05B2A23D0303AEB
:100BB0002A2A84BF30229A701A783A2A11D05B2AE6
:100BC00020D0303A2A2A84BF30229A7070474122BE
:100BD0009A705A783A2AE8D141225A701A783A2AF9
:100BE000EDD141221A7070475A780132D2B23021C9
:100BF0005A709970D7E71A780132D2B230211A7040
:100C00005970DAE730221A70704700BF3C26FF1F88
:100C10002DE9F04F804E814F85B0701C40F23A2292
:100C200000210EF075FB06F101080023C8F111093F
:100C300006F23A2534463B8009EB04000BF038FA03
:100C400004F8010FA542F7D1754CC4F512750235B1
:100C500004F12A0928190BF02BFA04F8010FA14519
:100C6000704BF7D1704871490193062284180AF03D
:100C700071FF019B6E4D93E8070003C403F10A0165
:100C80002280681C20220AF065FFA01C0922694905
:100C90000AF060FF0B3405F1200AA94619F8012F6C
:100CA000654903A80EF090FD2046022203A90AF030
:100CB00051FFCA4504F10204F0D170200DF026F86E
:100CC0005E4CDFF8AC91834608F0E4FDA4F5BA7001
:100CD000C9F800B00EF014FEA4F5BA7102465846E9
:100CE00008F0C2FED9F80000554908F0DFFED9F837
:100CF000000070210DF00CF809225249A4F10900FE
:100D00000AF028FF15F8012F4B4903A80EF05CFDEF
:100D1000BDF80C3024F8023BAA45F3D100234A4821
:100D200047494A4D1A4600F5C87409F0D1FB484BB3
:100D300093E80300C8F8B40188F8B81104F140083A
:100D400014F8012F3C4903A80EF03EFD284602226C
:100D500003A90AF0FFFEA04505F10205F0D13D48C8
:100D60000CF0B4FC3C4B196821B343233B4A3C488C
:100D700002F002FAF0B13A4D002402E004F000FE65
:100D8000013438480EF0BCFDA0424FF0010203A927
:100D90003DD9AB6C16F8010F8DF80C001846002BEE
:100DA000ECD1EB6C012203A91846002BE8D003F02C
:100DB0007FFAE5E735212C480CF0C0FA25480CF005
:100DC00085FC26480EF09CFD014624480CF0B6FA3E
:100DD00020480CF07BFC172124480CF0AFFA1D488A
:100DE0000CF074FC1F480EF08BFD01461D480CF002
:100DF000A5FA18480CF06AFC40F23A220021194882
:100E00000EF086FA00233B8005B0BDE8F08F144851
:100E100002F09EF9DFE700BF672CFF1FEC2BFF1FDE
:100E20003F26FF1F4026FF1F7A2DFF1F902E010037
:100E3000BB1CFF1F982E0100A42E0100DC2DFF1FFC
:100E4000BC1CFF1FAC2E0100DC1CFF1F212EFF1F4E
:100E5000082F01004012FF1F1431FF1FAC30FF1F8D
:100E6000C430FF1F682CFF1FD02E0100B82E0100D8
:100E7000FC25FF1F30B5754B1B7895B0002B52D069
:100E8000734C744A23680193019B11685B1A312BE0
:100E900000F2C080704B1B78002B2ED023686F4A65
:100EA0000793079B11686A485B1A312B00F2C080D8
:100EB0006B4B1B785BB123686A4A0D930D9B1168DD
:100EC00063485B1A312B00F2968015B030BD664B3B
:100ED0001B78002B6AD02368644A0F930F9B11681C
:100EE0005B485B1AB3F5FA7FEFD3614C0168237856
:100EF000109183F00103109984E05E4B1B78002B66
:100F000040D023685C4A0993099B116850485B1ADA
:100F1000B3F5FA7FCCD3594D01682B780A9183F051
:100F200001030A998BE0564B494C1B78B3B12368F7
:100F3000544A0393039B11685B1AB3F5FA7FA9D354
:100F4000514821680378049183F00103049D0370E4
:100F50001946062015600BF0A9FA9BE723684B4A57
:100F60000593059B11685B1AC82B93D923680693D8
:100F7000069B454D13600123194606202B700BF08C
:100F800095FA87E7226842490B920B9A0868304D20
:100F9000121AC82A8CD92A680C920C98374A086011
:100FA0001946052013700BF081FA81E72268394950
:100FB0001192119A09682648521AB2F5967F84D385
:100FC000026835491292129A0968521AB2F5967F50
:100FD000FFF47BAF026831491392139A0968521AE1
:100FE000B2F5967FFFF471AF214A19460E201370B7
:100FF0000BF05CFA69E71E4C016823780E910E999C
:1010000083F0010311600E20194623700BF04EFA95
:1010100015B030BD1C4821680378029183F00103AC
:10102000029D03701946062015600BF03FFA31E768
:10103000124D01682B780891089983F00103116023
:10104000052019462B700BF031FA31E7C030FF1F35
:10105000B897FF1FD02BFF1F5E2CFF1FA428FF1F78
:101060002421FF1FF82AFF1F2521FF1FA42EFF1F89
:10107000A828FF1FCC2BFF1FD42BFF1F4C2CFF1FBA
:10108000542CFF1F3021FF1FB428FF1FA028FF1F73
:10109000F42AFF1F081FFF1F1021FF1F0C21FF1F35
:1010A0002DE9F043C64EC74B717B306995B00024E3
:1010B0004FF0120E01251327049322460595039441
:1010C00000942346CDF808E0019709F0EDFC324684
:1010D0006021BD4808F000FF002800F011822E2199
:1010E000BA48BB4FBB4E0CF029F9BB480CF0EEFAE6
:1010F0002146B54809F098F822462146B24808F042
:10110000CDFF1421B5480CF019F9B3480CF0DEFA04
:10111000B34BB4481C704FF480710CF0B1FC2946FD
:101120002A200BF0D7F9294629200BF0D3F92946BC
:1011300028200BF0CFF921462A200BF0B7F92146E1
:1011400029200BF0B3F9214628200BF0AFF92946EE
:1011500006200BF0BFF9294605200BF0BBF9294604
:101160000E200BF0B7F9294627200BF0B3F99E4B60
:101170003D70294606201D7035700BF097F93978BF
:1011800005200BF093F931780E200BF08FF9022136
:101190001C200BF09FF99549954808F0EDF895490A
:1011A000934808F0EBF89449914808F0E9F893491E
:1011B0008F4808F0E7F892498D4808F0E5F83221A9
:1011C0008B4808F0D3F84FF4FA61894808F0D2F858
:1011D0004FF4FA71864808F0CBF8FFF721FB294657
:1011E000884807F085FA2946874807F081FA2346A0
:1011F000864A84480094214607F078FC2346834AB7
:1012000081480094214607F071FC21467D4807F093
:1012100007FB21467C4807F003FB2946794807F085
:101220007BFA2946784807F077FA794B79489A7B18
:1012300008212A439A73D97308F0C6FA08F0BCFA59
:10124000022800F065811B2173480CF077F8624892
:101250000CF03CFA012008F0C5FA08F09BFA0446AD
:1012600008F088FA054608F075FA814608F042FA57
:10127000064608F04FFA074608F05CFA80460BF085
:101280002FF9664BCDF800901968CDF80C80401A04
:101290002B46224662490490029701966148624CAF
:1012A0000EF092FA5F480EF02BFB01465D480CF001
:1012B00045F849480CF00AFA04F591655B4B5C4A25
:1012C0001A6028464FF0000106F084FB2846C4F857
:1012D000845405F0ADFF002800F0738155493E4865
:1012E000FFF78CFAFFF7E8FB182153480CF026F8BB
:1012F000D4F878344C4A002B00F05B81D96901396D
:1013000000230A2234480CF00BFA33480CF0DEF9C3
:1013100017214A480CF012F8D4F87804424B002800
:1013200000F03F8105F0A4FA014600230A222A4872
:101330000CF0F6F928480CF0C9F9D4F878043A4BC7
:10134000002800F0278105F093FA41F28733984294
:1013500040F209813A4B3B481C6017210BF0EEFF2D
:10136000394E042528460AF0A3FE01350A2D06F859
:10137000010BF7D1344D2846FFF746FB20B9334B1C
:1013800093E803002860A980314E0C253746284693
:101390000AF08EFE0135102D07F8010BF7D12C4D08
:1013A0002846FFF731FB08B92A4B2B6005212A4854
:1013B0000BF0C4FF08480CF089F9234B274A4FE093
:1013C0008497FF1FA0860100DC1CFF1F102F010067
:1013D0004C2CFF1FA828FF1F4012FF1F402F0100A9
:1013E000EA2BFF1F1421FF1FB428FF1FCD2400008C
:1013F0000026FF1FD91B00007D04000085040000AB
:10140000990400006431FF1F4C64FF1F3497FF1FD5
:10141000402BFF1FD9040000782F0100502CFF1F24
:10142000B02F0100A02BFF1F4421FF1F6031FF1FC1
:10143000F1040000D42F010004300100203001002D
:101440001431FF1F6C3001002821FF1FE030010024
:101450003C26FF1F30303000843001009C26FF1FE7
:101460005C495D480EF0B0F917215C480BF066FF4F
:1014700059480EF045FA014657480BF05FFF5848AF
:101480000CF024F9574B584A5849009658480EF02A
:101490009BF9544B0096544A564957480EF094F91C
:1014A000D4F87854554B002D4BD006AE2946304623
:1014B000002501234E4A8DF818508DF819508DF8EB
:1014C0001A5004F025F805463DB343200AF028FDE4
:1014D00007EE900AFAEEEF7A494C4A494048FDEE91
:1014E000E77A17EE902AC4ED007A0CF00BF9464922
:1014F000464B0120042208701A8015B0BDE8F08325
:101500001F2143480BF01AFF35480CF0DFF8FEE7C7
:1015100040493348FFF772F99CE6D4F87814374B0A
:1015200041B330460123344A8DF818508DF81950D4
:101530008DF81A5003F0ECFF0028C6D0FFF768FBC7
:10154000C3E7D3F87C140029BFD006AE3046012390
:10155000274A8DF849508DF84A508DF84B5002F0CB
:101560006FFB0546B0E72C491D48FFF747F9FFF729
:10157000A3FAEFE6D3F87C140029A6D03046012365
:101580001D4A8DF849508DF84A508DF84B5002F0A5
:1015900057FBD1E7D3F87C040028E4D003F076FDB4
:1015A000D3E6D3F87C0400283FF4BEAE03F06EFD12
:1015B000BAE6D2F87C1400293FF4A2AED1F8281480
:1015C0009EE6D4F88414204601F01AFE00283FF469
:1015D00085AE89E68C300100582CFF1F9430010045
:1015E0004012FF1F2821FF1F9C26FF1FAC30010067
:1015F000AC30FF1FB8300100C828FF1F4421FF1F77
:101600005C2BFF1FC43001006B07FF1FE82BFF1F7F
:10161000582F0100942F0100383001002DE9F04FC0
:101620007F4D8048804F814E85B009210BF086FEAA
:101630002C887C493819092209340AF08BFA06F102
:10164000200A2C80B3461BF8012F7949DFF8D0918E
:10165000DFF8D48103A80EF0B7F803A80EF050F914
:10166000014603A80BF06AFE2C880222381903A950
:101670000AF070FA0234D3452C80E4D170200CF0CB
:1016800045FB6C4C834608F005F94046C4F800B0B1
:101690000EF036F941460246584608F0E5F9206852
:1016A000654908F003FA206870210CF031FB09212C
:1016B00062480BF043FEB9F80040604908EB0400B3
:1016C000092209340AF046FAA9F8004016F8012F59
:1016D0005749DFF84C81DFF8509103A80EF074F8F9
:1016E00003A80EF00DF9014603A80BF027FE2C8885
:1016F0000222381903A90AF02DFA023456452C802B
:10170000E4D100234E484C491A4600F5C87608F04B
:10171000DFFE05214B480BF011FEB8F800404949A7
:1017200009EB0400052205340AF014FAA8F8004079
:1017300006F1400816F8012F3D4903A80EF044F8C1
:1017400003A80EF0DDF8014603A80BF0F7FD2C8886
:101750000222381903A90AF0FDF90234B0452C80A1
:10176000E8D139480BF0B2FF384B00933849394B78
:10177000394A3A480EF028F8394B196829B34323FF
:10178000364A384801F0F8FCF8B1374E354F00249E
:1017900002E004F0F5F8013423480EF0B1F8A0425D
:1017A0004FF0010203A936D9BB6C16F8010F8DF872
:1017B0000C001846002BECD1FB6C012203A9184643
:1017C000002BE8D002F074FDE5E70E2127480BF06E
:1017D000B5FD1D480BF07AFF20480EF091F8014648
:1017E0001E480BF0ABFD18480BF070FF0E480EF0D2
:1017F00087F801460C480BF0A1FD13480BF066FF7B
:1018000040F23A22002108480DF082FD00232B808F
:1018100005B0BDE8F08F134801F09AFCE6E700BF81
:10182000EC2BFF1F982E0100682CFF1FBB1CFF1F15
:10183000A42E0100FC25FF1FBC1CFF1FAC2E0100C5
:10184000DC1CFF1F082F01004012FF1F3C26FF1F5A
:10185000AC3001002821FF1F9C26FF1FAC30FF1F6A
:101860001431FF1FC430FF1F672CFF1FE830010039
:101870002DE9F0475E4F86B00AF032FE5D4A3B78B4
:101880001060002B00F097805B4B1B68072B40F229
:101890009580DFF8B891594C59484FF4FE722146B3
:1018A00007F0E4FFC4F8FC01FFF732F9554A936CE6
:1018B000002B00F09680D3F81CA05248524D534E96
:1018C000DFF88C8101F044FC03AC04220C21504869
:1018D0000AF036FC524620464E490DF075FF94E85A
:1018E000070003C54C492A80D9F800004FF4007264
:1018F00008F0BAF84949D9F8000008F0D7F8D9F843
:10190000000070210CF004FAA81C202243490AF0C0
:1019100021F9A5F108002A2240F24A210AF010FC20
:1019200006213F480BF00AFD35883D49062208EBA9
:1019300005000AF00FF90635204635800DF0E0FF6E
:10194000014620460BF0FAFC358821460A2208EBB6
:1019500005000A350AF0FEF83580FFF75FFE314ECC
:10196000DFF8F0E03048314D314A0024009423463E
:10197000CEF800402146047034602E482C6007F0F9
:10198000B5F8214623462A4A00942B4807F0AEF8C2
:1019900043203C700AF0C4FA07EE900AFAEEEF7AA0
:1019A000264C27492748FDEEE77A17EE902AC4ED2A
:1019B000007A0BF0A7FE06B0BDE8F0879C0116493F
:1019C000DFF888902048C4F50074224601EB8311AB
:1019D0000AF0C0F82246D9F800001B4908F044F884
:1019E00059E7D36C13B1D3F810A066E79A4664E7C1
:1019F000EA2BFF1FA82EFF1F3C2BFF1FEC28FF1F09
:101A0000582BFF1FFC2BFF1F4026FF1FEC2BFF1F37
:101A10003C26FF1FF8300100A026FF1FBC1CFF1F43
:101A2000902E01003821FF1FF02AFF1FF82BFF1F07
:101A30003497FF1F6431FF1F4C64FF1F5C2BFF1F97
:101A4000C43001004012FF1F0C1FFF1FFC25FF1FA9
:101A5000682CFF1F3421FF1F10B5214B9A6C8EB0EC
:101A6000002A36D01F4BD3F87844CCB1214601234D
:101A700000241D4A8DF8004068468DF801408DF81D
:101A8000024003F045FDD8B1184B196821B101237C
:101A9000154A134801F070FBFEF766FE0EB010BD4C
:101AA000D3F87C1461B101230F4A8DF831406846A8
:101AB0008DF832408DF8334002F0C2F80028E3D1AF
:101AC0001B210B480BF03AFC0A480BF0FFFD0EB04F
:101AD00010BDDB6C002BC5D1FFF7CAFEC2E700BF0B
:101AE000FC2BFF1F4421FF1FC828FF1F1431FF1FBD
:101AF000402E01004012FF1FF0B5334B9A6C8FB09F
:101B00000746002A59D0314DD5F87844BCB121465A
:101B10006846002401233A466E468DF800408DF851
:101B200001408DF8024003F0F3FCD0B91B21284896
:101B30000BF004FC27480BF0C9FD0FB0F0BDD5F841
:101B40007C140029F2D0684601233A466E468DF88F
:101B500031408DF832408DF8334002F071F80028A2
:101B6000E4D0D5F87844194B94B121463A46002484
:101B7000022330468DF800408DF801408DF8024078
:101B800003F0C6FC0028D8D0304604F0B5F9D4E7FD
:101B9000D3F87C140029D0D03A46022330468DF881
:101BA00031408DF832408DF8334002F049F800287A
:101BB000C3D0304602F050F9BFE7DB6C002BA2D156
:101BC000FFF756FE9FE700BFFC2BFF1F4421FF1FBE
:101BD000402E01004012FF1F08B5FFF749FEBDE887
:101BE0000840FFF75DBA00BF2DE9F04F89B007F05C
:101BF000D1FD044607F0BEFD054607F0ABFD80466B
:101C000007F078FD064607F085FD074607F092FDD0
:101C1000804A814BCDF8008043F2E4210390505874
:101C2000595804912B4622467C490297019605900B
:101C30007B487C4D7C4F7D4E0DF0C6FD78480DF005
:101C40005FFE014676480BF079FB2C88744924220C
:101C5000381909F07FFF243475482C800DF050FEB0
:101C6000014673480BF06AFB2C8871490C22381925
:101C700009F070FF0C3404216E482C800BF05EFBE1
:101C80002C886C4938190422043409F063FF06F1EA
:101C9000090A2C8016F8012F6749DFF88881DFF8E0
:101CA000889107A80DF090FD07A80DF029FE0146C8
:101CB00007A80BF043FB2C880222381907A909F06A
:101CC00049FF0234B2452C80E4D104215B485C4ECC
:101CD0000BF034FBB8F80040584909EB040004222B
:101CE000043409F037FF06F1100BA8F80040DFF8C4
:101CF000648118E032780DF067FD07A80DF000FE52
:101D0000014607A80BF01AFB2C88DFF81891DFF8C2
:101D100018A13819022207A9013609F01BFF023465
:101D20005E452C800BD098F8003043491A4607A82E
:101D3000002BDFD1404907A80DF046FDDDE7052166
:101D40004048414E0BF0FAFAB9F800403D490AEB21
:101D500004000522053409F0FDFE06F1100BA9F878
:101D6000004018E032780DF02FFD07A80DF0C8FDF7
:101D7000014607A80BF0E2FA2C88DFF8A890DFF8FC
:101D8000A8A03819022207A9013609F0E3FE02349F
:101D90005E452C800BD098F8003027491A4607A8DA
:101DA000002BDFD1244907A80DF00EFDDDE705214A
:101DB0002648274E0BF0C2FAB9F8004023490AEB37
:101DC00004000522053409F0C5FE06F14008A9F813
:101DD000004016F8012F184907A80DF0F5FC07A8D8
:101DE0000DF08EFD014607A80BF0A8FA2C88022200
:101DF000381907A909F0AEFE023446452C80E8D117
:101E000040F23A22102108480AF09AF909B0BDE8D8
:101E1000F08F00BF4C64FF1F6431FF1F00310100D1
:101E2000A02BFF1FEC2BFF1F682CFF1F201EFF1F86
:101E3000C828FF1F28310100A42E01003031010005
:101E4000B828FF1F38310100DC28FF1F4031010096
:101E50002C1EFF1F6A07FF1F10B52E492E4B0022B4
:101E600082B0012470200C601A700BF04FFF044602
:101E700007F010FD294B1C60FEF786FE284B294910
:101E8000294A2A480DF0A0FC294B196829B143239F
:101E9000264A284801F070F930BB0E2126480BF085
:101EA0004DFA26480BF012FC20480DF029FD0146A2
:101EB0001E480BF043FA21480BF008FC1D4B204A4A
:101EC0009C6C04211180B4B10021204603F032FC47
:101ED00068B91C4B1C4A1B68019301991B4B11608C
:101EE00001221A7002B010BDFFF77EFEE6E7204621
:101EF00003F00AFDEDE7DC6C002CEAD000220023A1
:101F0000204601F0ADFB0028E3D0204602F05EF948
:101F1000DFE700BFAC28FF1FEA2BFF1FFC25FF1FD8
:101F20003C26FF1F483101002821FF1FC828FF1F42
:101F30001431FF1FFC2BFF1FE83001004012FF1F70
:101F4000E82BFF1FB897FF1FD828FF1FF02AFF1F9D
:101F5000F0B5434B1B7883B0002B6BD00AF0C0FA6E
:101F6000404C414A41492160064692E80300404BFB
:101F7000404F1860042519712A463F493D8004F2FC
:101F8000DF1009F0E7FD2A463C493D4F04F2E3101B
:101F900009F0E0FD2A463B4904F2E71009F0DAFDBA
:101FA000394806F089FF84F8EB01384806F084FFD1
:101FB000002584F8EC01344884F8ED5106F082FFE6
:101FC00084F8EE01314806F07DFF082284F8EF0125
:101FD0002F4984F8F05104F2F11009F0BBFD2146BD
:101FE0004FF4FE722B4807F041FCC4F8FC01FEF7E9
:101FF0008FFD3B680133B3F5E11F3B601DD24FF409
:102000000072FF2117480DF083F90AF069FA02A95E
:10201000801B41F8040D03221F4809F09BFD1F4A55
:10202000137883F001031946052013700AF03EFA75
:1020300003B0F0BDFFF710FF90E7112118480BF037
:102040007DF92B460A22396816480BF069FB1548C2
:102050000BF03CFB3D60FFF70BFCFFF721F8CEE7F0
:10206000F02AFF1FEC28FF1F6831010043414E3268
:10207000F02BFF1FE82BFF1F3421FF1F3821FF1F0C
:10208000AC28FF1FF82BFF1F6431FF1F4C64FF1F9C
:10209000C828FF1F582BFF1FE52AFF1F4C2CFF1FCE
:1020A000543101004012FF1F2DE9F0434D4B4E4DBE
:1020B0001B7883B0002B68D14C4A4D4E1378DFF863
:1020C0005C81494F83F001031946062013700AF022
:1020D000EDF92B8847495A1C0978F1542A8007F0FA
:1020E000B9FA2C8802A9042241F8080D301909F028
:1020F00031FD201D08F10401042216FA80F009F0D8
:1021000029FD04F10800414604220C3416FA80F03F
:1021100009F020FD98F80F902C800AF0E1F9364B79
:102120002C881B68C01A02A94FEA096920F07F4079
:1021300040EA090041F8040D0422301909F00AFDB3
:10214000201D16FA80F008F11001082209F002FDA6
:10215000D8F800300C34A4B29B002C800AD4B4F51B
:10216000ED7F02D803B0BDE8F08303B0BDE8F043D3
:10217000FFF7EEBE214A137883F0010319460E20C3
:1021800013700AF093F93C88E9E70AF0A9F92B8863
:102190001B4A1C4C191F82FB0123CA17C2EB2312D6
:1021A000322303FB12132060002B85D1164C2168CB
:1021B000072981D8154A164B02EB8112013A03F127
:1021C000400012F8011F03F8011F8342F9D1114B9F
:1021D00011491868402207F047FC23680133236047
:1021E0006AE700BFEA2BFF1FE82BFF1FB428FF1F81
:1021F000EC28FF1F382BFF1F502CFF1FA828FF1FA4
:102200001F85EB51A82EFF1F3C2BFF1FA026FF1F91
:102210005F2BFF1FFC25FF1F602BFF1F202BFF1FC5
:1022200070B5384D384B2A681B7888B00646059241
:10223000364A05991160002B55D1354B354C1B782A
:10224000002B41D12368334913F0005412D0324B94
:102250001B78002B31D1314A136801331360304AA7
:10226000137883F0010319460E2013700AF01EF94B
:1022700008B070BD2B4A10461A408242F8D10B7C40
:1022800003F0F003102BF3D1234B27481B78274989
:102290004474032630228474C673016002742BB325
:1022A000012BE5D12B68224A0793079B12689B1AE2
:1022B000012BDDD9FEF796F9DAE7012BCFD11D4AC4
:1022C000136801331360CAE7039604F1100393E81F
:1022D0000300114A137802938DE8030094E80F007D
:1022E000FEF7A2FBAEE7FFF7DFFEA6E72B68124A78
:1022F0000693069B12689B1A012BB9D9FEF756F973
:10230000B6E700BFB897FF1F6B07FF1FD828FF1F56
:10231000EB2BFF1F202BFF1F382BFF1FC42BFF1F92
:10232000A828FF1F00F9DA00402BFF1FF900DA1878
:102330001021FF1FC82BFF1F081FFF1FFFFFFFFFFC
:10234000454BD3F878042DE9704300286FD0C46959
:10235000057904F08DFA013C064618213F480AF041
:10236000EDFF00230A2221463D480BF0D9F93C48F5
:102370000BF0ACF917213B480AF0E0FF00230A22DA
:10238000314637480BF0CCF935480BF09FF9152151
:1023900035480AF0D3FF00230A22294630480BF0C3
:1023A000BFF92F480BF092F9112130480AF0C6FF0F
:1023B00028460BF0EBFE8046894630460BF0E6FEE1
:1023C00042464B460BF058FF00224FF081430BF082
:1023D00053FF1FA3D3E900230CF078F841EC100B56
:1023E00002211F480BF0E4F91D480BF06FF9122190
:1023F0001F480AF0A3FF20460BF0C8FE42464B469A
:102400000BF03AFF00224FF081430BF035FF10A391
:10241000D3E900230CF05AF841EC100B02211048CC
:102420000BF0C6F90E48BDE870430BF04FB9D3F876
:102430007C0448B190F83D34D0F8284401259D40F3
:1024400002F024FE064688E705460446064684E771
:102450000000000080842E414421FF1F0430010051
:102460004012FF1F2030010070310100883101004F
:102470009C31010000B50E4B0E4A1B680E4883B01C
:10248000019301990D4B1160012200211A7006F091
:10249000C7F900210A4806F0C3F9102109480AF0DB
:1024A0004DFF09480BF012F903B05DF804FB00BFC3
:1024B000B897FF1F3C21FF1F6431FF1FD528FF1F66
:1024C0004C64FF1FB03101004012FF1FFFF7D2BF65
:1024D00010B50B4A0B4C0C480023012123701370DC
:1024E00006F09EF90121094806F09AF911210848E1
:1024F0000AF024FF0748BDE810400BF0E7B800BF22
:102500002E21FF1FD528FF1F6431FF1F4C64FF1FC2
:10251000C43101004012FF1F38B517210F48104C7D
:102520000AF00CFF43F2E4250E4B0A2259592046CB
:1025300000230BF0F5F820460BF0C8F817210A48E5
:102540000AF0FCFE094B204659590A2200230BF0E1
:10255000E7F82046BDE838400BF0B8B8F831010084
:102560004012FF1F6431FF1F103201004C64FF1F37
:1025700010B514210E480F4C0AF0E0FE0E4B0A2253
:102580001968204600230BF0CBF820460BF09EF88C
:1025900014210A480AF0D2FE094B204619680A2283
:1025A00000230BF0BDF82046BDE810400BF08EB8BC
:1025B000283201004012FF1FC42BFF1F40320100D0
:1025C000C82BFF1F70B586B0FFF752F9184B194C96
:1025D000194E00256420C3F87854C3F87C5409F0E0
:1025E000A3FF2946204605F0F5F92046346004F0A3
:1025F0001FFE40B1112111480AF0A0FE10480BF057
:1026000065F806B070BD0E4B0E4A316801A802F0A5
:102610002DF804210C480AF091FE09480BF056F8F9
:10262000642009F081FFFEF747FA06B070BD00BFD5
:102630004421FF1F6C26FF1FEC2AFF1F58320100A8
:102640004012FF1FAC2EFF1F6C3201002DE9F0413C
:10265000AB49AC4890B006F0ADFB002840F03F819C
:10266000A749A94806F0A6FB002840F02D81A74CF9
:10267000A74D23680193019B296840F6B7325B1A86
:10268000934204D9A34B1B78002B40F00B81FEF73B
:10269000F1FBA14A1378002B00F09C809F4F3B7800
:1026A000022B236800F205819D4A0393039B106867
:1026B00096491B1AFA2B54D90B689A4D0593059825
:1026C000DFF8A0E209682B88974E0491DEF800C07D
:1026D00036F81330049910609448DFF89CE20374D4
:1026E000CCEB01021B0A03214374012A4FF00003C3
:1026F000C173C0F800E0837401D9FDF757FF8C4B1C
:102700001B6853B123688B4A0693069B12689B1A79
:10271000012B02D98548FDF765FF874A137883F0BE
:10272000010319460E20137009F0C0FE2B887D4A64
:1027300001339BB21A2B40F2E0803B787F4D01338E
:1027400000243B70148020461B210BF087F90134D4
:1027500036F8102035F8023F2A801B2C26F810305E
:10276000F1D10AF0C1FD01282EDD754C75497823A1
:102770000A220CA80BF018F90CA920460BF0E2F97C
:102780000CA80BF075F970490CA80BF0B1F90CA965
:1027900020460BF027FA05460CA80BF069F9002D2E
:1027A0007DD16A490CA80BF0A3F90CA920460BF0C7
:1027B00019FA06460CA80BF05BF9002E00F0E08039
:1027C000634B1D700AF09EFD624806F04BFE10B090
:1027D000BDE8F081604A11780029C2D05F4F397896
:1027E000022900F2878023685D4A0893089B1168DC
:1027F00046485B1AFA2BB4D903684A4D0A930A9EDD
:10280000584900682B88DFF874810990D1F800E0FE
:10281000464838F81330099916604374CEEB01022C
:102820001B0A514E837408210223012AC1730660DA
:10283000037401D9FDF7BAFE3D4B1B6853B1236801
:102840003C4A0B930B9B12689B1A012B02D9374809
:10285000FDF7C8FE384A137883F0010319460E20AD
:10286000137009F023FE2B882E4A01339BB2082BEC
:1028700043D93B783D4D2C4E013300243B701480EE
:10288000204609210BF0EAF8013435F8023F36F80A
:1028900010202A80092C28F81030F1D161E7FFF7C9
:1028A000DBF88FE7FEF7E4FF23680293029B2B60BF
:1028B000EDE607932A4B079827491860002301206B
:1028C00008703B7013704CE7194A294913680133AB
:1028D0000124184613600C70FFF7A2FCC7E6254AD6
:1028E0002349136801330024184613600C70FFF766
:1028F00097FCB5E63B70137033E7138031E700BFF8
:10290000202BFF1F6431FF1F4C64FF1FB897FF1F70
:10291000D828FF1FF02AFF1FD528FF1F4021FF1FC7
:102920003C21FF1FA22EFF1F3407FF1F402BFF1F5C
:102930003821FF1F1021FF1FA828FF1F3207FF1F8C
:102940001421FF1F4012FF1F743201007832010072
:102950006B07FF1F0026FF1F2E21FF1F4121FF1FB6
:10296000B028FF1F081FFF1FF9FFDA186A07FF1FB3
:10297000382BFF1F3421FF1FF9FFEA186C07FF1FD8
:10298000AD490CA80BF0B4F80CA920460BF02AF9BD
:1029900005460CA80BF06CF87DB9A8490CA80BF003
:1029A000A7F80CA920460BF01DF905460CA80BF062
:1029B0005FF865B1FEF75CFF04E7FEF771FB0C21E1
:1029C0009F480AF0BBFC9F480AF080FEFAE69E4949
:1029D0000CA80BF08DF80CA920460BF003F9054666
:1029E0000CA80BF045F815B1FFF7AAFCEAE69749E9
:1029F0000CA80BF07DF80CA920460BF0F3F8064666
:102A00000CA80BF035F8BEB1914CD4F8780430B175
:102A100000F23C402B462A468A4903F045FDD4F893
:102A20007C0400283FF4CEAE002300F588601A46EF
:102A3000844901F04FF9C5E686490CA80BF058F817
:102A40000CA920460BF0CEF805460CA80BF010F8A8
:102A5000BDB17F4CD4F8780430B1334600F23C402D
:102A60000E22784903F020FDD4F87C0400283FF4BE
:102A7000A9AE00F5886000230E22724901F02AF900
:102A8000A0E675490CA80BF033F80CA920460BF012
:102A9000A9F805460CA80AF0EBFF15B1FFF792FD67
:102AA00090E66E490CA80BF023F80CA920460BF019
:102AB00099F805460CA80AF0DBFF15B1FFF72CFDCD
:102AC00080E6674D67490CA80BF012F828460CA960
:102AD0000BF088F806460CA80AF0CAFF16B1FFF7FB
:102AE00047FD6FE660490CA80BF002F80CA92846D8
:102AF0000BF078F806460CA80AF0BAFF3EB15B4B23
:102B00005B49504801221A70FDF778FE5AE6594990
:102B10000CA80AF0EDFF0CA928460BF063F8074655
:102B20000CA80AF0A5FF17B1504B1E704AE6524997
:102B30000CA80AF0DDFF0CA928460BF053F8064656
:102B40000CA80AF095FF16B1FFF794FC3AE64B4942
:102B50000CA80AF0CDFF0CA928460BF043F8074655
:102B60000CA80AF085FF17B1FFF7B2FC2AE644492A
:102B70000CA80AF0BDFF0CA928460BF06FF806461A
:102B80000CA80AF075FF76B13946042228460BF0EE
:102B900089F828463B460D220CA90BF069F80CA8D1
:102BA000FDF750FE0EE637490CA80AF0A1FF0CA96C
:102BB00028460BF053F807460CA80AF059FF77B1E6
:102BC0003146042228460BF06DF8284633460D2284
:102BD0000CA90BF04DF80CA8FEF78EFFF2E52A4980
:102BE0000CA80AF085FF0CA928460AF0FBFF064650
:102BF0000CA80AF03DFF1EB12448FDF773FEE1E585
:102C000023490CA80AF074FF0CA928460BF026F8FB
:102C100007460CA80AF02CFF002F3DD031460322B6
:102C200028460BF03FF8AB68052B73D019490548CF
:102C3000FDF7E4FDC6E500BF8032010088320100E7
:102C4000D83101004012FF1F8C3201009032010088
:102C50004421FF1F943201009C320100A432010084
:102C60001421FF1FAC320100B4320100EB2BFF1F17
:102C7000E8310100C0320100CC320100D83201003D
:102C8000E4320100EC320100F4320100AC30FF1FED
:102C9000003301001833010067490CA80AF028FF2F
:102CA00028460CA90AF0DAFF05460CA80AF0E0FE57
:102CB000002D5CD00622002160480AF0F3FF5F4837
:102CC0000BF00CF80CA9002304225C480AF0D0FF9A
:102CD000A2685B4B5B490020032A18601980997039
:102CE0003BD0022A32D0012A04BF9DF830209A70CE
:102CF0005348FDF789FE20B304220C21504809F007
:102D00001FFA51495148FDF76BFD4D494F48FDF7FA
:102D100075FD57E549480AF0E1FF002306224C49BA
:102D200046480AF0A5FF06220421494809F008FA9E
:102D300048494648FDF754FD45494448FDF75EFDC6
:102D400040E545494148FDF759FD3BE59DF8301008
:102D50009DF8312059709A70CAE79DF830009DF8AF
:102D600031109DF83220187059709A70C0E73B49B5
:102D70000CA80AF0BDFE0CA930480AF033FF044647
:102D80000CA80AF075FE002C50D035492F48FDF7ED
:102D900035FD34492D48FDF731FD33492B48FDF70A
:102DA0002DFD32492948FDF729FD31492748FDF716
:102DB00025FD30492548FDF721FD2F492348FDF722
:102DC0001DFD2E492148FDF719FD2D491F48FDF72E
:102DD00015FD2C491D48FDF711FD2B491B48FDF73A
:102DE0000DFD2A491948FDF709FD29491748FDF746
:102DF00005FD28491548FDF701FD27491348FDF752
:102E0000FDFC26491148FDF7F9FC25490F48FDF75F
:102E1000F5FC24490D48FDF7F1FC23490B48FDF76B
:102E2000EDFC22490948FDF7E9FCCBE420490748BD
:102E3000FDF7E4FCC6E400BF4C3301001421FF1F82
:102E40003C26FF1F30303000543301004012FF1F7A
:102E50002821FF1F043301006C330100843301007B
:102E60008C330100A8330100EC3301003C34010035
:102E7000783401009C340100BC340100E0340100CE
:102E8000043501002C35010064350100883501004E
:102E9000C0350100F435010014360100343601005C
:102EA0007C360100C4360100F83601003C370100D1
:102EB000AC3701002DE9F04F93B009F0AFF87F4B2C
:102EC0007F48804D804E814FDFF85CA2DFF85C9236
:102ED000DFF85C82002483F8014283F8224283F801
:102EE000234206F08FFC7A4B7A49C3F898644FF07E
:102EF000260B794EC3F878442A46C3F87C4483F8FD
:102F0000944483F8AB44C3F8AC44C3F8887483F8A2
:102F1000A8B4C3F8B06418460AF0F0FF6F49704EC9
:102F20000C714FF47A738B6001936E4B0C732A46CD
:102F30008C64CC640B60084651460AF0DFFFDFF872
:102F4000F4E1019BCEF808308EF804408EF80C4076
:102F50007046644BCEF800302A465146CEF84840C1
:102F6000CEF84C400AF0CAFF214648460AF0C0FDA0
:102F70002A46414648460AF0C1FFDFF8BC915A484C
:102F800001231A461C2106F0C9F9214648460AF0D9
:102F9000AFFD2A46414648460AF0B0FF09F0A0FAC4
:102FA000524B186009F09CFA514B186009F098FADE
:102FB000504B514A19680391DDF80C90196804913F
:102FC000DDF8108019680591DDF814C019680691C4
:102FD00010604A48DDF818E019680791C0F80090C1
:102FE0004748DDF81CA019680891C0F800804548E2
:102FF00008991A680992C0F800C0DFF84081424879
:10300000099AD3F80090CDF82890C8F800E0C0F8ED
:1030100000A0DFF82C81DFF82CC13C48DDF828E067
:10302000C8F80010CCF80020C0F800E01A680B9235
:10303000DDF82CA01A680C92DDF830901A680D9219
:103040000D991A680E920E981A680F92DDF83C805E
:103050001A681092DFF8F0E0DDF840C01B681193A9
:10306000194BCEF810302A4BCEF800702A46294D65
:10307000C3F80090284B8EF820B0C5F800A0DDF80A
:103080004490DFF8C8B0254F254DC3F80090124B8F
:103090008EF80C40CBF800103860C5F800C021490C
:1030A000C6F8008070468EF82340CEF82830CEF85F
:1030B00024400AF023FF13B0BDE8F08FDC1CFF1F93
:1030C000582BFF1F3007FF1F3C3A0100943A0100C4
:1030D0004421FF1F8104000003200038FC2BFF1F48
:1030E000F42AFF1F1C2E01000026FF1F502CFF1F7B
:1030F000A82EFF1FB897FF1FBC30FF1F3021FF1FF6
:10310000A42EFF1FD42BFF1FF82AFF1F1021FF1F23
:103110003C21FF1F0C21FF1FFC2AFF1FD828FF1F87
:10312000A028FF1F79040000AD040000D82BFF1F6A
:1031300071DA0000C430FF1F1421FF1FD02BFF1FC6
:10314000A428FF1F081FFF1F6C26FF1FB028FF1FAA
:1031500010B50446806C28B102F056F910B1002376
:10316000A36410BDE06C28B100F0BCF810B10023DE
:10317000E36410BD002010BD00293BD02DE9F041D3
:103180000C46054698461746FFF7E2FFD4F87864E8
:10319000B6B105F11001242005F01CF900210170E1
:1031A00041708170D4F87814A86443463A4602F01E
:1031B000AFF910B10120BDE8F081A864BDE8F0814D
:1031C000D4F87C34C3B105F11001382005F002F9C0
:1031D00080F8316080F8326080F83360D4F87C1475
:1031E000E86443463A4600F02BFD0028E2D1E8644B
:1031F000BDE8F081002070470020BDE8F08100BFED
:1032000070B500260546C0F88014C0F87864014601
:103210004FF48F6005F0DEF80446466001F0EAFCEA
:10322000C4F8106204F5037001F0E4FC84F83C6417
:1032300084F8716484F8726484F87364D5F88064E7
:10324000C5F87C4431462046012201F09BFD68B15F
:1032500004F58866304600F045F82146304600F017
:10326000ADF850B11E4B01201D6070BD02463146C5
:10327000204601F087FD0028EAD10026C5F87C64CD
:1032800029464FF48C6005F0A5F8C67180F83C64BF
:1032900080F83D6480F83E64D5F88064C5F8780411
:1032A00001223146044603F03BFB80B104F23C4668
:1032B000304602F0A9F82146304602F031F90028E4
:1032C000D0D1074B00201860C5F8780470BD0246C5
:1032D0003146204603F024FB0028E7D1F1E700BF88
:1032E0001431FF1F10B5044600F0CAFE002384F815
:1032F000313084F8333010BDF0B50878202803D180
:1033000011F8010F2028FBD051600878002851D017
:103310002F282BD05C2820D0A0F12204E4B21D2C51
:103320001DD9DFF894E04E1C00247C28A0F1200574
:10333000374612D05E2D10D816F8010BA0F12205E9
:10334000EDB2013478B32F2811D05C282EFA05F79E
:1033500003D01D2DE9D8FD07E7D50020F0BD164D9F
:1033600025FA04F4E607DCD50020F0BD00240F198F
:103370003E4625462F2002E016F8010F0135202891
:10338000FAD02F28F8D02944196044B1394611F8F1
:10339000013D2E2B01D0202B08D1013CF7D1204636
:1033A00010600120F0BD1F600F19EFE7FF2CF6DD64
:1033B0000020F0BD1960F3E70101003590F83120DD
:1033C0000AB10020704738B504460D461146382230
:1033D0000BF09EFF4023012084F8313084F8330045
:1033E000256238BD2DE9F04700F1240307468A46DF
:1033F00093E8070084B097F831300DF1040888E8AD
:103400000700002B3AD097F83030012B36D94FF017
:1034100001090024B9F1010F14BF202240224146C6
:10342000386A01F0ABFD012828D100224146386AF4
:1034300001F08AFD10B30378C12B1FD1054604F1BA
:103440000F0635F8021FA9B1DAF800307E2994BFC3
:10345000C9B23F211B68013450469847A642F0D1BB
:1034600009F1010997F830305FFA89F94B45D1D855
:10347000304600E0204604B0BDE8F087002004B0EC
:10348000BDE8F0872DE9F04790F833300446D807BF
:1034900082B040F1B2800D465906164640F1B88020
:1034A000D4E90001D4E9042310EB060841F1000936
:1034B0004B4508BF4245C0F0B180002E00F0B080FF
:1034C000A146F9E80623B04655E0134371D194F8BC
:1034D00031305B064CBFD0F82C14E169A16190F843
:1034E0003DE4D0F8243402397F0A01FA0EF2F918CB
:1034F0001144BAF1000F48D1B8F5007F45D3D0F898
:103500001432994241D0B8F5806F59D394F83320E2
:1035100052064FEA582A07D4012202FA0EFEC7EBE0
:103520000E07BA4528BFBA4699424FEA4A270CD33C
:103530000AEB01029A4208D900F50370019101F0EB
:10354000BFFB002859D0206A0199D0F838040268DE
:103550005346D2F80CA02A46D04700284DD0384612
:103560000021D4E9002312184B41B8EB07083D4471
:10357000C4E9002354D0206AD0F830741740C7F350
:10358000080A002FA1D0A169A9E700F50370002265
:1035900001F036FB88B3CAF50077474528BF474698
:1035A00000EB0A013A46284608F0D4FA38460021D2
:1035B000D7E794F8333059060FD5A16901318DE76B
:1035C000D0F8380403682A469B689847A8B14FF49E
:1035D000007000214FF40077C3E74A46A16901F06B
:1035E000F9FC40B2002808DB02D0206AA16976E726
:1035F00094F8313013F0500F14D194F832304FF06A
:10360000FF3043F0020384F8323002B0BDE8F087A7
:1036100094F831301A073FF543AF4EE7161A4CE7DE
:103620004FF00008C8EB060002B0BDE8F08700BF0D
:10363000F0B583B001220DF107010446D0E900671F
:103640008569FFF71FFF012808BF9DF80700A561E6
:1036500018BF4FF0FF30C4E9006703B0F0BD00BFF2
:103660002DE9F04F90F831E0856983B00446BEF152
:10367000000F1BD0D0E90001994208BF90421646C6
:103680001F463BD056EA070307D10023A361012060
:10369000C4E9006703B0BDE8F08F1EF0080F0AD040
:1036A000D4E90423BB4208BFB24204D2A561002082
:1036B00003B0BDE8F08F236A019393F83DC494F8FA
:1036C00033A00CF1090C5FFA8CFC16F1FF3247F1C4
:1036D000FF33CCF1200803FA08FB22FA0CF242EA8D
:1036E0000B02ACF1200B23FA0BF31AF0400F42EA65
:1036F000030205D0E3691A44A261C8E70120D7E7B5
:1037000010F1FF3941F1FF3A29FA0CFC0AFA08F8E6
:103710004CEA080C2AFA0BFB4CEA0B0C62455346A8
:1037200017D21EF0400F16BF019BE369D3F82C346B
:10373000A361904604F118094A46B8F1000FA6D0DB
:10374000A169206A01F046FC08F1FF380028F3D196
:10375000ACE750EA0103E4D0CCEB0202E9E700BF9A
:103760002DE9F04F93B090F8314000920D469DF84E
:103770007010029106462CB99A4695F8313013F034
:10378000500F07D1002086F8310086F8330013B0BF
:10379000BDE8F08F009B002B00F0118122465146BE
:1037A000009801F011FD95F831300490002B40F0A5
:1037B000FB80B84A0AF10E0382FB03121A44DB179E
:1037C000C3EBE203029ADBB202F007020593023375
:1037D0004FF000095FFA83FB42F0400301924C4630
:1037E0004F46039320220AA92846FFF74BFE0028E4
:1037F0003DD02028C6D19DF828301A0663D4002C6D
:103800005ED12A68A9690791203A08920134E4B28E
:103810006BB3C02B00F09E80C12B5FD0852BE1D114
:103820003822002130460BF073FD9DF82C309DF8B6
:10383000292086F8302003F03702DB0658BF42F01B
:10384000080286F831202B68296AAA697262203B37
:103850003162B36295F83330C3F3801386F82C30AD
:1038600020220AA92846FFF70DFE0028C1D1029B9D
:1038700003F04203422B85D1009B002B82D05C4594
:103880000DD39EE020287FF47DAF24B92A68A96972
:103890000791203A0892DCB2A34540F292802022A0
:1038A0000AA92846FFF7EEFD631C0028EAD1284646
:1038B000AF6900F015FC00283FF464AFAF61EBE79F
:1038C0005C45A5D2A2E7B9F1000FA2D15C4538BF93
:1038D0000024852B86D14FF00109A1E7C7EB0A0828
:1038E0005FFA88F8B8F10F0F28BF4FF00F08434672
:1038F0003A4600990AA801F085FC00284BD04744BD
:10390000FFB2BA457FF46EAF029B18063FF53AAF9F
:10391000029B13F0320F05D096F8313013F0110FDF
:103920007FF430AF029AD106134640F1B5809A0772
:103930007FF528AF002200233046FFF791FE0028D4
:103940003FF420AF304600F041FC00283FF41AAFAE
:1039500001201CE79DF829309DF8042086F83320CB
:103960009F0744BF9DF80C3086F83330DDE90C2307
:10397000DDE91001C6E904230F9BF361009BC6E952
:103980000201002BC0D09DF82B30534505D04FF0DD
:1039900000094F4626E7814624E7BDF82C30049AFB
:1039A0009342F4D100271DE7D5E9002313433FF4E8
:1039B00000AF00220023C5E90023AC61F9E60493BF
:1039C000F7E695F833303822C3F3801300213046F0
:1039D00007AC8DF824300BF09BFC2B6A029D336200
:1039E00094E8070005F00707082567F07D0986F8C9
:1039F00031500AF11E0706F1240585E80700FFB2E1
:103A0000009DCDF800904FF0000818460122214695
:103A100001F09AFA814600283FF4B4AE90F90020F4
:103A2000002AFFF6AFAE202200210BF071FCB8F1A6
:103A3000000F53D0B8F1010F3FD0C8EB08120F2F81
:103A4000A2F11E024FF0C101384628BF0F20D2B2AA
:103A500089F8001058B109F1020300B203EB4000ED
:103A60002A4412F8011B23F8021B9842F9D108F1ED
:103A700001085FFA88F8C3451BD920222146306A25
:103A800001F07CFA01287FF47DAE0F3FFFB2306A6F
:103A9000BCE700BF89888888029B9B067FF558AFEA
:103AA000D6E904233046FFF7DBFD00287FF450AF52
:103AB00068E6304600F0E4FA69E69DF80030C0217F
:103AC000032289F8001089F8012086F83330BDF808
:103AD000103089F803A0A9F80430C8E7059B5A1CE8
:103AE000D2B285210B4B89F8001086F8302089F876
:103AF00001201A68002ABAD00DF11A0106A89047D1
:103B0000BDF81A10BDF81820A9F80810A9F80A2065
:103B1000ADE700BF6031FF1F90F8313053B930B5C9
:103B200091F8314014F0500483B00D4604D1204682
:103B300003B030BD00207047D5E90045002504F0F2
:103B40001F042C4302D0184603B030BD00921A4621
:103B5000FFF706FE03B030BD2DE9F041044694B0F6
:103B600094F83150039200208DF849008DF84A00F6
:103B70008DF84B0035B9984691F8313013F0500F5D
:103B80000E4603D1002014B0BDE8F08113782F2B2E
:103B9000154627D001271BE0039B1B782046002BEE
:103BA00035D0059A9DF810300097FFF7D9FD3422E3
:103BB00021460028E6D006A807F0CCFF204600F0FA
:103BC0005FFA0023039D84F8313084F8333006AE69
:103BD000294603AB04AA2046FFF78EFB3146002896
:103BE000DAD1CFE70135039529782F29FAD0D1B161
:103BF000382206A80021376A0BF08AFB40220123F5
:103C000006AE0E978DF849208DF84B30C2E79DF82F
:103C10001030059ACDF8008031462046FFF7A0FD10
:103C200014B0BDE8F08138222046356A0BF070FBF5
:103C300040230120256284F8313084F83300A2E764
:103C400021B1DBB201F58861FFF786BF08467047F6
:103C500070B586B006AD00220469436905F8042DED
:103C60000E4619460A22002320460AF0FDFD303494
:103C700000EB8003A4EB430450EA010205F8014D78
:103C80000B460446EDD102AB9D4206D929462022BF
:103C900001F8012D9942FBD102AD28460BF030FE10
:103CA0003368024629465B683046984706B070BDC7
:103CB000034610B5006A0C46002203F1240101F00E
:103CC00043F928B1C1682046BDE8104004F07EBB2E
:103CD00010BD00BF2DE9F0438FB000241746804689
:103CE00000221E4600230D468DF831408DF83240EB
:103CF0008DF8334007F00209FFF7B2FC012241467C
:103D000068465FFA89F9FFF707FF002840D09DF861
:103D10003130980701D5F90730D5002446B12B681A
:103D2000013420211B682846E4B29847A642F6D108
:103D3000B9F1000F3FD17A0733D429466846FFF71F
:103D400051FB9DF8313013F0500F24D12B680D2119
:103D50001B68284698472B680A211B682846984705
:103D60003B070BD59DF8313013F0500F06D0B31C34
:103D7000DBB23A4629466846FFF7ACFF6846FFF7D4
:103D8000B1FA012241466846FFF7C6FE0028BED1BF
:103D90000FB0BDE8F0832B682F211B682846984799
:103DA000D4E729466846FFF753FF2B6820211B689C
:103DB00028469847C1E729466846FFF779FF2B68F0
:103DC00020211B6828469847B5E700BF8169F8B5F0
:103DD0000446006A01B10131012200F079FF012897
:103DE00006462FD9012301461A46206A01F03AF807
:103DF000074638B3A06994F8333030B35A0613D568
:103E0000421C964225D023F0400284F83320E36917
:103E100005E0206A01F0E8F8A0B1A0692B465D1C1E
:103E2000834219462A46F4D34FF0FF323146206AC6
:103E300001F0DAF830B1A16959B13246206A01F0D7
:103E4000D3F830B900273846F8BD43F0400384F872
:103E50003330A6613846F8BD2DE9F04300F1240364
:103E6000054693E8070085B095F8333001AE86E843
:103E700007009A071BD5E969E9B9002401223146F8
:103E8000286A01F061F80134E4B280B1037803F0EC
:103E90007F03037095F83030A34231D3002CEDD06E
:103EA00020223146286A01F069F80128E6D0002076
:103EB00005B0BDE8F0835B06286A1CD5D5E902236E
:103EC00090F83D440934E4B212F1FF3843F1FF3970
:103ED000C4F1200709FA07F728FA04F2A4F1200335
:103EE00029FA03F33A431A430132002300F0BAFFE0
:103EF0000028C2D1DBE701F089F80028BDD1D6E760
:103F00002C6A0023204685F8313085F8333000F0E4
:103F1000D7FE0028CBD004F5037000F0D1FE0028B6
:103F2000C5D0D4F8380403685B699847C0E700BF80
:103F30002DE9F04F00F1240A06469AE8070087B001
:103F40000DF10C0888E807000027DFF830B1B9460A
:103F50003C4600224146306A00F0F6FFFBB20546BF
:103F600030B10078C0284DD0C1282BD0852809D089
:103F700096F8323043F0010386F83230002007B063
:103F8000BDE8F08F96F83110DBF8002095F801902D
:103F900001F03701A980AAB1306A019390F80C12A0
:103FA00041F0010180F80C120DF10A0102A89047BE
:103FB000BDF80A10BDF808202878019BA981298244
:103FC000EA816A82002115F801E0E20342EA540422
:103FD0001EFA84F40129A4B201F101010DD01F29B8
:103FE000F1D999452CD020224146306A00F0C6FF15
:103FF000012807F10107ACD0BAE785280CBF0421DE
:104000000221E0E796F8332012F0400F6A7814BFDF
:1040100042F0020222F002026A70D6E90401C5E908
:104020000201D6E90201F2696A61C5E90601316A55
:1040300091F80C2242F0010281F80C222878C1E7A5
:1040400051460122306A00F07FFF002890D0356A87
:104050004480284600F034FE002889D005F503701E
:1040600000F02EFE002883D0D5F8380403685B6981
:10407000984700283FF47CAF81E700BF6031FF1F05
:1040800090F8312092B138B590F8332011060FD452
:10409000056A0446284600F013FE88B994F83230C9
:1040A00043F0010384F83230002038BD012070470E
:1040B00002F07F0280F83320BDE83840FFF738BFB8
:1040C00005F5037000F0FCFD0028E7D0D5F83804B2
:1040D00003685B6998470028E0D0012038BD00BF25
:1040E0002DE9F04190F831305906044663D48068D8
:1040F000236AD3F834341844B0F1806F02D300201F
:10410000BDE8F0812046FFF761FE0028F7D0266A5F
:1041100096F80C32DA0706F5037550D4284606F5F2
:10412000067600F067FD4FF40072002130460BF078
:10413000EFF8226AA36992F83D04D2F82414A3F19F
:104140000208012708FA00F817FA00F3884418BF9C
:10415000002511D0D2F83804036808EB05019B69EB
:104160003246984701350028C9D0226A92F83D347A
:1041700007FA03F3AB42EDD894F831305B0615D45F
:1041800094F8333063F07F0384F83330D2F834642A
:10419000D4E90223D4E9040192194FF000077B41CE
:1041A00080197941C4E90223C4E904012046BDE82D
:1041B000F041FFF765BF006A00F0A2FF98E72846CC
:1041C00000F07EFD0028A9D199E700BF90F83330B8
:1041D0009A0718D5F0B5C56983B08DB103F04003D7
:1041E000044603F0FF0083B9A169002941D101957C
:1041F000E1612946206A00F009FF30BB002000E0A1
:10420000012003B0F0BD00207047206AA16990F83A
:104210003D34D4E902670933DBB216F1FF36C3F14E
:10422000200E47F1FF3726FA03F207FA0EFE203B75
:1042300042EA0E0227FA03F31A430132B1B1013DFB
:104240006D1A01312A4401910ABBD4E9000194F8A6
:10425000333063F07F03C4E90201C4E9040184F848
:1042600033302046FFF70CFF03B0F0BD0195E1614C
:10427000EAE702AA42F8040D206A00F0ABFE40B261
:104280000028BBDB0AD1019D002DDED0B1E7002361
:10429000019900F0E7FD0028D7D1AFE74FF0FF32DA
:1042A000A169206A00F0A0FE0028ECD1A6E700BFBB
:1042B0002DE9F04F90F8333085B09C070646019207
:1042C0000AD496F8323043F0010386F832304FF0CA
:1042D000FF3005B0BDE8F08F5A078A4600F1128121
:1042E000019B002B00F022813146F1E80623DDF826
:1042F000048003919346306AB569D0F830445B4638
:104300001C40C4F308094CBB002D00F0BE8096F899
:1043100033305B0640F1DD80D6E9022390F83D742E
:104320000937FFB212F1FF3243F1FF33C7F1200E1C
:1043300003FA0EFE22FA07F1203F23FA07F741EABB
:104340000E01F36939430B449D42C0F0B5803046FD
:10435000FFF73CFD0028B4D0306AB569D0F824746A
:1043600090F83DE4640A023DE11905FA0EF529448E
:10437000B9F1000F40F08280B8F5007F57D2D6E93E
:104380000423D6E90045B8F5007F474628BF4FF41F
:1043900000779D4208BF944234BF0122032200F5FA
:1043A000037000F02DFC00288BD048443A4651465B
:1043B000B94407F0CFFBB9F5007F00F09280384692
:1043C0000021D6E90023D6E9044512EB000B43EBAC
:1043D000010C65455A46634608BF5C45BA44C7EBC5
:1043E0000808C6E9002309D296F8331064465B46F4
:1043F000C6E9043461F07F0186F83310B8F1000F8C
:104400007FF479AF5A466346D6E90201994208BF64
:1044100090427FD3474B1B68002B00F0858096F8B5
:104420003330019863F07F0386F8333051E7B8F5F5
:10443000806F2ED3012303FA0EFEC4EB0E0ED0F8CC
:1044400014324FEA5824744528BF744699424FEA03
:10445000442709D362189A4206D900F503700291E5
:1044600000F0C8FB306A0299D0F83804056823468A
:104470005246EC69A0470028A1D122E7C9F5007790
:10448000474528BF4746012289E7F569BDB1B561B7
:1044900064E7D0F8143299422CD0D0F8380403687D
:1044A00052469B69984700283FF40BAF4FF40070C9
:1044B00000214FF4007784E70135B5614EE73046BF
:1044C000FFF784FC00283FF4FCAEB569F561306A63
:1044D00044E72946039A00F07DFD00287FF43CAFB5
:1044E00035E7306A00F5037000F0EAFB00287FF43E
:1044F00066AFE6E600F50370029100F07BFB306AE0
:104500000299CAE7D0E90423FFF7AAF800283FF48C
:10451000D8AEE5E696F83310019861F07F01C6E960
:10452000022386F83310D4E60198D2E6D6E90023B8
:104530006AE700BF6031FF1F8368C3F308038BB1D4
:1045400000210269D1540133B3F5007FF9D1C3686A
:104550000269016810B41C68A469184623465DF816
:10456000044B18470120704782680346C2F30802D3
:10457000006930B481545D68986840F2FF1401EB23
:1045800075010130A2425960986002D0012030BC10
:104590007047D868196804681A69A4694D1C1D60C1
:1045A000234630BC184700BF38B50C46C9B2054693
:1045B000FFF7DAFF00B938BD210A2846BDE83840C8
:1045C000FFF7D2BF2DE9F8430026804601608660E0
:1045D0004660B0B200F0A0FDB042814605460DD065
:1045E00001464046FFF7E0FFA0B30136B6F5803F35
:1045F000EFD34046BDE8F843FFF79EBF741CB4F507
:10460000803F14D1C6F58037B7F5007F4FF4803472
:104610001AD2A9B24046FFF7C7FF0135D0B1A54273
:10462000F7D32E46E2E70134B4F5803FEAD0A0B2DA
:1046300000F072FDA042F6D0A71BB7F5007F03D2B1
:10464000A642E6D34E46C4E74FF6FF714046FFF759
:10465000ABFF10B90020BDE8F883B9B24046FFF7C0
:10466000A3FF0028F6D02646C0E700BF2DE9F04F93
:1046700016460A68C16006618DB081461269084617
:104680000F4698469047B0F5801F15D2B8F1000F3D
:104690000DD0D8F80030AB495B68152240469847EA
:1046A000D8F80030A8495B6840460F22984700249C
:1046B00020460DB0BDE8F08F0222012301E09042B8
:1046C0004CD90133DBB2202B4FEA4202F7D1A3F1E0
:1046D0000B0252100121D4B2914005940391013391
:1046E00001245B1004FA03F3049303FA04FA9B0019
:1046F0000193019BC01A20FA02F303FA02F400218D
:104700004FF40072304602934FF0010B0AF000FEA6
:104710000025FF230721FE2286F8C21186F8C32157
:1047200086F8BFB186F8C0B186F8C15186F8C431A9
:1047300086F8C5313B68C6F8C6A14AF655225444EE
:104740009B69C6F8CA41A6F8FE212946324638467A
:104750009847B0B9B8F1000FA2D1A8E71C2BB6D882
:1047600008221A2B059200F2B0814FF40043019306
:104770004FF4807303934FF400534FF4804A049333
:10478000B7E729464FF4007230460AF0C1FDEB232B
:1047900033707620902145226C4B7070B170F270AE
:1047A0001B68B464049C0B9334657465029CDDF84B
:1047B0002CE0F46558209DF8144075644621412290
:1047C0005423F564A6F86A5086F86D4086F8705058
:1047D0002024C6F864E030714FF0040C4FF480756B
:1047E0004FF0090E80207171B271F371C6F840A0CC
:1047F000C6F858A086F86EB034727472B472C6F8F7
:1048000060C0A6F8685006F1770386F86CE006F2FF
:10481000FD1186F86F00F42203F8012F9942FBD1B5
:104820004AF655220023A6F8FE211C46012501E088
:1048300001330135A3F16A02012A04D9702BF7D0A4
:10484000F25C02EB7404B5F5007FF1D13B683246AF
:104850009B6951463846984700283FF47BAF3B6838
:1048600032469B690AF10C013846984700283FF40C
:1048700071AF2A46002130460AF04AFD4AF6552318
:10488000A6F8FE310AF109030593731ECDF82490B2
:104890000AF1010B069306F2FF15CDF820A0994608
:1048A000CA464B4613F8012F9D4202EB7404F9D11E
:1048B0003B6832469B6959463846984700283FF482
:1048C00049AF3B6832469B690BF10C01384698476B
:1048D00000283FF43FAF059B0BF1010B5B45DFD197
:1048E000DDF82490CDF81CA04FF40072DDF820A074
:1048F000002130460AF00CFDCDF82090DDF8149030
:104900000AF10B0B069B13F8012F9D4202EB740476
:10491000F9D13B6832469B6949463846984700289A
:104920003FF418AF3B6832469B6909F10C013846E9
:10493000984700283FF40EAF09F101035B4507D00B
:104940009946DFE7BC3701001C380100B897FF1F0C
:10495000CDF81490DDF82090331F06F5FE7243F871
:10496000044F9342FBD13B6859469B693246384617
:10497000984700283FF4EEAE3B6805999B690D31DE
:1049800032463846984700283FF4E4AEB8F1000FAD
:1049900006D0D8F8003089495B680C224046984719
:1049A000029B4FF40072002130469D000AF0B0FCDB
:1049B0003346F82203F8132B049A0799524405F260
:1049C000072514466A0A1046FF2201F8012F8B4280
:1049D000FBD14FF0000B2346CDF810905C46AD0B99
:1049E00081469B4604E0002C68D00134A1451CD0D0
:1049F000B4FBF5F305FB13434BB901227049404664
:104A0000B8F1000F03D0D8F800305B6898473B68D6
:104A100032469B6904EB0B01384698470028E2D1E7
:104A2000B8F1000F7FF43CAE41E6DDF81090B8F12C
:104A3000000F30D0D8F8003062495B68022240464F
:104A40009847029C039B0734E40804F2FF156D0AA3
:104A50009D423FF625AE4FF40072002130460AF029
:104A600057FC072333704FF0000B06E0BBF1000F3B
:104A70007ED00BF1010B5D452BD03B6801999B6902
:104A800032465944384698470028EFD1B8F1000F14
:104A90007FF406AE0BE6029C039B0734E40804F2A5
:104AA000FF156D0A9D423FF602AE4FF4007241467B
:104AB00030460AF02DFC07233370D4E74FF4007220
:104AC000214630460AF024FC8FE74FF480710391B1
:104AD00005E6B8F1000F5ED03B494046FBF780FE8B
:104AE000039B4FEA4A0A0AEB03014846FFF76AFDB7
:104AF00000283FF4D5ADD9F80830039AB3EB422F24
:104B00003FF6CEAD31494046FBF76AFE4FF40072E6
:104B1000002130460AF0FCFB03238222812002217F
:104B2000337086F82000716386F84020D9F804209D
:104B300072647365039AD9F80830B3650025B463CD
:104B40000AEB420AF56504E0F5B1039B01359D428D
:104B500011D03B6832469B690AEB050138469847FD
:104B600004460028F0D1B8F1000F7FF499AD9EE51E
:104B700086F800B07DE7B8F1000F3FF499AD4046EC
:104B80001349FBF72DFE93E54FF40072294630469A
:104B90000AF0BEFBD9E7039B4FEA4A0A0AEB03017E
:104BA0004846FFF70FFD00283FF481ADD9F80830E3
:104BB000039AB3EB422F3FF67AADA7E7D437010053
:104BC00068320100F8370100E4370100FC370100CA
:104BD0000C38010010B500F10C0204464068A168D1
:104BE00003689B69984718B1237823F00103237069
:104BF00010BD00BF00224FF0FF330270836070478A
:104C0000F8B54568FDB183688B42044617460E46E9
:104C10000ED00378DA0712D4BB0716D504F10C05C1
:104C200007F001020023134323702846A660F8BD55
:104C300010F90C3B07F0010213432370F8BDFFF796
:104C4000C9FF0028E8D10020F8BD6068036804F1BE
:104C50000C059B682A46314698470028E0D1F2E7C8
:104C600038B50C46D0F81C14154601EBD41100F5EC
:104C700003700022FFF7C4FF40B1A400C4F308048E
:104C800003595A1C04D02B60012038BDFF2038BDC9
:104C9000002038BD38B50C46D0F81C14154601EB81
:104CA000D41100F503700122FFF7AAFF034628B1D3
:104CB000A400C4F3080401201D5138BD38BD00BF55
:104CC0000378DB0701D401207047FFF783BF00BFE3
:104CD0002DE9F84F804691468B46002944D08F1E1F
:104CE000D8F828349F423BD207F00705012303FA86
:104CF00005F5EDB2C7F3C80A3E463C46D8F8241481
:104D0000002201EB14314046FFF77AFFC0B110F8E2
:104D10000A100AE04A452AD0A74210D0D8F8282421
:104D2000944217D213F0FF050CD001340D424FEA24
:104D30004503A4EB0602EDD0A7422646EED10120A2
:104D4000BDE8F88F0AF1010ABAF5007F4FF00105BE
:104D5000DDD101E0002634464FF0000A0125CDE701
:104D60000027BA460125C7E7D0F81874B8E7BBF1A9
:104D7000000F04D1B9F1010F08BFC8F81864B01CC6
:104D8000BDE8F88FF8B5044600234FF0FF3600F574
:104D90000377C0F838144160C0F810121546384641
:104DA00084F83C34237084F80C32A660C4F8146292
:104DB0001A461946FFF724FF042D0CD8064650B1B9
:104DC0005DB905222649F01C0AF008FE18B996F8CC
:104DD0006C30092B19D00020F8BD6B1E00EB0313BB
:104DE00093F8BE2112F07F02F5D193F8C231002B67
:104DF000F1D000EB05153846D5F8B6512946FFF736
:104E0000FFFE06460028DCD1E5E7336D2B44C4F8ED
:104E10001C34736DC4F82034B36D1D44C4F824549D
:104E2000F36DC4F82834336EC4F82C3496F86D3022
:104E300084F83D340125093305FA03F35A1EC4F8FA
:104E400018040146C4F83434C4F8302420462A46F5
:104E5000FFF73EFF402384F83C342846F8BD00BFEE
:104E60002C3801002DE9F04702398046D0F828049B
:104E700015468A18824238D89A46D8F81834BAF1BA
:104E8000000F35D1994238BFC8F8181401F0070453
:104E90000122D8F8243402FA04F4E4B203EB113905
:104EA000C1F3C8060122494640469144FFF7A8FED7
:104EB000D8B1871900F5007017F8012B224214BFF2
:104EC00001260026564582EA04024FEA44040CD02B
:104ED000013D07F8012C15D014F0FF04EED1B842C3
:104EE00026464FF00104E7D1DCE70020BDE8F0875B
:104EF0009942CBD89A42C9D9824228BF0022C8F829
:104F00001824C3E70120BDE8F08700BF70B582B068
:104F100002AE054646F8041D0024D5F82834019950
:104F20000133994202D9002002B070BD32462846B2
:104F3000FFF796FE40B20028F5DB04F10104ECD146
:104F4000204602B070BD00BFF8B50E4696E82800B6
:104F5000D0F83014D0F8244490F83D742940023B36
:104F600004EB5121BB40194400F50370FFF748FEE4
:104F700018B17368C3F308031844F8BD70B54C68E2
:104F80000D46A318D0F830146B6090F83D340C40F7
:104F900009332244DBB222FA03F406463CB12B7AF1
:104FA0003BB12B6801332B60013C002CF7D1012071
:104FB00070BDD6F8283429680133994202D94FF0E0
:104FC000FF3070BD2A463046FFF74AFE40B2012846
:104FD000EAD070BDD0F8283401338B4201D2FF20D3
:104FE0007047FFF73DBE00BF01290DD9D0F8283426
:104FF0000133994210B403D900205DF8044B704787
:105000005DF8044BFFF746BE00207047F0B50C4634
:1050100083B005460E46D5F8283401339C4202D9A8
:10502000002003B0F0BD01AA21462846FFF718FE74
:1050300047B2002FF4DB012CF2D9D5F82834013324
:105040009C42EDD8002221462846FFF723FE002887
:10505000E6D0019B01349C420BD1002FDBD13B46B3
:10506000A21B31462846FFF7FDFE0028D8D003B02A
:10507000F0BDA21B314600232846FFF7F3FE0028AF
:10508000CED0019C002FCCD02646C4E72DE9F843B2
:105090000024D0F82464804600F503772546314685
:1050A000002238460136FFF7ABFD30B300F1FF3E7A
:1050B000D8F828C41EF8010FFF2805F5805913D031
:1050C00048B10822012318424FEA430118BF0134B6
:1050D000013ACBB2F7D10835AC450AD94D45DED0FF
:1050E0001EF8010FFF28EBD10835AC4504F1080488
:1050F000F4D8C4EB0C00BDE8F883BDE8F88300BF2A
:1051000010B50446D0F82C14FFF700FF94F83D3496
:105110000933DBB2984010BD7E2808D8A0F16103A6
:10512000192B8CBF00232023C01A80B2704730B4E3
:105130000023234D352405E035F8221081428CBF31
:1051400014461346E11A012903EB5102F4D89BB22D
:105150001B4935F82320904219D24B240023194DC6
:1051600005E035F8221081428CBF14461346E11A3F
:10517000012903EB5102F4D89BB2124A35F82310EF
:10518000814204BF02EB8303588830BC704701EBB7
:105190008303821AD9788A42DFDA93F90230012B2D
:1051A00008D023B19BB2184480B230BC70474EF295
:1051B000A033F8E702F00102801A80B2E5E700BFF1
:1051C0006039010034380100C9B110B40144D3037F
:1051D00043EA520310F8012BA2F16104192C9CBF81
:1051E000203AD2B212FA83F292B2D30343EA5202C5
:1051F000814292B2EBD110465DF8044B70471046E5
:10520000704700BF43B370B444887E2C1ED813444B
:10521000CD180A44023012F8013BE4B2A3F1610157
:105220001929A4F1610194BF20260026192994BFF1
:10523000202100219B1B641ADBB2E4B29C4205D101
:10524000AA4206D030F8024F7E2CE4D9002070BC70
:105250007047012070BC70470120704738B5044684
:105260000D46242200210AF053F8A560EB79102B9B
:1052700008D0202B04D1402301202370A07038BD1A
:10528000002038BD202301202370A07038BD00BF4E
:10529000024638B552F8105F04462946806801F08E
:1052A0008FFA50B155B123690135AB42A37818BFCD
:1052B00003F0BF0363F07F03A37038BDA37843F00E
:1052C0004003F7E72DE9F041037803F020032BB901
:1052D00003F0FF0441691F4B994203D90026304671
:1052E000BDE8F0810546FFF7D3FF06460028F5D05C
:1052F0002969A86801F002FA0746A86839462430EF
:10530000052201F0C3F980460028E7D04FF400726F
:10531000214609F0FDFFAB681A79012A10D9012452
:1053200003E0AB681A79A2420AD918680368E11948
:105330009B69424698470134E4B20028F1D1CDE799
:105340009B7969694FF4007202FA03F311FA83F34F
:105350006B61C4E7FFFD1F0010B5044680680A4674
:105360002430A16901F092F920B1A38803F00F0362
:1053700000EB431010BD00BF30B590F90230002B98
:1053800083B0044619DBA56805F1240001F0AEF9ED
:1053900030B9637843F001036370002003B030BD7F
:1053A00005F50C7001F0A2F90028F2D02868036816
:1053B0005B6998470028ECD0F0E70121FFF7CCFFAC
:1053C00005460028E5D00378E52BE2D023780D4A86
:1053D0001B0744BFE369C361236A126843831B0C44
:1053E000838252B10DF1060101A89047BDF8043047
:1053F000BDF806202B836B82EA82A37803F07F033B
:10540000A370C0E76031FF1F10B50378044623B9CD
:1054100000232370A370012010BDFFF7ADFF002310
:105420002370A37010BD00BF38B5037804460D4645
:105430005BB920460021FFF78FFF50B101462022C3
:10544000284606F087FB012038BDFFF795FF0028AE
:10545000EFD1002038BD00BFF0B5064693B03578D7
:10546000019200208DF824008DF825008DF826008B
:105470002DB91F460B7813F0700F0C4602D1002097
:1054800013B0F0BD13782F2B104617D101300190C7
:1054900003782F2BFAD0002B35D0A16809A8FFF78D
:1054A000DDFE0028EBD0019809AC07E03046FFF79D
:1054B00063FF002301983370B37009AC01AA03A9FC
:1054C00000F092FB03AA214601230028D7D0019DBA
:1054D0002D7830467DB100F0FFFD354609AC00283F
:1054E000CDD00FCD0FC40FCD0FC433782A68226002
:1054F000002BDED0DAE73B4603AA2146304600F017
:10550000EBFD13B0F0BDA1683046FFF7A7FEB7E78B
:1055100019B101F23C41FFF79FBF0846704700BF39
:1055200003780BB100207047FFF798BE2DE9F04FCC
:105530008378DF0783B0054640F190800F460178FD
:105540000E07914600F193808C0608D58268436966
:105550001289C3EB42139BB2994528BF9946B9F112
:10556000000F00F0AA806B69AA6888064E464FF0CB
:10557000000805F1100AC3F3080B3FD5116A01EBCF
:105580005321BBF1000F53D1B6F5007F50D3D36A3E
:1055900099424DD0B6F5806F72D328788006C6F355
:1055A000472B06D41079C8EB0000C0B2834528BF52
:1055B000834699424FEA4B240BD35B44994208D26D
:1055C00002F12400019101F091F8002846D0AA6868
:1055D0000199106802685B46D2F80CB03A46D84789
:1055E00000283BD06B69361B234427446B6164D091
:1055F0002978AA688806C3F3080BBFD492F80580FF
:1056000008EA5328BBF1000F38D1B8F1000F35D1AB
:10561000002B3FD149064CBF116A296A2961104607
:1056200001F06CF8AA6808EB0001BBF1000FABD0E9
:1056300002F12400002201F029F878B1CBF50074C2
:10564000B44228BF344600EB0B012246384606F030
:1056500081FAC7E72B7813F0700F2FD16B784FF0DA
:10566000FF3043F002036B7003B0BDE8F08FC369F5
:1056700042699B1A994528BF994670E72969CEE788
:10568000106803683A469B6898470028E6D04FF4B4
:105690000074A7E70B0705D5AB785C0602D529692E
:1056A0000131BBE710462969524601F02DF8002868
:1056B000D4DBCFD0AA682969B1E70026C6EB090080
:1056C00003B0BDE8F08F00BF70B582B001220DF1CC
:1056D0000701044646690569FFF728FF012808BF4E
:1056E0009DF80700666118BF4FF0FF30256102B0DA
:1056F00070BD00BF30B54369C3F3431583B00446A2
:1057000005B189B901220DF107012046FFF70EFF0F
:1057100040B201280BD163691F336361A068303048
:1057200000EB451003B030BD20334361F6E70020A5
:1057300003B030BD2DE9F041037807690446B3B1E9
:1057400042698A420E463AD041B92161A378666126
:1057500023F02003A3700120BDE8F08118070AD4CC
:1057600099060BD5A3681B89B6EB431FEED92761B9
:105770000020BDE8F081E1698E42F8D8D4F808E055
:105780009EF806500935E9B2501E751EC840CD403E
:10579000A84200D8B2B95B064CBFDEF82030236ABD
:1057A000236104F110084246002DCFD02169A06882
:1057B00000F0AAFF002805F1FF35F4DCD7E701204F
:1057C000BDE8F0812D1AECE72DE9F0410D46904639
:1057D0000021242204461F469DF8186009F098FD18
:1057E000A8682B6AE36000F1300208F00F0302EBB7
:1057F0004312A060A4F80480D17A0B0711D401F001
:1058000017012170D37AE67013F0180F04BF41F02E
:105810000801217017F0320F08D0237813F0110F10
:1058200004D000202070A070BDE8F08107F00705CB
:10583000A570918A538BC66AA661FE0643EA0141B0
:1058400006D5BA07EDD591B965F07F05A57002E0E0
:105850002162D369E361BB0602D40120BDE8F08177
:10586000E1692046FFF766FF0028F6D1D9E700F08E
:10587000E3FF0028D5D0A578E6E700BF03781BB981
:105880000B7813F0700F01D1002070472DE9F0471D
:105890004E6916F01F0782B021D191460D46804611
:1058A000BA4601E000276E6900212846FFF722FF73
:1058B000A8B103789BB12E2BF4D0E52BF2D0C27A9D
:1058C000110710D50F2AEDD15A06ECD503F01F07AA
:1058D00090F80DA0E7E700F05DF9824505D00020C3
:1058E00002B0BDE8F087002FF5D100974B46C6F314
:1058F0004F1229464046FFF767FFF1E703780BB1E7
:10590000FFF73ABD0120704783789B071AD5036AD9
:10591000B3B110B5016982B00446F1B901930162D7
:105920001946A06800F088FFA8B1A37822786169C1
:10593000E16163F07F03A370EAB9012002B010BDFA
:1059400001207047002070476FF070422169A06805
:1059500000F00AFF58B90020F0E702AA002342F83D
:10596000043D806800F0D0FE0028F4DBECD1019B00
:10597000002BDAD0D4E72046FFF7FEFCDEE700BFBD
:105980002DE9F04783789D07044607D4637843F0F8
:10599000010363704FF0FF30BDE8F0878846590778
:1059A000914600F1C2806369DA439145EED8B9F1BE
:1059B000000F00F0C1804E464FF0000A30E0002991
:1059C0007BD0A27852067FD5E2699A427CD9013118
:1059D000216100F093FEB6F5007F01463DD2626979
:1059E000E369A068B6F5007F354628BF4FF400751F
:1059F0009A427AD30522243000F048FE0028C5D010
:105A000038442A4641462F4406F0A4F8B7F5007FF3
:105A100079D06369761B2B44A844636100F08C80C5
:105A2000A0682169427912EA5325C3F308070CD113
:105A3000002FC4D000F062FE0146C7F50075B542E4
:105A400028BF3546A0680122D5E700F057FE291887
:105A5000002FF2D1B6F5007FC1D3B6F5806FA068F4
:105A60001DD30279C76A521BC6F34723D2B29342B1
:105A700028BF13468F424FEA432508D81F448F4260
:105A800005D980F824A04FF0FF32C262A0680068F8
:105A900007684246FF69B8470028BAD176E7C36A6B
:105AA0008B4229D00068036842469B6998470028CA
:105AB0003FF46CAF4FF40075ABE7216A59B3216135
:105AC00000F01CFE0146C5E704F1100200F01CFEC8
:105AD0000028FFF65BAF05D12046FFF7D9FB002871
