:1000000000000320D1010000DDC6000095C60000FD
:1000100095C6000095C6000095C6000095C6000074
:1000200095C6000095C6000095C60000DDC600001C
:10003000DDC6000095C60000F1DD0000F5DE000021
:10004000DDC60000DDC60000DDC60000DDC6000024
:10005000DDC60000DDC60000DDC60000DDC6000014
:10006000DDC60000DDC60000DDC60000DDC6000004
:10007000DDC60000DDC60000DDC60000DDC60000F4
:10008000DDC60000DDC60000DDC60000DDC60000E4
:10009000DDC60000DDC60000DDC60000DDC60000D4
:1000A00015BF000021BF0000DDC60000DDC6000056
:1000B000DDC60000DDC60000DDC60000E1E6000090
:1000C000DDC600000DE80000DDC6000039E90000D3
:1000D000DDC6000031EA0000DDC60000DDC600001C
:1000E000DDC60000DDC60000DDC60000DDC6000084
:1000F000DDC60000DDC60000DDC60000DDC6000074
:10010000DDC60000DDC60000DDC60000DDC6000063
:10011000DDC60000F9CC0000DDC60000DDC6000031
:10012000DDC60000DDC60000DDC60000DDC6000043
:10013000DDC60000DDC60000DDC60000DDC6000033
:10014000DDC60000DDC6000029EB0000DDC60000B2
:10015000DDC60000DDC60000DDC60000DDC6000013
:10016000DDC60000DDC600002DBF00004195000087
:10017000719500004D9500006D9500006995000097
:1001800059950000157C0000DDC60000DDC60000AA
:10019000DDC60000DDC6000021EC0000DDC6000069
:1001A000DDC60000DDC60000DDC6000039BF00006E
:1001B000DDC60000DDC6000075950000A5950000B5
:1001C00081950000A19500009D9500008D9500008F
:1001D0005C4B4CF2205210B51A804DF628121A8052
:1001E00000BF00BF0CF07EFA574B4FF030621A6030
:1001F000564A9A60564ADA60564B4FF470021A60BB
:10020000554B564A1A60564B1A78110703D51A787F
:1002100042F008021A70534B5349AA221A70534AEB
:10022000534B8B4204D252F8040F43F8040BF8E707
:10023000504B514900228B4202D243F8042BFAE77B
:100240004E494F4A002352F8230041F8230001335E
:10025000742BF8D14B4B4C4A802103F8011B93427D
:10026000FBD14A4B454A1A60494B8A221A70A3F5C2
:10027000805324225A70A0221A709A799207FCD5D2
:100280009A79D406FCD4434A937903F00C03082BE3
:10029000FAD1414B60221A7002331A78802AFCD1BD
:1002A0003C4B01221A715D225A719A799006FCD555
:1002B0009979384A4906FBD5384B394919600021EC
:1002C000596020231370937903F00C030C2BFAD19F
:1002D000344B354A1A60354A354C136813F4807331
:1002E00003D123604FF4A8531360324B324A1A6093
:1002F00000225A60072243F8042C304AC3F80C2D20
:1003000062B60CF069FB2368DA0705D52C480CF0BF
:10031000C1FA2C4B2C4A1A602C4B1B785B0609D572
:10032000284C294B22689A4204D125480CF0B2FA95
:10033000002323600FF086FB0CF0DAF90EF016F9BB
:10034000FEE700BF0E20054030800440823F0400DD
:100350000100002B88ED00E0002008E0030000858C
:1003600002D0074000E00740A01CFF1F9C56010080
:100370003007FF1FA01CFF1F289CFF1F0002FF1F4C
:100380000000000000E400E064E400E008ED00E0AC
:10039000005006400040064001E007404480044011
:1003A0000000060204800440C010070010D0034083
:1003B00014D0034014E000E01FBF02000000202022
:1003C0007D66DC621CE00340A5C3945A00F0074040
:1003D000FFFFFFFFFFFFFFFFFFFFFFFFFFFFFFFF2D
:1003E000FFFFFFFFFFFFFFFFFFFFFFFFFFFFFFFF1D
:1003F000FFFFFFFFFFFFFFFFFFFFFFFFFFFFFFFF0D
:10040000FFFFFFFFFFFFFFFFFFFFFFFFDEF9FFFF23
:1004100010B5054C237833B9044B13B10448AFF33E
:1004200000800123237010BDA01CFF1F00000000EE
:1004300098560100084B10B51BB108490848AFF3A6
:1004400000800848036803B910BD074B002BFBD0A0
:10045000BDE81040184700BF00000000A41CFF1FAB
:1004600098560100A01CFF1F0000000000207047EC
:100470004FF0FF30704700BF704700BF704700BFAC
:10048000704700BF0023034A19460E2013700CF07A
:1004900013BA00BFA828FF1F0123034A19460E20E4
:1004A00013700CF009BA00BFA828FF1F10B5034B4A
:1004B0000360044602F062FF204610BD3C3E01008E
:1004C000836C13B1184605F02BBAC06C08B103F069
:1004D000C5B94FF0FF30704708B50CF007FA034B71
:1004E0001860BDE808400CF0CFB900BF502CFF1FCA
:1004F000F8B50D46064609F023FB044609F010FB4B
:10050000074609F0FDFAA4F2BC739BB27F2B02D818
:10051000FAB20C2A22D90023338009F0C1FA064628
:1005200009F0CEFA044609F0DBFAF3B2172B12D821
:10053000E3B23B2B0FD8C3B23B2B0CD8F3026401C0
:1005400003F4FF2304F4FF542343C0F346000343A2
:100550009BB22B80F8BD00232B80F8BDC0B21F28B2
:10056000D9D87F0107F4FF57384340EA43239BB2B1
:10057000D2E700BF00B5836C83B063B11846012297
:100580000DF1070105F0FEF801280CD19DF80700D8
:1005900003B05DF804FBC06C28B101220DF1070126
:1005A00003F086F8F0E74FF0FF30F1E700B50146C1
:1005B00083B0084808F0A8FD074B084A1968019164
:1005C00013680749019808600133136003B05DF8B0
:1005D00004FB00BF6431FF1FB897FF1F602CFF1F93
:1005E000081FFF1F00B5014683B0084808F08CFDC6
:1005F000074B084A19680191136807490198086078
:100600000133136003B05DF804FB00BF4C64FF1FAF
:10061000B897FF1F642CFF1F1021FF1F826C62B16F
:10062000137803F0080303F0FF0003B3D3695069A4
:10063000181A48BF6FF000407047C16CC1B191F803
:10064000313003F0080303F0FF0083B1D1E9042344
:10065000D1E90001101A30B463EB010100256FF0FD
:1006600000448D4208BF844200D2204630BC70470F
:1006700008467047836C13B1184605F06BBAC06C1E
:1006800008B103F01FBE704770B5264CADF5047D70
:1006900025460DE005F076F80346002B4FF4007177
:1006A00004A819DD0DF0BCF90DF090F901281DDC4E
:1006B000A36C4FF4007204A91846002BEAD1E86C31
:1006C00050B104A94FF4007202F0F2FF0346002B70
:1006D0004FF4007104A8E5DC002105200CF0ECF8D3
:1006E000104802F04BFE0DF5047D70BD78230A2200
:1006F00068460D490DF088FD69460C480DF05AFE1C
:1007000068460DF0E5FD0A4968460DF021FE694690
:1007100006480DF09FFE064668460DF0D9FD002EF6
:10072000C6D0D9E7FC2BFF1F4412FF1F1421FF1F67
:100730000043010000B5836C83B08DF8071043B10E
:10074000184601220DF1070105F046FA03B05DF8E5
:1007500004FBC06C0028F9D001220DF1070103F061
:10076000C9FE03B05DF804FBF0B51A4EB06CADF5F0
:10077000037D3746F8B14FF4007202A905F002F884
:10078000002821DD0DF107040DF2072514F8012FD3
:10079000114901A80FF072FF01A810F011F80146ED
:1007A00001A80DF03DF9AC42F0D10C480DF0C0FBB2
:1007B000B06C0028DFD1F86C30B14FF4007202A9A0
:1007C00002F076FF0028DDDC024802F0D7FD0DF5CF
:1007D000037DF0BDFC2BFF1F583E01004412FF1F9C
:1007E00070B5044608460D460FF0EAFF236802463E
:1007F000294620465B68BDE87040184738B5044676
:1008000008460D460FF0DCFF2368024629465B6868
:1008100020469847054620460DF08AFB284438BDFF
:1008200038B50C4D0C4C0021284609F0E9FDD5F8EF
:100830000202D5F80612D5F80A22D5F80E320FC4F6
:10084000D5F81202D5F81612D5F81A22D5F81E32AC
:100850000FC438BDDC1CFF1F002BFF1F70B5204BE1
:100860002049214AD3F8785400248EB006460C70F3
:100870001470E5B102462946012368468DF8004010
:100880008DF801408DF8024004F06EFFF8B1174B6F
:10089000196821B132460123154802F083FD012178
:1008A00005200CF009F8FFF7EFFE0EB070BDD3F88D
:1008B0007C1461B10246012368468DF831508DF8F1
:1008C00032508DF8335003F0DDFA0028DFD11B21C0
:1008D00008480DF0A5F808480DF02AFB0EB070BDD1
:1008E0004421FF1FEB2BFF1F6D07FF1F1431FF1F5C
:1008F000FC2BFF1F603E01004412FF1F2DE9F04F4B
:10090000414B4249D3F87874414DA3B000264FF4CF
:100910007A720E9581460E708DF83C608DF84460B9
:10092000209621961092002F53D039466846012315
:100930004A466C468DF800608DF801608DF80260C3
:1009400004F012FF002855D0324B19680DF1380819
:1009500021B14A464046012302F024FD20986FF061
:10096000004A4FF0000BD8B103781A0706D440466E
:100970000E9502F003FD23B0BDE8F08FC269436914
:100980009A42F4D00122214604F0FCFE01280CBF5B
:100990009DF80000FF200DF0C7F820980028E3D153
:1009A00021980028E3D090F831301B07DFD5D0E93B
:1009B0000423D0E90067921B63EB07039B4508BF44
:1009C000924501D3002AD2D00122214602F070FEC6
:1009D000DCE7D3F87C1469B1684601234A466C46CB
:1009E0008DF831708DF832708DF8337003F04AFA5B
:1009F0000028A9D11B2108480DF012F807480DF076
:100A000097FA0DF13808B2E74421FF1FEB2BFF1FC7
:100A10003C3E01001431FF1F603E01004412FF1FE5
:100A200010B5044614F8013B184633B12E2BF9D00B
:100A30000FF030F80028F5D110BD012010BD00BF27
:100A400084B030B593B016AC84E80F009DF87050B8
:100A50009DF867400BF04AFF9DF8663016990090AC
:100A600003F001032A46029301911D9B154903944B
:100A700005A80FF003FE05A80FF0A2FE014605A889
:100A80000CF0CEFFACB1651EEDB2103516AB1D44B7
:100A90000DF1670414F8012F0B4904A80FF0EEFDC7
:100AA00004A80FF08DFE014604A80CF0B9FFAC427B
:100AB000F0D106480DF03CFA13B0BDE8304004B068
:100AC000704700BF7C3E0100983E01004412FF1FAA
:100AD00070B5134C04F59165264601210E200BF0EC
:100AE000EBFE32200BF026FF00210E200BF0E4FE7F
:100AF00032200BF01FFF4FF000010A4807F0A2F868
:100B00000848C4F8845406F0C3FC0028E5D1D6F8A0
:100B10008414034802F08AFC0028DED070BD00BFB8
:100B20004421FF1FCC25FF1F08B54FF40072154963
:100B300015480BF05FFA154B986C70B14FF40072CA
:100B4000114905F049F8B0F5007F10D11049114B5B
:100B50000120002208701A6008BDD86C38B14FF42B
:100B60000072094903F0C6FCB0F5007FEED00C21FD
:100B700009480CF055FF09480DF0DAF9BDE80840C6
:100B8000FFF7A6BFEC28FF1FA026FF1FFC2BFF1FAF
:100B9000EA2BFF1F3C2BFF1FA03E01004412FF1F4A
:100BA000204B99784A1CD2B23A2A9A701BD05B2A01
:100BB00026D02F392A2984BF30229A705A783A2AAF
:100BC00016D05B2A23D0303A2A2A84BF30229A706A
:100BD0001A783A2A11D05B2A20D0303A2A2A84BFC8
:100BE00030229A70704741229A705A783A2AE8D196
:100BF00041225A701A783A2AEDD141221A70704770
:100C00005A780132D2B230215A709970D7E71A78E7
:100C10000132D2B230211A705970DAE730221A70DC
:100C2000704700BF3C26FF1F2DE9F047864D874ED9
:100C300082B0681C40F23A2200210FF0C3FA05F19D
:100C400001080023C8F1110905F23A272C46338028
:100C500009EB04000BF044FC04F8010FA742F7D1A4
:100C60007B4CC4F51277023704F12A0938190BF0CE
:100C700037FC04F8010FA145764BF7D1764CDFF82D
:100C800018A22068C8F8120193E80700A488AAF8FF
:100C900004400AF106071C4603C754F80A0F3A80BD
:100CA0006168A268E3686D4FDFF8F0E10FC7206963
:100CB0006169A269E3690FC7BEE80300A7F12104D7
:100CC0009EF80020C8F8220107F1FF398AF81820A1
:100CD000CAF8141027460AF1190A17F8012F6049BB
:100CE00001A80FF0CBFCBDF804302AF8023BB9454F
:100CF000F3D170200DF042FC5A4F824608F0D4FF29
:100D00005948C7F800A00FF05BFD5749024650460E
:100D100009F0B4F83868514909F0D2F83868534FEF
:100D200070210DF02DFC524B03CB1B78C8F86B01E2
:100D3000093707F8013C47F8051C14F8012F48490A
:100D400001A80FF09BFCBDF8043027F8023BA14539
:100D5000F3D1002347484149474F1A4600F5C8746C
:100D600009F006FE454B93E80300C8F8B40188F883
:100D7000B81104F1400814F8012F394901A80FF007
:100D80007DFCBDF8043027F8023BA045F3D13C4878
:100D90000DF0CEF83B4B196821B343233A4A3B4848
:100DA00002F000FBF0B1394F002402E004F014FF20
:100DB00001342D480FF004FDA0424FF0010201A9BB
:100DC0003DD9BB6C15F8010F8DF804001846002BB7
:100DD000ECD1FB6C012201A91846002BE8D003F0EE
:100DE00089FBE5E735212A480CF01AFE24480DF06E
:100DF0009FF825480FF0E4FC014623480CF010FE54
:100E00001F480DF095F8172122480CF009FE1C48E8
:100E10000DF08EF814480FF0D3FC014612480CF088
:100E2000FFFD17480DF084F840F23A2200210E48E9
:100E30000FF0C8F90023338002B0BDE8F0871348F3
:100E400002F09CFADFE700BF672CFF1FEC2BFF1FAF
:100E50003F26FF1F4026FF1FB03E0100BC1CFF1FA6
:100E6000C43E0100FC25FF1F682CFF1FD32DFF1F70
:100E7000CC3E0100DC1CFF1F212EFF1F283F01007C
:100E80004412FF1F1431FF1FAC30FF1FC430FF1F7F
:100E9000F03E0100D83E01007A2DFF1FB83E010050
:100EA00030B5754B1B7895B0002B52D0734C744AFB
:100EB00023680193019B11685B1A312B00F2C080FB
:100EC000704B1B78002B2ED023686F4A0793079B2B
:100ED00011686A485B1A312B00F2C0806B4B1B789B
:100EE0005BB123686A4A0D930D9B116863485B1AD6
:100EF000312B00F2968015B030BD664B1B78002B6D
:100F00006AD02368644A0F930F9B11685B485B1A91
:100F1000B3F5FA7FEFD3614C01682378109183F029
:100F20000103109984E05E4B1B78002B40D02368AE
:100F30005C4A0993099B116850485B1AB3F5FA7F24
:100F4000CCD3594D01682B780A9183F001030A999B
:100F50008BE0564B494C1B78B3B12368544A03933A
:100F6000039B11685B1AB3F5FA7FA9D35148216836
:100F70000378049183F00103049D03701946062051
:100F800015600BF099FC9BE723684B4A0593059B82
:100F900011685B1AC82B93D923680693069B454DAD
:100FA00013600123194606202B700BF085FC87E7A0
:100FB000226842490B920B9A0868304D121AC82ACF
:100FC0008CD92A680C920C98374A0860194605207B
:100FD00013700BF071FC81E7226839491192119A64
:100FE00009682648521AB2F5967F84D302683549BB
:100FF0001292129A0968521AB2F5967FFFF47BAFEB
:10100000026831491392139A0968521AB2F5967F11
:10101000FFF471AF214A19460E2013700BF04CFCFF
:1010200069E71E4C016823780E910E9983F0010345
:1010300011600E20194623700BF03EFC15B030BD38
:101040001C4821680378029183F00103029D03701C
:101050001946062015600BF02FFC31E7124D016890
:101060002B780891089983F0010311600520194637
:101070002B700BF021FC31E7C030FF1FB897FF1F2A
:10108000D02BFF1F5E2CFF1FA428FF1F2421FF1F52
:10109000F82AFF1F2521FF1FA42EFF1FA828FF1FCE
:1010A000CC2BFF1FD42BFF1F4C2CFF1F542CFF1FDA
:1010B0003021FF1FB428FF1FA028FF1FF42AFF1FA5
:1010C000081FFF1F1021FF1F0C21FF1F2DE9F043F8
:1010D000C64EC74B717B306995B000244FF0120E9D
:1010E0000125132704932246059503940094234673
:1010F000CDF808E0019709F027FF32466021BD488E
:1011000009F0F4F8002800F011822E21BA48BB4FF4
:10111000BB4E0CF085FCBB480CF00AFF2146B548DD
:1011200009F088FA22462146B24809F0BDF9142197
:10113000B5480CF075FCB3480CF0FAFEB34BB4485C
:101140001C704FF480710DF0CBF829462A200BF06B
:10115000C7FB294629200BF0C3FB294628200BF0AA
:10116000BFFB21462A200BF0A7FB214629200BF0CC
:10117000A3FB214628200BF09FFB294606200BF0FD
:10118000AFFB294605200BF0ABFB29460E200BF0E8
:10119000A7FB294627200BF0A3FB9E4B3D70294659
:1011A00006201D7035700BF087FB397805200BF099
:1011B00083FB31780E200BF07FFB02211C200BF00B
:1011C0008FFB9549954808F02FFA9549934808F008
:1011D0002DFA9449914808F02BFA93498F4808F06A
:1011E00029FA92498D4808F027FA32218B4808F0F5
:1011F00015FA4FF4FA61894808F014FA4FF4FA71BD
:10120000864808F00DFAFFF70BFB2946884807F0DF
:10121000BDFB2946874807F0B9FB2346864A844828
:101220000094214607F0B0FD2346834A814800948C
:10123000214607F0A9FD21467D4807F03FFC2146E5
:101240007C4807F03BFC2946794807F0B3FB294668
:10125000784807F0AFFB794B79489A7B08212A43FD
:101260009A73D97308F0BCFC08F0B2FC022800F0B5
:1012700065811B2173480CF0D3FB62480CF058FECB
:10128000012008F0BBFC08F05BFC044608F048FCB9
:10129000054608F035FC814608F002FC064608F0D9
:1012A0000FFC074608F01CFC80460BF01FFB664B4A
:1012B000CDF800901968CDF80C80401A2B462246D4
:1012C00062490490029701966148624C0FF0D6F98A
:1012D0005F480FF075FA01465D480CF0A1FB4948E4
:1012E0000CF026FE04F591655B4B5C4A1A602846BB
:1012F0004FF0000106F0A6FC2846C4F8845406F01E
:10130000C7F8002800F0738155493E48FFF776FA88
:10131000FFF7DEFB182153480CF082FBD4F8783439
:101320004C4A002B00F05B81D969013900230A2265
:1013300034480CF023FE33480CF0FAFD17214A48DC
:101340000CF06EFBD4F87804424B002800F03F818B
:1013500005F0BEFB014600230A222A480CF00EFECF
:1013600028480CF0E5FDD4F878043A4B002800F04A
:10137000278105F0ADFB41F28733984240F20981A5
:101380003A4B3B481C6017210CF04AFB394E0425B0
:1013900028460BF0A5F801350A2D06F8010BF7D108
:1013A000344D2846FFF73CFB20B9334B93E803004C
:1013B0002860A980314E0C25374628460BF090F85E
:1013C0000135102D07F8010BF7D12C4D2846FFF7FA
:1013D00027FB08B92A4B2B6005212A480CF020FB7B
:1013E00008480CF0A5FD234B274A4FE08497FF1FC8
:1013F000A0860100DC1CFF1F303F01004C2CFF1FAA
:10140000A828FF1F4412FF1F603F0100EA2BFF1FA7
:101410001421FF1FB428FF1F252500000026FF1FF1
:10142000391C00007D0400008504000099040000C0
:101430006431FF1F4C64FF1F3497FF1F402BFF1FB9
:10144000D9040000983F0100502CFF1FD03F01003D
:10145000A02BFF1F4421FF1F6031FF1FF10400007C
:10146000F43F010024400100404001001431FF1FFF
:101470008C4001002821FF1F004101003C26FF1F76
:1014800030303000A44001009C26FF1F5C495D48BD
:101490000FF0F4F817215C480CF0C2FA59480FF02D
:1014A0008FF9014657480CF0BBFA58480CF040FD44
:1014B000574B584A5849009658480FF0DFF8544B9C
:1014C0000096544A564957480FF0D8F8D4F8785443
:1014D000554B002D4BD006AE294630460025012342
:1014E0004E4A8DF818508DF819508DF81A5004F0A6
:1014F0003BF905463DB343200AF028FF07EE900A6A
:10150000FAEEEF7A494C4A494048FDEEE77A17EE89
:10151000902AC4ED007A0CF023FD4649464B012089
:10152000042208701A8015B0BDE8F0831F214348DB
:101530000CF076FA35480CF0FBFCFEE740493348E6
:10154000FFF75CF99CE6D4F87814374B41B330468A
:101550000123344A8DF818508DF819508DF81A501F
:1015600004F002F90028C6D0FFF75EFBC3E7D3F80A
:101570007C140029BFD006AE30460123274A8DF8DF
:1015800049508DF84A508DF84B5002F07BFC0546CF
:10159000B0E72C491D48FFF731F9FFF799FAEFE65C
:1015A000D3F87C140029A6D0304601231D4A8DF8BB
:1015B00049508DF84A508DF84B5002F063FCD1E74A
:1015C000D3F87C040028E4D003F082FED3E6D3F8FD
:1015D0007C0400283FF4BEAE03F07AFEBAE6D2F8EF
:1015E0007C1400293FF4A2AED1F828149EE6D4F86A
:1015F0008414204601F01AFF00283FF485AE89E6E6
:10160000AC400100582CFF1FB44001004412FF1FE2
:101610002821FF1F9C26FF1FCC400100AC30FF1F7C
:10162000D8400100C828FF1F4421FF1F5C2BFF1F6B
:10163000E44001006D07FF1FE82BFF1F783F01000A
:10164000B43F0100584001002DE9F04F092185B059
:101650008248834C834E844D0CF0E2F97F4B228804
:1016600003CB1F78B050B31802F1090EA4F800E0C4
:1016700005F1200959601F72AA461AF8012F7B490B
:10168000DFF8DC81774F03A80EF0F8FF03A80FF016
:1016900097F8014603A80CF0C3F92388BDF80C2085
:1016A000F252CA4503F102032380E6D170200CF008
:1016B00065FFDFF8F4A1834608F0F6FA3846CAF869
:1016C00000B00FF07DF839460246584608F0D6FBC8
:1016D000DAF80000664908F0F3FBDAF80000702140
:1016E0000CF04EFF092163480CF09AF9614AB8F8F2
:1016F000003003CA07EB030EF85012788EF808206A
:101700000933CEF80410A8F8003015F8012F574916
:10171000DFF84C81534F03A80EF0B0FF03A80FF081
:101720004FF8014603A80CF07BF92388BDF80C2084
:10173000F2524D4503F102032380E6D10023DFF886
:101740006C914B494C484D4D1A4609F011F94846E9
:1017500005210CF065F9B8F80030D9F80000F85010
:101760001F4499F804203A710533A8F8003005F1B8
:10177000400715F8012F3D4903A80EF07FFF03A88D
:101780000FF01EF8014603A80CF04AF92388BDF8B3
:101790000C20F252AF4203F102032380E9D1384812
:1017A0000CF0C6FB374B00933749384B384A394861
:1017B0000EF064FF384B196829B34323354A374884
:1017C00001F0F0FDF8B1364E344F002502E004F090
:1017D00003FA013523480EF0F3FFA8424FF001024F
:1017E00003A936D9BB6C16F8010F8DF80C0018460A
:1017F000002BECD1FB6C012203A91846002BE8D08A
:1018000002F078FEE5E70E2126480CF009F91C48A5
:101810000CF08EFB1F480EF0D3FF01461D480CF064
:10182000FFF817480CF084FB0E480EF0C9FF014684
:101830000C480CF0F5F812480CF07AFB40F23A2212
:10184000002108480EF0BEFC0023238005B0BDE84F
:10185000F08F124801F092FDE6E700BFB83E0100AC
:10186000EC2BFF1F682CFF1FBB1CFF1FC43E010099
:10187000BC1CFF1FCC3E0100DC1CFF1F6C1EFF1FA9
:101880004412FF1F3C26FF1FCC4001002821FF1FF0
:101890009C26FF1FAC30FF1F1431FF1FC430FF1FF9
:1018A000672CFF1F08410100FC25FF1F283F010096
:1018B0002DE9F043664F87B00BF018F8654A3B7886
:1018C0001060002B00F0A980634B1B68072B40F2CF
:1018D000A780624D624C63484FF4FE72214608F0C7
:1018E000CFF9C4F8FC01FFF71FF95F4A936C002B96
:1018F00000F0A780DE695C48DFF8AC81DFF8AC91CE
:1019000001F03CFD03AC04220C2158480AF030FEE3
:101910003246204656490EF0B1FE94E80700434691
:1019200003C328681A8053494FF4007208F0A6FADE
:101930002868514908F0C4FA28684F4D70210CF00E
:101940001FFE0FCDC8F80A00C8F80E10C8F8122004
:10195000C8F816300FCD08F10A06C8F81A00C8F802
:101960001E10C8F822204046F361DFF84481434D41
:10197000434E2A2240F24A210AF0FAFD0621484647
:101980000CF04EF8B8F80030B9F80410D9F800009F
:10199000E850EA18204606339180A8F800300EF08F
:1019A0000FFF014620460CF03BF803CCB8F800309E
:1019B0002288E8501D440A332A816960A8F8003063
:1019C000304DFFF741FEDFF8ECE02F482F4A0024AE
:1019D00000942346CEF800402146047034602C4821
:1019E0002C6007F0D1F921462346284A0094294863
:1019F00007F0CAF943203C700AF0A8FC07EE900AF1
:101A0000FAEEEF7A244C25492548FDEEE77A17EEE9
:101A1000902AC4ED007A0CF0A3FA07B0BDE8F08379
:101A20009C0114490D4D1F48C4F50074224601EB7A
:101A300083110AF0DFFA224628681A4908F01EFAD4
:101A400048E7D66C002E3FF456AF366953E700BF27
:101A5000EA2BFF1FA82EFF1F3C2BFF1FFC25FF1F9B
:101A6000EC28FF1F582BFF1FFC2BFF1F3C26FF1FDE
:101A700018410100A026FF1FBC1CFF1F682CFF1F80
:101A80003821FF1FF82BFF1FF02AFF1F3497FF1F7D
:101A90006431FF1F4C64FF1F5C2BFF1FE4400100FB
:101AA0004412FF1F0C1FFF1F4026FF1FB03E010006
:101AB000EC2BFF1F3421FF1F10B5214B9A6C8EB009
:101AC000002A36D01F4BD3F87844CCB121460123ED
:101AD00000241D4A8DF8004068468DF801408DF8BD
:101AE000024003F041FED8B1184B196821B101231F
:101AF000154A134801F056FCFEF736FE0EB010BD35
:101B0000D3F87C1461B101230F4A8DF83140684647
:101B10008DF832408DF8334002F0B4F90028E3D15B
:101B20001B210B480BF07CFF0A480CF001FA0EB0A9
:101B300010BDDB6C002BC5D1FFF7BAFEC2E700BFBA
:101B4000FC2BFF1F4421FF1FC828FF1F1431FF1F5C
:101B5000603E01004412FF1FF0B5334B9A6C8FB00A
:101B60000746002A59D0314DD5F87844BCB12146FA
:101B70006846002401233A466E468DF800408DF8F1
:101B800001408DF8024003F0EFFDD0B91B21284839
:101B90000BF046FF27480CF0CBF90FB0F0BDD5F89D
:101BA0007C140029F2D0684601233A466E468DF82F
:101BB00031408DF832408DF8334002F063F900284F
:101BC000E4D0D5F87844194B94B121463A46002424
:101BD000022330468DF800408DF801408DF8024018
:101BE00003F0C2FD0028D8D0304604F0B1FAD4E7A3
:101BF000D3F87C140029D0D03A46022330468DF821
:101C000031408DF832408DF8334002F03BF9002826
:101C1000C3D0304602F042FABFE7DB6C002BA2D102
:101C2000FFF746FE9FE700BFFC2BFF1F4421FF1F6D
:101C3000603E01004412FF1F08B5FFF739FEBDE802
:101C40000840FFF743BA00BF2DE9F0438BB007F01F
:101C500077FF044607F064FF054607F051FF804612
:101C600007F01EFF064607F02BFF074607F038FF78
:101C7000854A864BCDF8008043F2E421039050580A
:101C80005958049122462B468149029701960590A6
:101C90008048814C814E0EF0F1FC7E480EF090FDA4
:101CA00001467C480BF0BCFEB4F800C0DFF8E4E16C
:101CB00006EB0C070EF1200875460FCD4545386040
:101CC0007960BA60FB60AE4607F11007F4D128686E
:101CD00038600CF1240C7248A4F800C00EF070FDBE
:101CE0006F4FDFF8DC816F4D01466D480BF098FEB9
:101CF00007CF2388F718F0500C3379604046BA605C
:101D0000042123800BF08CFE2388D8F80000F050CB
:101D10000433238005F1090915F8012F62495E4F4C
:101D2000DFF8788109A80EF0A9FC09A80EF048FD9B
:101D3000014609A80BF074FE2388BDF82420F25256
:101D4000A94503F102032380E6D1DFF87891574DCE
:101D5000484604210BF064FE3B88D9F8000048F89F
:101D6000030004333B8005F11008514F14E02A783A
:101D70000EF084FC09A80EF023FD014609A80BF023
:101D80004FFE2388BDF82420F25201350233454529
:101D90002380414A414B0AD03B7843491A4609A85F
:101DA000002BE4D1404909A80EF068FCE2E7DFF817
:101DB000188107934046052106920BF031FE069AE2
:101DC000079B1188D8F8000058503A4D98F804E065
:101DD0000B44053183F804E0118005F1100814E08C
:101DE0002A780EF04BFC09A80EF0EAFC014609A87F
:101DF0000BF016FE2388BDF82420F2520135023381
:101E000045452380244A254B0AD03B7826491A466B
:101E100009A8002BE4D1244909A80EF02FFCE2E721
:101E2000254F07933846052106920BF0F9FD069AD7
:101E3000079B118838685850204D3F790B44053175
:101E40001F71118005F1400715F8012F164909A8E7
:101E50000EF014FC09A80EF0B3FC014609A80BF023
:101E6000DFFD2388BDF82420F252BD4203F10203B6
:101E70002380E9D140F23A22102108480AF078FB89
:101E80000BB0BDE8F08300BF4C64FF1F6431FF1F3F
:101E900020410100A02BFF1FEC2BFF1F682CFF1F10
:101EA000C828FF1F201EFF1FC43E0100B828FF1FC7
:101EB0006C07FF1FDC28FF1F604101002C1EFF1F65
:101EC00048410100504101005841010010B52E4920
:101ED0002E4B002282B0012470200C601A700CF08E
:101EE0004DFB044607F0E0FE294B1C60FEF758FE50
:101EF000284B2949294A2A480EF0C0FB294B19686A
:101F000029B14323264A284801F04CFA30BB0E2160
:101F100026480BF085FD26480CF00AF820480EF004
:101F20004FFC01461E480BF07BFD21480CF000F8E9
:101F30001D4B204A9C6C04211180B4B10021204625
:101F400003F024FD68B91C4B1C4A1B6801930199DE
:101F50001B4B116001221A7002B010BDFFF774FE16
:101F6000E6E7204603F0FCFDEDE7DC6C002CEAD050
:101F700000220023204601F089FC0028E3D02046FF
:101F800002F046FADFE700BFAC28FF1FEA2BFF1F75
:101F9000FC25FF1F3C26FF1F684101002821FF1F71
:101FA000C828FF1F1431FF1FFC2BFF1F0841010031
:101FB0004412FF1FE82BFF1FB897FF1FD828FF1FF1
:101FC000F02AFF1FF0B5424B1B7883B0002B69D07D
:101FD0000AF08CFC3F4ADFF83CE13F4B3F4C404F5E
:101FE000404E054692E803001860DEF80000C4F891
:101FF000DF0138683C4AC4F8E30130681971C4F85D
:10200000E7010423394E3A481380266007F0A2F80E
:1020100084F8EB013748384E07F09CF8002784F825
:10202000EC01334884F8ED7107F09AF884F8EE017A
:10203000304807F095F8314B84F8EF0103CB4FF4AB
:10204000FE72C4F8F101C4F8F5112D4884F8F0715E
:10205000214607F015FEC4F8FC01FEF765FD336864
:102060000133B3F5E11F33601FD24FF40072FF213B
:102070001A48244E0EF0A6F80AF038FC02AA401BBB
:102080000190337832F8040D1F499278A4F8F901D1
:1020900083F001038A700520194633700AF00CFCA6
:1020A00003B0F0BDFFF712FF92E7112117480BF0C4
:1020B000B7FC3B460A22316815480BF05FFF144815
:1020C0000BF036FF3760FFF7F3FBFEF7FFFFCCE7BF
:1020D000F02AFF1F88410100F02BFF1FEC28FF1F93
:1020E0003821FF1FF82BFF1FE82BFF1F43414E3203
:1020F0006431FF1F4C64FF1FAC28FF1FC828FF1F5F
:10210000582BFF1F4C2CFF1FE52AFF1F74410100B5
:102110004412FF1F3421FF1F2DE9F041474B484C6B
:102120001B7882B0002B5CD1464A474D1378474F4D
:10213000434E83F001031946062013700AF0BCFBDE
:10214000238843495A1C0978E954228007F058FC37
:1021500002AA238842F8080D191D1068E85089B2B8
:1021600003F108027868685092B23868A8500C33BE
:1021700097F80F8023800AF0B9FB364A238812684B
:10218000801A02A94FEA086820F07F4040EA080060
:1021900041F8040D07F1100E0868E8501A1DBEE85A
:1021A000030092B23F68A8500C3315449BB2BA00AA
:1021B000238069600AD4B3F5ED7F02D802B0BDE890
:1021C000F08102B0BDE8F041FFF7FCBE224A13786F
:1021D00083F0010319460E2013700AF06DFB33885B
:1021E000E9E70AF083FB23881C4A1D4D191F82FB77
:1021F0000123CA17C2EB2312322303FB12132860F8
:10220000002B91D1174D296807298DD8164A174BF5
:1022100002EB8112013A03F1400012F8011F03F8AA
:10222000011F8342F9D1124B12491868402207F06E
:1022300025FE2B6801332B6076E700BFEA2BFF1FDA
:10224000E82BFF1FB428FF1FEC28FF1F202BFF1FC8
:10225000382BFF1F502CFF1FA828FF1F1F85EB5195
:10226000A82EFF1F3C2BFF1FA026FF1F5F2BFF1F69
:10227000FC25FF1F602BFF1F70B5384D384B2A68B7
:102280001B7888B006460592364A05991160002BE6
:1022900055D1354B354C1B78002B41D12368334940
:1022A00013F0005412D0324B1B78002B31D1314A3D
:1022B000136801331360304A137883F00103194621
:1022C0000E2013700AF0F8FA08B070BD2B4A1046C1
:1022D0001A408242F8D10B7C03F0F003102BF3D1AB
:1022E000234B27481B7827494474032630228474E3
:1022F000C673016002742BB3012BE5D12B68224A0F
:102300000793079B12689B1A012BDDD9FEF76AF928
:10231000DAE7012BCFD11D4A136801331360CAE7F6
:10232000039604F1100393E80300114A1378029313
:102330008DE8030094E80F00FEF782FBAEE7FFF79D
:10234000EBFEA6E72B68124A0693069B12689B1ABF
:10235000012BB9D9FEF72AF9B6E700BFB897FF1FDE
:102360006D07FF1FD828FF1FEB2BFF1F202BFF1F20
:10237000382BFF1FC42BFF1FA828FF1F00F9DA000E
:10238000402BFF1FF900DA181021FF1FC82BFF1F79
:10239000081FFF1FFFFFFFFF454BD3F878042DE90F
:1023A000704300286FD0C469057904F091FB013CAB
:1023B000064618213F480BF033FB00230A22214632
:1023C0003D480BF0DBFD3C480BF0B2FD17213B48CC
:1023D0000BF026FB00230A22314637480BF0CEFDD6
:1023E00035480BF0A5FD152135480BF019FB0023EE
:1023F0000A22294630480BF0C1FD2F480BF098FD0A
:10240000112130480BF00CFB28460CF00BFE8046E7
:10241000894630460CF006FE42464B460CF078FEEC
:1024200000224FF081430CF073FE1FA3D3E9002379
:102430000CF098FF41EC100B02211F480BF0E8FD57
:102440001D480BF075FD12211F480BF0E9FA2046DC
:102450000CF0E8FD42464B460CF05AFE00224FF0CD
:1024600081430CF055FE10A3D3E900230CF07AFF52
:1024700041EC100B022110480BF0CAFD0E48BDE8DC
:1024800070430BF055BDD3F87C0448B190F83D344F
:10249000D0F8284401259D4002F01AFF064688E73F
:1024A00005460446064684E70000000080842E416D
:1024B0004421FF1F244001004412FF1F404001003F
:1024C00090410100A8410100BC41010000B50E4B44
:1024D0000E4A1B680E4883B0019301990D4B1160A1
:1024E000012200211A7006F0E9FA00210A4806F0DC
:1024F000E5FA102109480BF093FA09480BF018FD92
:1025000003B05DF804FB00BFB897FF1F3C21FF1F1D
:102510006431FF1FD528FF1F4C64FF1FD04101000D
:102520004412FF1FFFF7D2BF10B50B4A0B4C0C48EB
:10253000002301212370137006F0C0FA012109481D
:1025400006F0BCFA112108480BF06AFA0748BDE80A
:1025500010400BF0EDBC00BF2E21FF1FD528FF1F40
:102560006431FF1F4C64FF1FE44101004412FF1F50
:1025700038B517210F48104C0BF052FA43F2E425FE
:102580000E4B0A225959204600230BF0F7FC204637
:102590000BF0CEFC17210A480BF042FA094B2046FB
:1025A00059590A2200230BF0E9FC2046BDE83840C7
:1025B0000BF0BEBC184201004412FF1F6431FF1F24
:1025C000304201004C64FF1F10B514210E480F4C1F
:1025D0000BF026FA0E4B0A221968204600230BF056
:1025E000CDFC20460BF0A4FC14210A480BF018FA8D
:1025F000094B204619680A2200230BF0BFFC204635
:10260000BDE810400BF094BC484201004412FF1F8B
:10261000C42BFF1F60420100C82BFF1F70B586B09E
:10262000FFF746F9184B194C194E00256420C3F8E2
:102630007854C3F87C540AF07DF92946204605F009
:1026400001FB2046346004F023FF40B11121114802
:102650000BF0E6F910480BF06BFC06B070BD0E4BAA
:102660000E4A316801A802F023F904210C480BF04E
:10267000D7F909480BF05CFC64200AF05BF9FEF71F
:1026800027FA06B070BD00BF4421FF1F6C26FF1F54
:10269000EC2AFF1F784201004412FF1FAC2EFF1FDF
:1026A0008C4201002DE9F043AB49AC4899B006F0EB
:1026B000CFFC002840F03F81A749A94806F0C8FC9C
:1026C000002840F02D81A74CA74D23680693069B58
:1026D000296840F6B7325B1A934204D9A34B1B78A2
:1026E000002B40F00B81FEF7DBFBA14A1378002B97
:1026F00000F09C809F4F3B78022B236800F20581FD
:102700009D4A0893089B106896491B1AFA2B54D9C6
:102710000B689A4D0A930A98DFF8A0E209682B88A3
:10272000974E0991DEF800C036F813300999106011
:102730009448DFF89CE20374CCEB01021B0A0321EE
:102740004374012A4FF00003C173C0F800E08374A2
:1027500001D9FDF72BFF8C4B1B6853B123688B4AC3
:102760000B930B9B12689B1A012B02D98548FDF72E
:1027700039FF874A137883F0010319460E2013703E
:102780000AF09AF82B887D4A01339BB21B2B40F24A
:10279000E0803B787F4D013300243B70148020465D
:1027A0001C210BF08BFD013436F8102035F8023F68
:1027B0002A801C2C26F81030F1D10BF007F90128E3
:1027C0002EDD754C754978230A2214A80BF01CFDE8
:1027D00014A920460BF0EEFD14A80BF079FD70490A
:1027E00014A80BF0B5FD14A920460BF033FE0546E6
:1027F00014A80BF06DFD002D7DD16A4914A80BF0D3
:10280000A7FD14A920460BF025FE064614A80BF0E0
:102810005FFD002E00F0E080634B1D700BF0E4F8CC
:10282000624806F077FF19B0BDE8F083604A11787E
:102830000029C2D05F4F3978022900F287802368CF
:102840005D4A0D930D9B116846485B1AFA2BB4D96B
:1028500003684A4D0F930F9E584900682B88DFF894
:1028600074810E90D1F800E0464838F813300E9984
:1028700016604374CEEB01021B0A514E837408218B
:102880000223012AC1730660037401D9FDF78EFE8D
:102890003D4B1B6853B123683C4A1093109B126850
:1028A0009B1A012B02D93748FDF79CFE384A137852
:1028B00083F0010319460E20137009F0FDFF2B88E9
:1028C0002E4A01339BB2082B43D93B783D4D2C4E09
:1028D000013300243B701480204609210BF0EEFCEC
:1028E000013435F8023F36F810202A80092C28F8E8
:1028F0001030F1D161E7FFF7DFF88FE7FEF7D8FF7F
:1029000023680793079B2B60EDE60C932A4B0C98EA
:10291000274918600023012008703B7013704CE7B2
:10292000194A2949136801330124184613600C70B1
:10293000FFF7A2FCC7E6254A2349136801330024A8
:10294000184613600C70FFF797FCB5E63B701370E8
:1029500033E7138031E700BF202BFF1F6431FF1FD7
:102960004C64FF1FB897FF1FD828FF1FF02AFF1FD6
:10297000D528FF1F4021FF1F3C21FF1FA22EFF1F54
:102980003407FF1F402BFF1F3821FF1F1021FF1F9F
:10299000A828FF1F3207FF1F1421FF1F4412FF1F2B
:1029A00094420100984201006D07FF1F0026FF1F9F
:1029B0002E21FF1F4121FF1FB028FF1F081FFF1FEF
:1029C000F9FFDA186E07FF1F382BFF1F3421FF1F96
:1029D000F9FFEA187007FF1FA94914A80BF0B8FC0B
:1029E00014A920460BF036FD054614A80BF070FC28
:1029F0004DB1FEF76BFB0C21A2480BF011F8A24879
:102A00000BF096FA0AE7A14914A80BF0A1FC14A94F
:102A100020460BF01FFD054614A80BF059FC7DB9AC
:102A20009B4914A80BF094FC14A920460BF012FD4E
:102A3000054614A80BF04CFC2DB1FFF7ADFCEDE6FC
:102A4000FEF736FFEAE6934914A80BF081FC14A9BF
:102A500020460BF0FFFC064614A80BF039FCBEB173
:102A60008D4CD4F8780430B100F23C402B462A4615
:102A7000854903F049FED4F87C0400283FF4CEAE2B
:102A8000002300F588601A467F4901F045FAC5E643
:102A9000824914A80BF05CFC14A920460BF0DAFC68
:102AA000054614A80BF014FCBDB17B4CD4F8780497
:102AB00030B1334600F23C400E22734903F024FE4D
:102AC000D4F87C0400283FF4A9AE00F58860002308
:102AD0000E226D4901F020FAA0E6714914A80BF00E
:102AE00037FC14A920460BF0B5FC054614A80BF0E2
:102AF000EFFB15B1FFF792FD90E66A4914A80BF0C1
:102B000027FC14A920460BF0A5FC054614A80BF0E1
:102B1000DFFB15B1FFF72CFD80E6634914A80BF02D
:102B200017FC14A961480BF095FC054614A80BF09E
:102B3000CFFB15B1FFF748FD70E65D4914A80BF017
:102B400007FC14A959480BF085FC054614A80BF0A6
:102B5000BFFB3DB1574B58494B4801221A70FDF756
:102B60004DFE5BE6554914A80BF0F2FB14A94F4843
:102B70000BF070FC064614A80BF0AAFB16B14D4BE7
:102B80001D704BE64E4914A80BF0E2FB14A9474810
:102B90000BF060FC054614A80BF09AFB15B1FFF78B
:102BA00095FC3BE6474914A80BF0D2FB14A93F481B
:102BB0000BF050FC054614A80BF08AFB15B1FFF78B
:102BC000B3FC2BE6404914A80BF0C2FB14A937480C
:102BD0000BF07CFC064614A80BF07AFB002E32D0DA
:102BE0000822294631480BF095FC2B460B2214A9EC
:102BF0002E480BF075FC35492348FDF7F1FD14A96B
:102C00002148FDF7FBFD0B22294628480BF082FCEA
:102C10002B46092211A925480BF062FC2C491A48C1
:102C2000FDF7DEFD11A91848FDF7E8FD14A80CF02A
:102C3000F9FE40F2E573984206464FDC25491248FA
:102C4000FDF7DCFDEFE5244914A80BF081FB14A986
:102C500016480BF03BFC054614A80BF039FB002D81
:102C60004ED03146042211480BF054FC33460D225D
:102C700014A90E480BF034FC14A8FDF7EFFDCDE5C8
:102C8000A0420100F84101004412FF1FA8420100C8
:102C9000AC420100B04201004421FF1FB4420100D8
:102CA000BC420100C4420100CC4201001421FF1FBC
:102CB000D4420100EB2BFF1F08420100E04201005B
:102CC000EC420100F8420100044301000C43010002
:102CD0002043010034430100C44301004FF020357C
:102CE00014A814958DF854500CF09CFE431EDBB2D2
:102CF0000B2B044620D996499648FDF77FFD92E5B7
:102D0000954914A80BF024FB14A994480BF0DEFBA2
:102D1000064614A80BF0DCFA06B3294604228F48B5
:102D20000BF0F8FB2B460D2214A98C480BF0D8FBB6
:102D300014A8FEF711FF71E5894BADF8553014A8C2
:102D40008DF857500CF06EFE431EDBB21E2B8046F2
:102D500015D984497F48FDF751FD64E5824914A8DF
:102D60000BF0F6FA14A97D480BF074FB054614A885
:102D70000BF0AEFA75B17D48FDF7C0FD4EE511A828
:102D80000CF050FEC7B2172F1FD979497148FDF7D3
:102D900035FD48E5774914A80BF0DAFA14A96F4815
:102DA0000BF094FB054614A80BF092FA002D35D0D9
:102DB0000322002169480BF0ADFBA368052B16D058
:102DC0006D496448FDF71AFD28E5654DADF844509E
:102DD00011A88DF846500CF025FE5FFA80F9B9F184
:102DE0003B0F5CD965495B48FDF708FD1BE55B4877
:102DF0000BF0ACFB00230622614958480BF070FB36
:102E0000062204215E4809F0B3FB5E495148FDF7F4
:102E1000E7FC5B494F48FDF7F1FCFFE44F4C5A4992
:102E200014A80BF095FA204614A90BF04FFB0546A9
:102E300014A80BF04DFA002D00F0B88006220021F6
:102E400020460BF067FB20460BF080FB14A9002303
:102E5000042220460BF044FBA2684C4B4C49002056
:102E6000032A18601980997067D0022A5ED0012A5F
:102E700004BF9DF850209A704448FDF7D1FD00280A
:102E80004FD004220C21414809F072FB41493148DE
:102E9000FDF7A6FC3D492F48FDF7B0FCBEE411A8A4
:102EA000ADF847508DF849500CF0BCFDE4B2C2B209
:102EB0005FFA88F349468DE85000384606F052FE26
:102EC00006F09EFD09F0E6FC33492248FDF796FC2A
:102ED00006F036FE044606F023FE054606F010FE18
:102EE000814606F0DDFD064606F0EAFD074606F0DF
:102EF000F7FD804609F0FAFC284BCDF800901968E0
:102F0000CDF80C80401A0490029701962B46224679
:102F1000234924480DF0B2FB22490E48FDF76EFC10
:102F20007CE421490B48FDF769FC77E49DF85010DB
:102F30009DF8512059709A709EE79DF850009DF8B9
:102F400051109DF85220187059709A7094E700BF84
:102F5000484301004412FF1FCC4301001421FF1F0E
:102F60002020200060430100D4430100AC30FF1F4B
:102F700074430100E0430100F8430100984301005D
:102F80002821FF1FE44301002C4401003C26FF1FC1
:102F90003030300034440100B0430100502CFF1F9A
:102FA000D03F0100A02BFF1F4C440100344914A85E
:102FB0000BF0CEF9204614A90BF04CFA044614A8E5
:102FC0000BF086F9002C55D02E492F48FDF716FC42
:102FD0002E492D48FDF712FC2D492B48FDF70EFC1C
:102FE0002C492948FDF70AFC2B492748FDF706FC28
:102FF0002A492548FDF702FC29492348FDF7FEFB35
:1030000028492148FDF7FAFB27491F48FDF7F6FB41
:1030100026491D48FDF7F2FB25491B48FDF7EEFB4D
:1030200024491948FDF7EAFB23491748FDF7E6FB59
:1030300022491548FDF7E2FB21491348FDF7DEFB65
:1030400020491148FDF7DAFB1F490F48FDF7D6FB71
:103050001E490D48FDF7D2FB1D490B48FDF7CEFB7D
:103060001C490948FDF7CAFB1B490748FDF7C6FB89
:10307000FFF7D4BB19490448FDF7C0FBFFF7CEBBEF
:10308000644401006C4401004412FF1F88440100A5
:10309000CC4401001C450100584501007C4501005D
:1030A0009C450100C0450100E44501000C460100BB
:1030B0004446010068460100A0460100D4460100D4
:1030C000F44601001447010064470100AC470100C9
:1030D000F4470100284801006C480100DC48010069
:1030E0002DE9F04F93B009F0AFF97F4B7F48804D49
:1030F000804E814FDFF85CA2DFF85C92DFF85C82E3
:10310000002483F8014283F8224283F8234206F028
:1031100083FD7A4B7A49C3F898644FF0260B794EB9
:10312000C3F878442A46C3F87C4483F8944483F86F
:10313000AB44C3F8AC44C3F8887483F8A8B4C3F8AC
:10314000B06418460CF068FC6F49704E0C714FF477
:103150007A738B6001936E4B0C732A468C64CC643B
:103160000B60084651460CF057FCDFF8F4E1019B78
:10317000CEF808308EF804408EF80C407046644B50
:10318000CEF800302A465146CEF84840CEF84C40A2
:103190000CF042FC214648460BF0DAF82A4641463C
:1031A00048460CF039FCDFF8BC915A4801231A4616
:1031B0001C2106F00BFA214648460BF0C9F82A46B6
:1031C000414648460CF028FC09F090FB524B186031
:1031D00009F08CFB514B186009F088FB504B514AA9
:1031E00019680391DDF80C9019680491DDF81080DE
:1031F00019680591DDF814C01968069110604A48F5
:10320000DDF818E019680791C0F800904748DDF82C
:103210001CA019680891C0F80080454808991A68F0
:103220000992C0F800C0DFF840814248099AD3F8FB
:103230000090CDF82890C8F800E0C0F800A0DFF8B2
:103240002C81DFF82CC13C48DDF828E0C8F80010DC
:10325000CCF80020C0F800E01A680B92DDF82CA032
:103260001A680C92DDF830901A680D920D991A6860
:103270000E920E981A680F92DDF83C801A68109230
:10328000DFF8F0E0DDF840C01B681193194BCEF871
:1032900010302A4BCEF800702A46294DC3F8009012
:1032A000284B8EF820B0C5F800A0DDF84490DFF878
:1032B000C8B0254F254DC3F80090124B8EF80C4036
:1032C000CBF800103860C5F800C02149C6F800806E
:1032D00070468EF82340CEF82830CEF824400CF00B
:1032E0009BFB13B0BDE8F08FDC1CFF1F582BFF1FAA
:1032F0003007FF1F6C4B0100C44B01004421FF1F2E
:103300008104000003200038FC2BFF1FF42AFF1F5C
:103310003C3E01000026FF1F502CFF1FA82EFF1F60
:10332000B897FF1FBC30FF1F3021FF1FA42EFF1FC7
:10333000D42BFF1FF82AFF1F1021FF1F3C21FF1F66
:103340000C21FF1FFC2AFF1FD828FF1FA028FF1FEA
:1033500079040000AD040000D82BFF1FD1E200006B
:10336000C430FF1F1421FF1FD02BFF1FA428FF1FF5
:10337000081FFF1F6C26FF1FB028FF1F10B5044653
:10338000806C28B102F062F910B10023A36410BD73
:10339000E06C28B100F0BCF810B10023E36410BD6C
:1033A000002010BD00293BD02DE9F0410C46054618
:1033B00098461746FFF7E2FFD4F87864B6B105F1F6
:1033C0001001242005F03EF9002101704170817048
:1033D000D4F87814A86443463A4602F0C5F910B10F
:1033E0000120BDE8F081A864BDE8F081D4F87C3408
:1033F000C3B105F11001382005F024F980F83160DF
:1034000080F8326080F83360D4F87C14E864434676
:103410003A4600F037FD0028E2D1E864BDE8F081CB
:10342000002070470020BDE8F08100BF70B5002685
:103430000546C0F88014C0F8786401464FF48F60E8
:1034400005F000F90446466001F0F6FCC4F810628D
:1034500004F5037001F0F0FC84F83C6484F87164B6
:1034600084F8726484F87364D5F88064C5F87C4489
:1034700031462046012201F0A7FD68B104F58866B7
:10348000304600F045F82146304600F0ADF850B126
:103490001E4B01201D6070BD02463146204601F0E2
:1034A00093FD0028EAD10026C5F87C6429464FF434
:1034B0008C6005F0C7F8C67180F83C6480F83D6404
:1034C00080F83E64D5F88064C5F87804012231465E
:1034D000044603F055FB80B104F23C46304602F04E
:1034E000B5F82146304602F047F90028D0D1074B05
:1034F00000201860C5F8780470BD024631462046A9
:1035000003F03EFB0028E7D1F1E700BF1431FF1FB5
:1035100010B5044600F0D6FE002384F8313084F85C
:10352000333010BDF0B50878202803D111F8010F11
:103530002028FBD051600878002851D02F282BD0AC
:103540005C2820D0A0F12204E4B21D2C1DD9DFF8A4
:1035500094E04E1C00247C28A0F12005374612D0B0
:103560005E2D10D816F8010BA0F12205EDB2013442
:1035700078B32F2811D05C282EFA05F703D01D2D23
:10358000E9D8FD07E7D50020F0BD164D25FA04F473
:10359000E607DCD50020F0BD00240F193E46254685
:1035A0002F2002E016F8010F01352028FAD02F282D
:1035B000F8D02944196044B1394611F8013D2E2B49
:1035C00001D0202B08D1013CF7D12046106001200A
:1035D000F0BD1F600F19EFE7FF2CF6DD0020F0BDF6
:1035E0001960F3E70101003590F831200AB100209D
:1035F000704738B504460D46114638220CF0E2FDFE
:103600004023012084F8313084F83300256238BD2E
:103610002DE9F04700F1240307468A4693E80700A6
:1036200084B097F831300DF1040888E80700002BCA
:103630003AD097F83030012B36D94FF001090024E9
:10364000B9F1010F14BF202240224146386A01F02F
:10365000B7FD012828D100224146386A01F096FDC5
:1036600010B30378C12B1FD1054604F10F0635F8BE
:10367000021FA9B1DAF800307E2994BFC9B23F21F8
:103680001B68013450469847A642F0D109F1010960
:1036900097F830305FFA89F94B45D1D8304600E0D1
:1036A000204604B0BDE8F087002004B0BDE8F087F4
:1036B0002DE9F04790F833300446D80782B040F146
:1036C000B2800D465906164640F1B880D4E9000193
:1036D000D4E9042310EB060841F100094B4508BF6B
:1036E0004245C0F0B180002E00F0B080A146F9E85C
:1036F0000623B04655E0134371D194F831305B0690
:103700004CBFD0F82C14E169A16190F83DE4D0F8E9
:10371000243402397F0A01FA0EF2F9181144BAF181
:10372000000F48D1B8F5007F45D3D0F81432994244
:1037300041D0B8F5806F59D394F8332052064FEA40
:10374000582A07D4012202FA0EFEC7EB0E07BA452B
:1037500028BFBA4699424FEA4A270CD30AEB010226
:103760009A4208D900F50370019101F0CBFB0028C3
:1037700059D0206A0199D0F8380402685346D2F82B
:103780000CA02A46D04700284DD038460021D4E965
:10379000002312184B41B8EB07083D44C4E900234D
:1037A00054D0206AD0F830741740C7F3080A002FAD
:1037B000A1D0A169A9E700F50370002201F042FB46
:1037C00088B3CAF50077474528BF474600EB0A0192
:1037D0003A46284608F00EFC38460021D7E794F810
:1037E000333059060FD5A16901318DE7D0F838047F
:1037F00003682A469B689847A8B14FF400700021DF
:103800004FF40077C3E74A46A16901F005FD40B2D5
:10381000002808DB02D0206AA16976E794F83130ED
:1038200013F0500F14D194F832304FF0FF3043F0C2
:10383000020384F8323002B0BDE8F08794F83130EA
:103840001A073FF543AF4EE7161A4CE74FF0000852
:10385000C8EB060002B0BDE8F08700BFF0B583B04A
:1038600001220DF107010446D0E900678569FFF7E1
:103870001FFF012808BF9DF80700A56118BF4FF082
:10388000FF30C4E9006703B0F0BD00BF2DE9F04F81
:1038900090F831E0856983B00446BEF1000F1BD07B
:1038A000D0E90001994208BF904216461F463BD01E
:1038B00056EA070307D10023A3610120C4E900678A
:1038C00003B0BDE8F08F1EF0080F0AD0D4E904233E
:1038D000BB4208BFB24204D2A561002003B0BDE8DC
:1038E000F08F236A019393F83DC494F833A00CF150
:1038F000090C5FFA8CFC16F1FF3247F1FF33CCF173
:10390000200803FA08FB22FA0CF242EA0B02ACF19F
:10391000200B23FA0BF31AF0400F42EA030205D002
:10392000E3691A44A261C8E70120D7E710F1FF3923
:1039300041F1FF3A29FA0CFC0AFA08F84CEA080CA3
:103940002AFA0BFB4CEA0B0C6245534617D21EF0C9
:10395000400F16BF019BE369D3F82C34A361904656
:1039600004F118094A46B8F1000FA6D0A169206AEF
:1039700001F052FC08F1FF380028F3D1ACE750EA1F
:103980000103E4D0CCEB0202E9E700BF2DE9F04FE0
:1039900093B090F8314000920D469DF8701002915E
:1039A00006462CB99A4695F8313013F0500F07D1DE
:1039B000002086F8310086F8330013B0BDE8F08FA0
:1039C000009B002B00F0118122465146009801F027
:1039D0001DFD95F831300490002B40F0FB80B84A73
:1039E0000AF10E0382FB03121A44DB17C3EBE20356
:1039F000029ADBB202F00702059302334FF000098E
:103A00005FFA83FB42F0400301924C464F4603931A
:103A100020220AA92846FFF74BFE00283DD0202887
:103A2000C6D19DF828301A0663D4002C5ED12A68CE
:103A3000A9690791203A08920134E4B26BB3C02B14
:103A400000F09E80C12B5FD0852BE1D13822002170
:103A500030460CF0B7FB9DF82C309DF8292086F8F5
:103A6000302003F03702DB0658BF42F0080286F828
:103A700031202B68296AAA697262203B3162B362E5
:103A800095F83330C3F3801386F82C3020220AA92E
:103A90002846FFF70DFE0028C1D1029B03F0420328
:103AA000422B85D1009B002B82D05C450DD39EE03C
:103AB00020287FF47DAF24B92A68A9690791203AAC
:103AC0000892DCB2A34540F2928020220AA928463F
:103AD000FFF7EEFD631C0028EAD12846AF6900F02D
:103AE00021FC00283FF464AFAF61EBE75C45A5D251
:103AF000A2E7B9F1000FA2D15C4538BF0024852BA5
:103B000086D14FF00109A1E7C7EB0A085FFA88F8F0
:103B1000B8F10F0F28BF4FF00F0843463A460099FF
:103B20000AA801F091FC00284BD04744FFB2BA45E7
:103B30007FF46EAF029B18063FF53AAF029B13F07D
:103B4000320F05D096F8313013F0110F7FF430AFFB
:103B5000029AD106134640F1B5809A077FF528AF47
:103B6000002200233046FFF791FE00283FF420AFEB
:103B7000304600F04DFC00283FF41AAF01201CE74E
:103B80009DF829309DF8042086F833209F0744BF14
:103B90009DF80C3086F83330DDE90C23DDE91001A7
:103BA000C6E904230F9BF361009BC6E90201002BC9
:103BB000C0D09DF82B30534505D04FF000094F463B
:103BC00026E7814624E7BDF82C30049A9342F4D1CD
:103BD00000271DE7D5E9002313433FF400AF00227F
:103BE0000023C5E90023AC61F9E60493F7E695F8F4
:103BF00033303822C3F380130021304607AC8DF8F0
:103C000024300CF0DFFA2B6A029D336294E807003F
:103C100005F00707082567F07D0986F831500AF19D
:103C20001E0706F1240585E80700FFB2009DCDF8C8
:103C300000904FF0000818460122214601F0A6FA34
:103C4000814600283FF4B4AE90F90020002AFFF628
:103C5000AFAE202200210CF0B5FAB8F1000F53D01E
:103C6000B8F1010F3FD0C8EB08120F2FA2F11E02CE
:103C70004FF0C101384628BF0F20D2B289F800109A
:103C800058B109F1020300B203EB40002A4412F8D4
:103C9000011B23F8021B9842F9D108F101085FFAD1
:103CA00088F8C3451BD920222146306A01F088FAE2
:103CB00001287FF47DAE0F3FFFB2306ABCE700BF42
:103CC00089888888029B9B067FF558AFD6E9042334
:103CD0003046FFF7DBFD00287FF450AF68E6304642
:103CE00000F0F0FA69E69DF80030C021032289F85F
:103CF000001089F8012086F83330BDF8103089F8BB
:103D000003A0A9F80430C8E7059B5A1CD2B285214C
:103D10000B4B89F8001086F8302089F801201A68CA
:103D2000002ABAD00DF11A0106A89047BDF81A1062
:103D3000BDF81820A9F80810A9F80A20ADE700BFBF
:103D40006031FF1F90F8313053B930B591F83140F0
:103D500014F0500483B00D4604D1204603B030BDAA
:103D600000207047D5E90045002504F01F042C43CE
:103D700002D0184603B030BD00921A46FFF706FE87
:103D800003B030BD2DE9F043064695B096F83140BA
:103D9000039200208DF849008DF84A008DF84B0001
:103DA00034B9994691F8313013F0500F0D4603D1D4
:103DB000002015B0BDE8F08313782F2B144633D0C4
:103DC0004FF00108214603AB04AA3046FFF7AAFBD7
:103DD0000028EDD0039B1B78002B3AD09DF81030C3
:103DE000059ACDF8008029463046FFF7CFFD002820
:103DF000DED0344606AF06F1300E20686168A26856
:103E0000E3683D460FC5103474452F46F5D1206850
:103E10002860304600F056FA002386F8313086F8E4
:103E20003330039C06ADCDE70134039421782F296C
:103E3000FAD0D1B1382206A800212F6A0CF0C2F9BD
:103E40004022012306AD0E978DF849208DF84B30A6
:103E5000B6E79DF81030059ACDF800902946304617
:103E6000FFF794FD15B0BDE8F083382230462C6A88
:103E70000CF0A8F940230120346286F8313086F82E
:103E8000330096E721B1DBB201F58861FFF77ABF15
:103E90000846704770B586B006AD002204694369D4
:103EA00005F8042D0E4619460A22002320460BF081
:103EB00027FC303400EB8003A4EB430450EA0102FA
:103EC00005F8014D0B460446EDD102AB9D4206D9E3
:103ED0002946202201F8012D9942FBD102AD284646
:103EE0000CF06EFC3368024629465B683046984702
:103EF00006B070BD034610B5006A0C46002203F1FF
:103F0000240101F043F928B1C1682046BDE8104002
:103F100004F094BB10BD00BF2DE9F0438FB0002426
:103F20001746804600221E4600230D468DF831407C
:103F30008DF832408DF8334007F00209FFF7A6FCF8
:103F40000122414668465FFA89F9FFF7FBFE002827
:103F500040D09DF83130980701D5F90730D50024BD
:103F600046B12B68013420211B682846E4B29847EB
:103F7000A642F6D1B9F1000F3FD17A0733D42946D2
:103F80006846FFF745FB9DF8313013F0500F24D100
:103F90002B680D211B68284698472B680A211B684F
:103FA000284698473B070BD59DF8313013F0500F4A
:103FB00006D0B31CDBB23A4629466846FFF7ACFF91
:103FC0006846FFF7A5FA012241466846FFF7BAFEA8
:103FD0000028BED10FB0BDE8F0832B682F211B68ED
:103FE00028469847D4E729466846FFF753FF2B68D1
:103FF00020211B6828469847C1E729466846FFF7F5
:1040000079FF2B6820211B6828469847B5E700BF39
:104010008169F8B50446006A01B10131012200F05E
:1040200079FF012806462FD9012301461A46206A46
:1040300001F03AF8074638B3A06994F8333030B34A
:104040005A0613D5421C964225D023F0400284F82C
:104050003320E36905E0206A01F0E8F8A0B1A06927
:104060002B465D1C834219462A46F4D34FF0FF329B
:104070003146206A01F0DAF830B1A16959B132460F
:10408000206A01F0D3F830B900273846F8BD43F074
:10409000400384F83330A6613846F8BD2DE9F0437B
:1040A00000F12403054693E8070085B095F8333006
:1040B00001AE86E807009A071BD5E969E9B9002433
:1040C00001223146286A01F061F80134E4B280B17E
:1040D000037803F07F03037095F83030A34231D3A7
:1040E000002CEDD020223146286A01F069F8012821
:1040F000E6D0002005B0BDE8F0835B06286A1CD539
:10410000D5E9022390F83D440934E4B212F1FF38B6
:1041100043F1FF39C4F1200709FA07F728FA04F23E
:10412000A4F1200329FA03F33A431A43013200238E
:1041300000F0BAFF0028C2D1DBE701F089F80028BF
:10414000BDD1D6E72C6A0023204685F8313085F8AA
:10415000333000F0D7FE0028CBD004F5037000F018
:10416000D1FE0028C5D0D4F8380403685B699847AD
:10417000C0E700BF2DE9F04F00F1240A06469AE897
:10418000070087B00DF10C0888E807000027DFF86A
:1041900030B1B9463C4600224146306A00F0F6FF95
:1041A000FBB2054630B10078C0284DD0C1282BD0D5
:1041B000852809D096F8323043F0010386F8323072
:1041C000002007B0BDE8F08F96F83110DBF8002032
:1041D00095F8019001F03701A980AAB1306A0193E6
:1041E00090F80C1241F0010180F80C120DF10A0157
:1041F00002A89047BDF80A10BDF808202878019B56
:10420000A9812982EA816A82002115F801E0E2038E
:1042100042EA54041EFA84F40129A4B201F1010116
:104220000DD01F29F1D999452CD020224146306A62
:1042300000F0C6FF012807F10107ACD0BAE78528D6
:104240000CBF04210221E0E796F8332012F0400F62
:104250006A7814BF42F0020222F002026A70D6E9C4
:104260000401C5E90201D6E90201F2696A61C5E902
:104270000601316A91F80C2242F0010281F80C2209
:104280002878C1E751460122306A00F07FFF0028FC
:1042900090D0356A4480284600F034FE002889D04A
:1042A00005F5037000F02EFE002883D0D5F8380401
:1042B00003685B69984700283FF47CAF81E700BF43
:1042C0006031FF1F90F8312092B138B590F833205B
:1042D00011060FD4056A0446284600F013FE88B97B
:1042E00094F8323043F0010384F83230002038BDB6
:1042F0000120704702F07F0280F83320BDE838408B
:10430000FFF738BF05F5037000F0FCFD0028E7D08B
:10431000D5F8380403685B6998470028E0D001208D
:1043200038BD00BF2DE9F04190F831305906044600
:1043300063D48068236AD3F834341844B0F1806FB2
:1043400002D30020BDE8F0812046FFF761FE00287F
:10435000F7D0266A96F80C32DA0706F5037550D4C2
:10436000284606F5067600F067FD4FF4007200213E
:1043700030460BF027FF226AA36992F83D04D2F879
:104380002414A3F10208012708FA00F817FA00F331
:10439000884418BF002511D0D2F83804036808EB10
:1043A00005019B693246984701350028C9D0226A29
:1043B00092F83D3407FA03F3AB42EDD894F831306C
:1043C0005B0615D494F8333063F07F0384F8333000
:1043D000D2F83464D4E90223D4E9040192194FF0ED
:1043E00000077B4180197941C4E90223C4E9040133
:1043F0002046BDE8F041FFF765BF006A00F0A2FF6C
:1044000098E7284600F07EFD0028A9D199E700BF73
:1044100090F833309A0718D5F0B5C56983B08DB1DF
:1044200003F04003044603F0FF0083B9A1690029AB
:1044300041D10195E1612946206A00F009FF30BBB6
:10444000002000E0012003B0F0BD00207047206A8A
:10445000A16990F83D34D4E902670933DBB216F163
:10446000FF36C3F1200E47F1FF3726FA03F207FAB1
:104470000EFE203B42EA0E0227FA03F31A430132F2
:10448000B1B1013D6D1A01312A4401910ABBD4E951
:10449000000194F8333063F07F03C4E90201C4E9FA
:1044A000040184F833302046FFF70CFF03B0F0BD61
:1044B0000195E161EAE702AA42F8040D206A00F0E2
:1044C000ABFE40B20028BBDB0AD1019D002DDED03F
:1044D000B1E70023019900F0E7FD0028D7D1AFE74D
:1044E0004FF0FF32A169206A00F0A0FE0028ECD155
:1044F000A6E700BF2DE9F04F90F8333085B09C0758
:10450000064601920AD496F8323043F0010386F849
:1045100032304FF0FF3005B0BDE8F08F5A078A46C1
:1045200000F11281019B002B00F022813146F1E85D
:104530000623DDF8048003919346306AB569D0F80C
:1045400030445B461C40C4F308094CBB002D00F00E
:10455000BE8096F833305B0640F1DD80D6E9022359
:1045600090F83D740937FFB212F1FF3243F1FF3387
:10457000C7F1200E03FA0EFE22FA07F1203F23FABC
:1045800007F741EA0E01F36939430B449D42C0F03D
:10459000B5803046FFF73CFD0028B4D0306AB569DD
:1045A000D0F8247490F83DE4640A023DE11905FA5C
:1045B0000EF52944B9F1000F40F08280B8F5007F74
:1045C00057D2D6E90423D6E90045B8F5007F47461F
:1045D00028BF4FF400779D4208BF944234BF0122A8
:1045E000032200F5037000F02DFC00288BD0484416
:1045F0003A465146B94407F0FDFCB9F5007F00F09A
:10460000928038460021D6E90023D6E9044512EB12
:10461000000B43EB010C65455A46634608BF5C45F9
:10462000BA44C7EB0808C6E9002309D296F833104C
:1046300064465B46C6E9043461F07F0186F83310B6
:10464000B8F1000F7FF479AF5A466346D6E902010C
:10465000994208BF90427FD3474B1B68002B00F064
:10466000858096F83330019863F07F0386F8333005
:1046700051E7B8F5806F2ED3012303FA0EFEC4EB89
:104680000E0ED0F814324FEA5824744528BF7446F1
:1046900099424FEA442709D362189A4206D900F595
:1046A0000370029100F0C8FB306A0299D0F8380418
:1046B000056823465246EC69A0470028A1D122E7AD
:1046C000C9F50077474528BF4746012289E7F569C4
:1046D000BDB1B56164E7D0F8143299422CD0D0F85E
:1046E0003804036852469B69984700283FF40BAF93
:1046F0004FF4007000214FF4007784E70135B56175
:104700004EE73046FFF784FC00283FF4FCAEB56965
:10471000F561306A44E72946039A00F07DFD0028E0
:104720007FF43CAF35E7306A00F5037000F0EAFB38
:1047300000287FF466AFE6E600F50370029100F012
:104740007BFB306A0299CAE7D0E90423FFF79EF8A1
:1047500000283FF4D8AEE5E696F83310019861F0F2
:104760007F01C6E9022386F83310D4E60198D2E629
:10477000D6E900236AE700BF6031FF1F8368C3F3F7
:1047800008038BB100210269D1540133B3F5007FD6
:10479000F9D1C3680269016810B41C68A46918469D
:1047A00023465DF8044B1847012070478268034692
:1047B000C2F30802006930B481545D68986840F221
:1047C000FF1401EB75010130A2425960986002D0DC
:1047D000012030BC7047D868196804681A69A46958
:1047E0004D1C1D60234630BC184700BF38B50C4631
:1047F000C9B20546FFF7DAFF00B938BD210A2846DD
:10480000BDE83840FFF7D2BF2DE9F84300268046C7
:10481000016086604660B0B200F0A0FDB042814603
:1048200005460DD001464046FFF7E0FFA0B3013634
:10483000B6F5803FEFD34046BDE8F843FFF79EBF93
:10484000741CB4F5803F14D1C6F58037B7F5007FEE
:104850004FF480341AD2A9B24046FFF7C7FF0135A2
:10486000D0B1A542F7D32E46E2E70134B4F5803F3C
:10487000EAD0A0B200F072FDA042F6D0A71BB7F5B7
:10488000007F03D2A642E6D34E46C4E74FF6FF713F
:104890004046FFF7ABFF10B90020BDE8F883B9B27E
:1048A0004046FFF7A3FF0028F6D02646C0E700BF2A
:1048B0002DE9F04F16460A68C16006618DB0814649
:1048C000126908460F4698469047B0F5801F15D2EA
:1048D000B8F1000F0DD0D8F80030AB495B68152255
:1048E00040469847D8F80030A8495B6840460F22F8
:1048F0009847002420460DB0BDE8F08F0222012326
:1049000001E090424CD90133DBB2202B4FEA420246
:10491000F7D1A3F10B0252100121D4B291400594BA
:104920000391013301245B1004FA03F3049303FAA7
:1049300004FA9B000193019BC01A20FA02F303FAC8
:1049400002F400214FF40072304602934FF0010B45
:104950000BF038FC0025FF230721FE2286F8C21148
:1049600086F8C32186F8BFB186F8C0B186F8C15178
:1049700086F8C43186F8C5313B68C6F8C6A14AF648
:10498000552254449B69C6F8CA41A6F8FE2129461F
:10499000324638469847B0B9B8F1000FA2D1A8E71F
:1049A0001C2BB6D808221A2B059200F2B0814FF4C6
:1049B000004301934FF4807303934FF400534FF47B
:1049C000804A0493B7E729464FF4007230460BF053
:1049D000F9FBEB2333707620902145226C4B7070ED
:1049E000B170F2701B68B464049C0B9334657465F9
:1049F000029CDDF82CE0F46558209DF814407564A5
:104A0000462141225423F564A6F86A5086F86D4089
:104A100086F870502024C6F864E030714FF0040C22
:104A20004FF480754FF0090E80207171B271F371EF
:104A3000C6F840A0C6F858A086F86EB034727472FA
:104A4000B472C6F860C0A6F8685006F1770386F81D
:104A50006CE006F2FD1186F86F00F42203F8012FD6
:104A60009942FBD14AF655220023A6F8FE211C46A6
:104A7000012501E001330135A3F16A02012A04D9BD
:104A8000702BF7D0F25C02EB7404B5F5007FF1D126
:104A90003B6832469B6951463846984700283FF4A8
:104AA0007BAF3B6832469B690AF10C013846984758
:104AB00000283FF471AF2A46002130460BF082FBFC
:104AC0004AF65523A6F8FE310AF109030593731E31
:104AD000CDF824900AF1010B069306F2FF15CDF8EC
:104AE00020A09946CA464B4613F8012F9D4202EB7F
:104AF0007404F9D13B6832469B6959463846984759
:104B000000283FF449AF3B6832469B690BF10C012A
:104B10003846984700283FF43FAF059B0BF1010B47
:104B20005B45DFD1DDF82490CDF81CA04FF4007276
:104B3000DDF820A0002130460BF044FBCDF820909A
:104B4000DDF814900AF10B0B069B13F8012F9D4220
:104B500002EB7404F9D13B6832469B6949463846FA
:104B6000984700283FF418AF3B6832469B6909F12B
:104B70000C013846984700283FF40EAF09F10103B5
:104B80005B4507D09946DFE7EC4801004C4901003E
:104B9000B897FF1FCDF81490DDF82090331F06F56D
:104BA000FE7243F8044F9342FBD13B6859469B6920
:104BB00032463846984700283FF4EEAE3B680599E8
:104BC0009B690D3132463846984700283FF4E4AEE1
:104BD000B8F1000F06D0D8F8003089495B680C2284
:104BE00040469847029B4FF40072002130469D00DA
:104BF0000BF0E8FA3346F82203F8132B049A0799CE
:104C0000524405F2072514466A0A1046FF2201F8AD
:104C1000012F8B42FBD14FF0000B2346CDF81090B3
:104C20005C46AD0B81469B4604E0002C68D0013405
:104C3000A1451CD0B4FBF5F305FB13434BB901228E
:104C400070494046B8F1000F03D0D8F800305B68D7
:104C500098473B6832469B6904EB0B0138469847FE
:104C60000028E2D1B8F1000F7FF43CAE41E6DDF858
:104C70001090B8F1000F30D0D8F8003062495B686E
:104C8000022240469847029C039B0734E40804F242
:104C9000FF156D0A9D423FF625AE4FF400720021CC
:104CA00030460BF08FFA072333704FF0000B06E00D
:104CB000BBF1000F7ED00BF1010B5D452BD03B68A3
:104CC00001999B6932465944384698470028EFD1EC
:104CD000B8F1000F7FF406AE0BE6029C039B07348D
:104CE000E40804F2FF156D0A9D423FF602AE4FF450
:104CF0000072414630460BF065FA07233370D4E763
:104D00004FF40072214630460BF05CFA8FE74FF407
:104D10008071039105E6B8F1000F5ED03B49404633
:104D2000FBF75EFD039B4FEA4A0A0AEB0301484684
:104D3000FFF76AFD00283FF4D5ADD9F80830039A93
:104D4000B3EB422F3FF6CEAD31494046FBF748FD6D
:104D50004FF40072002130460BF034FA0323822214
:104D600081200221337086F82000716386F840208C
:104D7000D9F8042072647365039AD9F80830B365D2
:104D80000025B4630AEB420AF56504E0F5B1039B24
:104D900001359D4211D03B6832469B690AEB050103
:104DA0003846984704460028F0D1B8F1000F7FF448
:104DB00099AD9EE586F800B07DE7B8F1000F3FF4AD
:104DC00099AD40461349FBF70BFD93E54FF4007294
:104DD000294630460BF0F6F9D9E7039B4FEA4A0A19
:104DE0000AEB03014846FFF70FFD00283FF481ADB1
:104DF000D9F80830039AB3EB422F3FF67AADA7E714
:104E000004490100884201002849010014490100B9
:104E10002C4901003C49010010B500F10C02044688
:104E20004068A16803689B69984718B1237823F00C
:104E30000103237010BD00BF00224FF0FF3302704A
:104E400083607047F8B54568FDB183688B420446BE
:104E500017460E460ED00378DA0712D4BB0716D5D4
:104E600004F10C0507F001020023134323702846C8
:104E7000A660F8BD10F90C3B07F001021343237044
:104E8000F8BDFFF7C9FF0028E8D10020F8BD606831
:104E9000036804F10C059B682A46314698470028B0
:104EA000E0D1F2E738B50C46D0F81C14154601EBFA
:104EB000D41100F503700022FFF7C4FF40B1A40035
:104EC000C4F3080403595A1C04D02B60012038BDD8
:104ED000FF2038BD002038BD38B50C46D0F81C1472
:104EE000154601EBD41100F503700122FFF7AAFF6C
:104EF000034628B1A400C4F3080401201D5138BDA5
:104F000038BD00BF0378DB0701D401207047FFF7ED
:104F100083BF00BF2DE9F84F804691468B4600299C
:104F200044D08F1ED8F828349F423BD207F00705A3
:104F3000012303FA05F5EDB2C7F3C80A3E463C4625
:104F4000D8F82414002201EB14314046FFF77AFF11
:104F5000C0B110F80A100AE04A452AD0A74210D082
:104F6000D8F82824944217D213F0FF050CD001344E
:104F70000D424FEA4503A4EB0602EDD0A7422646B8
:104F8000EED10120BDE8F88F0AF1010ABAF5007FE1
:104F90004FF00105DDD101E0002634464FF0000A54
:104FA0000125CDE70027BA460125C7E7D0F81874D8
:104FB000B8E7BBF1000F04D1B9F1010F08BFC8F881
:104FC0001864B01CBDE8F88FF8B5044600234FF014
:104FD000FF3600F50377C0F838144160C0F81012AE
:104FE0001546384684F83C34237084F80C32A660A9
:104FF000C4F814621A461946FFF724FF042D0CD892
:10500000064650B15DB905222649F01C0BF046FC5E
:1050100018B996F86C30092B19D00020F8BD6B1E1A
:1050200000EB031393F8BE2112F07F02F5D193F841
:10503000C231002BF1D000EB05153846D5F8B6513A
:105040002946FFF7FFFE06460028DCD1E5E7336D71
:105050002B44C4F81C34736DC4F82034B36D1D4464
:10506000C4F82454F36DC4F82834336EC4F82C34D7
:1050700096F86D3084F83D340125093305FA03F3C1
:105080005A1EC4F818040146C4F83434C4F8302455
:1050900020462A46FFF73EFF402384F83C3428464A
:1050A000F8BD00BF5C4901002DE9F0470239804698
:1050B000D0F8280415468A18824238D89A46D8F87B
:1050C0001834BAF1000F35D1994238BFC8F8181416
:1050D00001F007040122D8F8243402FA04F4E4B2FF
:1050E00003EB1139C1F3C8060122494640469144F9
:1050F000FFF7A8FED8B1871900F5007017F8012B4B
:10510000224214BF01260026564582EA04024FEAD5
:1051100044040CD0013D07F8012C15D014F0FF0415
:10512000EED1B84226464FF00104E7D1DCE700207B
:10513000BDE8F0879942CBD89A42C9D9824228BFAC
:105140000022C8F81824C3E70120BDE8F08700BF9B
:1051500070B582B002AE054646F8041D0024D5F8AD
:10516000283401990133994202D9002002B070BD60
:1051700032462846FFF796FE40B20028F5DB04F1E0
:105180000104ECD1204602B070BD00BFF8B50E4658
:1051900096E82800D0F83014D0F8244490F83D74F4
:1051A0002940023B04EB5121BB40194400F5037038
:1051B000FFF748FE18B17368C3F308031844F8BD3D
:1051C00070B54C680D46A318D0F830146B6090F899
:1051D0003D340C4009332244DBB222FA03F4064684
:1051E0003CB12B7A3BB12B6801332B60013C002C86
:1051F000F7D1012070BDD6F82834296801339942CF
:1052000002D94FF0FF3070BD2A463046FFF74AFE04
:1052100040B20128EAD070BDD0F8283401338B4267
:1052200001D2FF207047FFF73DBE00BF01290DD915
:10523000D0F828340133994210B403D900205DF826
:10524000044B70475DF8044BFFF746BE00207047E3
:10525000F0B50C4683B005460E46D5F82834013328
:105260009C4202D9002003B0F0BD01AA2146284685
:10527000FFF718FE47B2002FF4DB012CF2D9D5F866
:10528000283401339C42EDD8002221462846FFF7FE
:1052900023FE0028E6D0019B01349C420BD1002F55
:1052A000DBD13B46A21B31462846FFF7FDFE002816
:1052B000D8D003B0F0BDA21B314600232846FFF72B
:1052C000F3FE0028CED0019C002FCCD02646C4E7A8
:1052D0002DE9F8430024D0F82464804600F50377D4
:1052E00025463146002238460136FFF7ABFD30B384
:1052F00000F1FF3ED8F828C41EF8010FFF2805F57D
:10530000805913D048B10822012318424FEA4301C3
:1053100018BF0134013ACBB2F7D10835AC450AD9F0
:105320004D45DED01EF8010FFF28EBD10835AC4506
:1053300004F10804F4D8C4EB0C00BDE8F883BDE820
:10534000F88300BF10B50446D0F82C14FFF700FF17
:1053500094F83D340933DBB2984010BD7E2808D85C
:10536000A0F16103192B8CBF00232023C01A80B247
:10537000704730B40023234D352405E035F8221062
:1053800081428CBF14461346E11A012903EB5102F6
:10539000F4D89BB21B4935F82320904219D24B24F4
:1053A0000023194D05E035F8221081428CBF1446C8
:1053B0001346E11A012903EB5102F4D89BB2124AB9
:1053C00035F82310814204BF02EB8303588830BCB8
:1053D000704701EB8303821AD9788A42DFDA93F9A6
:1053E0000230012B08D023B19BB2184480B230BCEC
:1053F00070474EF2A033F8E702F00102801A80B243
:10540000E5E700BF904A010064490100C9B110B44A
:105410000144D30343EA520310F8012BA2F16104C3
:10542000192C9CBF203AD2B212FA83F292B2D30363
:1054300043EA5202814292B2EBD110465DF8044B2E
:1054400070471046704700BF43B370B444887E2C49
:105450001ED81344CD180A44023012F8013BE4B2BE
:10546000A3F161011929A4F1610194BF202600264E
:10547000192994BF202100219B1B641ADBB2E4B2DE
:105480009C4205D1AA4206D030F8024F7E2CE4D9C6
:10549000002070BC7047012070BC7047012070472D
:1054A00038B504460D46242200210AF08BFEA56083
:1054B000EB79102B08D0202B04D14023012023703E
:1054C000A07038BD002038BD202301202370A070BB
:1054D00038BD00BF024638B552F8105F0446294671
:1054E000806801F09DFA50B155B123690135AB4296
:1054F000A37818BF03F0BF0363F07F03A37038BD28
:10550000A37843F04003F7E72DE9F041037803F077
:1055100020032BB903F0FF0441691F4B994203D9C3
:1055200000263046BDE8F0810546FFF7D3FF06466A
:105530000028F5D02969A86801F010FA0746A86884
:1055400039462430052201F0D1F980460028E7D001
:105550004FF4007221460AF035FEAB681A79012A31
:1055600010D9012403E0AB681A79A2420AD918685D
:105570000368E1199B69424698470134E4B2002868
:10558000F1D1CDE79B7969694FF4007202FA03F318
:1055900011FA83F36B61C4E7FFFD1F0010B50446E9
:1055A00080680A462430A16901F0A0F920B1A388DF
:1055B00003F00F0300EB431010BD00BF30B590F9AE
:1055C0000230002B83B0044619DBA56805F12400E6
:1055D00001F0BCF930B9637843F001036370002037
:1055E00003B030BD05F50C7001F0B0F90028F2D021
:1055F000286803685B6998470028ECD0F0E7012130
:10560000FFF7CCFF05460028E5D00378E52BE2D074
:1056100023780D4A1B0744BFE369C361236A1268FC
:1056200043831B0C838252B10DF1060101A8904700
:10563000BDF80430BDF806202B836B82EA82A37884
:1056400003F07F03A370C0E76031FF1F10B503783C
:10565000044623B900232370A370012010BDFFF777
:10566000ADFF00232370A37010BD00BF38B50378D1
:1056700005460C46B3B928460021FFF78FFFA8B1B5
:10568000016842688368C568E56021606260A36064
:10569000016942698369C569E56121616261A3614C
:1056A000012038BDFFF78AFF0028E4D1002038BD73
:1056B000F0B5064693B03578019200208DF82400AD
:1056C0008DF825008DF826002DB91F460B7813F0B4
:1056D000700F0C4602D1002013B0F0BD13782F2BB1
:1056E000104617D10130019003782F2BFAD0002BF0
:1056F00035D0A16809A8FFF7D3FE0028EBD00198A8
:1057000009AC07E03046FFF759FF002301983370DA
:10571000B37009AC01AA03A900F092FB03AA2146C9
:1057200001230028D7D0019D2D7830467DB100F0AF
:10573000FFFD354609AC0028CDD00FCD0FC40FCDED
:105740000FC433782A682260002BDED0DAE73B46AC
:1057500003AA2146304600F0EBFD13B0F0BDA1686E
:105760003046FFF79DFEB7E719B101F23C41FFF764
:105770009FBF0846704700BF03780BB100207047F9
:10578000FFF78EBE2DE9F04F8378DF0783B0054623
:1057900040F190800F4601780E07914600F193800A
:1057A0008C0608D5826843691289C3EB42139BB209
:1057B000994528BF9946B9F1000F00F0AA806B699E
:1057C000AA6888064E464FF0000805F1100AC3F398
:1057D000080B3FD5116A01EB5321BBF1000F53D1E8
:1057E000B6F5007F50D3D36A99424DD0B6F5806F9D
:1057F00072D328788006C6F3472B06D41079C8EBFD
:105800000000C0B2834528BF834699424FEA4B242B
:105810000BD35B44994208D202F12400019101F0BC
:1058200095F8002846D0AA680199106802685B467E
:10583000D2F80CB03A46D84700283BD06B69361BEB
:10584000234427446B6164D02978AA688806C3F38F
:10585000080BBFD492F8058008EA5328BBF1000F6B
:1058600038D1B8F1000F35D1002B3FD149064CBFDC
:10587000116A296A2961104601F070F8AA6808EBDC
:105880000001BBF1000FABD002F12400002201F0B7
:105890002DF878B1CBF50074B44228BF344600EB44
:1058A0000B012246384606F0A5FBC7E72B7813F01C
:1058B000700F2FD16B784FF0FF3043F002036B7005
:1058C00003B0BDE8F08FC36942699B1A994528BFB0
:1058D000994670E72969CEE7106803683A469B68E5
:1058E00098470028E6D04FF40074A7E70B0705D5CA
:1058F000AB785C0602D529690131BBE710462969FE
:10590000524601F031F80028D4DBCFD0AA682969CB
:10591000B1E70026C6EB090003B0BDE8F08F00BF79
:1059200070B582B001220DF1070104464669056990
:10593000FFF728FF012808BF9DF80700666118BF20
:105940004FF0FF30256102B070BD00BF30B5436934
:10595000C3F3431583B0044605B189B901220DF1A3
:1059600007012046FFF70EFF40B201280BD1636903
:105970001F336361A068303000EB451003B030BDC9
:1059800020334361F6E7002003B030BD2DE9F0413C
:10599000037807690446B3B142698A420E463AD099
:1059A00041B92161A378666123F02003A37001202F
:1059B000BDE8F08118070AD499060BD5A3681B89A6
:1059C000B6EB431FEED927610020BDE8F081E16905
:1059D0008E42F8D8D4F808E09EF806500935E9B2AE
:1059E000501E751EC840CD40A84200D8B2B95B0613
:1059F0004CBFDEF82030236A236104F110084246D0
:105A0000002DCFD02169A06800F0AEFF002805F17D
:105A1000FF35F4DCD7E70120BDE8F0812D1AECE773
:105A20002DE9F0410D4690460021242204461F46F0
:105A30009DF818600AF0C6FBA8682B6AE36000F1C5
:105A4000300208F00F0302EB4312A060A4F80480B8
:105A5000D17A0B0711D401F017012170D37AE670C7
:105A600013F0180F04BF41F00801217017F0320F36
:105A700008D0237813F0110F04D000202070A070FC
:105A8000BDE8F08107F00705A570918A538BC66ABF
:105A9000A661FE0643EA014106D5BA07EDD591B9E4
:105AA00065F07F05A57002E02162D369E361BB0662
:105AB00002D40120BDE8F081E1692046FFF766FFCE
:105AC0000028F6D1D9E700F0E7FF0028D5D0A57867
:105AD000E6E700BF03781BB90B7813F0700F01D114
