:1000000000000320D1010000651D00001D1D00003F
:100010001D1D00001D1D00001D1D00001D1D0000F8
:100020001D1D00001D1D00001D1D0000651D0000A0
:10003000651D00001D1D0000BD2F0000C12F000028
:10004000651D0000651D0000651D0000651D0000A8
:10005000651D0000651D0000651D0000651D000098
:10006000651D0000651D0000651D0000651D000088
:10007000651D0000651D0000651D0000651D000078
:10008000651D0000651D0000651D0000651D000068
:10009000651D0000651D0000651D0000651D000058
:1000A000651D0000651D0000651D0000651D000048
:1000B000651D0000651D0000651D0000651D000038
:1000C000651D0000651D0000651D0000651D000028
:1000D000651D0000651D0000651D0000651D000018
:1000E000651D0000651D0000651D0000651D000008
:1000F000651D0000651D0000651D0000651D0000F8
:10010000651D0000651D0000651D0000651D0000E7
:10011000651D0000E1220000651D0000651D000056
:10012000651D0000651D0000651D0000651D0000C7
:10013000651D0000651D0000651D0000651D0000B7
:10014000651D0000651D0000651D0000651D0000A7
:10015000651D0000651D0000651D0000651D000097
:10016000651D0000651D0000651D0000651D000087
:10017000651D0000651D0000651D0000651D000077
:10018000651D0000651D0000651D0000651D000067
:10019000651D0000651D0000651D0000651D000057
:1001A000651D0000651D0000651D0000651D000047
:1001B000651D0000651D0000651D0000651D000037
:1001C000651D0000651D0000651D0000651D000027
:1001D0005C4B4CF2205210B51A804DF628121A8052
:1001E00000BF00BF01F0C2FD574B4FF030621A60F4
:1001F000564A9A60564ADA60564B4FF470021A60BB
:10020000554B564A1A60564B1A78110703D51A787F
:1002100042F008021A70534B5349AA221A70534AEB
:10022000534B8B4204D252F8040F43F8040BF8E707
:10023000504B514900228B4202D243F8042BFAE77B
:100240004E494F4A002352F8230041F8230001335E
:10025000742BF8D14B4B4C4A802103F8011B93427D
:10026000FBD14A4B454A1A60494B8A221A70A3F5C2
:10027000805324225A70A0221A709A799207FCD5D2
:100280009A79D406FCD4434A937903F00C03082BE3
:10029000FAD1414B60221A7002331A78802AFCD1BD
:1002A0003C4B01221A715D225A719A799006FCD555
:1002B0009979384A4906FBD5384B394919600021EC
:1002C000596020231370937903F00C030C2BFAD19F
:1002D000344B354A1A60354A354C136813F4807331
:1002E00003D123604FF4A8531360324B324A1A6093
:1002F00000225A60072243F8042C304AC3F80C2D20
:1003000062B601F07DFE2368DA0705D52C4801F0BE
:10031000E1FD2C4B2C4A1A602C4B1B785B0609D54F
:10032000284C294B22689A4204D1254801F0D2FD7D
:100330000023236001F020FD03F0C6FD02F05EFE05
:10034000FEE700BF0E20054030800440823F0400DD
:100350000100002B88ED00E0002008E0030000858C
:1003600002D0074000E00740B811FF1F08840000DA
:100370003007FF1FB811FF1F843CFF1F0002FF1F43
:100380000000000000E400E064E400E008ED00E0AC
:10039000005006400040064001E007404480044011
:1003A0000000060204800440C010070010D0034083
:1003B00014D0034014E000E01FBF02000000202022
:1003C000115428631CE00340A5C3945A00F0074071
:1003D000FFFFFFFFFFFFFFFFFFFFFFFFFFFFFFFF2D
:1003E000FFFFFFFFFFFFFFFFFFFFFFFFFFFFFFFF1D
:1003F000FFFFFFFFFFFFFFFFFFFFFFFFFFFFFFFF0D
:10040000FFFFFFFFFFFFFFFFFFFFFFFFDEF9FFFF23
:1004100010B5054C237833B9044B13B10448AFF33E
:1004200000800123237010BDB811FF1F00000000E1
:1004300004840000084B10B51BB108490848AFF30D
:1004400000800848036803B910BD074B002BFBD0A0
:10045000BDE81040184700BF00000000BC11FF1F9E
:1004600004840000B811FF1F000000000020704746
:10047000034B186810B103681B681847704700BF2A
:10048000003BFF1F42F61013F0B5C1504348444FE4
:1004900005680368B7FBF1F643F0A043B7FBF6F736
:1004A00091B005F080750360CF1B0368DC01FCD5BB
:1004B000052E70D90020DFF8E8E00446831CB6FB67
:1004C000F3FCBCF1190F00F101000CFB03F3F5D8AC
:1004D000BEFBF3F3CB1A002BB8BF5B42BB4217DB6A
:1004E00017D0BCF1050FE9D8631CB6FBF3F6053E47
:1004F000142E02D8B7F5967F16DD3DB9274A13684A
:1005000023F0805313601368D901FCD411B0F0BDFF
:100510000446BCF10B0F05D9BCF1120F98BF04467D
:100520001F46DEE71F46DCE717461E493F226846A6
:1005300001F020FB06EB460610AB1E441A4816F8E5
:10054000403C16F83F1C16F83E2CC90403F0070681
:1005500046F4800601F46013120446EA030102F433
:10056000E0230B4343F4804343EA046404600368DC
:10057000022F14BF23F0080343F008030360002D8B
:10058000C4D1064A136823F0805313601368DB015B
:10059000FCD411B0F0BD01230024A6E700400240C6
:1005A0000024F400807E00000440024000207047D8
:1005B0000020704708207047104A114913680868E6
:1005C0001268096802F07F02C1F30361013204314D
:1005D000B2EB410F10D303F07F03C0F30360053B80
:1005E0000130A3EB4000C3B2044A106800F07F0062
:1005F0000130C01AC0B270470023F5E70040024046
:1006000034400240034901220B6802FA00F0034320
:100610000B607047304002402DE9F84F42F60C1154
:10062000074642F6151200234B207850A94CBB54C4
:100630007B60BB60FB603B612278A748A74EA8495E
:10064000A84D42F0800222700268A74CC6F86C41A7
:1006500042F0100202600A6822F400520A602A780E
:10066000002A00F02A81A14A11682B70002900F0AD
:1006700024811168B1F5007F08BF13609C4B4FF4D3
:1006800000721A609B4B1A78002A00F00A819A4A7D
:10069000106800211970002800F003811368B3F579
:1006A000007F964B08BF11604FF400721A609449A6
:1006B0000B6823F000430B600B6843F0A0430B6012
:1006C0000A688F4BD201FBD585490A6842F00802BF
:1006D0000A601A6842F080421A601A461168884B14
:1006E000CE02FBD41A6842F000721A60196811F049
:1006F0000071FBD182480268814BD501FBD51A6895
:10070000804842F400321A601A6842F480321A605B
:100710001A6842F480521A601A6842F400521A6051
:100720001A6842F480021A601A6842F400221A60C1
:100730001A6822F408421A60026842F4E022026059
:100740001A6842F400121A601A6842F080621A6055
:1007500018681A6842F0A04200F080781A601A689F
:100760006748D401FBD50368674C23F0005300228F
:1007700003602260036886461646644B6448604DF9
:10078000134410441B018000DE609E605E601E60AA
:100790000660DEF80030013203F07F03D2B201338D
:1007A0009A424FF00004E8D35A4A5B485B4B04601E
:1007B00014601A681A602B68DFF84CB1514E4FF084
:1007C00000694FF0010A1DE02B6803F07F0301333D
:1007D000B1EB930F34BF4FF080634FF08C63036035
:1007E000336813F4803318BF4FF08043CEF80030E5
:1007F0002B684348013403F07F03E4B201339C4289
:1008000021461DD22B68424A404803F07F03013342
:1008100022442044B1EB530F4FEA820E4FEA0010FE
:10082000D2D3C0F800902B6899002CD41F2C0AFA60
:1008300004F12DD8DBF800300B43CBF80030D7E7BC
:10084000B8F1000F06D1036823F0805303600368FA
:10085000DA01FCD42A4A136823F08053136013682A
:10086000DB01FCD442F60C130121FA5853099B001A
:1008700003F1604303F5614302F01F0201FA02F243
:100880001A60BDE8F88FFFF797FE8442B0D3CDE73A
:10089000234AA4F1200311680AFA03F30B431360FF
:1008A000A6E7164B1A68B2F5007F04BF00221A6053
:1008B000114B4FF400721A60F9E60D4B1A68B2F54D
:1008C000007F04BF00221A60084B4FF400721A60C8
:1008D000D8E600BF005006403C8004400002FF1FE5
:1008E000044002403107FF1F7104000030900440B3
:1008F00048A004403007FF1F349004404CA004403F
:1009000000400240344002402840024008240004D5
:100910002092001010400240484002403040024007
:1009200024400240F8B5284C284F294E294D204636
:10093000FFF772FE2046002227490124FFF7A2FD9F
:10094000264B042221462A20DA72DC7101F0DCFAFF
:100950002146292001F0D8FA2146282001F0D4FAB6
:1009600000212A2001F0CAFA0021292001F0C6FA4C
:100970000021282001F0C2FA2146062001F0C4FA25
:100980002146052001F0C0FA21460E2001F0BCFAF4
:100990002146272001F0B8FA114B3C702146062071
:1009A0001C7034702C7001F0A9FA3978052001F020
:1009B000A5FA31780E2001F0A1FA29782720BDE8A8
:1009C000F84001F09BBA00BFD811FF1F053BFF1F85
:1009D000043BFF1F073BFF1F90D003003407FF1F9E
:1009E000063BFF1F1F2938B50D46144633D91C4955
:1009F000A5F120000A680123834013430B60194BC3
:100A0000E2792B441B014FF000611960BAB1217AE1
:100A10002268002922F060425A6014BF4FF4E001BE
:100A20004FF4C001E06800BA9860206900BAD8604D
:100A3000E27A41EA024242F040621A6038BD21681F
:100A4000207A094A89040A4000285A600CBF002114
:100A50004FF48011E6E70846FFF7D4FDCFE700BF6B
:100A60002C400240082400040000FC1FF0B500F5F3
:100A7000D8541A3487B0182705463A46684601F01C
:100A800079F863881A2203F00F0302FB0343002165
:100A90009975638803F00F0302FB034341F61A368E
:100AA000DF75608800F00F0002FB004069463A469F
:100AB000384401F05FF86288AB5B9BB292B283F07E
:100AC00010039A420ED06388013303F01F03638042
:100AD000A3889BB20F2B03D8A38801339BB2A380BA
:100AE00007B0F0BDAB5B013303F01F03AB53EAE784
:100AF000F0B58B7D474C054687B00E462068002B2D
:100B000038D110F0005062D123680146424B0B44AB
:100B10001B011B68C3F30363082B24D03D4A04E088
:100B20002368C3F30363082B1DD013683A4C481C99
:100B300003F07F03C1B201330C4499424FEA04141D
:100B4000EED30FCE6C460FC496E80300FF2384E873
:100B50000300284669468DF81430FFF787FF4FF0F1
:100B6000FF3007B0F0BD28463246FFF73BFF0120BB
:100B700007B0F0BD10F0005033D12368264B03447A
:100B80001B0104461A68110114D4224902E01A68B4
:100B900012010FD40A68204B013002F07F02C0B26C
:100BA0000132034490424FEA03130446EFD31B4B38
:100BB0004FF0FF341B68C3F30363082B1AD1284698
:100BC0003246E1B2FFF70EFF012007B0F0BDFFF79C
:100BD000F3FC236803F07F0301338342014695D879
:100BE000AFE7FFF7E9FC236803F07F03013383429B
:100BF000C4D8DCE70FCE6F460FC796E8030087E83E
:100C00000300284669468DF81440FFF72FFF4FF088
:100C1000FF30A6E700400240082400047040024074
:100C200030B5244A24491368244C254D23608B4257
:100C300003F1010087B088BF0023106088BF1360F4
:100C400001F068F91F4B1B68C01AC0F30721C0F3FD
:100C50000742030E207328606173A273E373174C7D
:100C600019482146FFF744FF0028F8D01749184AD1
:100C70000B680493049B10681B1A642B18D9154D3C
:100C800009682B78059183F001030599116006200E
:100C900019462B7001F032F9A07B617BE57B019056
:100CA0000091237B226802950B490C4802F098F9C9
:100CB00007B030BDF43AFF1FFEFFFF1F3407FF1FD0
:100CC000FC3AFF1FF83AFF1FD811FF1F083BFF1F18
:100CD000F03AFF1F063BFF1FC07E00005407FF1FB6
:100CE00001EB4101C90030B400F5045463186058A9
:100CF000C0002AD56058400F012829D06058400F05
:100D0000022839D06058400F052802D0002030BC9E
:100D100070476058C0F3C210C0B158695C68596927
:100D200010402140884210D001211C680131C4F3D9
:100D3000C214C9B20134A142E8D25C6953F821500F
:100D40005869144028408442EFD1012030BC7047DC
:100D50006158C1F3C211C1B159688A42F6D019680D
:100D6000C4B2C1F3C2118C4204F10100CED253F8D7
:100D700020109142F3D1E8E759688A42C6D39868B7
:100D800082428CBF00200120E0E70846DEE700BF7A
:100D90000B78632B70B5044615460FD000EB830328
:100DA00042F204729B580BB12846984742F604035E
:100DB000E3584BB12846BDE87040184742F204732F
:100DC000C358002BF0D1F1E770BD00BF2DE9F04F03
:100DD0000D46064689460FCD8DB06C460FC495E88A
:100DE000030084E80300DFF800A1354606F1100790
:100DF0004FF0010855F8044F6CB1D4E902019DF998
:100E0000142008FA02F31840002150EA01034ED1E1
:100E1000237C002B3ED1BD42ECD106F51C531B7840
:100E2000002B4FD01824494622460DEB040000F059
:100E3000A1FEF38A1A20DBB200FB0363002283F8D1
:100E40001A21F38ADBB200FB0363224683F81B41BD
:100E5000F38ADBB200FB03600DEB040100F58E703A
:100E600000F088FEF28AB38A9BB292B283F4807358
:100E70009A4233D0F38A0133C3F30803F382338BEE
:100E80009BB2FF2B03D8338B01339BB233830DB05E
:100E9000BDE8F08F2368D3F800B0D345BBD020461F
:100EA0009DF815304FF0FF326946D847B3E7236805
:100EB000D3F800B0D345ABD09DF815306946204635
:100EC000D847A5E70CA999F8143001F8183D304629
:100ED0004A46FFF75DFF0DB0BDE8F08FB38A0133DE
:100EE000C3F30803B382C5E76D04000042F2017347
:100EF000C35C002B00F0AA802DE9F04F0F460E4690
:100F000005460FCF89B002AC0FC497E8030084E810
:100F10000300974B1B689B0054D5964B1B68C3F38B
:100F2000036A4FEACA0A0AF1080A00244FF0630B69
:100F30000CE01968490F022900F095801968490FE3
:100F4000052900F0AD80013454453BD096F91430AA
:100F5000632B5FFA84FE35D004EB440805EBC80927
:100F600009F5F053196811F0604FECD01968490F7A
:100F70000129DED11A68F179C2F300429142E2D12F
:100F80001A6812F4607FDED01F464FEA480800233B
:100F900006E03A685FFA89F3C2F3C2129342D2D2F2
:100FA00003F1010908EB090303F5F063029A55F810
:100FB00023309A42EDD102A928468DF81CB0FFF7E4
:100FC00005FFE6E700236A4F8DF80E303C6814F009
:100FD00000543CD13B68DFF8988108E0D8F8003035
:100FE000013403F07F03E4B201339C4238D296F916
:100FF0001430A342F2D004EB440105EBC10202F528
:101000000453186810F0604FE8D01868F779C0F3FF
:10101000C0608742E2D11868400F012874D0196877
:10102000490F022900F094801B685B0F052BD5D176
:10103000029A21462846FFF753FE0028CED002A987
:1010400028468DF81C40FFF7C1FEC7E77047FFF741
:10105000B3FA3B6803F07F03013398420446BAD3E6
:1010600009B0BDE8F08F1B68F279C3F300439A42E0
:101070007FF469AF09F5F0530433029A1B689A4272
:10108000FFF461AF09F5F059D9F808309A423FF6FC
:101090005AAF02A928468DF81CB0FFF797FE52E719
:1010A0001B6813F4607F3FF44EAF09F5F0534FEA2D
:1010B0004808143301270AE009F5F051013709689F
:1010C000C1F3C211FFB201318F42BFF43CAF08EB54
:1010D000070101F5F0611868029A55F821C01968F6
:1010E00010400CEA01018842E6D102A9284601938A
:1010F0008DF80EE0CDF800E08DF81CB0FFF766FE2D
:10110000019BDDF800E0D7E71A6812F4607F3FF436
:1011100065AF1F464FEA410A002307E03A685FFACD
:1011200089F3C2F3C2129342BFF458AF03F101092D
:101130000AEB090303F50463029A55F823309A4237
:10114000ECD102A928468DF81C40FFF73FFEE5E7E9
:1011500002F50453043302991B689942FFF43EAF31
:1011600002F50452936899427FF669AF36E700BFF3
:1011700000400240344002402DE9F04F9BB0002374
:10118000A84CA9490A930825089309930B930C933B
:101190000D938DF82B50D4F80090A44A0B6805935A
:1011A000194613681C04804603D413689B0000F1A1
:1011B0004B81DFF878A2059BDAF8004043F0010587
:1011C000B5FA85F5C5F1200514F00054EDB240F0F4
:1011D000AA80DAF80030029508F5245A53460833FD
:1011E0000AF1150ACDF818A00793DDF814A016E04F
:1011F000062A00F0FD80042A00F05E82082A00F032
:10120000C9818A4B1B68013403F07F03E4B20133C8
:101210009C4280F09580029BA34200F0918029FAC5
:1012200004F606F00102002313434FF00007E8D054
:101230002AFA04F38DE88800DDE90023002302F098
:1012400001021343DDD07A4B23444FEA031BDBF842
:101250000030C3F30362022ACAD103F40012002A49
:10126000DBF8041014BF012000208DF8270021F0C6
:10127000604140F0D080890C0891C3F303418DF8A0
:101280002B1006998DF8344009788DF83510DBF86D
:1012900008108DF82F10DBF80810ADF824300B0A79
:1012A0008DF82E30DBF808301B0C8DF82D30DBF874
:1012B00008301B0E8DF82C30DBF80C308DF83330F5
:1012C000DBF80C301B0A8DF83230DBF80C301B0CCD
:1012D0008DF83130DBF80C30002A4FEA13630CBF75
:1012E0004FF080624FF08C628DF83030514BCBF86C
:1012F000002020461B68FFF785F9089A21464046E2
:10130000FFF7EEFC002840F0408108A94046FFF7B7
:10131000EDFD08A8AFF3008008A8AFF3008008A88F
:10132000AFF300806DE7FFF747F9DAF8003003F01C
:101330007F0301339842044602D285423FF64BAF09
:101340003D4B3E4C186821683D4A41400A40002A06
:1013500045D008F5E65310339A8892B20F2A3ED84A
:101360009A8892B20F2A40F2988141F6D046598865
:101370005D8838F8062001F00F0192B20231ADB25B
:1013800082F01002954243F8210000F05A825988F9
:101390002C4D08F5EC52013101F01F011832598033
:1013A0002E6893889BB20F2BB6B240F2718141F642
:1013B00098575188558838F8073001F00F019BB2D3
:1013C00002EB4101ADB283F010039D42CE8000F0EC
:1013D000308253882060013303F01F035380164A84
:1013E000136803431360BFF34F8F1BB0BDE8F08F4A
:1013F00003F40012002ADBF8041014BF01200020BF
:101400008DF8270021F0604108D1890C0891012155
:101410008DF8291031E7089101222EE70891012269
:10142000F5E700BF28400240304002400040024043
:10143000082400040840024020400240D411FF1F4D
:10144000BFFF07001C40024019F0200F3FF4B1AE6F
:101450008D067FF5AEAE934B934A1B68ADF82430F2
:10146000C3F303418DF82B101268904903F4001068
:10147000002814BF0020122022F0604222FA00F25D
:101480004FEAD35008928DF826000A688DF82F2075
:101490000868874A4FEA10208DF82E0008684FEA46
:1014A00010408DF82D0008684FEA10608DF82C0070
:1014B00010688DF8330010684FEA10208DF8320064
:1014C00010684FEA10408DF83100126842F615108E
:1014D0004FEA126218F800008DF830204FF06302D6
:1014E0008DF834208DF8350014BF01220022C3F39B
:1014F000005305208DF8283051F8803C8DF82720C6
:10150000FFF780F8059B5B0600F1D881059B1C0660
:1015100000F1D08108A94046FFF7E8FC08A8AFF326
:10152000008008A8AFF3008008A8AFF3008008F59A
:10153000F0531B68D80040F169815E4BDDF820E074
:101540001B68CDE90267C3F3036B4FEACB0B0BF1CA
:10155000080B4FF0000C0CEB4C0008EBC00202F53E
:10156000F0510B685B0F012B00F035810B685B0FAE
:10157000022B00F050810B685B0F052B00F0698196
:101580000CF1010CE345E6D113E608A94046FFF74C
:101590001DFCBAE6069ADBF8041012788DF8344088
:1015A000C3F303408DF835208DF82B00DBF80820BD
:1015B0008DF82F20DBF80820ADF82430120A8DF8C2
:1015C0002E20DBF80820120C8DF82D20DBF80820E7
:1015D000120E8DF82C20DBF80C208DF83320DBF870
:1015E0000C20120A8DF83220DBF80C20120C03F4C8
:1015F00000108DF8312004F602230028DBF80C00DF
:1016000058F8232021F0604314BF0021122123FA4F
:1016100001F34FEA106114BF0120002008938DF8F8
:1016200030108DF827000AB108A89047079B1B6867
:101630000BB108A8984708F5D85B0BF11A0BBBF85B
:1016400004309BB2002B00F05681BBF800301A2109
:1016500003F00F0301FB03B11831182214A800F0A6
:1016600089FA0DF1500EBEE80F000EADAC46ACE8A5
:101670000F009EE803008CE803009DF94C305A1CD3
:1016800000F020819C427FF4BCAD2A46E1B21BE110
:10169000938801339BB2938089E69A88013292B293
:1016A0009A8062E6804002408440024088400240C6
:1016B0008C40024034400240069ADBF80410127855
:1016C0008DF83440C3F303408DF835208DF82B009E
:1016D000DBF808208DF82F20DBF80820ADF8243047
:1016E000120A8DF82E20DBF80820120C8DF82D2020
:1016F000DBF80820120E8DF82C20DBF80C208DF87A
:101700003320DBF80C20120A8DF83220DBF80C2095
:10171000120C03F400108DF8312004F60223002887
:10172000DBF80C0058F8232021F0604314BF00219F
:10173000122123FA01F34FEA106114BF01200020A7
:1017400008938DF830108DF827000AB108A890474B
:10175000079B1B680BB108A8984708F5D8531A33A4
:1017600005939B889BB2002B00F09C80059A138800
:101770001A2103F00F0301FB03211831182214A8CA
:1017800000F0F8F90DF1500EBEE80F000EADAC46BA
:10179000ACE80F009EE803008CE803009DF94C3094
:1017A000591C00F0AC809C427FF42BAD2A46E1B27C
:1017B0004046FFF717F905990B88013303F01F0323
:1017C0000B808B889BB2002B3FF41BAD8B88013BB9
:1017D0009BB28B8015E50C6814F4607F3FF4D0AEAB
:1017E0000A4604321268964510D00C46450022681D
:1017F000D8B2431CC2F3C212E918904201F5F0615D
:10180000BFF4BEAE58F821209645F0D108A9404655
:10181000FFF7DCFACDE402F5F05304331B689E4574
:10182000FFF4AEAE02F5F05293689E453FF6A8AEC7
:10183000ECE738F80730013303F01F0328F80730CE
:10184000C7E538F80620013202F01F0228F806200A
:101850009DE50B6813F4607F3FF492AE02F5F054FF
:10186000224614342568536827680EEA05023B4077
:101870009A42CBD0400001230A680133C2F3C2125E
:10188000DBB20132C518934205F5F065BFF478AEBE
:10189000266858F8257022680EEA06053A409542F7
:1018A000EAD1B3E72046FEF7ADFE4FF00063CBF878
:1018B0000030A6E40720FEF7A5FE2BE60620FEF783
:1018C000A1FE23E62A4621464046FFF78BF8BBF8E7
:1018D0000030013303F01F03ABF80030BBF80430D5
:1018E0009BB2002B3FF48DACBBF80430013B9BB2A4
:1018F000ABF8043085E42046FEF784FE81E42A46F6
:10190000214655E72DE9F04100F51C538EB01A78B9
:1019100005460AB901221A702B8B9BB2002B4ED1BF
:1019200042F60C130122EB58684903F01F005B09D3
:1019300005F5D856824041F823201A36B3889BB269
:1019400041F61A380BB335F808301A2103F00F03AB
:1019500001FB03611831182208A808AC00F00AF94D
:101960000FCC02AFBE46AEE80F0094E803008EE84D
:1019700003009DF91C104B1C57D0554B0B441B0109
:101980001B68C3F30363082B7FD042F60C130121BD
:10199000EA5853099B0003F1604303F5614302F0E9
:1019A0001F0201FA02F21A602B8BB0889BB280B240
:1019B0001B0380B2002118430EB0BDE8F0812A4617
:1019C0001A2132F8143FDBB202AF01FB032101F50B
:1019D0008471002308A808241822BB6002937B604E
:1019E000FB603B617B618DF8134000F0C3F8AB8A6C
:1019F0000133C3F30803AB822B8B9BB21BB12B8B40
:101A0000013B9BB22B8308AC0FCC3E460FC694E83B
:101A1000030086E803000EA99DF81C3001F8313D53
:101A20003A462846FFF7B4F97AE7DFF8A880D8F8F5
:101A3000004014F000543ED1D8F80030DFF8948014
:101A400008E0D8F80030013403F07F03E4B201333A
:101A50009C429AD21E4B23441B011B68C3F30363B1
:101A6000082BEED13A4621462846FEF7BBFF3388C5
:101A7000013303F01F033380B3889BB2002BE0D007
:101A8000B388013B9BB2B380DBE73A46C9B2284634
:101A9000FEF7A8FF35F80830013303F01F0325F8DF
:101AA0000830B3889BB2002B3FF46FAFB388013B83
:101AB0009BB2B38069E7FEF77FFDD8F8003003F0F2
:101AC0007F03013383420446B8D85EE780E100E03B
:101AD0000824000400400240204B214A21482249AA
:101AE000F0B541F61A3E41F61C351A6000229A8282
:101AF00041F61E37DA8241F6D0461A8323F80E20CB
:101B00005A5341F6D245DA539A5341F6D4475A53C1
:101B100041F6985641F69A55DA539A5341F69C5736
:101B20005A5303F51C5642F20175DA5332705A5576
:101B300083B0006801900D4C0198236042F60C17A9
:101B400042F6101642F61415DA519A515A550860A9
:101B500000F0E0F9064B186003B0F0BDD811FF1F8C
:101B6000647E0000083BFF1FF03AFF1F003BFF1F91
:101B7000F83AFF1F01B441EA000313F003036FD1E9
:101B8000403A41D351F8043B40F8043B51F8043B40
:101B900040F8043B51F8043B40F8043B51F8043B47
:101BA00040F8043B51F8043B40F8043B51F8043B37
:101BB00040F8043B51F8043B40F8043B51F8043B27
:101BC00040F8043B51F8043B40F8043B51F8043B17
:101BD00040F8043B51F8043B40F8043B51F8043B07
:101BE00040F8043B51F8043B40F8043B51F8043BF7
:101BF00040F8043B51F8043B40F8043B51F8043BE7
:101C000040F8043B403ABDD2303211D351F8043B86
:101C100040F8043B51F8043B40F8043B51F8043BC6
:101C200040F8043B51F8043B40F8043B103AEDD235
:101C30000C3205D351F8043B40F8043B043AF9D286
:101C400004320AD0D2071CBF11F8013B00F8013B57
:101C500003D30B7803704B78437001BC704700BF0F
:101C60000C2A4AD310F0030311D0C3F10403D21A93
:101C7000DB071CBF11F8013B00F8013B07D311F84B
:101C8000013B00F8013B11F8013B00F8013B11F06A
:101C900003033FF475AF30B4043AC91AC3F1040C1E
:101CA00051F8044B022B19D0032B0BD0240A51F806
:101CB000043B1D0644EA050440F8044B1C46043A64
:101CC000F4D216E0240E51F8043B1D0244EA050448
:101CD00040F8044B1C46043AF4D20AE0240C51F8B4
:101CE000043B1D0444EA050440F8044B1C46043A36
:101CF000F4D20432B1EB0C0130BC043AA0D3013A67
:101D000011F8013B00F8013BF9D20B7803704B78D6
:101D100043708B78837001BC704700BF08B5104CCE
:101D200008E0236859050DD423681A050FD42368E9
:101D3000DB0411D423685803F3D500F0D1FA2368EB
:101D40005905F1D500F00EF823681A05EFD500F01B
:101D500009F82368DB04EDD500F004F8EAE700BFDA
:101D60003480044008B5FFF7D9FF00BF014B1022B3
:101D70001A80704700200540704700BF094908B528
:101D80000B6830B16A461844A2F50052904202D264
:101D90000860184608BD02F091F80C2303604FF06C
:101DA000FF3008BD4C07FF1F084A1378802B01D075
:101DB000002070470649074B07480860002119704A
:101DC0001378802BFCD00120704700BF03E0074050
:101DD0004480044001E0074000002822094A1378AB
:101DE000012B01D00020704703F1804303F5FC2351
:101DF000602119701378802BFCD1034B034A1A60C1
:101E00000120704703E007404480044000000602C0
:101E100010B4114B53F8302092F8804234B10123B2
:101E200079B182F880305DF8044B704703EBC00352
:101E30005B681A6851B922F002021A605DF8044B1F
:101E4000704782F800315DF8044B704742F003029E
:101E50001A605DF8044B7047DC7E00001C4A02EB00
:101E6000C00301295B6811D004291BD052F830004F
:101E7000002280F8802229B1022920D0032922D013
:101E80001A6070474FF480721A60704752F8300041
:101E90004FF4A27280F880121A601A6822F02002B1
:101EA0001A60704752F830104FF4A272012081F886
:101EB00080021A601A6842F020021A60704740F2ED
:101EC00003121A6070474FF481721A60704700BFA6
:101ED000DC7E000030B4054B054D064C002210217D
:101EE0001A602A602060196030BC704714D003402B
:101EF00004D0034000D00340704700BF3F2801D802
:101F0000FFF786BF704700BF3F2801D8FFF7A6BF85
:101F1000704700BF72B60D490D4B0E4A1B6808682A
:101F2000126862B6520102D5322B88BF0130C3F568
:101F30002F33094903F21F334FF47A729B08A1FB38
:101F4000031302FB00F000EB93007047083BFF1FF8
:101F500018E000E004ED00E0176CC1162DE9F8432D
:101F6000054672B6224F234B234A1B683C68126811
:101F700062B6520102D5322B88BF0134B5B3C3F526
:101F80002F3303F21F331D4EDFF86890DFF86880AF
:101F90009B084FF47A72A6FB031302FB04F404EBD4
:101FA000930472B6D9F800103A68D8F800E062B627
:101FB000C1F52F3303F21F339B08A6FB03031EF06A
:101FC000806FC4EB93034FF47A7002D0322988BF3C
:101FD000013200FB0233B3F57A7F04D3013D05D013
:101FE00004F57A74DDE701F025F8DAE7BDE8F88357
:101FF000083BFF1F18E000E004ED00E0176CC1167D
:10200000F8B54F4B4F48DFF860C14F4C4F49DFF8F0
:102010005CE14F4E4F4D504F4FF000621A604FF051
:1020200080521A604FF000521A604FF080421A60DE
:102030004FF000421A600022282302604EF6FF7023
:10204000CCF80000CEF8003023600EF5012E0B60B6
:1020500033602B6006F500263B6005F50025A36282
:1020600007F500278B6204F5012401F5012106F62E
:10207000E87605F6E87507F57F6710310EF1100E6A
:10208000203433602B60CEF800303B600B6023605F
:10209000324CBB618B6109212160A7F5002704F553
:1020A0008054203F08343A602060BB60E36047F80A
:1020B000041C04F5FD2407F5FE27043704F2FC7424
:1020C00022603860A360FB6044F8041C083404F606
:1020D000FC74C7F8FC2F2060A4F5E124A4F2DC74A2
:1020E00033602B60C7F8F81F21681D4841F4007168
:1020F000216001681B4C0EF57F4E0EF1E80E07F5CE
:10210000883706F5803605F5803541F000710160AD
:10211000CEF8002047F6FF710822396033602B604B
:10212000226000F0FDFFFFF7E7FE1420FFF716FF27
:1021300000F010FD4FF48C70BDE8F840FFF70EBFC3
:1021400004E100E004800340148003401C8003404D
:10215000248003402C8003403480034000800340EF
:102160000480044000900C40088003400C80034031
:10217000431E032B14D872B60A4951F8230068B1E4
:1021800070B4094C058834F81320466841F8236080
:10219000521B24F8132062B670BC704762B67047B9
:1021A00000207047643BFF1F6C3CFF1F0138032871
:1021B0000BD872B6074B53F8203043B100205B6850
:1021C0000130002BFBD162B67047002070471846E3
:1021D000F9E700BFB83BFF1FF0B472B61A491B4EB7
:1021E000012311F8014B194F9A00240742F0010511
:1021F00005D556F8324064B156F83520BAB10133EE
:10220000052BEED162B6124B00221A70F0BC00F022
:1022100023BD0F4C0F4D217807EB431308300139D4
:102220005860217047F8325062B6F0BC7047084AD7
:102230000949137807EBC5040830013B606013704F
:1022400047F8351062B6F0E7048100000000FF1F78
:10225000E13BFF1F88004000C8004000431E032BE5
:102260001DD81B4A400140F0100030B4104472B633
:10227000184CE25C032A1BD8DFE802F002121517A3
:1022800003220D88E25410F0080F14BFC8238823DE
:1022900043EA054308314160036062B630BC7047D1
:1022A00008300222EDE70522EBE708300422E8E7D8
:1022B000094A52F8230038B1084A52F82300416015
:1022C00042F8231062B6E9E742F82310034AF7E721
:1022D0000000FF1FF03BFF1FB83BFF1FC83BFF1F65
:1022E0002DE9F04FDFF814B3DFF814A387B044E012
:1022F000AD4F4FEA930807EBC809013ED9F8042017
:1023000003F00803F6B2A2F1080003F0FF04002B6B
:1023100040F0038157F838301B0C99B222F8081CA2
:10232000002B00F0F180A14B22F8064C42F8044C3F
:1023300053F82620002A00F06C819D4D55F8263078
:1023400058609C4C45F8260034F81630194424F89F
:10235000161000F061FC002800F05481964A974B5B
:1023600019F0080F00F1080018BF1346C9F804005F
:1023700047F8383008238BF800309BF80040E4B26F
:1023800060071BD58E4B1B78ABB18E490A7802F0E3
:10239000FF032AB1013BDBB20B70002B00F0B583C9
:1023A00089490A7802F0FF032AB1013BDBB20B70C6
:1023B000002B00F0F68004238BF8003004F00803B3
:1023C00003F0FF02002B00F0D5809AF80030DBB25A
:1023D0001E098DD19C08744F57F8342007EBC401B7
:1023E000C2F38302013A49680C2A7ED8DFE802F082
:1023F00081817D7D7D7D7D7D427D7D7D07000868BD
:10240000724B734D01936C4B4A68724E47F83430EF
:1024100081B240F281646D4B6A6028600022012025
:10242000A1423A611A60BA61307000F2F680B1F5EB
:10243000D06F80F0E882B1F5817F00F0D38200F2A6
:10244000D881802900F04D81822940F09282A988AC
:10245000614B01F07F01042900F28C825F4C8900FE
:102460000B44227062701A78930740F13883207011
:1024700002203AE1554B01931A6862B3584B59490F
:10248000544E18880C7896F800E04028054684F0F1
:10249000010C28BF402544F00204BEF1000F81F872
:1024A00000C0A0EB050007EBC40C0CBF8821C821BD
:1024B00080B28EF0010E41EA0541CCF8042018806C
:1024C00086F800E02A4447F8341010B9402D18BFB0
:1024D0000022019B1A603E4B1A88B2F5A06F04D10E
:1024E00000219A785970404B1A70404A01231370AA
:1024F00040E7374A158842F22100854200F05281B8
:102500002D4A47F83420F0E72B4A2C4B19F0080FDE
:1025100018BF134647F838302CE700F09DFB344ACB
:10252000344952F82630002B00F02D8158688C5D1C
:1025300042F8260003F10802C9F80420032C05D84C
:10254000DFE804F0120F150204228A551A8819F0E8
:10255000080F0CBF8823C82343EA024347F83830EA
:1025600008E702228A55F1E703228A55EEE70522A1
:102570008A55EBE7E00700F17881210600F1A2819E
:10258000A20706D51C4A1D4913780220DBB213703E
:102590000870E30602D5194B10221A7007B0BDE887
:1025A000F08F00F0C5FC06E70000FF1F643BFF1F33
:1025B000103BFF1F6C3CFF1FC8004000880040001C
:1025C000EC3BFF1F753BFF1FF43BFF1F0C3BFF1F46
:1025D000D83BFF1F743BFF1FC0200740E43BFF1F99
:1025E000203BFF1FE03BFF1F98200740942007403F
:1025F000B83BFF1FF03BFF1F8820074080200740AB
:1026000090200740B74A47F8380013780133137019
:10261000B0E643F82600B44D93E642F22104A1420D
:1026200000F0AD8000F20E81B1F5086F00F054812A
:10263000B1F5106F40F09D81AC4AA9781170AC4D96
:10264000042402E00134142C0CD057F8343019065D
:10265000F8D505EBC40301345868083800F0FCFADB
:10266000142CF2D1A349A44BA44A0291A449A54C2D
:102670009D4D039405964FF0000988461C4616466A
:102680000495206828B1456800F0E6FA2846002D38
:10269000F9D100232360049B30681A46002342F8D6
:1026A000293028B1456800F0D7FA2846002DF9D125
:1026B00000223260029A98F800301146002241F858
:1026C000042B039A0291023B4FF0000122F81910EB
:1026D000032B00F2B481DFE813F0E201AE01E20166
:1026E000AE01894C022022706270EA88824280F03A
:1026F0000D8286490D78402A45F0020E944607EB7C
:10270000CE0028BF4FF0400C04EB0C034460029352
:10271000CCEB02004FEA0C484FF001090022C8241C
:1027200044EA080385F0010447F83E3032700C702B
:10273000DFF8BCE1764BDFF8D481002840F020813F
:10274000BCF1400F1BD144F0020407EBC403029F0D
:10275000DFF89CE15F60002A40F02781020442F02C
:10276000880286F800900D7007444EF834203B46EE
:10277000402804D10020674A019910800B60664A06
:1027800001231370B1E68B5D032B00F2248101A2BB
:1027900052F823F07523000075230000B9280000CB
:1027A000BF280000928862B95C4ACD1D11F8013B38
:1027B00002F8013F8D42F9D1594A1268862A00F089
:1027C000C9805249524E0878327840F0020580F0B4
:1027D0000100087007EBC501002A4FF000004860B7
:1027E00082F001020CBF8821C82147F835103270F1
:1027F00086E640F20232914240F0B080A98801F0B2
:102800007F01042900F2B5806A88002A40F0B18077
:10281000444C89000C448146217841F0020121702A
:102820000020029080468446044638490D7845F0E1
:10283000020E07EBCE03B9F1000F5C600CBF8824D9
:10284000C8246DE742F22124A14240F08E80A9887D
:10285000002940F04281344B344A354C1B68AD7836
:10286000136081460A462570DAE72B49204B314830
:10287000264EDFF8B0C0304DDFF8D4E02F4F0224F1
:102880000C702F4C18605C6098602E48D8601A61FC
:102890009A610D2332702C4C8CF800302B4EFF23A4
:1028A0002B7001209F258EF800303A703370257010
:1028B000087007B0BDE8F08F00238B555AE501235F
:1028C0008B5557E51749224B80220D2008701A704E
:1028D000A2077FF55EAE55E6044A0B4C12782270D3
:1028E00003E700BFE13BFF1F103BFF1FEC3BFF1F57
:1028F0000000FF1FC83BFF1F643BFF1FB83BFF1FCB
:10290000F03BFF1F6C3CFF1FE43BFF1FE03BFF1F42
:10291000743BFF1F203BFF1F94200740733CFF1FA9
:10292000743CFF1FC0200740083BFF1F7C3CFF1F7B
:10293000043CFF1F88004000882007409820074083
:10294000243BFF1F783BFF1F842007408C2007405B
:1029500080200740754A0F21117032E7B1F5A06F52
:1029600007D100224FF001095AE742F22132914289
:10297000F7D06F4B0F221A706E4A01231370B4E523
:1029800040287FF6E0AE44F002040EEBC401029E44
:102990004E60AAB183F80090674A88F80050334629
:1029A000403840334EF83420E5E6029B86F800902C
:1029B000020442F0C8020D7003444EF83420D7E6FA
:1029C00083F80090029B5D4A88F8005040384033FD
:1029D0004EF83420CFE619F0080F0CBF0223032372
:1029E0008B55C7E4A98801F07F010429C1D86A8802
:1029F000002ABED14E4C89000C448146217821F03A
:102A0000020121700CE74E4A5468002CB1D068884E
:102A1000B5F804E003E00C325468002CA9D0138808
:102A20008342F8D153887345F5D1000A03280CBFBF
:102A30002078108959E64FF0010388F8003009F139
:102A40000109B9F1040F04F1040406F1040608F1C8
:102A500001087FF416AE3B4B059E3B4DDFF8F0803E
:102A6000002018704FF0010918F8013B05F8043BED
:102A70001A0719D44FEA890444F0020244F003040F
:102A8000002347F8323047F83430304B9D4209F18B
:102A90000109E9D196F8009089F00102C0E64FF0F3
:102AA000000388F80030CAE700F0B6F818B307EB67
:102AB00049134FEA890408305860204B47F83430F6
:102AC00000F0AAF868B144F0010307EBC302083034
:102AD0005060194A47F83320CEE78146A0E602202D
:102AE00003E6184B44F001021B7847F83200154A00
:102AF00001331370C0E7134B124A1B784FEA890465
:102B0000013347F834001370DAE700BE40288446EA
:102B100028BF4FF0400C04EB0C03CCEB00004FEA55
:102B20000C48029300224FF001097EE6753BFF1F1F
:102B3000C020074094200740C800400088004000A3
:102B400008810000E13BFF1FC4200740D42007405C
:102B500004810000F8B500F079FB002324491A46EF
:102B600001EBC30041F833200133142B42604FF0D6
:102B700000041F48F4D11F491F4A0B68DFF890C0BA
:102B80001E4E1F4F1F4DDFF88CE043F480230B6077
:102B9000136843F04073136003238CF8003001F591
:102BA0002831A02333707C3102F5C922C0F30723FA
:102BB0003B701032C0F307430B70000EFF232870E8
:102BC0008EF80030104D0CF8BC3C104813700123F7
:102BD00006F8AC3C81F8504070264FF400141021E8
:102BE00007F8183C2E70046082F8F810F8BD00BF9A
:102BF0000000FF1F3480044000D8004040210740FF
:102C00009C200740B420074035E400E004E100E0E8
:102C1000442107408020074072B60D480268B2FA8E
:102C200082F30B2B10DC4FF00041D94022EA010265
:102C3000026062B6074803EBC303DB00C218002141
:102C4000C15010465160704762B60020704700BF07
:102C50005007FF1FD003FF1F0D4B0E4AC31AA2FBE4
:102C600003231B090B2B0CD80B4A127852B972B6EE
:102C70000A484FF00041026821FA03F31A43026048
:102C800062B67047064A1278002AF0D0FFF7A4BA5D
:102C9000D003FF1F398EE338E13BFF1F5007FF1FB2
:102CA000EC3BFF1F38B50F4D286878B14388028888
:102CB000C118013393420C7A02D24380204638BDBA
:102CC000FFF7CAFF002320462B6038BD064B1B7858
:102CD0002BB10320FFF74CFA28600028E6D14FF013
:102CE000FF3038BD003CFF1FEC3BFF1F10B5094C07
:102CF000206818B143881844007A10BD064B1B7831
:102D00002BB10320FFF734FA20600028F2D14FF0F6
:102D1000FF3010BD003CFF1FEC3BFF1F044B054A7A
:102D20001B6890881BB11A885B88D31A18447047B7
:102D3000003CFF1F6C3CFF1F0B4B1B789BB110B579
:102D40000A4C206848B1FFF787FF00230320236067
:102D5000FFF70EFA30B1FFF77FFF0320FFF708FA05
:102D60000028F8D110BD7047EC3BFF1F003CFF1F4F
:102D70002DE9F04FDFF8F89083B0012289F80020A8
:102D8000019169B3DFF8EC80354F019E8346D8F896
:102D90000000B0B3334D4488C4F14001B14228BFB4
:102DA000314604EB010E00221FFA8EFE2A70761ABD
:102DB000A0F802E000F1080251B1013C224459445C
:102DC0001BF8014B02F8014F8B45F9D1B0F802E036
:102DD000BEF13F0F0BD8244A05211170002ED6D129
:102DE0000198002389F8003003B0BDE8F08F40223D
:102DF000028001460420FFF731FA0022C8F80020C3
:102E0000E9E73A7822B3194C164D4FF0010A07E072
:102E1000013C16D02A78A2B900F00CF93A78BAB180
:102E20000420FFF7C3F90728F2D889F800A0FFF7BC
:102E3000F3FEC8F800000028ADD10D4B013C18701E
:102E4000E8D101234FF0FF302B7003B0BDE8F08FC5
:102E500000234FF0FF3089F8003003B0BDE8F08F59
:102E6000EC3BFF1FFC3BFF1FF43BFF1F2148010011
:102E7000F53BFF1FF83BFF1F00B583B002AB0121FC
:102E800003F8010D1846FFF773FF03B05DF804FB6C
:102E900038B50E4D0E4C28680123237028B14088A8
:102EA00000232370C0F1400038BD0A4B1B7813B9D2
:102EB0000020207038BD0420FFF778F90728F7D8E4
:102EC000FFF7AAFE28600028E9D1F1E7F83BFF1FD1
:102ED000F53BFF1FEC3BFF1FF8B5114B1B788BB187
:102EE000104E114D346801272F7064B10F4A63886A
:102EF00000271770214623800420FFF7AFF93760C1
:102F000000232B70F8BDFFF787FE084B28B1014660
:102F100004201C70FFF7A2F9F2E71F70F0E700BF72
:102F2000EC3BFF1FF83BFF1FF53BFF1FF43BFF1F70
:102F300038B50E4B1B7873B90D4C216861B103F0A5
:102F4000FF054B880B800420FFF788F9256038BD0A
:102F5000084B01221A7038BDFFF75EFE0028F7D03B
:102F60000146BDE838400420FFF778B9F53BFF1F64
:102F7000F83BFF1FF43BFF1F70B5EFF3108272B6F2
:102F80000C4C206880B10C4E00254369236073B15E
:102F90009D6102B962B6457783689847EFF3108266
:102FA00072B620680028F0D102B962B670BD3360F5
:102FB000EFE700BF083CFF1F0C3CFF1FFFF7DCBF23
:102FC000024A136801331360704700BF083BFF1FBC
:102FD00010B5036814465B689847204610BD00BFD3
:102FE0000EB400B582B003AA52F8041B019201F09E
:102FF000BBFD02B05DF804EB03B0704708B5FDF708
:1030000091FCFDF70DFE00F015F8FAE7FFF794BE0E
:10301000FFF76CBEFFF746BEFFF780BEFFF75CBF51
:10302000FFF736BF08461146FFF7A2BE0846FFF776
:1030300023BF00BF2DE9F843314E337893B1314FB0
:103040003A787AB90122D9073A7036D49A0719D456
:1030500000225B073A7005D52B4B1A6812B1EFF3CB
:1030600005820AB1BDE8F883EFF3108172B61868E3
:1030700018B1264C2278002A2ED00029F2D162B64F
:10308000BDE8F883DFF8908098F80020002ADFD0B0
:10309000DFF88890002405E0013498F80030E4B2AD
:1030A000A34212D959F824502B6828461B69984727
:1030B0000028F1D02B699847EEE7FFF72FFEC8B93B
:1030C000134B1B781BB93378C0E73378C0E73378EC
:1030D00003F0FE033370B9E745691D6001232370D7
:1030E0005DB1AA6101B962B600254577836898474A
:1030F0002570B7E700F0ECF8E2E7064B1D60F1E75A
:103100006407FF1F193CFF1F143CFF1F183CFF1FE3
:103110000A08FF1F103CFF1F343CFF1F1C3CFF1F11
:1031200030B42948294A2A4B2A4D6024E1210470F1
:1031300011701B78284C082B30D00A2B27482849BF
:1031400037D00C2B0CBF35225D2212232A6023605E
:1031500002600B60234B24491B78244ABBB1012336
:103160000B601360224B23491B78234A012B26D97D
:10317000042B0FD9082B1ED9102B94BF862387232D
:103180000B6013601D4B01221A7030BC70470B603E
:103190001360E7E784230B601360F3E700F58E20EC
:1031A0000F490830212213232A60236002600B603C
:1031B000D0E73922F7E785230B601360E2E780232D
:1031C0000B601360DEE700BF00400740014007408E
:1031D0006507FF1F08B003400CB0034008B00B4068
:1031E0000CB00B401B3CFF1F20B0034020B00B4035
:1031F0006607FF1F24B0034024B00B401A3CFF1F9A
:10320000F0B44D1E2E46002400E00134B0FBF2F372
:1032100002FB1300092800F130078ABF3730F8B2EB
:10322000C0B206F8010F1846002BEED10A195370F0
:103230004CB1107815F8016F28700133E01A834201
:1032400002F80169F5DB0846F0BC704710B584B0A0
:1032500072B6FEF7A9FD184A184B19491160702281
:1032600080211A701A46197013781B06FCD5154B6D
:103270001C68FEF7B3FD62B6134B9C429CBF04EB87
:10328000840464002046114C01A90A22FFF7B8FF0C
:1032900001A92046002311F8012B01333AB10A2B72
:1032A00020F8022FF7D11623237004B010BD5B0065
:1032B000DBB2237004B010BD0400024000000240E5
:1032C000000007410C0002407F969800F407FF1FA2
:1032D000704700BF81F0004102E000BF83F000436F
:1032E00030B54FEA41044FEA430594EA050F08BFA1
:1032F00090EA020F1FBF54EA000C55EA020C7FEA65
:10330000645C7FEA655C00F0E2804FEA5454D4EBE1
:103310005555B8BF6D420CDD2C4480EA020281EAAB
:10332000030382EA000083EA010180EA020281EAE3
:103330000303362D88BF30BD11F0004F4FEA013135
:103340004FF4801C4CEA113102D0404261EB410144
:1033500013F0004F4FEA03334CEA133302D05242CA
:1033600063EB430394EA050F00F0A780A4F1010486
:10337000D5F1200E0DDB02FA0EFC22FA05F28018C0
:1033800041F1000103FA0EF2801843FA05F35941A6
:103390000EE0A5F120050EF1200E012A03FA0EFC25
:1033A00028BF4CF0020C43FA05F3C01851EBE3714F
:1033B00001F0004507D54FF0000EDCF1000C7EEB6C
:1033C00000006EEB0101B1F5801F1BD3B1F5001FAA
:1033D0000CD349085FEA30004FEA3C0C04F10104C9
:1033E0004FEA445212F5800F80F09A80BCF1004FF2
:1033F00008BF5FEA500C50F1000041EB045141EA74
:10340000050130BD5FEA4C0C404141EB010111F474
:10341000801FA4F10104E9D191F0000F04BF01461F
:103420000020B1FA81F308BF2033A3F10B03B3F1FD
:1034300020020CDA0C3208DD02F1140CC2F10C028D
:1034400001FA0CF021FA02F10CE002F11402D8BFEB
:10345000C2F1200C01FA02F120FA0CFCDCBF41EAB7
:103460000C019040E41AA2BF01EB0451294330BD86
:103470006FEA04041F3C1CDA0C340EDC04F1140463
:10348000C4F1200220FA04F001FA02F340EA03003A
:1034900021FA04F345EA030130BDC4F10C04C4F180
:1034A000200220FA02F001FA04F340EA0300294660
:1034B00030BD21FA04F0294630BD94F0000F83F4AA
:1034C000801306BF81F480110134013D4EE77FEA8D
:1034D000645C18BF7FEA655C29D094EA050F08BFD9
:1034E00090EA020F05D054EA000C04BF19461046BA
:1034F00030BD91EA030F1EBF0021002030BD5FEAFE
:10350000545C05D14000494128BF41F0004130BD25
:1035100014F580043CBF01F5801130BD01F0004579
:1035200045F0FE4141F470014FF0000030BD7FEAEC
:10353000645C1ABF194610467FEA655C1CBF0B46E7
:10354000024650EA013406BF52EA033591EA030FFE
:1035500041F4002130BD00BF90F0000F04BF0021F6
:10356000704730B54FF4806404F132044FF0000529
:103570004FF0000150E700BF90F0000F04BF0021A2
:10358000704730B54FF4806404F1320410F0004508
:1035900048BF40424FF000013EE700BF42004FEA03
:1035A000E2014FEA31014FEA02701FBF12F07F4380
:1035B00093F07F4F81F06051704792F0000F14BF7D
:1035C00093F07F4F704730B54FF4607401F00045C1
:1035D00021F0004120E700BF50EA010208BF704718
:1035E00030B54FF000050AE050EA010208BF70470D
:1035F00030B511F0004502D5404261EB41014FF476
:10360000806404F132045FEA915C3FF4DCAE4FF079
:1036100003025FEADC0C18BF03325FEADC0C18BF60
:10362000033202EBDC02C2F1200300FA03FC20FAB1
:1036300002F001FA03FE40EA0E0021FA02F11444FE
:10364000C1E600BF70B54FF0FF0C4CF4E06C1CEA13
:1036500011541DBF1CEA135594EA0C0F95EA0C0F88
:1036600000F0DEF82C4481EA030621EA4C5123EAFB
:103670004C5350EA013518BF52EA033541F480112A
:1036800043F4801338D0A0FB02CE4FF00005E1FBDD
:1036900002E506F00042E0FB03E54FF00006E1FB27
:1036A00003569CF0000F18BF4EF0010EA4F1FF046A
:1036B000B6F5007F64F5407404D25FEA4E0E6D41AA
:1036C00046EB060642EAC62141EA55514FEAC520BB
:1036D00040EA5E504FEACE2EB4F1FD0C88BFBCF537
:1036E000E06F1ED8BEF1004F08BF5FEA500E50F1E8
:1036F000000041EB045170BD06F0004646EA0101AE
:1037000040EA020081EA0301B4EB5C04C2BFD4EBDF
:103710000C0541EA045170BD41F480114FF0000ED8
:10372000013C00F3AB8014F1360FDEBF002001F046
:10373000004170BDC4F10004203C35DA0C341BDCC0
:1037400004F11404C4F1200500FA05F320FA04F092
:1037500001FA05F240EA020001F0004221F00041C6
:1037600010EBD37021FA04F642EB06015EEA430E39
:1037700008BF20EAD37070BDC4F10C04C4F1200569
:1037800000FA04F320FA05F001FA04F240EA02001C
:1037900001F0004110EBD37041F100015EEA430EED
:1037A00008BF20EAD37070BDC4F1200500FA05F20D
:1037B0004EEA020E20FA04F301FA05F243EA02038C
:1037C00021FA04F001F0004121FA04F220EA02009B
:1037D00000EBD3705EEA430E08BF20EAD37070BDE1
:1037E00094F0000F0FD101F00046400041EB0101C1
:1037F00011F4801F08BF013CF7D041EA060195F0A3
:10380000000F18BF704703F00046520043EB03035C
:1038100013F4801F08BF013DF7D043EA0603704749
:1038200094EA0C0F0CEA135518BF95EA0C0F0CD054
:1038300050EA410618BF52EA4306D1D181EA03019A
:1038400001F000414FF0000070BD50EA410606BF94
:103850001046194652EA430619D094EA0C0F02D1D9
:1038600050EA013613D195EA0C0F05D152EA03361E
:103870001CBF104619460AD181EA030101F000413C
:1038800041F0FE4141F470014FF0000070BD41F085
:10389000FE4141F4780170BD70B54FF0FF0C4CF45F
:1038A000E06C1CEA11541DBF1CEA135594EA0C0F7E
:1038B00095EA0C0F00F0A7F8A4EB050481EA030ECB
:1038C00052EA03354FEA013100F088804FEA0333B2
:1038D0004FF0805545EA131343EA12634FEA022280
:1038E00045EA111545EA10654FEA00260EF0004141
:1038F0009D4208BF964244F1FD0404F5407402D293
:103900005B084FEA3202B61A65EB03055B084FEA23
:1039100032024FF480104FF4002CB6EB020E75EB20
:10392000030E22BFB61A754640EA0C005B084FEA48
:103930003202B6EB020E75EB030E22BFB61A7546C5
:1039400040EA5C005B084FEA3202B6EB020E75EB10
:10395000030E22BFB61A754640EA9C005B084FEA88
:103960003202B6EB020E75EB030E22BFB61A754695
:1039700040EADC0055EA060E18D04FEA051545EA84
:1039800016754FEA06164FEAC30343EA52734FEA2D
:10399000C2025FEA1C1CC0D111F4801F0BD141EAA6
:1039A00000014FF000004FF0004CB6E711F4801F0B
:1039B00004BF01430020B4F1FD0C88BFBCF5E06FEB
:1039C0003FF6AFAEB5EB030C04BFB6EB020C5FEAFB
:1039D000500C50F1000041EB045170BD0EF0004E50
:1039E0004EEA113114EB5C04C2BFD4EB0C0541EA82
:1039F000045170BD41F480114FF0000E013C90E67F
:103A000045EA060E8DE60CEA135594EA0C0F08BF42
:103A100095EA0C0F3FF43BAF94EA0C0F0AD150EA41
:103A200001347FF434AF95EA0C0F7FF425AF1046D4
:103A300019462CE795EA0C0F06D152EA03353FF4FC
:103A4000FDAE1046194622E750EA410618BF52EA79
:103A500043067FF4C5AE50EA41047FF40DAF52EA4D
:103A600043057FF4EBAE12E74FF0FF3C06E000BFEA
:103A70004FF0010C02E000BF4FF0010C4DF804CDF7
:103A80004FEA410C7FEA6C5C4FEA430C18BF7FEAB7
:103A90006C5C1BD001B050EA410C0CBF52EA430CE5
:103AA00091EA030F02BF90EA020F0020704710F165
:103AB000000F91EA030F58BF994208BF90422CBFF4
:103AC000D8176FEAE37040F0010070474FEA410CED
:103AD0007FEA6C5C02D150EA013C07D14FEA430C0B
:103AE0007FEA6C5CD6D152EA033CD3D05DF8040B7C
:103AF000704700BF8446104662468C4619466346AE
:103B000000E000BF01B5FFF7B7FF002848BF10F184
:103B1000000F01BD4DF808EDFFF7F4FF0CBF0120C9
:103B200000205DF808FB00BF4DF808EDFFF7EAFF45
:103B300034BF012000205DF808FB00BF4DF808ED00
:103B4000FFF7E0FF94BF012000205DF808FB00BFF5
:103B50004DF808EDFFF7CEFF94BF012000205DF87F
:103B600008FB00BF4DF808EDFFF7C4FF34BF01208C
:103B700000205DF808FB00BF4FEA410C7FEA6C5C57
:103B800002D150EA013C0AD14FEA430C7FEA6C5C57
:103B900002D152EA033C02D14FF0000070474FF0CF
:103BA0000100704753B94AB9002908BF00281CBF5B
:103BB0004FF0FF314FF0FF3000F07EB9ADF1080C4F
:103BC0006DE904CE00F006F8DDF804E0DDE902233B
:103BD00004B070472DE9F0478C460E460446089D18
:103BE000002B50D18A4217466CD9B2FA82FEBEF140
:103BF000000F0BD0CEF1200420FA04F401FA0EF6E7
:103C000044EA060C02FA0EF700FA0EF44FEA1749DE
:103C1000220CBCFBF9F01FFA87F809FB10C642EA38
:103C2000064600FB08F3B34209D9F61900F1FF324A
:103C300080F02281B34240F21F8102383E44F61ADE
:103C4000A2B2B6FBF9F309FB136642EA064403FB92
:103C500008F8A04509D9E41903F1FF3280F00A8180
:103C6000A04540F20781023B3C44C8EB040443EA10
:103C700000400021002D62D024FA0EF400232C60B5
:103C80006B60BDE8F0878B4207D9002D55D000212D
:103C900085E841000846BDE8F087B3FA83F10029C2
:103CA00040F09080B34202D3824200F2F880841A3E
:103CB00066EB03060120B446002D40D085E81010C5
:103CC000BDE8F08712B90127B7FBF2F7B7FA87FE14
:103CD000BEF1000F35D1F31B4FEA17481FFA87FCDE
:103CE0000121B3FBF8F0220C08FB103642EA06462D
:103CF0000CFB00F3B34207D9F61900F1FF3202D2F0
:103D0000B34200F2CE801046F61AA2B2B6FBF8F328
:103D100008FB136642EA06440CFB03FCA44507D9E2
:103D2000E41903F1FF3202D2A44500F2B580134634
:103D3000CCEB040443EA00409CE729462846BDE852
:103D4000F087CEF1200106FA0EF307FA0EF720FAFB
:103D500001F94FEA1748CE4049EA0309B6FBF8FAE1
:103D60004FEA194408FB1A661FFA87FC44EA064327
:103D70000AFB0CF29A4200FA0EF40AD9DB190AF196
:103D8000FF3180F087809A4240F28480AAF1020AD3
:103D90003B449B1A1FFA89F9B3FBF8F108FB113376
:103DA00049EA034301FB0CF69E4207D9DB1901F1F6
:103DB000FF326BD29E4269D902393B449B1B41EAD8
:103DC0000A418EE7C1F1200E22FA0EF48B40234304
:103DD00020FA0EF706FA01F44FEA134C26FA0EF613
:103DE0003C43B6FBFCF9270C0CFB19661FFA83F861
:103DF00047EA064609FB08F7B74202FA01F200FA61
:103E000001FA08D9F61809F1FF3041D2B7423FD97B
:103E1000A9F102091E44F61BA0B2B6FBFCF40CFB90
:103E2000146640EA064704FB08F8B84507D9FF18AE
:103E300004F1FF3028D2B84526D9023C1F4444EA99
:103E40000940C8EB0707A0FB02894F4544464E4690
:103E500014D329D065B3BAEB040367EB060707FA5E
:103E60000EFECB40CF404EEA030385E888000021D8
:103E7000BDE8F0871346F8E61046E0E6B8EB02042A
:103E800069EB03060138E5E70446D8E7114695E7F4
:103E90008146C0E78A467CE7023B3C4448E7084647
:103EA0000AE702383E442FE7C245E7D33E46D1E752
:103EB0002946BDE8F08700BF704700BF014B186876
:103EC000704700BF380CFF1F70B50F4E0F4D761BAB
:103ED000B61018BF002405D0013455F8043B9847AC
:103EE000A642F9D10A4E0B4D761B04F07DFAB610AE
:103EF00018BF002406D0013455F8043B9847A64269
:103F0000F9D170BD70BD00BFF4830000F4830000E0
:103F100000840000F4830000024B0146186800F0A2
:103F200003B800BF380CFF1F2DE9F04F01F10B055E
:103F3000162D83B0064640F29F8035F0070500F14C
:103F4000BF80A94200F2BC8000F06EFBB5F5FC7F9B
:103F5000C0F09C826B0A00F0BA80042B00F28381CF
:103F6000A80900F1390E4FEA4E033830C44F07EB71
:103F70008303A3F108015C68A14207D1ACE0002AE9
:103F800080F2AC80E468A14200F0A680636823F070
:103F900003035A1B0F2AF2DDB9493C6901F1080EEF
:103FA000744500F0B381636823F003035A1B0F2AA2
:103FB00000F39981002AC1F814E0C1F810E080F202
:103FC0009E80B3F5007F80F06781DB0803F1010C70
:103FD00001229B1002FA03F34A6851F83C80C4F8AE
:103FE000088001EBCC091A43A9F10803E3604A6099
:103FF00041F83C40C8F80C40831001249C40944296
:1040000000F28A80144206D120F0030064001442BA
:1040100000F10400FAD007EBC009CC468046DCF87A
:104020000C108C4507D173E1002A80F28181C968A8
:104030008C4500F06D814B6823F003035A1B0F2A57
:10404000F2DD0C46D1F80CC054F8088F4B1945F03E
:1040500001054D6042F00101C8F80CC03046CCF8B3
:1040600008807B613B61C3F80CE0C3F808E059604D
:104070009A5000F0DBFA1FE0102921D800F0D4FAA2
:104080001025062302207E4F07EB8303A3F10802CD
:104090005C68944200F045816368E168A56823F09C
:1040A0000303234430465A68E96042F001028D6000
:1040B0005A6000F0BBFA0834204603B0BDE8F08F28
:1040C00000240C232046336003B0BDE8F08F80232A
:1040D0004FF0400E3F2049E770465DE72344E1681A
:1040E0005A68A56842F00102E96030468D605A6066
:1040F00000F09CFA0834204603B0BDE8F08F23445A
:1041000030465A6842F001025A6000F08FFA0834D3
:10411000204603B0BDE8F08FBC68636823F0030855
:10412000A84504D3C5EB08030F2B00F38C80554B37
:10413000DFF860911A68D9F8003001332A4404EBA3
:10414000080A00F0608102F580520F3222F47F628B
:1041500022F00F0211463046019200F059FCB0F1F6
:10416000FF3F8346019A00F05881824500F2FC80AF
:10417000454B1968DA451144196000F05381D9F8AC
:104180000000DFF810E101301BBFCAEB0B0A5144FD
:10419000CEF800B019601BF0070100F01781C1F1E3
:1041A0000800C1F58051834408315A44C2F30B0220
:1041B000C2EB010949463046019300F029FC431C3B
:1041C000019B00F03F81CBEB00024A4442F0010228
:1041D0001968C7F808B04944BC42CBF804201960FC
:1041E000DFF8A49016D0B8F10F0F40F2FD8062689E
:1041F000A8F10C0323F00703E01802F001024FF0CE
:10420000050E1A430F2B6260C0F804E0C0F808E006
:1042100000F21C811D4BBC681A68914288BF19606E
:104220001B4B1A689142626888BF196022F0030232
:104230009542A2EB050301D80F2B04DC304600F0B9
:10424000F5F9002438E7621943F0010345F0010550
:1042500065603046BA60536000F0E8F908342046E3
:1042600003B0BDE8F08F142B71D9542B00F2A48059
:10427000280B00F16F0E4FEA4E036E3076E600BF5A
:10428000A80DFF1F403CFF1F443CFF1F3C3CFF1F8D
:10429000383CFF1FB411FF1F5A0A042A5ED9142AA2
:1042A00000F2B38002F15C0149005B3207EB810C44
:1042B00057F82110DFF8DC81ACF1080C8C4500F0D8
:1042C00088804A6822F00302934202D289688C45B2
:1042D000F7D1D1F80CC07A68C4F80CC0A160CCF852
:1042E0000840CC6088E6631942F0010745F00105FB
:1042F000656030464B610B61C3F80CE0C3F808E021
:104300005F609A50083400F091F9D5E64A6873E688
:1043100008F1010818F0030F0CF1080C7FF47FAED0
:1043200030E0DC68A34208BF02303FF435AEB3E6AC
:104330000B440C465A68C96854F8085F42F0010201
:104340005A603046E9608D6000F070F9B4E603F120
:104350005C0E03F15B004FEA4E0307E69A0902F197
:10436000390149003832A1E7BC424A4B3FF400AF63
:104370009C68626822F003025AE759F808399945A7
:1043800040F0828010F0030F00F1FF30F5D17B6820
:1043900023EA04037B6064009C423FF6BDAE002C20
:1043A0003FF4BAAE1C4240467FF435AE64001C4276
:1043B00000F10400FAD02EE6B3F5AA7F18D8E80B76
:1043C00000F1780E4FEA4E037730CFE54FF480517D
:1043D000EBE60121D8F80430921001FA02F21A43F8
:1043E000C8F80420614677E70123CBF8043025E7BD
:1043F00040F25452934220D8A80C00F17D0E4FEAAF
:104400004E037C30B2E51032A4E6542A26D81A0BAB
:1044100002F16F0149006E3248E7BC68626822F021
:10442000030205E7CAF30B0000287FF4A8AE42445C
:10443000BB6842F001025A60ECE6FE234FF07F0EAB
:104440007E2093E501224FF00009C1E604F1080146
:10445000304600F02BFCD9F80010DBE6B2F5AA7F5D
:1044600005D8DA0B02F17801490077321EE740F2F5
:1044700054518A4205D89A0C02F17D0149007C32E0
:1044800014E7FE217E2211E77B6884E7E808431CDD
:104490005B00F8E5A80DFF1F82B049B15AB16BB1BE
:1044A00013780B601278101C18BF012002B07047FF
:1044B00001A9002AF3D1104602B070476FF0010045
:1044C000F4E700BF8842F0B50DD98B1898420AD2A4
:1044D0008118002A51D09A1A13F8014D01F8014DA4
:1044E0009342F9D1F0BD0F2A48D941EA00039B0756
:1044F00046D100F1100401F11003154653F8106C79
:1045000044F8106C53F80C6C44F80C6C53F8086CBD
:1045100044F8086C103D53F8046C44F8046C0F2DFB
:1045200003F1100304F11004E8D8A2F1100323F002
:104530000F0302F00F0E1033BEF1030F19440344B2
:1045400021D91E1F0D467446043C55F8047B46F8DD
:10455000047F032CF8D8AEF1040424F003040434DF
:104560002344214402F0030262B1013B0A4411F8E2
:10457000014B03F8014F8A42F9D1F0BD0346F3E73E
:104580000346F2E7F0BD7246EEE700BF70B4840761
:1045900046D0541E002A41D0CDB2034602E0621E2E
:1045A000E4B3144603F8015B9A07F8D1032C2ED923
:1045B000CDB245EA05250F2C45EA054519D903F189
:1045C00010022646103E0F2E42F8105C42F80C5C9A
:1045D00042F8085C42F8045C02F11002F2D8A4F13F
:1045E000100222F00F0204F00F041032032C1344C7
:1045F0000DD91E462246043A032A46F8045BFAD82F
:10460000221F22F003020432134404F003042CB1ED
:10461000C9B21C4403F8011BA342FBD170BC704714
:1046200014460346C2E700BF704700BF704700BF93
:104630002DE9F04F174683B0002900F0C1800E46E7
:10464000814607F10B05FFF7EFFF56F804EC162D36
:104650002EF00304A6F1080840D810221546AF42F8
:1046600041D8944275DAC94B996808EB0400884236
:10467000416800F0D98021F0010303445B68DB0747
:104680007DD51EF0010F35D039464846FFF74CFC6A
:104690000746E0B156F8043C23F001034344A0F17F
:1046A00008029A4200F04481221F242A00F231813C
:1046B000132A00F2048103463246116819605168DA
:1046C000596092689A603146484600F0EFFA4846D1
:1046D000FFF7ACFF384603B0BDE8F08F25F00705C3
:1046E000002D2A46BBDA0C230020C9F8003003B0A5
:1046F000BDE8F08F56F8083CC3EB080ADAF804303E
:1047000023F0030C04EB0C039342BDDB5746DAF8AD
:104710000C1057F8080F221F242AC160886000F28D
:104720001781132A40F212813168CAF808107168A3
:10473000CAF80C101B2A00F22B8108360AF110026D
:104740003168116071685160B16891603E461C46E5
:10475000D046631B0F2B1DD8D8F8043003F001039B
:1047600023434444C8F80430636843F001036360A2
:104770004846FFF75BFF304603B0BDE8F08F21F0FD
:1047800003012144914221DBC36882680C46D36057
:104790009A60DEE7D8F8042008EB050102F0010278
:1047A000154343F001020B44C8F804504A605A68AC
:1047B00042F0010208315A60484600F077FAD7E724
:1047C000114603B0BDE8F04FFFF7AEBB1EF0010F7E
:1047D0007FF45AAF56F8083CC3EB080ADAF8043005
:1047E00023F0030C01EB0C0E96458BDBC36882684B
:1047F0005746D3609A6057F8081FDAF80C30CB6040
:10480000221F242A996000F29980132A62D9336802
:10481000CAF808307368CAF80C301B2A00F2A0806E
:1048200008360AF1100356E021F0030BA34405F10A
:104830001000834559DA1EF0010F7FF425AF56F8BA
:10484000081CC1EB080ADAF8041021F0030CE34459
:1048500058453FF757AF5746DAF80C1057F8080F8E
:10486000221F242AC160886000F2B480132A40F21B
:10487000A5803168CAF808107168CAF80C101B2AA4
:1048800000F2AF8008360AF11002316811607168D9
:104890005160B16891600AEB0501C5EB0B0242F073
:1048A000010299604A60DAF8043003F001031D4305
:1048B0004846CAF80450FFF7B9FE38465CE733684B
:1048C0000360736843601B2A27D800F1080306F1D0
:1048D0000802F2E63B4632681A6072685A60B268B3
:1048E0009A603E467446D04633E708EB0501C5EBB7
:1048F0000B0B4BF0010299604A6056F8043C03F040
:1049000001031D43484646F8045CFFF78FFE30461E
:1049100032E73146FFF7D6FDD5E6B3688360F3682A
:10492000C360242A28D000F1100306F11002C4E667
:1049300050F8043C23F003031C440AE73146384690
:104940007446D046FFF7BEFD3E4602E73A46F7E61C
:10495000314638461C46D046FFF7B4FD3E46F8E6E1
:10496000B368CAF81030F368CAF81430242A1BD090
:1049700010360AF11803AEE73369036173694361C6
:1049800006F1180200F1180397E600BFA80DFF1FFB
:10499000B168CAF81010F168CAF81410242A0FD0B0
:1049A00010360AF11802CBE63369CAF81830736979
:1049B000CAF81C3018360AF120038CE73A4664E73F
:1049C0003269CAF818207269CAF81C2018360AF130
:1049D0002002B5E6314638460193FFF773FD019B8F
:1049E00059E7B168CAF81010F168CAF81410242AFF
:1049F00003D010360AF1180247E73269CAF81820C6
:104A00007269CAF81C2018360AF120023DE700BF7F
:104A100038B5074C0023054608462360FDF7AEF97C
:104A2000431C00D038BD2368002BFBD02B6038BD61
:104A3000803CFF1FFFFFFFFFFFFFFFFFFFFFFFFFA8
:104A400090F800F06DE9024520F007016FF0000CCE
:104A500010F0070491F820F040F049804FF0000476
:104A60006FF00700D1E9002391F840F000F1080051
:104A700082FA4CF2A4FA8CF283FA4CF3A2FA8CF389
:104A80004BBBD1E9022382FA4CF200F10800A4FAF0
:104A90008CF283FA4CF3A2FA8CF3E3B9D1E9042344
:104AA00082FA4CF200F10800A4FA8CF283FA4CF37B
:104AB000A2FA8CF37BB9D1E9062301F1200182FA35
:104AC0004CF200F10800A4FA8CF283FA4CF3A2FA3B
:104AD0008CF3002BC6D0002A04BF04301A4612BA49
:104AE000B2FA82F2FDE8024500EBD2007047D1E94C
:104AF000002304F00305C4F100004FEAC50514F0DB
:104B0000040F91F840F00CFA05F562EA05021CBFAB
:104B100063EA050362464FF00004A9E7F0B5ADF57E
:104B2000057D04AD00930F4613464FF4007403AAAD
:104B300029460394064600F015FD88B10446024656
:104B40003946039B304600F029F8AC42039004D06C
:104B50003046214600F0AAF803980DF5057DF0BD1A
:104B60004FF0FF30F9E700BF10B4044C13460A467B
:104B7000014620685DF8044BFFF7D0BF380CFF1FDB
:104B800021B1FF2A04D80A700120704708467047F7
:104B90008A2303604FF0FF30704700BF70B50D46A9
:104BA000084C114606461A46284600232360FEF7A5
:104BB0000FFA431C00D070BD2368002BFBD033607C
:104BC00070BD00BF803CFF1F024B13B1024800F0D4
:104BD00005B8704700000000E94B000000230146C3
:104BE0001A46184600F0EEBC38B5074D074C2C1B92
:104BF000A41005D0013C55F8043D9847002CF9D18C
:104C0000BDE8384003F0FCBB0000000000000000DD
:104C1000F8B5234F0C460646FFF706FDBB685D68F6
:104C200025F00305291B01F6EF7121F47F6121F0C6
:104C30000F01A1F58054B4F5805F07DB00213046F9
:104C4000FFF7E6FEBB682B44984204D03046FFF7DE
:104C5000EDFC0020F8BD61423046FFF7D9FE01307F
:104C60000DD0104BBA6819682D1B45F00105304670
:104C7000091B55601960FFF7D9FC0120F8BD002120
:104C80003046FFF7C5FEBA68831A0F2BDEDD064CEF
:104C90000449246843F00103001B53600860D5E712
:104CA000A80DFF1F443CFF1FB411FF1F002945D072
:104CB0002DE9F0410D468046FFF7B6FC55F8047C1F
:104CC0006A4927F00103A5F10804E2188E685068CC
:104CD000B24220F0030062D0FE0750600BD455F8BA
:104CE000087CE41B01F1080EA56875453B446FD0B4
:104CF000E768EF60BD6015186D68ED0742D543F0B9
:104D000001026260E350B3F5007F18D2DB085A1C41
:104D10004D6851F83270A76001209B1000FA03F330
:104D200001EBC2001D430838E0604D6041F832409D
:104D3000FC604046BDE8F041FFF778BC70475A0A76
:104D4000042A53D89A0902F139077F0002F1380585
:104D500001EB870051F827204449083890424DD094
:104D6000516821F003018B4202D292689042F7D140
:104D7000D068E060A2608460D4604046BDE8F04145
:104D8000FFF754BC95683A4FBD4203443FD0D0680A
:104D9000E86043F0010285606260E350B3E7FF071B
:104DA000034407D455F8082CA41A1344A068E268F9
:104DB000C26090602F4A126843F001009342606025
:104DC0008C60B6D32C4B40461968FFF721FFB0E743
:104DD00011184968C90744D49168D268CA6003446D
:104DE00043F0010091606060E350A2E7142A17D8F5
:104DF00002F15C077F0002F15B05A9E7AA104B688E
:104E0000012505FA02F213434B600246B1E743F075
:104E100001024C610C61E560A5606260E35088E7C7
:104E2000542A06D81A0B02F16F077F0002F16E05B3
:104E30008EE7B2F5AA7F06D8DA0B02F178077F0079
:104E400002F1770584E740F25450824206D89A0C6A
:104E500002F17D077F0002F17C0579E7FE277E25C0
:104E600076E743F001026260E35062E7A80DFF1F9E
:104E7000B00DFF1FB011FF1F403CFF1F044A054B40
:104E80001268506B002808BF1846F030704700BF0A
:104E9000380CFF1F3C0CFF1FFFFFFFFFFFFFFFFF52
:104EA00001F0FF01102A2BDB10F0070F08D010F8DB
:104EB000013B013A8B422DD010F0070F42B3F6D1DF
:104EC000F0B441EA012141EA014122F007047FF0F8
:104ED00000070023F0E80256083C85EA010586EA4F
:104EE000010685FA47F5A3FA87F586FA47F6A5FA8B
:104EF00087F68EB9EED1F0BC01F0FF0102F0070297
:104F000032B110F8013B013A83EA010313B1F8D141
:104F10000020704701387047002D06BF3546033822
:104F2000073815F0010F07D1013015F4807F02BF5B
:104F3000013015F4C03F0130F0BC0138704700BFAC
:104F4000C36C70B505460C464BB153F8240080B1D4
:104F5000026843F8242000230361C36070BD21224E
:104F6000042100F081FBE86403460028EDD1002015
:104F700070BD012101FA04F6721D2846920000F06E
:104F800073FB0028F3D044608660E4E731B1C36C62
:104F90004A6853F82200086043F82210704700BFA7
:104FA000F0B50C6983B00D46064601F1140E0027DA
:104FB000DEF8000081B202FB01310B0C000C02FB99
:104FC000003389B2013701EB0341BC424EF8041BA8
:104FD0004FEA1343ECDC3BB1AA68944207DA05EBD5
:104FE0008402013453612C61284603B0F0BD696826
:104FF000019301313046FFF7A3FF2A69023205F120
:105000000C01074692000C30FCF7B4FDF26C6968A5
:10501000019B52F82100286042F821503D46DEE70E
:10502000030C1B04B3B90004102310F07F4F04BF1E
:105030000002083310F0704F04BF0001043310F079
:10504000404F04BF80000233002807DB420003D436
:10505000202070470023E8E7581C70471846704727
:10506000036813F0070207D0D90720D49A0720D489
:105070009B0803600220704799B209B91B0C1022EB
:1050800013F0FF0F04BF1B0A0832190704BF1B09E6
:105090000432990704BF9B080232D90704D45B0885
:1050A00001D1202070470132036010467047002074
:1050B00070475B0803600120704700BF10B50C46C5
:1050C0000121FFF73DFF01224461026110BD00BFD5
:1050D0002DE9F04F0D691769BD4283B00C461646A5
:1050E00004DA2A4634463D460E461746A3686168F0
:1050F00005EB07089845C8BF0131FFF721FF00F114
:10510000140C0CEB8809CC45009005D263460021B5
:1051100043F8041B9945FBD806F1140202EB870AF9
:1051200004F11403524503EB850E54D2CDF80490DC
:10513000994652F8043B1FFA83FBBBF1000F20D0C5
:1051400000204F466646054600E01E4657F8044BD1
:105150003068A1B283B20BFB0131240C000C4B1957
:105160000BFB040000EB134099B2334641EA0041C7
:10517000BE454FEA104543F8041BE6D8756052F867
:10518000043C5FEA134B20D0DCF800306746184639
:105190004D46002100E037462C88000C0BFB040034
:1051A00001449CB23E4644EA014346F8043B786819
:1051B00055F8044B83B2240C0BFB043404EB11436D
:1051C000AE454FEA1341E6D87B6092450CF1040CE2
:1051D000AFD8DDF80490B8F1000F0BDD59F8043CAE
:1051E000A9F104091BB105E059F8043D13B9B8F160
:1051F0000108F9D10098C0F8108003B0BDE8F08F25
:1052000012F003032DE9F041144607462ED10E4655
:10521000A4101CD0BD6C95B3E3074FF0000806D472
:10522000641014D02868A8B10546E307F8D52A46CB
:1052300031463846FFF74CFFB6B17268FB6C64101C
:1052400053F82210316043F822600646EAD1304616
:10525000BDE8F0812A4629463846FFF739FF286025
:10526000C0F800800546E0E70646D9E75A1E0B4D18
:10527000002355F82220FFF793FE0646C8E70121D8
:105280003846FFF75DFE40F27121012200234161A3
:1052900002610546B8640360BEE700BF6883000092
:1052A0002DE9F04791460A698B684FEA691404EBCF
:1052B000020808F101059D420E468246496804DD58
:1052C0005B009D4201F10101FADC5046FFF738FE18
:1052D000002C00F1140238DD02EB8403002142F8B7
:1052E000041B9342FBD1346906F1140119F01F0924
:1052F00001EB840E21D0C9F1200200240F6807FAC7
:1053000009FC4CEA04049C4643F8044B51F8044B56
:105310008E4524FA02F4F1D8CCF804400CB108F11F
:105320000205DAF84C307268013D53F8221005612D
:10533000316043F82260BDE8F087043B51F8042B4C
:1053400043F8042F8E45F9D8EBE71346CBE700BFAF
:1053500002690B69D21A13D19B001430143119441D
:1053600010B4034401E098420CD253F8044D51F8B4
:10537000042D9442F7D009D301205DF8044B704707
:105380001046704700205DF8044B70474FF0FF3027
:10539000F3E700BF2DE9F8430B690F4611695B1A6B
:1053A000002B904617D1890007F1140208F114056B
:1053B0005318294401E09A425ED253F8046D51F823
:1053C000044DA642F7D060D23B46144647464FF004
:1053D0000109984606E05DDB07F1140502F11404AB
:1053E0004FF000097968FFF7ABFDD8F810303E693F
:1053F000C0F80C9004EB830CA64605EB860700F181
:10540000140400235EF8041B55F8048B8AB213FAC7
:1054100088F3090C9A1AC1EB184303EB224392B2AA
:1054200042EA0342F44544F8042B4FEA2343E9D807
:10543000AF4217D9A446294651F804EB13FA8EF26D
:10544000131403EB1E4392B242EA03428F424CF81C
:10545000042B4FEA2343EFD8ED433D4425F00305E9
:1054600004352C44043C22B954F8043D013E002B81
:10547000FAD00661BDE8F8830021FFF761FD012243
:10548000002302614361BDE8F8832C464FF0000918
:105490001546A7E73B4607F1140408F114054746F3
:1054A0004FF0010998469DE72DE9F04357EC106B4A
:1054B00083B0884601213C46C7F30A551746FFF7DB
:1054C0003FFDC4F3130481460DB144F480140194EC
:1054D0001EB302A840F8086DFFF7C2FD002834D1C2
:1054E0009DE80C00C9F81420002B0CBF01210221FB
:1054F000C9F81830C9F81010DDB909EB8103A0F222
:105500003240C8F800001869FFF78AFDC0EB41106F
:105510003860484603B0BDE8F08301A8FFF7A0FD5E
:10552000019BC9F8143001212030C9F81010002D5A
:10553000E3D0A5F233450544C0F13500C8F800506A
:105540003860484603B0BDE8F0839DE80C00C0F128
:10555000200103FA01F10A43C3400193C9F8142062
:10556000C2E700BF70B515469AB0146809B1002CA7
:105570001AD100244FF42272ADF80C200094049448
:105580001A464FF6FF761E9B029469460594ADF8C5
:105590000E6001F049F8002811DB009B2860002212
:1055A0001A7004981AB070BD4FF4C1620091049152
:1055B000ADF80C20E4DA8B2303600020F2E7002032
:1055C000F0E700BF2DE9F047254C2568D5F84841A4
:1055D0000646884692469946C4B360681F2817DC81
:1055E000431C76B104EB80050122C5F888A0D4F8ED
:1055F000881182401143022EC4F88811C5F8089121
:105600001ED00230636044F820800020BDE8F0879F
:10561000144B03B34FF4C870FEF77EFC0446D0B1C0
:10562000D5F84831002780E88800C5F84841384659
:105630000123C4F88871C4F88C71002EE1D0D1E741
:10564000D4F88C110A43C4F88C21DAE705F5A67466
:10565000C5F84841C1E74FF0FF30BDE8F08700BF13
:105660005C810000193F000010B502FB01F1FEF75C
:105670005BFC0446D8B150F8042C22F00302043A33
:10568000242A18D8132A14D900231B2A0360436044
:1056900016D9242A8360C36011BF00F11002036190
:1056A000436100F1180200231360536093602046A9
:1056B00010BD0246F7E70021FEF768FF204610BD47
:1056C00000F10802EFE700BF02690B69934200F3A3
:1056D0008D802DE9F04F03F1FF3801F1140700F13F
:1056E000140B57F828205BF828304FEA880483B061
:1056F0000132B3FBF2F90BEB0403009407EB040A4D
:105700000193B9F1000F39D00025BC46DE462B4687
:105710005CF8046BDEF80020B4B209FB0455360CCB
:105720002C0C09FB0644ADB25B1BA6B213FA82F344
:10573000C6EB124606EB23469BB243EA0643E2451C
:105740004EF8043B4FEA14454FEA2643E0D2009B53
:105750005BF8033093B9019C231F9B450CD254F88E
:10576000043C4BB9A4F1080302E01A68043B1AB9DF
:105770009B4508F1FF38F8D3C0F810800446FFF7C6
:10578000E7FD00282EDB09F101095D46002357F8EB
:10579000041B28688AB29A1A090C12FA80F2C1EB2B
:1057A000104303EB224391B241EA0341BA4545F865
:1057B000041B4FEA2343EAD25BF828200BEB880353
:1057C00082B91A1F93450BD253F8042C42B9083BF7
:1057D00002E01A68043B1AB99B4508F1FF38F8D378
:1057E000C4F81080484603B0BDE8F08F0020704731
:1057F0002DE9F04F57EC106B9BB0046C249D009189
:1058000081460592039310EE10AABB4654B1426C38
:10581000626001239340A3602146FFF7B7FB00239A
:10582000C9F84030BBF1000F5C4634DB00232B602D
:10583000A14B1A462340934216D000220023504623
:105840005946FEF767F956465F46804648B3039AC5
:1058500001231360259B002B00F0BE809748186041
:1058600001381BB0BDE8F08F039A42F20F7313604A
:10587000BAF1000F00F09A809148259B002BF0D0E0
:10588000C378002B00F0AA8000F10803259A13606A
:105890001BB0BDE8F08F01232BF000442B60A34622
:1058A000C6E718AA19A947EC106B4846FFF7FCFD9C
:1058B000250D0A9040F08380189D199E2E4406F213
:1058C0003243202B40F38882C3F1400306F212409A
:1058D0009C402AFA00F02043FDF73EFE0123741E8F
:1058E000A1F1F8710F930022764BFDF7F7FC6CA342
:1058F000D3E90023FDF7A6FE6BA3D3E90023FDF750
:10590000EFFC064620460F46FDF736FE68A3D3E9B6
:105910000023FDF797FE02460B4630463946FDF759
:10592000DFFC06460F4602F071FA002204900023C5
:1059300030463946FEF7F8F8002840F02882049EE9
:10594000162E00F22182604B03EBC603D3E900015F
:1059500052465B46FEF706F9002800F04282731EAD
:10596000049300230D932D1BB5F1010800F12A8249
:1059700000230793049B002BC0F21B8298440C93D6
:1059800000230693009B092B2AD8052B40F344865D
:10599000043B00930026009B023B032B00F223866E
:1059A000DFE813F02B03240236035004444B474A2C
:1059B000C4F31300002814BF184610465DE7CBF36C
:1059C000130343F07F51A5F2FF345046CDF83C80DD
:1059D00041F44011189D86E73D4842E7C31C55E756
:1059E0000021C9F8441048460C460091FFF7A8FA78
:1059F0004FF0FF3308930E9301230990C9F840003C
:105A000005940B93199B002BC0F2D080049A0E2AA8
:105A100000F3CC802C4B03EBC20393ED007B059B82
:105A2000002B8DED007BC0F2FE8256465F46DDE91D
:105A300000AB304652465B463946FDF72DFF02F07B
:105A4000E5F90446FDF798FD52465B46FDF7FAFD81
:105A50000B46024639463046FDF740FC099D04F1ED
:105A600030032B70089B012B06460F4605F10105FC
:105A700061D00022174BFDF7E5FD0022002306460A
:105A80000F46FEF747F800287DD1CDF81490DDF8D9
:105A900020A0DDF824B0DDE9008928E0AFF3008024
:105AA00061436F63A787D23FB3C8608B288AC63F24
:105AB000FB799F501344D33F0000F07F85830000A3
:105AC000808300000000F83F7882000074830000AB
:105AD0008483000000002440FDF7B4FD0022002371
