:1000000000000320D1010000D14D00008D4D000003
:100010008D4D00008D4D00008D4D00008D4D000078
:100020008D4D00008D4D00008D4D0000D14D000024
:10003000D14D00008D4D0000A55F0000A95F0000BC
:10004000D14D0000D14D0000D14D0000D14D000038
:10005000D14D0000D14D0000D14D0000D14D000028
:10006000D14D0000D14D0000D14D0000D14D000018
:10007000D14D0000D14D0000D14D0000D14D000008
:10008000D14D0000D14D0000D14D0000D14D0000F8
:10009000D14D0000D14D0000D14D0000D14D0000E8
:1000A000D14D0000D14D0000D14D0000D14D0000D8
:1000B000D14D0000D14D0000D14D0000D14D0000C8
:1000C000D14D0000D14D0000D14D0000D14D0000B8
:1000D000D14D0000D14D0000D14D0000D14D0000A8
:1000E000D14D0000D14D0000D14D0000D14D000098
:1000F000D14D0000D14D0000D14D0000D14D000088
:10010000D14D0000D14D0000D14D0000D14D000077
:10011000D14D0000AD520000D14D0000D14D000086
:10012000D14D0000D14D0000D14D0000D14D000057
:10013000D14D0000D14D0000D14D0000D14D000047
:10014000D14D0000D14D0000D14D0000D14D000037
:10015000D14D0000D14D0000D14D0000D14D000027
:10016000D14D0000D14D0000D14D0000D14D000017
:10017000D14D0000D14D0000D14D0000D14D000007
:10018000D14D0000D14D0000D14D0000D14D0000F7
:10019000D14D0000D14D0000D14D0000D14D0000E7
:1001A000D14D0000D14D0000D14D0000D14D0000D7
:1001B000D14D0000D14D0000D14D0000D14D0000C7
:1001C000D14D0000D14D0000D14D0000D14D0000B7
:1001D0005F4B4CF2205210B5DA814DF62812DA81CD
:1001E00000BF00BF04F0F8FD5A4B4FF030621A63B5
:1001F000594A9A63594ADA634FF0E0234FF4700288
:10020000C3F8882D03F5E823554A1A60554B9A78B0
:10021000110703D59A7842F008029A70524B53485E
:10022000AA221A70524BDA1C121AC11E22F00302C3
:10023000994288BF00224F4904F0D4FC4E4B4F48EE
:10024000DA1C121AC11E22F00302994288BF002252
:10025000002107F073FA4A494A484FF4E87204F063
:10026000C1FC494B494A802103F8011B9342FBD151
:100270004FF0E023434AC3F8082D454B8A221A70F9
:10028000A3F5805324225A70A0221A709A799207FB
:10029000FCD59A79D406FCD43E4A937903F00C033A
:1002A000082BFAD1304B60225A70DA78802AFCD1C0
:1002B000384B01221A715D225A719A799006FCD549
:1002C0009A795106FCD5234A33495164002191643F
:1002D000202119702F498B7903F00C030C2BFAD1D4
:1002E0002E4B53602E4A136913F4807303D153616C
:1002F0004FF4A85313614FF0E0232A4A5A610022B9
:100300009A6107221A61284AC3F8202D62B604F0C8
:10031000FFFD234B5B69DA0705D5244804F0ECFDAB
:10032000234B244ADA61244B1B785B0609D5204C09
:10033000204BE2699A4204D11C4804F0DDFD002301
:10034000E36104F04FFD07F0EFFA04F043FCFEE731
:100350000020054000800440823F04000100002B83
:100360000300008500D0074000E007403007FF1F72
:10037000E00EFF1F48DB0000E066FF1FE00EFF1FDE
:10038000000000000002FF1F00E400E064E400E061
:10039000005006400040064000000602C010070062
:1003A00000D003401FBF02000000202034AAE464F4
:1003B00000E00340A5C3945A00F00740FFFFFFFF91
:1003C000FFFFFFFFFFFFFFFFFFFFFFFFFFFFFFFF3D
:1003D000FFFFFFFFFFFFFFFFFFFFFFFFFFFFFFFF2D
:1003E000FFFFFFFFFFFFFFFFFFFFFFFFFFFFFFFF1D
:1003F000FFFFFFFFFFFFFFFFFFFFFFFFFFFFFFFF0D
:10040000FFFFFFFFFFFFFFFFFFFFFFFFDEF9FFFF23
:100410000548064B1B1AD90F01EBA301491002D066
:10042000034B03B118477047E00EFF1FE00EFF1F9C
:100430000000000008B5054B1BB105490548AFF3A6
:100440000080BDE80840FFF7E3BF00BF00000000E8
:10045000E00EFF1F48DB000000207047034B1868C8
:1004600010B103681B681847704700BF6861FF1F21
:10047000034B186810B103681B681847704700BF2A
:100480006C61FF1F054A0649137801200344DBB263
:10049000032B88BF00230870137070474C07FF1FA1
:1004A0004461FF1F014B01221A707047040FFF1FA8
:1004B000014B00221A707047040FFF1F00F5005017
:1004C0002DE9F04196464A4AC0F81019146813689D
:1004D000484DB5FBF1F043F0A043B5FBF0F590B00B
:1004E0004D1B04F0807413601368DE01FCD50528F1
:1004F0004FF0000C22D93F4E63465A1C0233B0FB2A
:10050000F3F7192F07FB03F30FD8B6FBF3F3CB1A5E
:10051000002BB8BF5B42AB4209DA1D4694460B2F55
:1005200006D9122F9CBF1D4694461346E5E7F6D028
:10053000052FFAD80CF10103B0FBF3F005381428AD
:1005400048D8B5F5967F45DC00EB40002A4FDFF830
:10055000A08000F140030DEB03050FCF6E460FC6E0
:100560000FCF0FC60FCF0FC697E80F0007C626F8AC
:10057000023B1B0C337015F83F3C15F83E2C15F868
:10058000401CDB04120402F4E02203F46013134362
:1005900001F00702134343F4800343EA0C6343F47E
:1005A0008043C8F80430D8F80430BEF1020F14BFFD
:1005B00023F0080343F00803C8F804303CB90C4AA0
:1005C000136823F0805313601368DB01FCD410B070
:1005D000BDE8F081002CFAD1054A136823F080535E
:1005E00013601368D901FCD410B0BDE8F08100BFDE
:1005F00000400A400024F4002CD4000000F5005014
:100600002DE9F04196464A4AC0F81019146813685B
:10061000484DB5FBF1F043F0A043B5FBF0F590B0C9
:100620004D1B04F0807413601368DE01FCD50528AF
:100630004FF0000C22D93F4E63465A1C0233B0FBE8
:10064000F3F7192F07FB03F30FD8B6FBF3F3CB1A1D
:10065000002BB8BF5B42AB4209DA1D4694460B2F14
:1006600006D9122F9CBF1D4694461346E5E7F6D0E7
:10067000052FFAD80CF10103B0FBF3F0053814286C
:1006800048D8B5F5967F45DC00EB40002A4FDFF8EF
:10069000A08000F140030DEB03050FCF6E460FC69F
:1006A0000FCF0FC60FCF0FC697E80F0007C626F86B
:1006B000023B1B0C337015F83F3C15F83E2C15F827
:1006C000401CDB04120402F4E02203F46013134321
:1006D00001F00702134343F4800343EA0C6343F43D
:1006E0008043C8F80430D8F80430BEF1020F14BFBC
:1006F00023F0080343F00803C8F804303CB90C4A5F
:10070000136823F0805313601368DB01FCD410B02E
:10071000BDE8F081002CFAD1054A136823F080531C
:1007200013601368D901FCD410B0BDE8F08100BF9C
:10073000004002400024F4002CD400000020704748
:100740000020704708207047002070470020704745
:100750000820704700B583B004F0CAFC064B074A76
:100760001B680193019B0649A2FB032308609809BB
:10077000002103B05DF804FB8C62FF1FD34D6210B3
:10078000F461FF1F10490B68486B0A68496B02F05F
:100790007F02C1F3036101320431B2EB410F10D388
:1007A00003F07F03C0F30360053B0130A3EB40037C
:1007B000DBB2054A106800F07F000130C01AC0B2F9
:1007C00070470023F5E700BF0040024010490B6866
:1007D000486B0A68496B02F07F02C1F30361013282
:1007E0000431B2EB410F10D303F07F03C0F3036079
:1007F000053B0130A3EB4003DBB2054A106800F073
:100800007F000130C01AC0B270470023F5E700BF77
:1008100000400A40624A2DE9F0411468136843F031
:10082000A04304F0807413601368DD01FCD51168E7
:10083000DFF874C15B4F5A4E002321F00051116064
:1008400093621268194603EB0C02DD191201AD0028
:10085000D16091605160116029603268013302F00B
:100860007F02DBB201329342EDD3B1643161336B6D
:100870003363336800284BD1DFF82C81484E494F51
:10088000054619E0336803F07F030133B0EB930FA3
:1008900034BF4FF080634FF08C631360736BC3F30E
:1008A00000439B070B603368013503F07F03EDB213
:1008B00001339D42284620D2336803F07F03013381
:1008C000E91905EB0802B0EB530F4FEA81014FEA3B
:1008D0000212D7D34FF00063136033689A0003D538
:1008E000FFF750FFA842DED801231F2D03FA05F3BE
:1008F0004CD8B26A1343B362D5E73CB9284A1368AF
:1009000023F0805313601368DB01FCD4BDE8F08151
:1009100043F000533360356815F000553ED0FFF7C3
:1009200031FF336803F07F03013383420546E4D986
:100930001D4FDFF86C804FF000660DE0D8F82820DE
:100940001343C8F82830D8F80030013503F07F038E
:10095000EDB201339D42D0D2EB191B011E60D8F8D5
:100960000030990003D5FFF70DFF8542EBD301233B
:100970001F2D03FA05F3E1D9D8F824200123A5F1AE
:1009800020018B401343C8F82430DCE7726AA5F1DC
:10099000200101238B401343736284E73368C7E768
:1009A000004002402092001008240004624A2DE911
:1009B000F0411468136843F0A04304F0807413609E
:1009C0001368DD01FCD51168DFF874C15B4F5A4E26
:1009D000002321F00051116093621268194603EB65
:1009E0000C02DD191201AD00D160916051601160FF
:1009F00029603268013302F07F02DBB20132934298
:100A0000EDD3B1643161336B3363336800284BD16C
:100A1000DFF82C81484E494F054619E0336803F052
:100A20007F030133B0EB930F34BF4FF080634FF07F
:100A30008C631360736BC3F300439B070B603368D5
:100A4000013503F07F03EDB201339D42284620D2E9
:100A5000336803F07F030133E91905EB0802B0EBBB
:100A6000530F4FEA81014FEA0212D7D34FF00063D0
:100A7000136033689A0003D5FFF7A8FEA842DED8BA
:100A800001231F2D03FA05F34CD8B26A1343B36256
:100A9000D5E73CB9284A136823F0805313601368E4
:100AA000DB01FCD4BDE8F08143F0005333603568CE
:100AB00015F000553ED0FFF789FE336803F07F0341
:100AC000013383420546E4D91D4FDFF86C804FF0B7
:100AD00000660DE0D8F828201343C8F82830D8F86D
:100AE0000030013503F07F03EDB201339D42D0D2D7
:100AF000EB191B011E60D8F80030990003D5FFF7F1
:100B000065FE8542EBD301231F2D03FA05F3E1D9DE
:100B1000D8F824200123A5F120018B401343C8F805
:100B20002430DCE7726AA5F1200101238B401343D6
:100B3000736284E73368C7E700400A4020920210DE
:100B400008A40004FFFFFFFF2DE9F0412C4B0546F0
:100B50000C4693E8030086B004908DF8141003F05F
:100B600067FE0746884604F0C3FA264B1B68C01A86
:100B700005F006FC20A3D3E9002305F0A5FD0246FD
:100B800038460F464146164605F046FC02460B46DF
:100B90003046394605F0B8FA02460B461CBB3021F8
:100BA0008DF81310E87A2968029004A8019100904A
:100BB0001549164803F0F6FFEB7A73B10024144F81
:100BC000124E23462B4439461A7B304603F0EAFF87
:100BD0000134EA7AE3B29A42F4D80C4803F0CAFF2F
:100BE00006B0BDE8F081012C04BF31218DF813104F
:100BF000D8E700BFAFF300800000000080842E41E2
:100C00005CD00000F461FF1F3CD000007007FF1FA4
:100C100054D0000010B40B490B4A0B680B4C013345
:100C200083B00B6013782468019483F00103019C66
:100C30001370074B00211C6003B05DF8044BFFF7F5
:100C400083BF00BF5061FF1F4C61FF1F8C62FF1FFD
:100C50005861FF1F10B40A490A4A0B680A4C013355
:100C600083B00B6013782468019401214B40019CF0
:100C70001370064B1C6003B05DF8044BFFF764BFB4
:100C80005461FF1F6461FF1F8C62FF1F5C61FF1FC7
:100C900038B5002300F5005543608360C3600361ED
:100CA000414A5E210123C5F80C1985F815391378DE
:100CB0003E4943F0800313700A6B3D4B42F0100233
:100CC0000A635A6801F5A0414FF4007022F4005203
:100CD0005A60086648661A683649374822F000426A
:100CE0001A601A68C1F8B80142F0A0421A601A6886
:100CF000D201FCD559682E4A41F0080159601968A3
:100D000041F0804119601368DC02FCD41368284963
:100D100043F0007313600B689801FCD4244C2368E3
:100D2000DA01FCD5236843F400332360236843F4DD
:100D300080332360236843F480532360236843F4A3
:100D400000532360236843F480032360236843F443
:100D500000232360236823F408432360636B43F478
:100D6000E0236363236843F400132360236843F0A4
:100D7000806323600020FFF719FE23680C4A23F0EC
:100D8000805323601368DB01FCD4D5F80C29530988
:100D900003F13823403301219B0002F01F0201FAC6
:100DA00002F21A6038BD00BF0050064000800440C7
:100DB00000400A400002FF1F7104000038B500F532
:100DC00000550023614943604B228360C360036187
:100DD000C5F80C2985F815390A785D4842F080027B
:100DE0000A70C26BA1F5822142F01002C2634A6808
:100DF000584822F400524A60574A5849C2F86C11C8
:100E00000278002A40F08480554B9A6CB2F5007F3E
:100E100004BF00229A64534B4FF400721A63524B82
:100E20001A78002A00F085804E4A516B00297FD045
:100E300000211970536BB3F5007F494B08BF516314
:100E40004FF40072DA64494A136823F000431360D8
:100E5000136843F0A04313601368DC01FCD55368AA
:100E6000424943F008035360136843F08043136022
:100E70000B68D802FCD40B683C4A43F000730B604B
:100E800013689901FCD4394C2368DA01FCD5236836
:100E900043F400332360236843F4803323602368E2
:100EA00043F480532360236843F400532360236892
:100EB00043F480032360236843F400232360236802
:100EC00023F408432360636B43F4E02363632368E4
:100ED00043F400132360236843F080632360002001
:100EE000FFF798FC2368214A23F08053236013689E
:100EF000DB01FCD4D5F80C29530903F13823403326
:100F000001219B0002F01F0201FA02F21A6038BDB3
:100F1000144A116B09B9017076E7116B0370B1F5D2
:100F2000007F08BF13630E4B4FF400729A6476E79C
:100F300019700B4BDA6CB2F5007F04BF0022DA6443
:100F4000084B4FF400725A637DE700BF0050064023
:100F5000008004403107FF1F0002FF1F5D040000F6
:100F600000A00440009004403007FF1F00400240F2
:100F700000F5805CBCF8D43C9BB20BB918467047B6
:100F80002DE9F04100F500571646D7F80C29530912
:100F900003F1382360339B000C4602F01F0201214D
:100FA00001FA02F21A60BCF8D43C9BB22BB1BCF837
:100FB000D43C013B9BB2ACF8D43CBCF8D03C03F031
:100FC0000F030CEB8303D3F8D85CBCF8D03C01339F
:100FD00003F01F03ACF8D03CBCF89C3DA5639BB26A
:100FE0002BB1BCF89C3D013B9BB2ACF89C3DBCF8DE
:100FF000983D03F00F0300EB43000CEB430341F675
:101000009E51B3F89E2DBCF8983D30F80180013315
:1010100003F01F03ACF8983D614BA287614A2B4057
:10102000934298FA98F87CD0002B74D05E4A934291
:1010300000F0A9805D4A934200F0AB80C5F3C03355
:10104000A377C5F38033E377C5F3403384F82030CA
:10105000C5F3003384F82130C5F3C02384F822306F
:10106000C5F3802384F82330C5F3402384F824306B
:1010700015F0300FC5F3002384F8253004F1260560
:1010800016D14B490D22284603F0ACFDA4F834805C
:10109000BEB9D7F80C29530903F138234033012096
:1010A0009B0002F01F0200FA02F21A60BDE8F08114
:1010B00040490D22284606F093FBA4F83480002E08
:1010C000E7D00F213C4804F0CBFD204606F058FC49
:1010D0000146204604F0C4FDA37F002B4ED1E37FE0
:1010E000002B46D194F82030002B3DD194F82130CC
:1010F000ABBB94F822306BBB94F823302BBB94F835
:101100002530DBB994F824308BB92C492C482A4679
:1011100003F048FDBDE72B491D22204606F060FB89
:101120008CE729491D22204606F05AFB86E794F8F1
:1011300035202649224803F035FDE6E794F83420AF
:1011400023491F4803F02EFDDCE70921214804F064
:1011500087FDD4E70921204804F082FDCCE709216E
:101160001E4804F07DFDC4E709211D4804F078FD08
:10117000BCE70A211B4804F073FDB3E70A211A48B3
:1011800004F06EFDABE719491D22204606F028FB4E
:1011900054E717491D22204606F022FB4EE700BF08
:1011A000C80004008000040040000400080004009F
:1011B000A4D00000B4D0000034D1000024D100003D
:1011C0007007FF1F6CD0000064D0000014D1000035
:1011D00004D10000F8D00000ECD00000E0D0000006
:1011E000D4D00000C8D00000BCD0000088D00000DF
:1011F00098D000002DE9F04FDFF82CE1DFF82C81CA
:10120000DFF82C913F4C404E404DDFF828B1DFF81D
:1012100010A13F4FBEE80F0095B00DF1100CACE8E7
:101220000F00BEE80F00ACE80F00BEE80F00ACE80E
:101230000F009EE80F008CE80F0058F8041BC9F857
:10124000001000222846FFF7D9F92021584604F063
:1012500007FD00230A22D9F80010504603F0B0FC25
:1012600005212C4804F0FCFC504603F083FC236865
:101270000193019B1946316006E03B683BBBFFF7D9
:1012800077FE002838D1316823680393039B5B1AEB
:10129000B3F5C87F4FF0010204A92846EDD31E4BD9
:1012A0009845CAD121211D4804F0DAFC00230A2206
:1012B000D9F800101A4803F083FC0521154804F002
:1012C000CFFC174803F056FC15B0BDE8F08F26217F
:1012D000144804F0C5FC00230A22D9F80010104875
:1012E00003F06EFC05210B4804F0BAFC0C4803F037
:1012F00041FC15B0BDE8F08F236802930299A1F577
:10130000C871B8E78C62FF1F7462FF1F080FFF1FD0
:101310005061FF1F68D100004C07FF1F98D10000EB
:101320007007FF1F70D100006CD400003407FF1F4E
:101330002038FF1F44D1000000F5805CBCF8D43C8D
:101340009BB20BB9184670472DE9F04100F50057E4
:101350001646D7F80C29530903F1382360339B0054
:101360000C4602F01F02012101FA02F21A60BCF8D9
:10137000D43C9BB22BB1BCF8D43C013B9BB2ACF843
:10138000D43CBCF8D03C03F00F030CEB8303D3F840
:10139000D85CBCF8D03C013303F01F03ACF8D03C60
:1013A000BCF89C3DA5639BB22BB1BCF89C3D013BB6
:1013B0009BB2ACF89C3DBCF8983D03F00F0300EBEA
:1013C00043000CEB430341F69E51B3F89E2DBCF84D
:1013D000983D30F80180013303F01F03ACF8983DCD
:1013E000614BA287614A2B40934298FA98F87CD0CF
:1013F000002B74D05E4A934200F0A9805D4A93426C
:1014000000F0AB80C5F3C033A377C5F38033E37737
:10141000C5F3403384F82030C5F3003384F821301D
:10142000C5F3C02384F82230C5F3802384F8233029
:10143000C5F3402384F8243015F0300FC5F30023A2
:1014400084F8253004F1260516D14B490D22284693
:1014500003F0C8FBA4F83480BEB9D7F80C295309AF
:1014600003F13823403301209B0002F01F0200FAF1
:1014700002F21A60BDE8F08140490D22284606F0CC
:10148000AFF9A4F83480002EE7D00F213C4804F0D7
:10149000E7FB204606F074FA0146204604F0E0FB24
:1014A000A37F002B4ED1E37F002B46D194F8203050
:1014B000002B3DD194F82130ABBB94F822306BBBAC
:1014C00094F823302BBB94F82530DBB994F8243002
:1014D0008BB92C492C482A4603F064FBBDE72B4905
:1014E0001D22204606F07CF98CE729491D22204662
:1014F00006F076F986E794F835202649224803F06D
:1015000051FBE6E794F8342023491F4803F04AFBD7
:10151000DCE70921214804F0A3FBD4E70921204896
:1015200004F09EFBCCE709211E4804F099FBC4E7B8
:1015300009211D4804F094FBBCE70A211B4804F074
:101540008FFBB3E70A211A4804F08AFBABE719497D
:101550001D22204606F044F954E717491D22204673
:1015600006F03EF94EE700BFC8000400800004000A
:101570004000040008000400A4D00000B4D0000023
:1015800034D1000024D100007007FF1F6CD0000090
:1015900064D0000014D1000004D10000F8D0000095
:1015A000ECD00000E0D00000D4D00000C8D0000093
:1015B000BCD0000088D0000098D000002DE9F04F8A
:1015C000DFF82CE1DFF82C81DFF82C913F4C404E06
:1015D000404DDFF828B1DFF810A13F4FBEE80F0003
:1015E00095B00DF1100CACE80F00BEE80F00ACE8B0
:1015F0000F00BEE80F00ACE80F009EE80F008CE87B
:101600000F0058F8041BC9F8001000222846FEF706
:1016100055FF2021584604F023FB00230A22D9F865
:101620000010504603F0CCFA05212C4804F018FBBA
:10163000504603F09FFA23680193019B19463160DD
:1016400006E03B683BBBFFF777FE002838D13168E6
:1016500023680393039B5B1AB3F5C87F4FF0010225
:1016600004A92846EDD31E4B9845CAD121211D4817
:1016700004F0F6FA00230A22D9F800101A4803F001
:101680009FFA0521154804F0EBFA174803F072FAA7
:1016900015B0BDE8F08F2621144804F0E1FA0023CC
:1016A0000A22D9F80010104803F08AFA05210B48E5
:1016B00004F0D6FA0C4803F05DFA15B0BDE8F08FDF
:1016C000236802930299A1F5C871B8E78C62FF1FE5
:1016D0007462FF1F2438FF1F5461FF1F68D1000090
:1016E0004C07FF1F08D200007007FF1FE0D1000069
:1016F0006CD400003407FF1F3C61FF1FBCD1000009
:101700002DE9F84F6248634E634F644D03F0E6F8ED
:101710000120002103F0F0F801212A2003F0ACFCA5
:101720000121292003F0A8FC0121282003F0A4FCBA
:1017300000212A2003F068FC0021292003F064FC2A
:101740000021282003F060FC0121062003F094FC16
:101750000121052003F090FC01210E2003F08CFCF8
:101760000121272003F088FC4D4B01210024062095
:101770001970317039702C7003F046FC39780520EF
:1017800003F042FC3178474E0E2003F03DFC2978EF
:10179000272003F039FC02211C2003F06DFC424994
:1017A000424803F0F1F84249404803F0EFF841495C
:1017B0003E4803F0EDF84048FFF76AFA3F4B3168C6
:1017C0003D48196022463E4CFEF778FE236843F000
:1017D000A04323602368DA01FCD500202568FFF7C9
:1017E000E5F8236B2363236823F07F0323602368DA
:1017F00043F00F032360AB0000F1F184304C236809
:1018000023F0805323602368DF01FCD40120FFF71D
:10181000CDF823689D000AD5A36A980607D4A36A69
:1018200023F0FF03A362A36A43F02003A362244CC6
:10183000244A23682449C2F8041813F0005A40F0DF
:1018400043842248224D234FDFF88C801A2104F074
:1018500007FA2368544604EB05094FEA0919D9F839
:101860000030C3F303630E2B00F2C680DFE813F0F1
:101870009A0288027602C4005B02C4004902C400D6
:10188000370225021302C4003600C400010200BF63
:10189000550700004C61FF1F6461FF1F040FFF1F0D
:1018A0004461FF1F3407FF1F850400007061FF1FA4
:1018B000A5040000B10400002438FF1F3C61FF1F95
:1018C00000400A402458FF1F550C0000C8D30000F8
:1018D00008A400048C400A4080BFF5BF0421814861
:1018E00004F0BEF9002351460A227F4803F068F94C
:1018F0001D217E4804F0B4F9D9F80030990240F176
:101900007F847B48102104F0ABF9D9F808A0D9F8FE
:10191000043009EB080B23F060490721754804F0F7
:101920009FF90023102249466F4803F049F901212D
:10193000714804F095F90A21704804F091F90023E8
:1019400010224FEA1A61684803F03AF901216C4805
:1019500004F086F900231022CAF30741624803F01D
:101960002FF90121664804F07BF900231022CAF305
:1019700007215D4803F024F90121614804F070F962
:10198000002310225FFA8AF1574803F019F95BF837
:1019900007905B48012104F063F9002310224FEA0D
:1019A0001961514803F00CF90121554804F058F928
:1019B00000231022C9F307414B4803F001F901212C
:1019C0004F4804F04DF900231022C9F3072146487F
:1019D00003F0F6F801214A4804F042F95FFA89F170
:1019E00000231022404803F0EBF84348012104F0A3
:1019F00037F93D4803F0BEF8424B1B68013403F051
:101A00007F03E4B201339C42A246FFF424AF3E4878
:101A10003E4CFFF7D3F93E4B31683B48196000223A
:101A2000FEF7ECFD236843F0A04323602368DA014E
:101A3000FCD500202568FEF7EDFE236B23632368A9
:101A400023F07F032360236843F00F032360AB0080
:101A500000F1C1832D4C236823F080532360236859
:101A6000DF01FCD40120FEF7D5FE23689E000AD5D5
:101A7000A36A9D0607D4A36A23F0FF03A362A36AA7
:101A800043F02003A362214C224A23682249C2F872
:101A9000041813F0005940F06C822048204D214E6C
:101AA000214F1A2104F0DCF823684C4604EB0508AA
:101AB0004FEA0818D8F80030C3F303630E2B00F286
:101AC000C280DFE813F0440232022002C0000502A7
:101AD000C000F301C000B701A5019301C0003300AD
:101AE000C000810198D200007007FF1F58D300008A
:101AF00078D30000A0D30000D4D20000A8D3000007
:101B00003CD2000000400A40080FFF1F0040024086
:101B10002038FF1F082FFF1F150C0000C8D300003E
:101B2000082400048C40024080BFFDBF0421CA4845
:101B300004F096F8002349460A22C84803F040F80A
:101B4000C7481D2104F08CF8D8F800309B0240F102
:101B50004B83C448102104F083F8D8F80890D8F8D3
:101B60000430B84423F0604A0721BF4804F078F8F5
:101B7000002310225146B94803F022F80121BB4846
:101B800004F06EF80A21BA4804F06AF80023102223
:101B90004FEA1961B14803F013F80121B54804F088
:101BA0005FF800231022C9F30741AC4803F008F89E
:101BB0000121B04804F054F800231022C9F3072192
:101BC000A64802F0FDFF0121AA4804F049F80023CD
:101BD00010225FFA89F1A14802F0F2FF58F806805E
:101BE000A448012104F03CF8002310224FEA1861B8
:101BF0009A4802F0E5FF01219E4804F031F80023E5
:101C00001022C8F30741954802F0DAFF01219948F4
:101C100004F026F800231022C8F307218F4802F0B1
:101C2000CFFF0121934804F01BF85FFA88F10023ED
:101C300010228A4802F0C4FF8C48012104F010F8F9
:101C4000864802F097FF8C4B1B68013403F07F033A
:101C5000E4B201339C42A146FFF428AFFFF7CAFA71
:101C6000FFF7ACFC854B08220121DA72D971BDE87F
:101C7000F88F0421784803F0F3FF514600230A222D
:101C8000764802F09DFF11217D4803F0E9FF73487B
:101C900002F070FFB0E604216F4803F0E1FF514607
:101CA00000230A226D4802F08BFF1121754803F0D2
:101CB000D7FF6A4802F05EFF9EE60421664803F003
:101CC000CFFF514600230A22644802F079FF0F211A
:101CD0006D4803F0C5FF614802F04CFF8CE604211B
:101CE0005D4803F0BDFF514600230A225B4802F025
:101CF00067FF1221654803F0B3FF584802F03AFF2E
:101D00007AE60421544803F0ABFF514600230A222F
:101D1000524802F055FF11215D4803F0A1FF4F48E2
:101D200002F028FF68E604214B4803F099FF0A22DD
:101D300051460023494802F043FF0F21554803F064
:101D40008FFFD9F8003098024CBF534853481121F7
:101D500003F086FF414802F00DFF4DE604213E48A6
:101D600003F07EFF514600230A223C4802F028FF80
:101D70000E214B4803F074FF384802F0FBFE3BE6AF
:101D80000421354803F06CFF514600230A223348F2
:101D900002F016FF0E21434803F062FF2F4802F0C5
:101DA000E9FE29E604212C4803F05AFF514600239E
:101DB0000A222A4802F004FF12213B4803F050FF98
:101DC000264802F0D7FE17E60421234803F048FF17
:101DD000494600230A22214802F0F2FE1121284838
:101DE00003F03EFF1D4802F0C5FE2CE704211A480F
:101DF00003F036FF494600230A22184802F0E0FEAD
:101E00001121204803F02CFF144802F0B3FE1AE71A
:101E10000421114803F024FF494600230A220F48F9
:101E200002F0CEFE0F21184803F01AFF0B4802F013
:101E3000A1FE08E70421084803F012FF49460023E9
:101E40000A22064802F0BCFE1221104803F008FFE7
:101E5000024802F08FFEF6E698D200007007FF1FDE
:101E600058D3000078D30000A0D30000D4D20000E3
:101E7000A8D300003CD20000004002405007FF1FE2
:101E8000B4D3000010D3000048D3000034D30000C6
:101E9000FCD20000B4D20000C4D20000D8D20000AE
:101EA000ECD2000024D30000A0D20000042174482A
:101EB00003F0D6FE494600230A22724802F080FE53
:101EC0001121714803F0CCFE6E4802F053FEBAE6D1
:101ED00004216B4803F0C4FE0A22494600236948E6
:101EE00002F06EFE0F21694803F0BAFED8F8003008
:101EF0009A024CBF66486748112103F0B1FE614861
:101F000002F038FE9FE604215D4803F0A9FE494631
:101F100000230A225B4802F053FE0E215E4803F0C4
:101F20009FFE584802F026FE8DE60421544803F037
:101F300097FE494600230A22524802F041FE0E2134
:101F4000564803F08DFE4F4802F014FE7BE6042154
:101F50004B4803F085FE494600230A22494802F017
:101F60002FFE12214E4803F07BFE464802F002FE8F
:101F700069E611214B4803F073FEA36A9C064BBF30
:101F8000112112214848494803F06AFE3D4802F0F9
:101F9000F1FD1621464803F063FE464A1468516B72
:101FA0001368526B03F07F03C2F303620133043200
:101FB000B3EB420FC0F0148404F07F04C1F303615B
:101FC000053C0131A4EB4104E5B23A4E2D4831689D
:101FD00001F07F010131491BC9B22029A8BF20218E
:101FE00002F0C0FD274802F0C5FD1621324803F07B
:101FF00037FE3368726B234803F07F03C2F303623A
:1020000001330432B3EB420F38BF00244FF000031A
:1020100021464FF00A0238BF254602F0D1FD19488B
:1020200002F0A8FD234B1C681B6804F07F040134F8
:10203000641B03F07F03E4B20133A3427FF60EAECC
:102040001E4D1F4E1F4F04EB05084FEA0818D8F825
:102050000030C3F303630E2B00F2E282DFE813F0DB
:102060004F033D032B03E0021003E0029C03E00258
:102070006103AE03FE02E0025302E002EC0200BF85
:1020800098D200007007FF1FFCD20000B4D20000FD
:10209000C4D20000D8D20000ECD2000024D300004B
:1020A000A0D200002CD2000040D2000054D2000088
:1020B00068D200000040024080D2000008240004E2
:1020C0008C40024080BFFDBF1121C04803F0C8FD15
:1020D000A36A99064BBF11211221BD48BD4803F0E8
:1020E000BFFDBD4802F046FD1621BC4803F0B8FD17
:1020F000BB4A1468516B1368526B03F07F03C2F341
:10210000036201330432B3EB420FC0F0F98104F0F3
:102110007F04C1F30361053C0131A4EB4104E5B246
:10212000AF4FAD48396801F07F010131491BC9B299
:102130002029A8BF202102F015FDA74802F01AFDB2
:102140001621A84803F08CFD3B687A6BA24803F087
:102150007F03C2F3036201330432B3EB420F38BF93
:1021600000244FF0000321464FF00A0238BF2546F5
:1021700002F026FD984802F0FDFC994B1C681B6894
:1021800004F07F040134641B03F07F03E4B20133E5
:10219000A3427FF63CAC944D944FDFF8888204EB69
:1021A00005094FEA0919D9F80030C3F303630E2B70
:1021B00000F2C180DFE813F05C014A013801BF0082
:1021C000EF00BF008001BF006E019201DD00BF0083
:1021D0003200BF00CB000120FEF71CFB3AE40120D7
:1021E000FEF7E4FBFFF70ABB8148102103F038FD3E
:1021F000D8F80890D8F80430B844C3F38A4AB3E456
:102200007B48102103F02CFDD9F808A0D9F8043040
:1022100009EB080BC3F38A49FFF77FBB042175481C
:1022200003F01EFD00230A2221466B4802F0C8FC81
:1022300071481D2103F014FDD9F800309B0240F1D4
:10224000DF826E48102103F00BFDD9F808A0D9F801
:102250000430C14423F0604B0721694803F000FDBE
:102260000023102259465C4802F0AAFC012165486F
:1022700003F0F6FC0A21644803F0F2FC002310226C
:102280004FEA1A61544802F09BFC01215F4803F0B9
:10229000E7FC00231022CAF307414F4802F090FCEC
:1022A00001215A4803F0DCFC00231022CAF3072165
:1022B000494802F085FC0121544803F0D1FC002379
:1022C00010225FFA8AF1444802F07AFC59F807902C
:1022D0004E48012103F0C4FC002310224FEA19618B
:1022E0003D4802F06DFC0121484803F0B9FC002391
:1022F0001022C9F30741384802F062FC012143482B
:1023000003F0AEFC00231022C9F30721324802F08B
:1023100057FC01213D4803F0A3FC5FFA89F100233B
:1023200010222D4802F04CFC3648012103F098FCA5
:10233000294802F01FFC2A4B1B68013403F07F037D
:10234000E4B201339C42FFF42AAFFFF760BB0421E3
:10235000284803F085FC00230A2221461E4802F08B
:102360002FFC11212A4803F07BFC1B4802F002FCE1
:10237000E1E704211F4803F073FC00230A222146F1
:10238000154802F01DFC1121224803F069FC124897
:1023900002F0F0FBCFE70421164803F061FC0A22AB
:1023A000002321460C4802F00BFC0F211A4803F0D1
:1023B00057FCD9F800309A024CBF18481848112130
:1023C00003F04EFC044802F0D5FBB4E72CD2000029
:1023D00040D2000054D200007007FF1F68D20000F6
:1023E00000400A4080D2000008A400048C400A404B
:1023F0008CD3000098D2000058D3000078D300009E
:10240000A0D30000D4D20000A8D300003CD200002A
:10241000B4D3000010D30000B4D20000C4D2000036
:10242000D8D2000080BFF5BF0421C74803F018FCD4
:1024300000230A222146C54802F0C2FB0E21C448EF
:1024400003F00EFCC14802F095FB74E70421BE487E
:1024500003F006FC00230A222146BC4802F0B0FB30
:102460000E21BC4803F0FCFBB84802F083FB62E796
:102470000421B54803F0F4FB00230A222146B348A7
:1024800002F09EFB1221B44803F0EAFBAF4802F0D1
:1024900071FB50E70421AC4803F0E2FB00230A2261
:1024A0002146AA4802F08CFB1221AC4803F0D8FB6D
:1024B000A64802F05FFB3EE70421A34803F0D0FBEF
:1024C00000230A222146A14802F07AFB1121A448E8
:1024D00003F0C6FB9D4802F04DFB2CE704219A480F
:1024E00003F0BEFB00230A222146984802F068FB55
:1024F0000F219C4803F0B4FB944802F03BFB1AE721
:10250000002425460CE604218F4803F0A9FB002394
:102510000A2221468D4802F053FB1D21924803F008
:102520009FFBD8F80030990240F15E818F4810215E
:1025300003F096FBD8F80890D8F80430B84423F09C
:10254000604A07218A4803F08BFB00231022514682
:102550007E4802F035FB0121864803F081FB0A2109
:10256000854803F07DFB002310224FEA196177486C
:1025700002F026FB0121814803F072FB00231022A8
:10258000C9F30741714802F01BFB01217B4803F0AE
:1025900067FB00231022C9F307216C4802F010FBEF
:1025A0000121764803F05CFB002310225FFA89F1D9
:1025B000664802F005FB58F806807048012103F0D8
:1025C0004FFB002310224FEA1861604802F0F8FA2E
:1025D00001216A4803F044FB00231022C8F307419D
:1025E0005A4802F0EDFA0121644803F039FB002358
:1025F0001022C8F30721554802F0E2FA01215F4892
:1026000003F02EFB5FFA88F1002310224F4802F0FE
:10261000D7FA5848012103F023FB4C4802F0AAFAEC
:10262000574B1B68013403F07F03E4B201339C4233
:10263000FFF409ADFFF712BB0421434803F010FB80
:1026400000230A222146414802F0BAFA11214D48DE
:1026500003F006FB3D4802F08DFAE1E704213A4819
:1026600003F0FEFA00230A222146384802F0A8FAB5
:102670001121454803F0F4FA344802F07BFACFE721
:102680000421314803F0ECFA0A22002321462F48A6
:1026900002F096FA0F213D4803F0E2FAD8F8003034
:1026A00098024CBF3A483B48112103F0D9FA274819
:1026B00002F060FAB4E70421234803F0D1FA0023C2
:1026C0000A222146214802F07BFA0E21204803F01D
:1026D000C7FA1E4802F04EFAA2E704211A4803F096
:1026E000BFFA00230A222146184802F069FA0E2197
:1026F000184803F0B5FA154802F03CFA90E70421B7
:10270000114803F0ADFA00230A2221460F4802F0D7
:1027100057FA1221104803F0A3FA0C4802F02AFAE3
:102720007EE70421084803F09BFA00230A22214691
:10273000064802F045FA1221084803F091FA0348CE
:1027400002F018FA6CE700BF98D200007007FF1F74
:10275000ECD2000024D30000A0D2000034D300004B
:10276000FCD2000048D3000058D3000078D300000A
:10277000A0D30000D4D20000A8D300003CD20000B7
:1027800000400240B4D3000010D30000B4D20000D7
:10279000C4D20000D8D2000004211F4803F060FA20
:1027A00000230A2221461D4802F00AFA11211C4882
:1027B00003F056FA194802F0DDF931E70421164812
:1027C00003F04EFA00230A222146144802F0F8F9D9
:1027D0000F21144803F044FA104802F0CBF91FE728
:1027E00000242546FFF7F1BB0F48102103F038FA0B
:1027F000D8F80890D8F80430B844C3F38A4AA0E661
:102800000948102103F02CFAD9F808A0D9F80430AF
:10281000C144C3F38A4B1FE598D200007007FF1F25
:10282000FCD2000048D300008CD300001F2910B454
:102830001B4823D8046B01238B4023430363194BAC
:10284000D0790B441B014FF000611960F8B110689A
:10285000117A20F060400905586041F4C001D06849
:102860005DF8044B00BA9860106900BAD860D27A5B
:1028700041EA024242F040621A607047C46AA1F124
:10288000200C012303FA0CF32343C362D7E7146837
:102890000548117A00EA844058600905DFE700BF67
:1028A00000400240082400040000FC1F1F2910B44F
:1028B0001B4823D8046B01238B4023430363194B2C
:1028C000D0790B441B014FF000611960F8B110681A
:1028D000117A20F060400905586041F4C001D068C9
:1028E0005DF8044B00BA9860106900BAD860D27ADB
:1028F00041EA024242F040621A607047C46AA1F1A4
:10290000200C012303FA0CF32343C362D7E71468B6
:102910000548117A00EA844058600905DFE700BFE6
:1029200000400A4008A400040000FC1F10B50B780A
:10293000632B044682B0104613D003F51C6304EBEE
:1029400083035B6813B101929847019804F5005422
:10295000D4F804381BB102B0BDE81040184702B0EB
:1029600010BD04F50054D4F80437002BF0D00192C8
:1029700098470198ECE700BF2DE9F04300F50057B8
:102980008FB097F80037044613B9012387F8003752
:10299000238B9BB2002B4FD1D7F80C29530903F19D
:1029A000382360339B0002F01F02012101FA02F27A
:1029B00004F580561A60B6F81E3B9BB223B3B6F8F6
:1029C0001A1B1A2301F00F0103FB014101F5D95134
:1029D0001231182208A808AD02F004F90FCD0DF14C
:1029E000080CACE80F0095E803008CE803009DF9A3
:1029F0001C104B1C4AD0534B0B441B011B68C3F3E8
:102A00000363082B00F08180D7F80C29530903F1E8
:102A1000382340339B00012102F01F0201FA02F229
:102A20001A60238BB6F81E0B9BB280B2002140EADD
:102A300003300FB0BDE8F083A18A1A23C9B203FBAB
:102A40000141182201F58E7108A802F0CBF8A38A83
:102A50000133C3F30803A382238B9BB21BB1238BE7
:102A6000013B9BB2238308AD0FCD02AE0FC695E8A4
:102A7000030086E8030002AA9DF81C308DF8073099
:102A80000DF107012046FFF751FF85E7DFF8B88019
:102A9000D8F8005015F0005550D0FDF773FED8F867
:102AA000003003F07F03013383420546ACD9DFF8E1
:102AB0009490DFF8948008E0D8F80030013503F0F6
:102AC0007F03EDB201339D429ED205EB09031B014A
:102AD0001B68C3F30363082BEED102AA29462046E4
:102AE000FFF7A4FEB6F81A3B013303F01F03A6F864
:102AF0001A3BB6F81E3B9BB2002BDDD0B6F81E3B4E
:102B0000013B9BB2A6F81E3BD6E702AAC9B22046FB
:102B1000FFF78CFEB6F81A3B013303F01F03A6F84B
:102B20001A3BB6F81E3B9BB2002B3FF46DAFB6F8D4
:102B30001E3B013B9BB2A6F81E3B65E7D8F8003070
:102B4000B5E700BF082400040040024010B50B7830
:102B5000632B044682B0104613D003F51C6304EBCC
:102B600083035B6813B101929847019804F5005400
:102B7000D4F804381BB102B0BDE81040184702B0C9
:102B800010BD04F50054D4F80437002BF0D00192A6
:102B900098470198ECE700BF2DE9F04300F5005796
:102BA0008FB097F80037044613B9012387F8003730
:102BB000238B9BB2002B4FD1D7F80C29530903F17B
:102BC000382360339B0002F01F02012101FA02F258
:102BD00004F580561A60B6F81E3B9BB223B3B6F8D4
:102BE0001A1B1A2301F00F0103FB014101F5D95112
:102BF0001231182208A808AD01F0F4FF0FCD0DF135
:102C0000080CACE80F0095E803008CE803009DF980
:102C10001C104B1C4AD0534B0B441B011B68C3F3C5
:102C20000363082B00F08180D7F80C29530903F1C6
:102C3000382340339B00012102F01F0201FA02F207
:102C40001A60238BB6F81E0B9BB280B2002140EABB
:102C500003300FB0BDE8F083A18A1A23C9B203FB89
:102C60000141182201F58E7108A801F0BBFFA38A6B
:102C70000133C3F30803A382238B9BB21BB1238BC5
:102C8000013B9BB2238308AD0FCD02AE0FC695E882
:102C9000030086E8030002AA9DF81C308DF8073077
:102CA0000DF107012046FFF751FF85E7DFF8B880F7
:102CB000D8F8005015F0005550D0FDF787FDD8F832
:102CC000003003F07F03013383420546ACD9DFF8BF
:102CD0009490DFF8948008E0D8F80030013503F0D4
:102CE0007F03EDB201339D429ED205EB09031B0128
:102CF0001B68C3F30363082BEED102AA29462046C2
:102D0000FFF7D4FDB6F81A3B013303F01F03A6F812
:102D10001A3BB6F81E3B9BB2002BDDD0B6F81E3B2B
:102D2000013B9BB2A6F81E3BD6E702AAC9B22046D9
:102D3000FFF7BCFDB6F81A3B013303F01F03A6F8FA
:102D40001A3BB6F81E3B9BB2002B3FF46DAFB6F8B2
:102D50001E3B013B9BB2A6F81E3B65E7D8F800304E
:102D6000B5E700BF08A4000400400A4043884FF0C4
:102D70001A0C03F00F030CFB030310B504460020EC
:102D80009875638803F00F030CFB0343DA756088C2
:102D900000F00F000CFB0040183004F053FC628878
:102DA00023889BB292B283F010039A4204D1238805
:102DB000013303F01F0323806388013303F01F03F3
:102DC0006380A3889BB20F2B03D8A38801339BB2E7
:102DD000A38010BDF0B58B7D4D4E8DB00D460446E1
:102DE000002B4BD1336813F0005C25D0FDF7EEFCCF
:102DF000336803F07F030133984284461ED245496D
:102E0000434807E0036803F07F035FFA82FC013365
:102E10009C4513D20CEB01031B010CF101021B6852
:102E2000C3F30363082BEDD120462A466146FFF722
:102E30003DFD01200DB0F0BD3368E0E70FCDEC465D
:102E4000ACE80F0095E803008CE803004FF0FF0E9C
:102E50008DF814E06F460FCF06AE0FC69CE8030056
:102E600086E80300182204F5D8500DEB02011A3051
:102E7000FFF77CFF4FF0FF300DB0F0BD306810F071
:102E8000005042D0FDF7A2FC336803F07F0301330A
:102E9000834229D91F4E1E4F05E03B6803F07F0394
:102EA0000133984220D283191B01411C1A68120178
:102EB0008446C8B2F1D51B68C3F30363082B1BD04B
:102EC0000FCD6E460FC695E8030086E80300EE4678
:102ED0008DF814C0BEE80F0006AF0FC796E80300D8
:102EE000182287E80300BEE70B4B1B68C3F303639C
:102EF000082B4FF0FF3CE3D120462A465FFA8CF1C5
:102F0000FFF7D4FC01200DB0F0BD3368C2E700BF6D
:102F100000400A4008A4000470400A40F0B58B7DD0
:102F20004D4E8DB00D460446002B4BD1336813F047
:102F3000005C25D0FDF726FC336803F07F030133E6
:102F4000984284461ED24549434807E0036803F08F
:102F50007F035FFA82FC01339C4513D20CEB010323
:102F60001B010CF101021B68C3F30363082BEDD1B5
:102F700020462A466146FFF759FC01200DB0F0BDFE
:102F80003368E0E70FCDEC46ACE80F0095E80300AE
:102F90008CE803004FF0FF0E8DF814E06F460FCF62
:102FA00006AE0FC69CE8030086E80300182204F56D
:102FB000D8500DEB02011A30FFF7D8FE4FF0FF306A
:102FC0000DB0F0BD306810F0005042D0FDF7DAFBD4
:102FD000336803F07F030133834229D91F4E1E4F0C
:102FE00005E03B6803F07F030133984220D2831948
:102FF0001B01411C1A6812018446C8B2F1D51B6836
:10300000C3F30363082B1BD00FCD6E460FC695E8A4
:10301000030086E80300EE468DF814C0BEE80F00FA
:1030200006AF0FC796E80300182287E80300BEE743
:103030000B4B1B68C3F30363082B4FF0FF3CE3D13A
:1030400020462A465FFA8CF1FFF7F0FB01200DB015
:10305000F0BD3368C2E700BF00400240082400040E
:1030600070400240F0B5354883B001F00DFD3448A2
:10307000FFF782FC3348FFF78FFD334B1C78002CA1
:1030800031D1324B324D1C702C70324A32491368A8
:103090000093009B0968314E314F5B1AB3F5FA7FFC
:1030A00084BF0123337013682E4A01931268019B79
:1030B0009B1AB3F5FA7F88BF012321464FF0060023
:1030C00088BF3B7001F0A0FF3978052001F09CFF1C
:1030D00031780E2001F098FF2978272003B0BDE851
:1030E000F04001F091BF012C15D0022C0CD0032C24
:1030F00003D0164B164D1C78C7E7144A144D002414
:10310000012314702B70C0E7104A114D01240023D5
:1031100014702B70B9E70D4B134E1C700C4D084802
:103120002C7000233146F36033613360FFF7F6FE05
:1031300031460448FFF74EFEA7E700BF7061FF1F4E
:10314000080FFF1F2438FF1F4C07FF1F4461FF1F9C
:10315000040FFF1F8C62FF1F5861FF1F4C61FF1F90
:103160006461FF1F5C61FF1F5007FF1F00F5805364
:10317000D3F8003EDB006BD5384B2DE9F04F5F6B89
:10318000C7F30367FF00002241F6146B083741F6CE
:10319000046941F6086A07E01D686D0F052D34D0FB
:1031A0000132D3B29F4255D902EB420E00EBCE045E
:1031B00004F5F0531D686D0F012D0ED01D686D0FC5
:1031C000022DE9D154F809308B42E9D854F80A307D
:1031D0008B42E5D30120BDE8F08F1C6814F4607FBA
:1031E000DED04FEA4E0E002404E01D68C5F3C21580
:1031F000AC42D5D201340EEB040505F5F065E4B21E
:1032000050F825508D42F0D1E4E71D6815F4607F39
:10321000C6D05C444FEA4E0E4FF0010C05E01D682D
:10322000C5F3C2150135AC45BAD20EEB0C0505F558
:10323000F065266850F82550D4F800800E4005EA65
:1032400008050CF1010CAE425FFA8CFCE7D1C1E736
:10325000012070470020BDE8F08F00BF0040024011
:1032600001EB410170B500EBC10505F5045EDEF828
:103270000030DB0028D5DEF800305B0F012B0BD0CF
:10328000DEF800305B0F022B42D0DEF800305B0F1F
:10329000052B1BD0002070BDDEF8004014F4607FC9
:1032A000F8D000234D0005E0DEF80010C1F3C21C89
:1032B0006345EFD2013305EB030C0CF5046CDBB274
:1032C00050F82C409442EFD1012070BDDEF8004050
:1032D00014F4607FDED005F5045514354900012350
:1032E00007E0DEF80040C4F3C21C0CF1010C63459A
:1032F000D0D22C6804EA020CCC1804F50464013323
:1033000050F824402E683440A445DBB2E9D1DBE715
:1033100042F20413EB589342BCD842F20813E85827
:10332000904234BF0020012070BD00BF83889BB253
:103330000F2B03D8838801339BB283804288B0F877
:1033400002C0038802F00F029BB202321FFA8CFC0B
:1033500083F010039C4540F8221004D10388013308
:1033600003F01F0303804388013303F01F034380EE
:10337000704700BF83889BB20F2B03D8838801332B
:103380009BB283804288B0F802C0038802F00F022B
:103390009BB200EB42021FFA8CFC83F010039C45A9
:1033A000D18004D10388013303F01F0303804388D5
:1033B000013303F01F034380704700BF00F58053C3
:1033C000D3F8003EDB006BD5384B2DE9F04F5F6B37
:1033D000C7F30367FF00002241F6146B083741F67C
:1033E000046941F6086A07E01D686D0F052D34D0A9
:1033F0000132D3B29F4255D902EB420E00EBCE040C
:1034000004F5F0531D686D0F012D0ED01D686D0F72
:10341000022DE9D154F809308B42E9D854F80A302A
:103420008B42E5D30120BDE8F08F1C6814F4607F67
:10343000DED04FEA4E0E002404E01D68C5F3C2152D
:10344000AC42D5D201340EEB040505F5F065E4B2CB
:1034500050F825508D42F0D1E4E71D6815F4607FE7
:10346000C6D05C444FEA4E0E4FF0010C05E01D68DB
:10347000C5F3C2150135AC45BAD20EEB0C0505F506
:10348000F065266850F82550D4F800800E4005EA13
:1034900008050CF1010CAE425FFA8CFCE7D1C1E7E4
:1034A000012070470020BDE8F08F00BF00400A40B7
:1034B00001EB410170B500EBC10505F5045EDEF8D6
:1034C0000030DB0028D5DEF800305B0F012B0BD07D
:1034D000DEF800305B0F022B42D0DEF800305B0FCD
:1034E000052B1BD0002070BDDEF8004014F4607F77
:1034F000F8D000234D0005E0DEF80010C1F3C21C37
:103500006345EFD2013305EB030C0CF5046CDBB221
:1035100050F82C409442EFD1012070BDDEF80040FD
:1035200014F4607FDED005F50455143549000123FD
:1035300007E0DEF80040C4F3C21C0CF1010C634547
:10354000D0D22C6804EA020CCC1804F504640133D0
:1035500050F824402E683440A445DBB2E9D1DBE7C3
:1035600042F20413EB589342BCD842F20813E858D5
:10357000904234BF0020012070BD00BF43884FF04F
:103580001A0CDBB20CFB030310B50446002083F8D1
:1035900006016388DBB20CFB034383F807216088D4
:1035A000C0B20CFB004000F5847004F04BF8628858
:1035B00023889BB292B283F480739A4204D1238809
:1035C0000133C3F30803238063880133C3F3080383
:1035D0006380A3889BB2FF2B03D8A38801339BB2DF
:1035E000A38010BD2DE9F04F8C460F4606460546D8
:1035F00000F11008BCE80F008DB06C460FC49CE8C9
:10360000030084E80300DFF894A04FF0010955F8A7
:10361000044F5CB19DF91420A36809FA02F1194224
:1036200020D02368D3F800B0D34516D14545EED15C
:1036300006F5005393F8003723B3182239460DEBF3
:10364000020001F0CFFA18220DEB020106F114007E
:10365000FFF794FF0DB0BDE8F08F9DF81530694677
:103660002046D847237C002BE0D02368D3F800B055
:103670009DF81530D345D9D020464FF0FF3269462A
:10368000D847D3E73B7D8DF818303A4606A9304637
:10369000FFF74CF90DB0BDE8F08F00BF59040000F2
:1036A00000F5005393F80137002B00F0DB802DE983
:1036B000F04F0F4605460E460FCF89B002AC0FC43F
:1036C00097E8030084E80300DFF850C2DCF800301C
:1036D0009B0052D5DCF83430C3F3036A00244FEA70
:1036E000CA0A0AF1080A22464FF063090CE05B0F90
:1036F000022B3B6800F09A805B0F052B00F0DD8009
:103700000134E2B2924538D996F91430632B34D0A3
:1037100004EB440805EBC80B0BF5F0573B6813F0BE
:10372000604FEDD03B685B0F012B3B68DFD1F27936
:10373000C3F300439A42E3D13B6813F4607FDFD0C8
:103740004FEA480B002306E03A685FFA88F3C2F3B9
:10375000C2129342D4D203F101080BEB080303F524
:10376000F063029A55F823309A42EDD102A9284617
:103770008DF81C90FFF736FFE6E7684F00238DF8C1
:103780000E303C6814F000543FD0FCF7FBFF3B6860
:1037900003F07F0301338342044633D9DFF87C9181
:1037A00042F2041742F2081896F91430A34220D0CE
:1037B00004EB440105EBC10202F5045ADAF80030CB
:1037C00013F0604F15D0DAF80030F079C3F3C0631E
:1037D00098420ED1DAF800305B0F012BDAF8003096
:1037E00041D05B0F022B12D0DAF800305B0F052BB3
:1037F0005BD0D9F80030013403F07F03E4B2013329
:103800009C42D1D309B0BDE8F08F3B68C6E7D159DF
:10381000029B8B42EDD352F808209342E9D802A9CB
:1038200028468DF81C40FFF7DDFEE2E7F279C3F38E
:1038300000439A427FF464AF41F604635BF80320CF
:10384000029B9342FFF45CAF41F608625BF80220F2
:1038500093423FF655AF02A928468DF81C90FFF71A
:10386000C1FE4DE7704713F4607FC2D04A000023C9
:1038700007E0DAF800105FFA8BF3C1F3C2118B4254
:10388000B7D203F1010B02EB0B0303F504630299BA
:1038900055F823309942ECD102A9284600928DF8C0
:1038A0001C40FFF79FFE009AE3E7029A2146284654
:1038B000FFF7D6FC00289CD0B1E73B6813F4607F8B
:1038C0003FF41EAF0BF5F053143301270AE00BF55C
:1038D000F05101370968C1F3C211FFB201318F42C3
:1038E000BFF40EAF07EB480101F5F061186855F819
:1038F00021E00299D3F800C008400EEA0C0188428A
:10390000E5D102A9284601938DF80E2000928DF88A
:103910001C90FFF767FEDDE90023D8E70040024076
:103920002DE9F04FB94DBA4F81460FCD97B004AC99
:103930000FC495E8030084E80300B96A386B3B685C
:10394000019013F400434FF000068B4603D13A6810
:10395000940000F1EB80AE4D019B2C6843F0010315
:10396000B3FA83F3C3F1200314F000545FFA83FA2F
:1039700000F04F82FCF706FF2B6803F07F03013352
:103980008342044640F29E80824540F29B80671C41
:10399000DFF87C82FDB216E0062900F0AD80042934
:1039A00000F03E81082900F0D781D8F8003003F0FC
:1039B0007F030133AB42FCB240F28480A24505F1A3
:1039C00001057FD9671CC4F12002A4F1200306FA87
:1039D00002F22BFA04F126FA03F311431943C90743
:1039E000E3D50199E14011431943C907DDD5894B5E
:1039F000E3181B011A68C2F303610229CCD102F457
:103A000000115868002914BF4FF0010C4FF0000C52
:103A100020F060408DF817C07FD1800C0490ADF885
:103A20001420C2F303428DF81B2009F500528DF8D3
:103A3000244092F815298DF825209A688DF81F20CA
:103A40009A68120A8DF81E209A68120C8DF81D20B3
:103A50009A68120E8DF81C20DA688DF82320DA6837
:103A6000120A8DF82220DA68120C8DF82120DA680B
:103A700000294FEA12628DF8202014BF4FF08C62AB
:103A80004FF080621A60D8F80830D8F8302001234F
:103A9000A3401343C8F83030049A21464846FFF744
:103AA000DFFB002840F0538104A94846FFF7F8FDEA
:103AB00004A8AFF3008004A8AFF3008004A8AFF31C
:103AC000008072E7524E544D346A2B6884EA030238
:103AD000524B13403BB109F58053B3F8D43C9BB231
:103AE0000F2B40F298814A4A136A23431362BFF3B3
:103AF0004F8F17B0BDE8F08F02F40011586800290D
:103B000014BF4FF0010C4FF0000C20F060408DF816
:103B100017C005D1800C049004E0049001217EE7D9
:103B20000490012101208DF8190078E78A067FF5BD
:103B300012AF85067FF50FAFD7F88020ADF81420BF
:103B4000C2F303418DF81B10D7F88410304C02F4F7
:103B50000010B04221F06041C2F300508DF818000F
:103B60004FEAD25212BF01203046890C8DF817005F
:103B70008DF81620049108A80022D4F88810D140AE
:103B80000832202A00F8011DF7D1214809A9D0F8F0
:103B90008C20DA400833202B01F8012DF7D109F5EC
:103BA000005393F815398DF8253063238DF82430B0
:103BB0008368036B43F020030363019B5C0603D51A
:103BC000036B43F040030363019B180604D5104ABE
:103BD000136B43F08003136304A94846FFF760FDAD
:103BE00004A8AFF3008004A8AFF3008004A8AFF3EB
:103BF000008004994846FFF7B9FA00283FF4ABAEBD
:103C000004A94846FFF7EEFCA5E600BFACD40000CF
:103C10000040024008240004FC0EFF1FBFFF070005
:103C200002F4001100295968ADF81420C2F30342D0
:103C30008DF81B2009F5005214BF012000208DF8DB
:103C4000170092F815098DF824408DF82500986822
:103C50008DF81F0098684FEA10208DF81E009868B4
:103C60004FEA10408DF81D0098684FEA10608DF8FB
:103C70001C00D8688DF82300D8684FEA10208DF812
:103C80002200D86821F0604108BF890C000C049123
:103C90008DF8210004F60221D86859F82110000E91
:103CA0008DF8200029B104A8039202938847039A53
:103CB000029BD2F808291AB104A802939047029BEC
:103CC00009F580520292B2F81E2B92B2002A00F03F
:103CD000B180029BB3F81A1B1A2301F00F0103FBFA
:103CE000019101F5D9511231182210A800F07AFF84
:103CF0000AAB0DF1400C9E460393BCE80F00AEE802
:103D00000F009CE803008EE803009DF93C305A1C2C
:103D100000F09B809C427FF448AE039AE1B2484693
:103D2000FEF784FD029AB2F81A3B013303F01F0339
:103D3000A2F81A3BB2F81E3B9BB2002B3FF435AE03
:103D4000B2F81E3B013B9BB2A2F81E3B2DE604A934
:103D50004846FFF747FCA7E602F40011002959681E
:103D6000ADF81420C2F303428DF81B2009F5005270
:103D700014BF012000208DF8170092F815098DF866
:103D800024408DF8250098688DF81F0098684FEA48
:103D900010208DF81E0098684FEA10408DF81D0025
:103DA00098684FEA10608DF81C00D8688DF82300E1
:103DB000D8684FEA10208DF82200D86821F06041C1
:103DC00008BF890C000C04918DF8210004F6022133
:103DD000DB6859F821101B0E8DF8203019B104A8AA
:103DE00002928847029AD2F808390BB104A8984782
:103DF00009F580530293B3F81E3B9BB2002B7FF46E
:103E000068AFD8F830200123A3401343C8F83030FE
:103E1000CBE52B68BBE509F5E65021461030FFF7EE
:103E200085FAF16909F5EC5089B21830FFF7A2FA6A
:103E30002C6058E6D8F830100122A2400A43C8F896
:103E400030204FF000621A60AFE5039A214666E722
:103E50002DE9F04F8C460F460646054600F1100846
:103E6000BCE80F008DB06C460FC49CE8030084E8EA
:103E70000300DFF894A04FF0010955F8044F5CB13E
:103E80009DF91420A36809FA02F1194220D0236891
:103E9000D3F800B0D34516D14545EED106F5005311
:103EA00093F8003723B3182239460DEB020000F0D7
:103EB00099FE18220DEB020106F11400FFF75EFBDC
:103EC0000DB0BDE8F08F9DF8153069462046D84703
:103ED000237C002BE0D02368D3F800B09DF8153088
:103EE000D345D9D020464FF0FF326946D847D3E7B3
:103EF0003B7D8DF818303A4606A93046FEF726FE7F
:103F00000DB0BDE8F08F00BF5904000000F500536C
:103F100093F80137002B00F0DB802DE9F04F0F46BE
:103F200005460E460FCF89B002AC0FC497E80300D8
:103F300084E80300DFF850C2DCF800309B0052D563
:103F4000DCF83430C3F3036A00244FEACA0A0AF1EA
:103F5000080A22464FF063090CE05B0F022B3B6816
:103F600000F09A805B0F052B00F0DD800134E2B297
:103F7000924538D996F91430632B34D004EB4408B9
:103F800005EBC80B0BF5F0573B6813F0604FEDD015
:103F90003B685B0F012B3B68DFD1F279C3F3004331
:103FA0009A42E3D13B6813F4607FDFD04FEA480BBD
:103FB000002306E03A685FFA88F3C2F3C212934224
:103FC000D4D203F101080BEB080303F5F063029A66
:103FD00055F823309A42EDD102A928468DF81C905D
:103FE000FFF736FFE6E7684F00238DF80E303C6898
:103FF00014F000543FD0FCF7E9FB3B6803F07F036B
:1040000001338342044633D9DFF87C9142F204172E
:1040100042F2081896F91430A34220D004EB440170
:1040200005EBC10202F5045ADAF8003013F0604FD4
:1040300015D0DAF80030F079C3F3C06398420ED19E
:10404000DAF800305B0F012BDAF8003041D05B0F5B
:10405000022B12D0DAF800305B0F052B5BD0D9F8B9
:104060000030013403F07F03E4B201339C42D1D32A
:1040700009B0BDE8F08F3B68C6E7D159029B8B427F
:10408000EDD352F808209342E9D802A928468DF8CA
:104090001C40FFF7DDFEE2E7F279C3F300439A42EA
:1040A0007FF464AF41F604635BF80320029B934204
:1040B000FFF45CAF41F608625BF8022093423FF6E2
:1040C00055AF02A928468DF81C90FFF7C1FE4DE7B9
:1040D000704713F4607FC2D04A00002307E0DAF88B
:1040E00000105FFA8BF3C1F3C2118B42B7D203F118
:1040F000010B02EB0B0303F50463029955F823301F
:104100009942ECD102A9284600928DF81C40FFF795
:104110009FFE009AE3E7029A21462846FFF7C8F976
:1041200000289CD0B1E73B6813F4607F3FF41EAFDA
:104130000BF5F053143301270AE00BF5F05101376A
:104140000968C1F3C211FFB201318F42BFF40EAF53
:1041500007EB480101F5F061186855F821E0029974
:10416000D3F800C008400EEA0C018842E5D102A94C
:10417000284601938DF80E2000928DF81C90FFF7D1
:1041800067FEDDE90023D8E700400A402DE9F04F43
:10419000B94DBA4F81460FCD97B004AC0FC495E826
:1041A000030084E80300B96A386B3B68019013F49C
:1041B00000434FF000068B4603D13A68940000F1AB
:1041C000EB80AE4D019B2C6843F00103B3FA83F3FF
:1041D000C3F1200314F000545FFA83FA00F04F8219
:1041E000FCF7F4FA2B6803F07F03013383420446A3
:1041F00040F29E80824540F29B80671CDFF87C8203
:10420000FDB216E0062900F0AD80042900F03E81E1
:10421000082900F0D781D8F8003003F07F0301337C
:10422000AB42FCB240F28480A24505F101057FD982
:10423000671CC4F12002A4F1200306FA02F22BFA53
:1042400004F126FA03F311431943C907E3D5019991
:10425000E14011431943C907DDD5894BE3181B0120
:104260001A68C2F303610229CCD102F40011586824
:10427000002914BF4FF0010C4FF0000C20F06040FB
:104280008DF817C07FD1800C0490ADF81420C2F3D4
:1042900003428DF81B2009F500528DF8244092F856
:1042A00015298DF825209A688DF81F209A68120A22
:1042B0008DF81E209A68120C8DF81D209A68120E37
:1042C0008DF81C20DA688DF82320DA68120A8DF840
:1042D0002220DA68120C8DF82120DA6800294FEAD2
:1042E00012628DF8202014BF4FF08C624FF0806274
:1042F0001A60D8F80830D8F830200123A3401343BF
:10430000C8F83030049A21464846FFF7D1F8002813
:1043100040F0538104A94846FFF7F8FD04A8AFF325
:10432000008004A8AFF3008004A8AFF3008072E718
:10433000524E544D346A2B6884EA0302524B1340A8
:104340003BB109F58053B3F8D43C9BB20F2B40F23C
:1043500098814A4A136A23431362BFF34F8F17B001
:10436000BDE8F08F02F400115868002914BF4FF027
:10437000010C4FF0000C20F060408DF817C005D103
:10438000800C049004E0049001217EE70490012158
:1043900001208DF8190078E78A067FF512AF8506AF
:1043A0007FF50FAFD7F88020ADF81420C2F303419A
:1043B0008DF81B10D7F88410304C02F40010B04276
:1043C00021F06041C2F300508DF818004FEAD2523C
:1043D00012BF01203046890C8DF817008DF8162089
:1043E000049108A80022D4F88810D1400832202A6D
:1043F00000F8011DF7D1214809A9D0F88C20DA4036
:104400000833202B01F8012DF7D109F5005393F85B
:1044100015398DF8253063238DF824308368036BBC
:1044200043F020030363019B5C0603D5036B43F059
:1044300040030363019B180604D5104A136B43F035
:104440008003136304A94846FFF760FD04A8AFF397
:10445000008004A8AFF3008004A8AFF300800499A3
:104460004846FEF7ABFF00283FF4ABAE04A9484630
:10447000FFF7EEFCA5E600BFACD4000000400A4008
:1044800008A40004F80EFF1FBFFF070002F400118C
:1044900000295968ADF81420C2F303428DF81B209F
:1044A00009F5005214BF012000208DF8170092F882
:1044B00015098DF824408DF8250098688DF81F00A7
:1044C00098684FEA10208DF81E0098684FEA104057
:1044D0008DF81D0098684FEA10608DF81C00D868B0
:1044E0008DF82300D8684FEA10208DF82200D86894
:1044F00021F0604108BF890C000C04918DF8210067
:1045000004F60221D86859F82110000E8DF8200019
:1045100029B104A8039202938847039A029BD2F818
:1045200008291AB104A802939047029B09F580520A
:104530000292B2F81E2B92B2002A00F0B180029BC8
:10454000B3F81A1B1A2301F00F0103FB019101F5C7
:10455000D9511231182210A800F044FB0AAB0DF11A
:10456000400C9E460393BCE80F00AEE80F009CE8A9
:1045700003008EE803009DF93C305A1C00F09B803C
:104580009C427FF448AE039AE1B24846FEF78EF9AA
:10459000029AB2F81A3B013303F01F03A2F81A3B48
:1045A000B2F81E3B9BB2002B3FF435AEB2F81E3B77
:1045B000013B9BB2A2F81E3B2DE604A94846FFF73B
:1045C00047FCA7E602F4001100295968ADF8142051
:1045D000C2F303428DF81B2009F5005214BF0120DD
:1045E00000208DF8170092F815098DF824408DF8F9
:1045F000250098688DF81F0098684FEA10208DF804
:104600001E0098684FEA10408DF81D0098684FEA28
:1046100010608DF81C00D8688DF82300D8684FEA28
:1046200010208DF82200D86821F0604108BF890C65
:10463000000C04918DF8210004F60221DB6859F882
:1046400021101B0E8DF8203019B104A80292884762
:10465000029AD2F808390BB104A8984709F580539B
:104660000293B3F81E3B9BB2002B7FF468AFD8F8DF
:1046700030200123A3401343C8F83030CBE52B682A
:10468000BBE509F5E65021461030FEF74FFEF16913
:1046900009F5EC5089B21830FEF76CFE2C6058E634
:1046A000D8F830100122A2400A43C8F830204FF059
:1046B00000621A60AFE5039A214666E749484A4915
:1046C00070B500F58053494D002200F500548282F8
:1046D0002860C282464D0283A3F81A2BA3F81C2B34
:1046E000A3F81E2BA3F8D02CA3F8D22CA3F8D42C1B
:1046F000A3F8982DA3F89A2DA3F89C2D01F58053CB
:1047000084F80027056084F8012701F50050C4F8FB
:104710000C29C4F8102984F81429364D364C8A82A5
:104720000D60CA820A83A3F81A2BA3F81C2BA3F8E6
:104730001E2BA3F8D02CA3F8D22CA3F8D42CA3F8CA
:10474000982DA3F89A2DA3F89C2D01238AB080F808
:104750000027C0F80C2980F80127C0F8102980F83C
:10476000142921601A461C212448254C00F0D2F857
:1047700001231A461C21234800F0CCF8236801933A
:104780000199236802930298236803931E4B039AAE
:104790001960236804931D4B1D491A601D4B049A30
:1047A0001A60086000F0A4FC23680593059E236846
:1047B0000693194B069D1860236807930799236891
:1047C0000893089823680993144B099A1E60144BA8
:1047D0001D60144B19601449144B08601A600AB02C
:1047E00070BD00BF2438FF1F080FFF1F6C61FF1F43
:1047F000ECD3000010D400006861FF1F7061FF1F40
:104800008C62FF1FF861FF1F4061FF1F6061FF1F87
:104810004861FF1F000FFF1FF461FF1F5C61FF1F56
:104820005861FF1FEC61FF1FF061FF1F7462FF1FE3
:10483000F0B5234D234E2B683268234F83B000938D
:10484000009B9B1AB3F57A7F37D3396801312C6806
:104850000094009B02F57A729B1AB3F57A7F0846A2
:1048600001F10101F3D2326038600094174C2368E3
:10487000834211D8164B1B6873B1984701430ED081
:104880002B680193134B019A1B6832600344236029
:10489000114B386002221A70002103B0F0BD0E499E
:1048A0000C4A0B7838681268003B18BF0123024499
:1048B0000B700021226003B0F0BD3868D6E700BF5E
:1048C0008C62FF1F7862FF1F8462FF1F7C62FF1FE4
:1048D0008862FF1F6807FF1F8062FF1F034A0449A9
:1048E000044B126808601A60FFF7A2BF8462FF1FC2
:1048F0008862FF1F7C62FF1F034B04491B68044A48
:1049000008600344136070478462FF1F6807FF1F3D
:104910007C62FF1F38B5044682F00102084632214E
:104920002261616000224FF0FF314FF4C87562616F
:10493000A261E26122626262A262E2622263626357
:10494000A263E26322646264A264E2642265626537
:10495000A265E26521666166A2660121E2662267C0
:1049600062674FF44872A560A1672060E2602BB1D6
:104970000221C0B200F080FB204638BD1946C0B20B
:1049800000F07AFB204638BD416170478163704773
:104990004164704710B50446C06E236FE26DC31AC0
:1049A000072A11D8DFE802F0131B202610102B0471
:1049B000636C03B19847A36C0BB1E06C984700237C
:1049C000E3656367236710BD0023E36510BD00291D
:1049D000F9D001220023E2652067636710BD99B911
:1049E0000223E365206710BD636F03220133636711
:1049F000E26510BDA9B10123E365206710BD21BBAD
:104A00000723E365206710BDE2689A42DBD2A36BFF
:104A100003B19847E36B0BB1206C98470623E3651D
:104A200010BDA2689A421AD9A36F626F9A42CAD186
:104A3000012B16D0022B1DD0E36A03B19847236BDC
:104A4000002BBCD0606B9847B9E7236D03B1984742
:104A5000636D002BB7D0A06DBDE810401847636FA1
:104A6000E6E7636903B19847A369002BA7D0E06923
:104A70009847A4E7236A03B19847636A002B9ED046
:104A8000A06A98479BE700BF10B50446006800285D
:104A900082B001DA02B010BDC0B200F0DFFA0F4BF5
:104AA000626E1B680193019BE366904201460DD044
:104AB000216E6066A3662369591AB1FA81F1204616
:104AC000490902B0BDE81040FFF764BFA06E6268FC
:104AD0001B1A934234BF216E2166ECE78C62FF1FE4
:104AE00070B5012A8AB008BF0A22A1B34FF0210E87
:104AF00002E05FFA86FE2946B1FBF2F502FB1514CF
:104B00005FFA84FC092C0CF1300498BF5FFA84FC36
:104B10000EF1280488BF0CF1370C6C4488BF5FFA93
:104B20008CFC91420EF1FF3604F824CCE1D24BB15B
:104B30000EF1FF3E5FFA8EFE0EF128036B442D222C
:104B400003F8242C036801A95B68CEF122027144AA
:104B500098470AB070BD30228DF825204FF0210E05
:104B6000E5E700BF0029BABF49422D2300230A22EE
:104B7000FFF7B6BF00B5036883B040F60D22ADF86D
:104B800004205B68022201A9984703B05DF804FB8A
:104B9000034B022888BF034618461B685B6818470A
:104BA0007007FF1F0EB400B582B003AA52F8041BB1
:104BB000019202F007FD02B05DF804EB03B070470C
:104BC00032B9036800B51B685DF804EBC9B2184739
:104BD000FFF786BF08B5FCF793FDFEF743FA01F037
:104BE00047F9FAE701B441EA000313F003036FD178
:104BF000403A41D351F8043B40F8043B51F8043BA0
:104C000040F8043B51F8043B40F8043B51F8043BA6
:104C100040F8043B51F8043B40F8043B51F8043B96
:104C200040F8043B51F8043B40F8043B51F8043B86
:104C300040F8043B51F8043B40F8043B51F8043B76
:104C400040F8043B51F8043B40F8043B51F8043B66
:104C500040F8043B51F8043B40F8043B51F8043B56
:104C600040F8043B51F8043B40F8043B51F8043B46
:104C700040F8043B403ABDD2303211D351F8043BE6
:104C800040F8043B51F8043B40F8043B51F8043B26
:104C900040F8043B51F8043B40F8043B103AEDD295
:104CA0000C3205D351F8043B40F8043B043AF9D2E6
:104CB00004320AD0D2071CBF11F8013B00F8013BB7
:104CC00003D30B7803704B78437001BC704700BF6F
:104CD0000C2A4AD310F0030311D0C3F10403D21AF3
:104CE000DB071CBF11F8013B00F8013B07D311F8AB
:104CF000013B00F8013B11F8013B00F8013B11F0CA
:104D000003033FF475AF30B4043AC91AC3F1040C7D
:104D100051F8044B022B19D0032B0BD0240A51F865
:104D2000043B1D0644EA050440F8044B1C46043AC3
:104D3000F4D216E0240E51F8043B1D0244EA0504A7
:104D400040F8044B1C46043AF4D20AE0240C51F813
:104D5000043B1D0444EA050440F8044B1C46043A95
:104D6000F4D20432B1EB0C0130BC043AA0D3013AC6
:104D700011F8013B00F8013BF9D20B7803704B7836
:104D800043708B78837001BC704700BF08B50F4C2F
:104D9000636B58030DD4636B59050FD4636B1A050D
:104DA00011D4636BDB04F3D500F012F8636B580386
:104DB000F1D500F07BFA636B5905EFD500F008F8E8
:104DC000636B1A05EDD500F003F8EAE700800440B4
:104DD00008B5FFF7DBFF00BF014B10221A807047B8
:104DE00000200540704700BF0B490A6848B108B56C
:104DF000EC461318ACF50050834204D20B60104609
:104E000008BD1046704702F089FD0C234FF0FF32B9
:104E10000360104608BD00BF6C07FF1F00207047ED
:104E20004FF0FF30704700BF4FF400534B6000203D
:104E3000704700BF012070474FF0FF30704700BF40
:104E4000FEE7FFFF074BDA78802A01D00020704789
:104E500005490648486400225A70DA78802AFCD056
:104E60000120704700E00740008004400000282235
:104E7000074BDA78012A01D00020704760225A706F
:104E8000DA78802AFCD1034B034A5A640120704728
:104E900000E00740008004400000060201F1FF3CF2
:104EA00070B56546002401E070460134B0FBF2FEA7
:104EB00002FB1E03092B03F130068ABF3733F3B21E
:104EC000DBB2904205F8013FEED2631C0022CA54C7
:104ED000C8187CB162461CF8015F10F801ED8CF82F
:104EE00000E0A1EB0C030232013B521A23449A4228
:104EF0000570EFDB084670BD034B002210215A619C
:104F00005A6018605961704700D00340704700BF75
:104F10004FF0E02C2DE9F0414FF00068CCF804810F
:104F20004FF08058CCF804814FF00058CCF8048141
:104F30002F4A3049304C314D314E4FF08048CCF83B
:104F40000481282300204EF6FF7E09274FF00048F9
:104F5000CCF804814860C1F808E0CB604B61CB61BC
:104F60004B62CB624B63CB634B64D3605361D361C1
:104F70005362D3625363D36353640F606860C5F8B0
:104F800008E0EB606B612F606060C4F808E0E360EC
:104F9000636127605060C2F808E0D3605361176016
:104FA000F16A41F40071F162716802F5803241F0FA
:104FB0000071716047F6FF740821506082B0946000
:104FC000D3605361116000F0F7FFFFF79FFF0D4CB6
:104FD00023680093009B132BFAD900F021FD23686E
:104FE0000193019BB3F5967FF9D302B0BDE8F08140
:104FF00000900B400080034000800B400090034075
:10500000008004408C62FF1F3F2818D810B4124B58
:1050100053F8302092F8804234B1012381B982F8EC
:1050200000315DF8044B704703EBC0035B681A68FE
:1050300059B142F003025DF8044B1A6070477047A3
:1050400082F880305DF8044B704722F002025DF870
:10505000044B1A60704700BFC4D400003F2806D834
:10506000044B53F8303093F80002C0B27047002070
:10507000704700BFC4D400003F2820D81B4A02EB71
:10508000C00301295B680FD004291DD052F83000FD
:10509000002280F8802299B1022922D003290DD163
:1050A0004FF481721A60704752F830004FF4A272C8
:1050B00080F880121A601A6822F020021A60704785
:1050C0004FF480721A60704752F830104FF4A27299
:1050D000012081F880021A601A6842F020021A60EA
:1050E000704740F203121A60704700BFC4D400003A
:1050F00072B60E494FF0E02293690868D2F8042D89
:1051000062B6520102D5322B88BF0130C3F52F336E
:10511000074A03F21F334FF47A719B08A2FB032363
:1051200001FB00F000EB9300704700BF8C62FF1F93
:10513000176CC116431E032B16D872B60B4951F8D3
:10514000230078B130B40A4CB0F800C034F8132012
:10515000456841F82350A2EB0C0224F8132062B6F4
:1051600030BC704762B67047002070472063FF1F55
:105170007063FF1F013803280BD872B6074B53F832
:10518000203043B100205B680130002BFBD162B6B8
:105190007047002070471846F9E700BF4863FF1FBB
:1051A00010B472B61A4A1B4C042312F8011B0907EB
:1051B00043F0010C05D554F8331069B154F83C1094
:1051C000C9B10433142BF0D162B6134B00221A700C
:1051D0005DF8044B00F0AEBC0F4904EBC30208308D
:1051E00050600A780D4844F83300013A0A7062B6FC
:1051F0005DF8044B7047084A094904EBCC030830BA
:105200005860137844F83C10013B137062B6EFE726
:1052100044D700000000FF1F7863FF1F8800400094
:10522000C8004000421E032A0ED81C4B400140F02B
:10523000100010B4034472B6194CA05C03281DD8AA
:10524000DFE800F01416031970470520A05413F08E
:10525000080F088814BFC8228822083142EA004299
:1052600059601A6062B65DF8044B70470320EDE7A1
:1052700008330220EAE708330420E7E7094B53F834
:10528000220038B1084B53F82200416043F8221045
:1052900062B6E8E743F82210034BF7E70000FF1F70
:1052A0006863FF1F4863FF1F5863FF1F2DE9F04F1E
:1052B000DFF80CA3DFF80CB385B03DE0B04D9E08DD
:1052C00005EBC607013A796813F00803D4B2A1F1DF
:1052D000080040F0B88055F836204FEA124C120C06
:1052E00021F808CC00F0A78021F8063C41F8043CE6
:1052F000A44B53F82420002A00F00182A24B53F85B
:105300002420506043F82400A04B33F81420944428
:1053100023F814C000F0EEFB002800F0E98117F03C
:10532000080F9B4B00F1080018BF5B46786045F8FA
:10533000363008238AF880309AF880305907DCB27A
:105340001BD5944B1B78ABB193490A7802F0FF034D
:105350002AB1013BDBB20B70002B00F046838F4972
:105360000A7802F0FF032AB1013BDBB20B70002B7D
:1053700000F0EB8104238AF8803014F0080200F07A
:10538000CC819AF89020D3B2120997D1DFF8F0912E
:105390009B0809EBC30459F833006468C0F3830029
:1053A00009287CD00FD80138012808D87C4A1588F4
:1053B00042F22100854200F0FB8149F833B001231D
:1053C0008AF89430B5E70D28F9D1D4E90007754D76
:1053D00049F833B0724E744CC9F8102083B240F2D1
:1053E000816CC9F818202A6063454FF00102C6E9B4
:1053F0000007227000F2FF80B3F5D06F80F0CB82FF
:10540000B3F5817F00F0268240F2DE8040F2023266
:1054100093427BD107F07F07042F00F20881020C32
:1054200040F00581614911F8273043F0020301F88B
:105430002730134670E017F0080F554B18BF5B4636
:1054400045F8363075E700F075FB5949594A51F86F
:105450002430002B00F05781586841F82400115D7A
:1054600003F108007860032905D8DFE801F0120F86
:105470001502042111551A8817F0080F14BFC8230C
:10548000882343EA024345F8363052E7022111559A
:10549000F1E703211155EEE705211155EBE7414DE9
:1054A0002A683AB34449404C0F88444894F800E0D5
:1054B0000678402F3B4628BF4023BEF1000F8EF0F8
:1054C000010E84F800E046F0020486F00106067042
:1054D00009EBC400426014BFC820882040EA0340A2
:1054E0001A44FB1A9BB249F834000B80002B00F0E1
:1054F00036812A602A4B1A88B2F5A06F7FF45FAF1D
:105500009A788AF8982000225A7058E7B3F5A06F6D
:1055100040F08D8000221346B6F806C02748944517
:1055200028BF944667460278402F28BF402742F0A4
:10553000020E3E0409EBCE0846F0C806C8F8043057
:1055400049F83E6000263B442670BCEB070782F01A
:105550000106067040F01181BCF13F0F4FF00105CC
:1055600009D946F00206027009EBC60225705360A5
:10557000882349F8363001238AF894301FE700BFAA
:105580000000FF1F2063FF1F3063FF1F7063FF1FBA
:10559000880040006C63FF1F6D63FF1F9863FF1F4F
:1055A0004063FF1F1463FF1F1163FF1FC0200740EC
:1055B0004863FF1F6863FF1F1263FF1F1063FF1F15
:1055C00000200740C8004000802B00F08B81822B18
:1055D0002DD107F07F07042F29D8A74A0023138075
:1055E000A64B13F827309F0740F1FC81012313706D
:1055F000A14B022290E742F2210C6345BBD01DD99A
:1056000042F2212293420DD1BFB2002F82D19C4B96
:105610001A689C4B1A609C4BC0F30740002218701C
:10562000134679E742F2213293423FF473AF0F23DE
:105630008AF8C03001238AF89430C0E6B3F5086FC9
:1056400000F04A81B3F5106FF1D1904BC0F30740E1
:105650000425187059F835301A0606D40135142D72
:105660000CD059F835301A06F8D509EBC5030135C9
:105670005868083800F05EFA142DF2D1844A854B40
:105680000292854A0192854E854ADFF8488203944A
:10569000009200251C4656F8047B2FB138467F68DF
:1056A00000F048FA002FF9D1009BD8F8007043F8B9
:1056B000045B46F8045C00932FB138467F6800F025
:1056C00039FA002FF9D1029B48F8045B43F8045BD8
:1056D0000293019B23F8025B01932378023B032B87
:1056E00000F20981DFE813F03F0104013F010401EA
:1056F0006C4A45F8360013780133137019E643F805
:105700002400674BFEE5115D022926D07FF611AE1D
:1057100003291DD1012313550BE6E0076ED42106A2
:1057200021D4A20708D5604B93F888200221D2B279
:1057300083F8882083F88010E30603D55A4B1022A3
:1057400083F8802005B0BDE8F08F00F06DFB11E616
:1057500017F0080F14BF032302231355E9E53F2F69
:1057600098BF0022C5E6504B80220D2183F8C0105F
:1057700083F88020A207DFD5D5E746F00206027045
:10578000402F09EBC6003A4628BF40224360100470
:10579000134440F088000121BA1A49F836002170FC
:1057A00055D02B60414B1A8001238AF8943006E6CD
:1057B00092885AB93E4AE51D14F8011B02F8011FF0
:1057C000AC42F9D13B4A1268862A3CD03A4C3B485D
:1057D00025780278002D85F00105257042F002043D
:1057E00082F00102027009EBC4024FF00000506029
:1057F00014BFC822882249F83420DEE52A4B2F48FE
:105800002F49304C022583F8945002702E480C60CA
:105810002E4D48608C600D24CD60FF200A618A61A6
:1058200083F8C04001219F2483F8880083F880001A
:1058300083F8982083F88C0083F8844083F89410D0
:1058400005B0BDE8F08F224A0F201070BEE73F2F51
:10585000A7D890E607F07F07042F3FF6E8AE000CCC
:105860007FF4E5AE054A12F8273023F0020302F870
:105870002730002213464FE61863FF1FC020074061
:105880008C62FF1F9463FF1F9063FF1F6C63FF1FF9
:105890005863FF1F6863FF1F7063FF1F2063FF1FB4
:1058A0003063FF1F7863FF1F002007401263FF1F54
:1058B0008763FF1F8863FF1F1163FF1F1063FF1FB4
:1058C0000000FF1F880040009062FF1FD062FF1F92
:1058D0006D63FF1F4863FF1F484B49491B780B70DE
:1058E0000B4619E6464A00231380454B022213E675
:1058F0004FF001032370434BB34204F101047FF4E2
:10590000CAAE414E039CDFF81481404F0023337030
:10591000042518F8013B3E4AAB541B0725D445F03B
:10592000020145F0030204350023142D49F83130FB
:1059300049F83230EDD1374F25783A7842F00200FD
:1059400009EBC00C85F00106CCF80430002D4DD1D8
:10595000882382F0010226703A7049F83030012322
:105960008AF894302BE52570C5E700F0C3F80028CD
:1059700032D009EBC5030830586049F8357000F0A3
:10598000B9F808B345F0010309EBC30208305060D1
:1059900049F833B0C3E7204A5368002B3FF447AEC1
:1059A000000CBFB204E013690C32002B3FF43FAE91
:1059B00011888142F7D15188B942F4D1000A0328F5
:1059C0000CBF1A781289A7E533780133337045F09C
:1059D000010349F83300A2E7337849F83500013371
:1059E0003370CCE7064B022296E500BE2670C82332
:1059F00082F001063E7049F83030BCE56C63FF1F51
:105A00001863FF1F3063FF1F7863FF1F880040008B
:105A1000C02007401063FF1FF0D6000044D70000ED
:105A200010B500F02FFB0023234A194642F833102B
:105A300002EBC3000133142B4160F7D11F48204C07
:105A4000436B43F480234363D4F8003800F52830D7
:105A500000F5807043F04073C4F80038032480F8E8
:105A60004440184BA02480F84040C2F3072483F838
:105A70009C40C2F30744120E83F8B0404FF0FF0C75
:105A800083F8B420012283F880C00F4C83F888C0CB
:105A900083F810C083F8942001704FF0E02183F860
:105AA00084204FF0700C4FF40012102384F835C09E
:105AB000C1F80421037210BD0000FF1F00800440E4
:105AC00000D000400020074000E400E000F0ACB847
:105AD00000F07CB800F056B800F090B800F078B94B
