:1000000000000320D1010000D93600009136000025
:1000100091360000913600009136000091360000C4
:10002000913600009136000091360000D93600006C
:10003000D936000091360000E9480000ED48000084
:10004000D9360000D9360000D9360000D936000074
:10005000D9360000D9360000D9360000D936000064
:10006000D9360000D9360000D9360000D936000054
:10007000D9360000D9360000D9360000D936000044
:10008000D9360000D9360000D9360000D936000034
:10009000D9360000D9360000D9360000D936000024
:1000A000D9360000D9360000D9360000D936000014
:1000B000D9360000D9360000D9360000D936000004
:1000C000D9360000D9360000D9360000D9360000F4
:1000D000D9360000D9360000D9360000D9360000E4
:1000E000D9360000D9360000D9360000D9360000D4
:1000F000D9360000D9360000D9360000D9360000C4
:10010000D9360000D9360000D9360000D9360000B3
:10011000D93600000D3C0000D9360000D936000069
:10012000D9360000D9360000D9360000D936000093
:10013000D9360000D9360000D9360000D936000083
:10014000D9360000D9360000D9360000D936000073
:10015000D9360000D9360000D9360000D936000063
:10016000D9360000D9360000D9360000D936000053
:10017000D9360000D9360000D9360000D936000043
:10018000D9360000D9360000D9360000D936000033
:10019000D9360000D9360000D9360000D936000023
:1001A000D9360000D9360000D9360000D936000013
:1001B000D9360000D9360000D9360000D936000003
:1001C000D9360000D9360000D9360000D9360000F3
:1001D0005C4B4CF2205210B51A804DF628121A8052
:1001E00000BF00BF03F07CFA574B4FF030621A603B
:1001F000564A9A60564ADA60564B4FF470021A60BB
:10020000554B564A1A60564B1A78110703D51A787F
:1002100042F008021A70534B5349AA221A70534AEB
:10022000534B8B4204D252F8040F43F8040BF8E707
:10023000504B514900228B4202D243F8042BFAE77B
:100240004E494F4A002352F8230041F8230001335E
:10025000742BF8D14B4B4C4A802103F8011B93427D
:10026000FBD14A4B454A1A60494B8A221A70A3F5C2
:10027000805324225A70A0221A709A799207FCD5D2
:100280009A79D406FCD4434A937903F00C03082BE3
:10029000FAD1414B60221A7002331A78802AFCD1BD
:1002A0003C4B01221A715D225A719A799006FCD555
:1002B0009979384A4906FBD5384B394919600021EC
:1002C000596020231370937903F00C030C2BFAD19F
:1002D000344B354A1A60354A354C136813F4807331
:1002E00003D123604FF4A8531360324B324A1A6093
:1002F00000225A60072243F8042C304AC3F80C2D20
:1003000062B603F013FB2368DA0705D52C4803F027
:100310009BFA2C4B2C4A1A602C4B1B785B0609D598
:10032000284C294B22689A4204D1254803F08CFAC4
:100330000023236003F0DAF905F09EFA04F036FB9F
:10034000FEE700BF0E20054030800440823F0400DD
:100350000100002B88ED00E0002008E0030000858C
:1003600002D0074000E00740B811FF1F489E000080
:100370003007FF1FB811FF1FA065FF1F0002FF1FFE
:100380000000000000E400E064E400E008ED00E0AC
:10039000005006400040064001E007404480044011
:1003A0000000060204800440C010070010D0034083
:1003B00014D0034014E000E01FBF02000000202022
:1003C000BD9D1B631CE00340A5C3945A00F0074089
:1003D000FFFFFFFFFFFFFFFFFFFFFFFFFFFFFFFF2D
:1003E000FFFFFFFFFFFFFFFFFFFFFFFFFFFFFFFF1D
:1003F000FFFFFFFFFFFFFFFFFFFFFFFFFFFFFFFF0D
:10040000FFFFFFFFFFFFFFFFFFFFFFFFDEF9FFFF23
:1004100010B5054C237833B9044B13B10448AFF33E
:1004200000800123237010BDB811FF1F00000000E1
:10043000449E0000084B10B51BB108490848AFF3B3
:1004400000800848036803B910BD074B002BFBD0A0
:10045000BDE81040184700BF00000000BC11FF1F9E
:10046000449E0000B811FF1F0000000000207047EC
:10047000034B186810B103681B681847704700BF2A
:100480001064FF1F034B186810B103681B681847FE
:10049000704700BF1464FF1F42F61013F0B5C1503F
:1004A0004348444F05680368B7FBF1F643F0A043A7
:1004B000B7FBF6F791B005F080750360CF1B0368BA
:1004C000DC01FCD5052E70D90020DFF8E8E00446F9
:1004D000831CB6FBF3FCBCF1190F00F101000CFB0F
:1004E00003F3F5D8BEFBF3F3CB1A002BB8BF5B4286
:1004F000BB4217DB17D0BCF1050FE9D8631CB6FB74
:10050000F3F6053E142E02D8B7F5967F16DD3DB9F9
:10051000274A136823F0805313601368D901FCD471
:1005200011B0F0BD0446BCF10B0F05D9BCF1120FA0
:1005300098BF04461F46DEE71F46DCE717461E4904
:100540003F22684602F0D0FF06EB460610AB1E4481
:100550001A4816F8403C16F83F1C16F83E2CC90401
:1005600003F0070646F4800601F46013120446EA1D
:10057000030102F4E0230B4343F4804343EA0464A1
:1005800004600368022F14BF23F0080343F008033C
:100590000360002DC4D1064A136823F08053136012
:1005A0001368DB01FCD411B0F0BD01230024A6E7E1
:1005B000004002400024F40064980000044002401F
:1005C00042F61013F0B5C1504348444F0568036824
:1005D000B7FBF1F643F0A043B7FBF6F791B005F097
:1005E00080750360CF1B0368DC01FCD5052E70D934
:1005F0000020DFF8E8E00446831CB6FBF3FCBCF106
:10060000190F00F101000CFB03F3F5D8BEFBF3F367
:10061000CB1A002BB8BF5B42BB4217DB17D0BCF133
:10062000050FE9D8631CB6FBF3F6053E142E02D87D
:10063000B7F5967F16DD3DB9274A136823F080533E
:1006400013601368D901FCD411B0F0BD0446BCF1AD
:100650000B0F05D9BCF1120F98BF04461F46DEE709
:100660001F46DCE717461E493F22684602F03CFF62
:1006700006EB460610AB1E441A4816F8403C16F826
:100680003F1C16F83E2CC90403F0070646F480060A
:1006900001F46013120446EA030102F4E0230B4361
:1006A00043F4804343EA046404600368022F14BFE8
:1006B00023F0080343F008030360002DC4D1064A69
:1006C000136823F0805313601368DB01FCD411B06E
:1006D000F0BD01230024A6E700400A400024F400F6
:1006E0006498000004400A400020704700207047D2
:1006F000082070470020704700207047082070478E
:10070000104A1149136808681268096802F07F02EC
:10071000C1F3036101320431B2EB410F10D303F096
:100720007F03C0F30360053B0130A3EB4000C3B27D
:10073000044A106800F07F000130C01AC0B2704750
:100740000023F5E700400A4034400A40104A1149AE
:10075000136808681268096802F07F02C1F3036138
:1007600001320431B2EB410F10D303F07F03C0F329
:100770000360053B0130A3EB4000C3B2044A10689C
:1007800000F07F000130C01AC0B270470023F5E7C7
:100790000040024034400240034901220B6802FA43
:1007A00000F003430B6070473040024003490122D0
:1007B0000B6802FA00F003430B60704730400A40B8
:1007C0002DE9F84F42F60C11074642F615120023A8
:1007D0004B207850A94CBB547B60BB60FB603B61F5
:1007E0002278A748A74EA849A84D42F0800222705F
:1007F0000268A74CC6F86C4142F0100202600A6819
:1008000022F400520A602A78002A00F02A81A14AC4
:1008100011682B70002900F024811168B1F5007F68
:1008200008BF13609C4B4FF400721A609B4B1A7800
:10083000002A00F00A819A4A1068002119700028E5
:1008400000F003811368B3F5007F964B08BF116079
:100850004FF400721A6094490B6823F000430B6058
:100860000B6843F0A0430B600A688F4BD201FBD5A5
:1008700085490A6842F008020A601A6842F080421C
:100880001A601A461168884BCE02FBD41A6842F0EF
:1008900000721A60196811F00071FBD18248026879
:1008A000814BD501FBD51A68804842F400321A60AA
:1008B0001A6842F480321A601A6842F480521A6050
:1008C0001A6842F400521A601A6842F480021A60F0
:1008D0001A6842F400221A601A6822F408421A6068
:1008E000026842F4E02202601A6842F400121A60C0
:1008F0001A6842F080621A6018681A6842F0A042D2
:1009000000F080781A601A686748D401FBD5036844
:10091000674C23F000530022036022600368864680
:100920001646644B6448604D134410441B0180001C
:10093000DE609E605E601E600660DEF800300132A0
:1009400003F07F03D2B201339A424FF00004E8D3A0
:100950005A4A5B485B4B046014601A681A602B6843
:10096000DFF84CB1514E4FF000694FF0010A1DE025
:100970002B6803F07F030133B1EB930F34BF4FF0CB
:1009800080634FF08C630360336813F4803318BFC7
:100990004FF08043CEF800302B684348013403F019
:1009A0007F03E4B201339C4221461DD22B68424AA8
:1009B000404803F07F03013322442044B1EB530F3E
:1009C0004FEA820E4FEA0010D2D3C0F800902B6895
:1009D00099002CD41F2C0AFA04F12DD8DBF8003032
:1009E0000B43CBF80030D7E7B8F1000F06D103680E
:1009F00023F0805303600368DA01FCD42A4A1368A9
:100A000023F0805313601368DB01FCD442F60C130F
:100A10000121FA5853099B0003F1604303F5614338
:100A200002F01F0201FA02F21A60BDE8F88FFFF728
:100A30008DFE8442B0D3CDE7234AA4F12003116890
:100A40000AFA03F30B431360A6E7164B1A68B2F5D4
:100A5000007F04BF00221A60114B4FF400721A602D
:100A6000F9E60D4B1A68B2F5007F04BF00221A6048
:100A7000084B4FF400721A60D8E600BF00500640E1
:100A80003C8004400002FF1F044002403107FF1F6A
:100A9000710400003090044048A004403007FF1F5C
:100AA000349004404CA004400040024034400240D6
:100AB0002840024008240004209200101040024008
:100AC0004840024030400240244002402DE9F84FA7
:100AD00042F60C11074642F615135E2001227850AB
:100AE0008C4CFA5400237B60BB60FB603B61237835
:100AF000894A8A488A4E8B4D8B4943F08003237084
:100B000013688A4C43F0100313600368884AC4F8E2
:100B1000B82123F400534FF40072036032602A605E
:100B20000B6823F000430B600B6843F0A0430B609D
:100B30000A687D4BD201FBD578490A6842F0080269
:100B40000A601A6842F080421A601A461168764BB1
:100B5000CE02FBD41A6842F000721A60196811F0D4
:100B60000071FBD1704802686F4BD501FBD51A6844
:100B7000704842F400321A601A6842F480321A60F7
:100B80001A6842F480521A601A6842F400521A60DD
:100B90001A6842F480021A601A6842F400221A604D
:100BA0001A6822F408421A60026842F4E0220260E5
:100BB0001A6842F400121A601A6842F080621A60E1
:100BC00018681A6842F0A04200F080781A601A682B
:100BD0005548D401FBD50368574C23F0005300223D
:100BE00003602260036886461646544B54484E4DB7
:100BF000134410441B018000DE609E605E601E6036
:100C00000660DEF80030013203F07F03D2B2013318
:100C10009A424FF00004E8D34A4A4B484B4B0460D9
:100C200014601A681A602B68DFF80CB1414E4FF05F
:100C300000694FF0010A1DE02B6803F07F030133C8
:100C4000B1EB930F34BF4FF080634FF08C630360C0
:100C5000336813F4803318BF4FF08043CEF8003070
:100C60002B683148013403F07F03E4B201339C4226
:100C700021461DD22B68324A304803F07F030133EE
:100C800022442044B1EB530F4FEA820E4FEA00108A
:100C9000D2D3C0F800902B6899002CD41F2C0AFAEC
:100CA00004F12DD8DBF800300B43CBF80030D7E748
:100CB000B8F1000F06D1036823F080530360036886
:100CC000DA01FCD4184A136823F0805313601368C8
:100CD000DB01FCD442F60C130121FA5853099B00A6
:100CE00003F1604303F5614302F01F0201FA02F2CF
:100CF0001A60BDE8F88FFFF703FDA042B0D8CDE73A
:100D0000134AA4F1200311680AFA03F30B4313609A
:100D1000A6E700BF005006403080044004400A406F
:100D200060D0044064D0044000400A400002FF1F2D
:100D30008504000034400A4028400A4008A400040A
:100D40002092021010400A4048400A4030400A40B9
:100D500024400A402DE9F843DFF8CC90DFF8CC803E
:100D60002B4C2C4F2C4E2D4D4846FFF729FD41466C
:100D700048460022FFF790FB2046FFF7A7FE4146BA
:100D8000204600220124FFF71BFC254B08222146A8
:100D90002A20DA72DC7102F071FD2146292002F06E
:100DA0006DFD2146282002F069FD00212A2002F075
:100DB0005FFD0021292002F05BFD0021282002F0C8
:100DC00057FD2146062002F059FD2146052002F07C
:100DD00055FD21460E2002F051FD2146272002F04C
:100DE0004DFD104B3C70214606201C7034702C7059
:100DF00002F03EFD3978052002F03AFD31780E20F0
:100E000002F036FD29782720BDE8F84302F030BD16
:100E1000F43AFF1F1964FF1F1864FF1F1B64FF1FB4
:100E20003407FF1F1A64FF1FDC11FF1F90D003005F
:100E30001F2938B50D46144633D91C49A5F12000A9
:100E40000A680123834013430B60194BE2792B445A
:100E50001B014FF000611960BAB1217A22680029A4
:100E600022F060425A6014BF4FF4E0014FF4C00119
:100E7000E06800BA9860206900BAD860E27A41EA76
:100E8000024242F040621A6038BD2168207A094A65
:100E900089040A4000285A600CBF00214FF48011D9
:100EA000E6E70846FFF782FCCFE700BF2C400A4088
:100EB00008A400040000FC1F1F2938B50D46144685
:100EC00033D91C49A5F120000A680123834013434C
:100ED0000B60194BE2792B441B014FF00061196044
:100EE000BAB1217A2268002922F060425A6014BF08
:100EF0004FF4E0014FF4C001E06800BA9860206947
:100F000000BAD860E27A41EA024242F040621A60D6
:100F100038BD2168207A094A89040A4000285A60AD
:100F20000CBF00214FF48011E6E70846FFF734FCC0
:100F3000CFE700BF2C400240082400040000FC1F43
:100F400000F5F0531B68DB004BD5424B2DE9F04315
:100F50001E68C6F30366F6000836002505EB450E4D
:100F600000EBCE0404F5F05213685B0F012B0DD09B
:100F700013685B0F022B28D013685B0F052B32D050
:100F80000135B542EAD10020BDE8F083176817F4B7
:100F9000607FF5D0144604342468A14257D09446AB
:100FA0004FEA4E0EDCF80020DFB27B1CC2F3C21207
:100FB0000EEB0304974204F5F064E1D250F82440AC
:100FC000A142EFD10120BDE8F08304F5F0530433D2
:100FD0001B688B42D4D804F5F054A3689942CFD84B
:100FE000F0E701207047136813F4607FC8D004F560
:100FF000F05C64460CF1140CDCF80070D4F804804A
:10100000DCF8003001EA070408EA03039C42D9D067
:1010100014464FEA4E07012322680133C2F3C2127D
:10102000DBB2013207EB030E93420EF5F06EA7D24E
:10103000DCF8008050F82E90DCF8002001EA080E61
:1010400009EA02029645E7D10120BDE8F08318467F
:10105000BDE8F0833440024001EB4101C90030B4E7
:1010600000F5045463186058C0002AD56058400F3A
:10107000012829D06058400F022839D06058400F0D
:10108000052802D0002030BC70476058C0F3C21061
:10109000C0B158695C68596910402140884210D03D
:1010A00001211C680131C4F3C214C9B20134A14248
:1010B000E8D25C6953F821505869144028408442B2
:1010C000EFD1012030BC70476158C1F3C211C1B1EA
:1010D00059688A42F6D01968C4B2C1F3C2118C4271
:1010E00004F10100CED253F820109142F3D1E8E789
:1010F00059688A42C6D3986882428CBF002001207A
:10110000E0E70846DEE700BF00F5F0531B68DB00B0
:101110004BD5424B2DE9F0431E68C6F30366F6003B
:101120000836002505EB450E00EBCE0404F5F05221
:1011300013685B0F012B0DD013685B0F022B28D0B7
:1011400013685B0F052B32D00135B542EAD1002080
:10115000BDE8F083176817F4607FF5D014460434B7
:101160002468A14257D094464FEA4E0EDCF8002086
:10117000DFB27B1CC2F3C2120EEB0304974204F5EC
:10118000F064E1D250F82440A142EFD10120BDE843
:10119000F08304F5F05304331B688B42D4D804F574
:1011A000F054A3689942CFD8F0E701207047136844
:1011B00013F4607FC8D004F5F05C64460CF1140CA5
:1011C000DCF80070D4F80480DCF8003001EA070491
:1011D00008EA03039C42D9D014464FEA4E07012384
:1011E00022680133C2F3C212DBB2013207EB030EF5
:1011F00093420EF5F06EA7D2DCF8008050F82E90E6
:10120000DCF8002001EA080E09EA02029645E7D15F
:101210000120BDE8F0831846BDE8F08334400A4061
:1012200001EB4101C90030B400F504546318605863
:10123000C0002AD56058400F012829D06058400FBF
:10124000022839D06058400F052802D0002030BC59
:1012500070476058C0F3C210C0B158695C685969E2
:1012600010402140884210D001211C680131C4F394
:10127000C214C9B20134A142E8D25C6953F82150CA
:101280005869144028408442EFD1012030BC704797
:101290006158C1F3C211C1B159688A42F6D01968C8
:1012A000C4B2C1F3C2118C4204F10100CED253F892
:1012B00020109142F3D1E8E759688A42C6D3986872
:1012C00082428CBF00200120E0E70846DEE700BF35
:1012D00038B543881A2503F00F0305FB03030446C2
:1012E00000209875638803F00F0305FB0343DA754C
:1012F000608800F00F0005FB0040183004F0BAFDD4
:10130000628823889BB292B283F010039A420DD078
:101310006388013303F01F036380A3889BB20F2B04
:1013200003D8A38801339BB2A38038BD238801333F
:1013300003F01F032380EBE730B5182487B0054680
:101340002246684602F0D0F805F5D8502246694694
:101350001A30FFF7BDFF07B030BD00BFF0B58B7D81
:10136000474C054687B00E462068002B38D110F058
:10137000005062D123680146424B0B441B011B689D
:10138000C3F30363082B24D03D4A04E02368C3F36E
:101390000363082B1DD013683A4C481C03F07F03ED
:1013A000C1B201330C4499424FEA0414EED30FCE7C
:1013B0006C460FC496E80300FF2384E80300284628
:1013C00069468DF81430FFF7B7FF4FF0FF3007B0D4
:1013D000F0BD28463246FFF72BFD012007B0F0BDD7
:1013E00010F0005033D12368264B03441B01044600
:1013F0001A68110114D4224902E01A6812010FD4AC
:101400000A68204B013002F07F02C0B2013203446F
:1014100090424FEA03130446EFD31B4B4FF0FF34C7
:101420001B68C3F30363082B1AD128463246E1B286
:10143000FFF7FEFC012007B0F0BDFFF761F923685C
:1014400003F07F0301338342014695D8AFE7FFF7EE
:1014500057F9236803F07F0301338342C4D8DCE7E4
:101460000FCE6F460FC796E8030087E803002846B3
:1014700069468DF81440FFF75FFF4FF0FF30A6E795
:1014800000400A4008A4000470400A4030B5182407
:1014900087B005462246684602F026F805F5D85082
:1014A000224669461A30FFF713FF07B030BD00BF70
:1014B000F0B58B7D474C054687B00E462068002B63
:1014C00038D110F0005062D123680146424B0B44E2
:1014D0001B011B68C3F30363082B24D03D4A04E0BF
:1014E0002368C3F30363082B1DD013683A4C481CD0
:1014F00003F07F03C1B201330C4499424FEA041454
:10150000EED30FCE6C460FC496E80300FF2384E8A9
:101510000300284669468DF81430FFF7B7FF4FF0F7
:10152000FF3007B0F0BD28463246FFF7C5FC01206A
:1015300007B0F0BD10F0005033D12368264B0344B0
:101540001B0104461A68110114D4224902E01A68EA
:1015500012010FD40A68204B013002F07F02C0B2A2
:101560000132034490424FEA03130446EFD31B4B6E
:101570004FF0FF341B68C3F30363082B1AD12846CE
:101580003246E1B2FFF798FC012007B0F0BDFFF74B
:10159000DDF8236803F07F0301338342014695D8C9
:1015A000AFE7FFF7D3F8236803F07F0301338342EB
:1015B000C4D8DCE70FCE6F460FC796E8030087E874
:1015C0000300284669468DF81440FFF75FFF4FF08F
:1015D000FF30A6E7004002400824000470400240AB
:1015E0000B78632B70B5044615460FD000EB8303D0
:1015F00042F204729B580BB12846984742F6040306
:10160000E3584BB12846BDE87040184742F20473D6
:10161000C358002BF0D1F1E770BD00BF0B78632BEE
:1016200070B5044615460FD000EB830342F20472F6
:101630009B580BB12846984742F60403E3584BB138
:101640002846BDE87040184742F20473C358002B87
:10165000F0D1F1E770BD00BF38B543881A25DBB281
:1016600005FB03030446002083F806016388DBB210
:1016700005FB034383F807216088C0B205FB0040E7
:1016800000F5847004F0F6FB628823889BB292B266
:1016900083F480739A420DD063880133C3F3080347
:1016A0006380A3889BB2FF2B03D8A38801339BB22E
:1016B000A38038BD23880133C3F308032380EBE7FD
:1016C0002DE9F04F0D46064689460FCD8DB06C468C
:1016D0000FC495E8030084E80300DFF89CA03546BA
:1016E00006F110074FF0010855F8044F64B1D4E932
:1016F00002019DF9142008FA02F31840002150EA73
:10170000010322D1237C9BB9BD42EDD106F51C53C8
:101710001B782BB3494606A8182201F0E5FE06A95E
:1017200006F114001822FFF797FF0DB0BDE8F08F07
:101730002368D3F800B0D345E6D020469DF8153095
:101740004FF0FF326946D847DEE72368D3F800B090
:10175000D345D7D09DF8153069462046D847D1E704
:101760000CA999F8143001F8183D30464A46FFF7A5
:1017700055FF0DB0BDE8F08F6D04000042F201731B
:10178000C35C002B00F0AA802DE9F04F0F460E46F7
:1017900005460FCF89B002AC0FC497E8030084E878
:1017A0000300974B1B689B0054D5964B1B68C3F3F3
:1017B000036A4FEACA0A0AF1080A00244FF0630BD1
:1017C0000CE01968490F022900F095801968490F4B
:1017D000052900F0AD80013454453BD096F9143012
:1017E000632B5FFA84FE35D004EB440805EBC8098F
:1017F00009F5F053196811F0604FECD01968490FE2
:101800000129DED11A68F179C2F300429142E2D196
:101810001A6812F4607FDED01F464FEA48080023A2
:1018200006E03A685FFA89F3C2F3C2129342D2D259
:1018300003F1010908EB090303F5F063029A55F877
:1018400023309A42EDD102A928468DF81CB0FFF74B
:1018500037FFE6E700236A4F8DF80E303C6814F03E
:1018600000543CD13B68DFF8988108E0D8F800309C
:10187000013403F07F03E4B201339C4238D296F97D
:101880001430A342F2D004EB440105EBC10202F58F
:101890000453186810F0604FE8D01868F779C0F367
:1018A000C0608742E2D11868400F012874D01968DF
:1018B000490F022900F094801B685B0F052BD5D1DE
:1018C000029A21462846FFF7ABFC0028CED002A999
:1018D00028468DF81C40FFF7F3FEC7E77047FEF778
:1018E0000FFF3B6803F07F03013398420446BAD3ED
:1018F00009B0BDE8F08F1B68F279C3F300439A4248
:101900007FF469AF09F5F0530433029A1B689A42D9
:10191000FFF461AF09F5F059D9F808309A423FF663
:101920005AAF02A928468DF81CB0FFF7C9FE52E74E
:101930001B6813F4607F3FF44EAF09F5F0534FEA94
:101940004808143301270AE009F5F0510137096806
:10195000C1F3C211FFB201318F42BFF43CAF08EBBB
:10196000070101F5F0611868029A55F821C019685D
:1019700010400CEA01018842E6D102A928460193F1
:101980008DF80EE0CDF800E08DF81CB0FFF798FE62
:10199000019BDDF800E0D7E71A6812F4607F3FF49E
:1019A00065AF1F464FEA410A002307E03A685FFA35
:1019B00089F3C2F3C2129342BFF458AF03F1010995
:1019C0000AEB090303F50463029A55F823309A429F
:1019D000ECD102A928468DF81C40FFF771FEE5E71F
:1019E00002F50453043302991B689942FFF43EAF99
:1019F00002F50452936899427FF669AF36E700BF5B
:101A000000400A4034400A40304AF8B5136813F0E9
:101A1000005355D0136813F400434DD02C4B1B6872
:101A200013F020034CD02B4B2B4A1B688B800C46A9
:101A3000C3F30341E1721268284E244903F40017EE
:101A4000002F0CBF1227002722F0604222FA07F273
:101A500022603268E2734FEA12274FEA12460546C7
:101A60004FEA12621E48A773667322730268E2741B
:101A70004FEA12264FEA1240A67460744FEA1262CF
:101A800014BF01270027C3F3005642F61510227435
:101A9000E77126722A5C6275DB0D6322A3712275E1
:101AA0000B681B040ED521462846FFF767FE216808
:101AB0002846FFF729FBF8BD283212689206ADD5FB
:101AC0001846F8BD0520FEF771FEECE700400A401D
:101AD00030400A4080400A4084400A4088400A4022
:101AE0008C400A402DE9F04F7D4B1B6885B013F008
:101AF000005302900F4640F0EC800193784C029B1B
:101B0000226842F6141102F07F02585C01329042C2
:101B100066D8029ADFF8D8A1DFF8D8B102F52456CA
:101B20003346153314360393032547E000294CD080
:101B30002022C2F14002904245DB206810F00050A4
:101B400052D1013D15F0FF05307049D02268920056
:101B500005D5019A824202D9501EC0B23070226867
:101B600002F07F020132904208D3206810F000504A
:101B70002FD1013D15F0FF05307031D0DBF800208A
:101B800022FA00F808F00102002313430DD1554A50
:101B90000244120111680B0107D4C1F3036EBEF1B8
:101BA000020F24D0BEF1060F79D00130C0B23070E0
:101BB000226802F07F020132904211D8DAF8002048
:101BC0000021002AB2D13078C0E7B2FA82F2203286
:101BD000AFE7FEF795FD013D15F0FF053070CDD163
:101BE000002005B0BDE8F08FFEF78AFDA9E701F4FB
:101BF00000100028506814BF4FF0010C4FF0000C8B
:101C0000C1F3005E87F807C020F0604087F808E065
:101C100000D1800C3860C1F30340F8723078039B28
:101C200000F1010E86F800E03875B98019787975F1
:101C30009168F9739168F8792B4B090AB973916827
:101C4000090C79739168090E3973D168F974D168F8
:101C5000090AB974D168090C7974D16800280CBFDD
:101C60004FF080604FF08C60090E39741060387D41
:101C70001A681F282AD91D4B20381A68012101FA39
:101C800000F01043186039460298FFF777FD3A6874
:101C9000397D0298FFF7C4FAF8B9307885E701F486
:101CA00000100028506814BF4FF0010C4FF0000CDA
:101CB000C1F3005E87F807C020F0604087F808E0B5
:101CC00000D1800C386001207872A4E7FEF76EFD29
:101CD000D9E7FEF715FD019010E7012081E700BF6D
:101CE00000400A4008A4000408400A402C400A4072
:101CF00030400A4028400A402DE9F04F99B00023B7
:101D000008259E4C9E499F4A089306930793099382
:101D10000A930B938DF82350D4F80080D1F800A0DB
:101D200013688146180403D41368990000F13881C0
:101D3000DFF850B24AF00105DBF80040B5FA85F54E
:101D4000C5F1200514F00054EDB240F09880DBF8A6
:101D5000003009F524531A461533029302F10803A3
:101D600003938DE8200416E0062900F0ED80042995
:101D700000F01982082900F09881824B1B68013419
:101D800003F07F03E4B201339C4280F08580009B26
:101D9000A34200F0818028FA04F606F00102002335
:101DA0001343EAD0019B23FA04FA0AF0010200234C
:101DB0001343E2D0744B23441B011A68C2F303613E
:101DC0000229D1D102F400110029586814BF4FF044
:101DD000010E4FF0000E8DF81FE020F0604040F043
:101DE000C780800C0690C2F303408DF82300029850
:101DF0008DF82C4000788DF82D0098688DF827001C
:101E00009868ADF81C20020A8DF826209A68120CFA
:101E10008DF825209A68120E8DF82420DA688DF846
:101E20002B20DA68120A8DF82A20DA68120C8DF855
:101E30002920DA6800290CBF4FF080614FF08C61D7
:101E4000120E8DF828201960504B20461B68FEF7B3
:101E5000ADFC069A21464846FFF7E2F9002840F01B
:101E60001F8106A94846FFF789FC06A8AFF300804A
:101E700006A8AFF3008006A8AFF300807DE7FEF769
:101E80003FFCDBF8003003F07F030133834204465C
:101E900002D985423FF65DAF3D4B3E4C1868216844
:101EA0003D4A41400A40002A45D009F5E653103327
:101EB0009A8892B20F2A3ED89A8892B20F2A40F29C
:101EC0006D8141F6D04659885D8839F8062001F0C9
:101ED0000F0192B20231ADB282F01002954243F886
:101EE000210000F0CA8159882C4D09F5EC520131CE
:101EF00001F01F01183259802E6893889BB20F2B76
:101F0000B6B240F2468141F698575188558839F863
:101F1000073001F00F019BB202EB4101ADB283F03B
:101F200010039D42CE8000F0A081538820600133D1
:101F300003F01F035380164A136803431360BFF373
:101F40004F8F19B0BDE8F08F02F4001100295868D6
:101F500014BF4FF0010E4FF0000E8DF81FE020F07F
:101F6000604008D1800C069001208DF821003AE7EE
:101F70000690012137E706900121F5E728400A4045
:101F800030400A4000400A4008A4000408400A40CB
:101F900020400A40D811FF1FBFFF07001C400A4025
:101FA00018F0200F3FF4C4AE1AF0200F3FF4C0AE7B
:101FB000BA4BBB4A1B68ADF81C30C3F303418DF824
:101FC00023101268B74903F40010002814BF002042
:101FD000122022F0604222FA00F24FEAD350069219
:101FE0008DF81E000A688DF827200868AE4A4FEA6F
:101FF00010208DF8260008684FEA10408DF8250063
:1020000008684FEA10608DF8240010688DF82B00E6
:1020100010684FEA10208DF82A0010684FEA10402F
:102020008DF82900126842F615104FEA126219F86D
:1020300000008DF828204FF063028DF82C208DF8D9
:102040002D0014BF01220022C3F3005305208DF898
:10205000203051F8803C8DF81F20FEF7A7FB1AF0C6
:10206000400F40F016811AF0800F40F00E8106A953
:102070004846FFF783FB06A8AFF3008006A8AFF33E
:10208000008006A8AFF3008006994846FFF73CF8A9
:1020900000283FF44DAE06A94846FFF711FB47E67E
:1020A00006A94846FFF70CFBDBE60299C2F3034E94
:1020B000087859688DF82C408DF82D008DF823E0B4
:1020C00098688DF827009868ADF81C20000A8DF8F4
:1020D00026009868000C8DF825009868000E8DF891
:1020E0002400D8688DF82B00D868000A8DF82A00E3
:1020F000D868000C02F400128DF8290004F6022EB4
:10210000D868002A21F0604359F82E2014BF00211E
:10211000122123FA01F34FEA106114BF01200020BD
:1021200006938DF828108DF81F000AB106A8904775
:10213000039B1B680BB106A8984709F5D8531A33BF
:1021400004939B889BB2002B00F0C580049A1388EF
:102150001A2103F00F0301FB03211831182212A8E2
:1021600001F0C2F90DF1480EBEE80F000CADAC460F
:10217000ACE80F009EE803008CE803009DF94430B2
:102180005A1C00F093809C427FF4F7AD2A46E1B2DE
:102190008EE0938801339BB29380B4E69A88013233
:1021A00092B29A808DE60299586809788DF82C4091
:1021B000C2F3034E8DF82D108DF823E099688DF849
:1021C00027109968ADF81C20090A8DF82610996827
:1021D000090C8DF825109968090E8DF82410D9681E
:1021E0008DF82B10D968090A8DF82A10D968090CC6
:1021F00002F4001E8DF8291004F60222BEF1000F31
:10220000D3F80CE059F8221020F0604214BF0020EF
:10221000122022FA00F24FEA1E6014BF4FF0010EA6
:102220004FF0000E06928DF828008DF81FE019B1CE
:1022300006A804938847049B039A12681AB106A85B
:1022400004939047049B09F5D8521A32049292885D
:1022500092B2002A7FF47AAF20460493FEF7A6FAE2
:10226000049B4FF000621A6087E539F807300133AC
:1022700003F01F0329F8073057E639F8062001322A
:1022800002F01F0229F806202DE60720FEF78EFA3D
:10229000EDE60620FEF78AFAE5E600BF80400A4038
:1022A00084400A4088400A408C400A402A46214621
:1022B0004846FEF7BDFD04990B88013303F01F0368
:1022C0000B808B889BB2002B3FF457AD8B88013B72
:1022D0009BB28B8051E52046FEF768FA4DE500BFC2
:1022E0002DE9F04F0D46064689460FCD8DB06C4660
:1022F0000FC495E8030084E80300DFF89CA035468E
:1023000006F110074FF0010855F8044F64B1D4E905
:1023100002019DF9142008FA02F31840002150EA46
:10232000010322D1237C9BB9BD42EDD106F51C539C
:102330001B782BB3494606A8182201F0D5F806A948
:1023400006F114001822FFF787F90DB0BDE8F08FF1
:102350002368D3F800B0D345E6D020469DF8153069
:102360004FF0FF326946D847DEE72368D3F800B064
:10237000D345D7D09DF8153069462046D847D1E7D8
:102380000CA999F8143001F8183D30464A46FFF779
:1023900027F90DB0BDE8F08F6D04000042F2017323
:1023A000C35C002B00F0AA802DE9F04F0F460E46CB
:1023B00005460FCF89B002AC0FC497E8030084E84C
:1023C0000300974B1B689B0054D5964B1B68C3F3C7
:1023D000036A4FEACA0A0AF1080A00244FF0630BA5
:1023E0000CE01968490F022900F095801968490F1F
:1023F000052900F0AD80013454453BD096F91430E6
:10240000632B5FFA84FE35D004EB440805EBC80962
:1024100009F5F053196811F0604FECD01968490FB5
:102420000129DED11A68F179C2F300429142E2D16A
:102430001A6812F4607FDED01F464FEA4808002376
:1024400006E03A685FFA89F3C2F3C2129342D2D22D
:1024500003F1010908EB090303F5F063029A55F84B
:1024600023309A42EDD102A928468DF81CB0FFF71F
:1024700037FFE6E700236A4F8DF80E303C6814F012
:1024800000543CD13B68DFF8988108E0D8F8003070
:10249000013403F07F03E4B201339C4238D296F951
:1024A0001430A342F2D004EB440105EBC10202F563
:1024B0000453186810F0604FE8D01868F779C0F33B
:1024C000C0608742E2D11868400F012874D01968B3
:1024D000490F022900F094801B685B0F052BD5D1B2
:1024E000029A21462846FEF7B7FD0028CED002A961
:1024F00028468DF81C40FFF7F3FEC7E77047FEF74C
:1025000025F93B6803F07F03013398420446BAD3B0
:1025100009B0BDE8F08F1B68F279C3F300439A421B
:102520007FF469AF09F5F0530433029A1B689A42AD
:10253000FFF461AF09F5F059D9F808309A423FF637
:102540005AAF02A928468DF81CB0FFF7C9FE52E722
:102550001B6813F4607F3FF44EAF09F5F0534FEA68
:102560004808143301270AE009F5F05101370968DA
:10257000C1F3C211FFB201318F42BFF43CAF08EB8F
:10258000070101F5F0611868029A55F821C0196831
:1025900010400CEA01018842E6D102A928460193C5
:1025A0008DF80EE0CDF800E08DF81CB0FFF798FE36
:1025B000019BDDF800E0D7E71A6812F4607F3FF472
:1025C00065AF1F464FEA410A002307E03A685FFA09
:1025D00089F3C2F3C2129342BFF458AF03F1010969
:1025E0000AEB090303F50463029A55F823309A4273
:1025F000ECD102A928468DF81C40FFF771FEE5E7F3
:1026000002F50453043302991B689942FFF43EAF6C
:1026100002F50452936899427FF669AF36E700BF2E
:102620000040024034400240304AF8B5136813F0CD
:10263000005355D0136813F400434DD02C4B1B6846
:1026400013F020034CD02B4B2B4A1B688B800C467D
:10265000C3F30341E1721268284E244903F40017C2
:10266000002F0CBF1227002722F0604222FA07F247
:1026700022603268E2734FEA12274FEA124605469B
:102680004FEA12621E48A773667322730268E274EF
:102690004FEA12264FEA1240A67460744FEA1262A3
:1026A00014BF01270027C3F3005642F61510227409
:1026B000E77126722A5C6275DB0D6322A3712275B5
:1026C0000B681B040ED521462846FFF767FE2168DC
:1026D0002846FEF735FCF8BD283212689206ADD5C3
:1026E0001846F8BD0520FEF757F8ECE70040024019
:1026F0003040024080400240844002408840024016
:102700008C4002402DE9F04F7D4B1B6885B013F0E3
:10271000005302900F4640F0EC800193784C029BEE
:10272000226842F6141102F07F02585C0132904296
:1027300066D8029ADFF8D8A1DFF8D8B102F524569E
:102740003346153314360393032547E000294CD054
:102750002022C2F14002904245DB206810F0005078
:1027600052D1013D15F0FF05307049D0226892002A
:1027700005D5019A824202D9501EC0B2307022683B
:1027800002F07F020132904208D3206810F000501E
:102790002FD1013D15F0FF05307031D0DBF800205E
:1027A00022FA00F808F00102002313430DD1554A24
:1027B0000244120111680B0107D4C1F3036EBEF18C
:1027C000020F24D0BEF1060F79D00130C0B23070B4
:1027D000226802F07F020132904211D8DAF800201C
:1027E0000021002AB2D13078C0E7B2FA82F220325A
:1027F000AFE7FDF7ABFF013D15F0FF053070CDD120
:10280000002005B0BDE8F08FFDF7A0FFA9E701F4B7
:1028100000100028506814BF4FF0010C4FF0000C5E
:10282000C1F3005E87F807C020F0604087F808E039
:1028300000D1800C3860C1F30340F8723078039BFC
:1028400000F1010E86F800E03875B98019787975C5
:102850009168F9739168F8792B4B090AB9739168FB
:10286000090C79739168090E3973D168F974D168CC
:10287000090AB974D168090C7974D16800280CBFB1
:102880004FF080604FF08C60090E39741060387D15
:102890001A681F282AD91D4B20381A68012101FA0D
:1028A00000F01043186039460298FFF777FD3A6848
:1028B000397D0298FEF7D0FBF8B9307885E701F44E
:1028C00000100028506814BF4FF0010C4FF0000CAE
:1028D000C1F3005E87F807C020F0604087F808E089
:1028E00000D1800C386001207872A4E7FDF754FF16
:1028F000D9E7FDF72BFF019010E7012081E700BF2A
:102900000040024008240004084002402C400240DD
:102910003040024028400240F0B502218DB0002036
:1029200002F03AF800282AD14D4B1B689D0026D5AD
:102930004C4B1B689C0622D44B4B1B6898061ED53B
:102940004A494B48FFF770FEF8B90221002002F017
:1029500023F800284BD1474B1B68990047D5464BBD
:102960001B689A0643D4454B1B689B063FD53F49DD
:102970004348FFF749F800283FD10DB0F0BD3B496F
:102980003B48FFF7BFFE0028DFD03E4A374C1378A4
:102990003D4D83F0010319460E20137000F068FFCF
:1029A00021463748FEF7DAFC384A2968136808934D
:1029B000089B5B1A052BC8D911680991E77CA07C9C
:1029C000617C069794F810E00590E77BA07B04916A
:1029D000617B099E01900091237B2268CDF80CE079
:1029E00002972B492B482E6001F090FFADE71F495D
:1029F0002348FFF777F80028BFD0274A1B4C1378ED
:102A0000214D83F0010319460520137000F030FFBB
:102A100021461748FEF74CFD1C4A296813680A93A3
:102A20000A9B5B1A052BA8D911680B91E77CA07C47
:102A3000617C069794F810E00590E77BA07B0491F9
:102A4000617B0B9E01900091237B2268CDF80CE006
:102A5000029712490F482E6001F058FF0DB0F0BDEB
:102A60000040024028400240304002403407FF1F2F
:102A7000DC11FF1F00400A4028400A4030400A4055
:102A8000F43AFF1F1864FF1F0C64FF1F1C64FF1F34
:102A9000A49800005407FF1F1964FF1FE09800006E
:102AA0002DE9F04F99B0002308259E4C9E499F4A7E
:102AB00008930693079309930A930B938DF8235079
:102AC000D4F80080D1F800A013688146180403D41C
:102AD0001368990000F13881DFF850B24AF001051F
:102AE000DBF80040B5FA85F5C5F1200514F0005477
:102AF000EDB240F09880DBF8003009F524531A4617
:102B00001533029302F1080303938DE8200416E0C5
:102B1000062900F0ED80042900F01982082900F050
:102B20009881824B1B68013403F07F03E4B20133C8
:102B30009C4280F08580009BA34200F0818028FAAF
:102B400004F606F0010200231343EAD0019B23FAA6
:102B500004FA0AF0010200231343E2D0744B234429
:102B60001B011A68C2F303610229D1D102F40011DA
:102B70000029586814BF4FF0010E4FF0000E8DF879
:102B80001FE020F0604040F0C780800C0690C2F348
:102B900003408DF8230002988DF82C4000788DF8C2
:102BA0002D0098688DF827009868ADF81C20020A5F
:102BB0008DF826209A68120C8DF825209A68120E3E
:102BC0008DF82420DA688DF82B20DA68120A8DF847
:102BD0002A20DA68120C8DF82920DA6800290CBF47
:102BE0004FF080614FF08C61120E8DF82820196033
:102BF000504B20461B68FDF7CFFD069A21464846FC
:102C0000FEF72AFA002840F01F8106A94846FFF780
:102C1000C5FB06A8AFF3008006A8AFF3008006A8A6
:102C2000AFF300807DE7FDF791FDDBF8003003F0A6
:102C30007F0301338342044602D985423FF65DAFEC
:102C40003D4B3E4C186821683D4A41400A40002AED
:102C500045D009F5E65310339A8892B20F2A3ED830
:102C60009A8892B20F2A40F26D8141F6D046598877
:102C70005D8839F8062001F00F0192B20231ADB241
:102C800082F01002954243F8210000F0CA81598871
:102C90002C4D09F5EC52013101F01F011832598019
:102CA0002E6893889BB20F2BB6B240F2468141F654
:102CB00098575188558839F8073001F00F019BB2B9
:102CC00002EB4101ADB283F010039D42CE8000F0D3
:102CD000A08153882060013303F01F035380164AFC
:102CE000136803431360BFF34F8F19B0BDE8F08F33
:102CF00002F400110029586814BF4FF0010E4FF084
:102D0000000E8DF81FE020F0604008D1800C069086
:102D100001208DF821003AE70690012137E706905F
:102D20000121F5E7284002403040024000400240C7
:102D3000082400040840024020400240D411FF1F34
:102D4000BFFF07001C40024018F0200F3FF4C4AE44
:102D50001AF0200F3FF4C0AEBA4BBB4A1B68ADF867
:102D60001C30C3F303418DF823101268B74903F4F4
:102D70000010002814BF0020122022F0604222FA26
:102D800000F24FEAD35006928DF81E000A688DF8C3
:102D900027200868AE4A4FEA10208DF82600086800
:102DA0004FEA10408DF8250008684FEA10608DF852
:102DB000240010688DF82B0010684FEA10208DF861
:102DC0002A0010684FEA10408DF82900126842F678
:102DD00015104FEA126219F800008DF828204FF004
:102DE00063028DF82C208DF82D0014BF01220022E3
:102DF000C3F3005305208DF8203051F8803C8DF846
:102E00001F20FDF7C9FC1AF0400F40F016811AF0A0
:102E1000800F40F00E8106A94846FFF7BFFA06A8CA
:102E2000AFF3008006A8AFF3008006A8AFF30080E0
:102E300006994846FEF784F800283FF44DAE06A9EF
:102E40004846FFF74DFA47E606A94846FFF748FA15
:102E5000DBE60299C2F3034E087859688DF82C40DE
:102E60008DF82D008DF823E098688DF8270098687C
:102E7000ADF81C20000A8DF826009868000C8DF82B
:102E800025009868000E8DF82400D8688DF82B0076
:102E9000D868000A8DF82A00D868000C02F40012E5
:102EA0008DF8290004F6022ED868002A21F060432C
:102EB00059F82E2014BF0021122123FA01F34FEA02
:102EC000106114BF0120002006938DF828108DF8A2
:102ED0001F000AB106A89047039B1B680BB106A808
:102EE000984709F5D8531A3304939B889BB2002B5B
:102EF00000F0C580049A13881A2103F00F0301FB28
:102F000003211831182212A800F0EEFA0DF1480E34
:102F1000BEE80F000CADAC46ACE80F009EE8030025
:102F20008CE803009DF944305A1C00F093809C42C9
:102F30007FF4F7AD2A46E1B28EE0938801339BB26D
:102F40009380B4E69A88013292B29A808DE6029913
:102F5000586809788DF82C40C2F3034E8DF82D1077
:102F60008DF823E099688DF827109968ADF81C203A
:102F7000090A8DF826109968090C8DF825109968B2
:102F8000090E8DF82410D9688DF82B10D968090A1C
:102F90008DF82A10D968090C02F4001E8DF829104A
:102FA00004F60222BEF1000FD3F80CE059F822100B
:102FB00020F0604214BF0020122022FA00F24FEAF3
:102FC0001E6014BF4FF0010E4FF0000E06928DF8F8
:102FD00028008DF81FE019B106A804938847049BC8
:102FE000039A12681AB106A804939047049B09F546
:102FF000D8521A320492928892B2002A7FF47AAFA1
:1030000020460493FDF7C8FB049B4FF000621A6052
:1030100087E539F80730013303F01F0329F807303B
:1030200057E639F80620013202F01F0229F806207F
:103030002DE60720FDF7B0FBEDE60620FDF7ACFB23
:10304000E5E600BF804002408440024088400240E4
:103050008C4002402A4621464846FDF72DFF049940
:103060000B88013303F01F030B808B889BB2002B6E
:103070003FF457AD8B88013B9BB28B8051E52046D6
:10308000FDF78AFB4DE500BF10B504461A202388E2
:10309000DBB200FB0343084603F5847102F0EAFE4D
:1030A00023880133C3F308032380A3889BB21BB199
:1030B000A388013B9BB2A380002010BD2DE9F04105
:1030C00000F51C538EB01A7805460AB901221A7011
:1030D0002B8B9BB2002B4CD142F60C130122EB58E8
:1030E0005A4903F01F005B0905F5D856824041F8A4
:1030F00023201A36B3889BB241F61A38FBB135F853
:1031000008301A2103F00F0301FB03611831182264
:1031100008A808AC00F0E8F90FCC02AF0FC794E89C
:10312000030087E803009DF91C104B1C43D0484B5B
:103130000B441B011B68C3F30363082B66D042F6E4
:103140000C130121EA5853099B0003F1604303F576
:10315000614302F01F0201FA02F21A602B8BB08861
:103160009BB280B21B0380B2002118430EB0BDE8B1
:10317000F08100230824049308A98DF81340182235
:1031800005F1140008AC029303930593069307938B
:10319000FFF77AFF0FCC02AE0FC694E8030086E873
:1031A00003000EA99DF81C3001F8313D02AA284603
:1031B000FEF716FA90E7274F3C6814F000543AD116
:1031C0003B68244F07E03B68013403F07F03E4B21F
:1031D00001339C42B3D21E4B23441B011B68C3F333
:1031E0000363082BEFD102AA21462846FDF764FEAF
:1031F0003388013303F01F033380B3889BB2002B65
:10320000E1D0B388013B9BB2B380DCE702AAC9B22C
:103210002846FDF751FE35F80830013303F01F034F
:1032200025F80830B3889BB2002B88D0B388013BC7
:103230009BB2B38083E7FDF789FA3B6803F07F0315
:10324000013383420446BCD879E700BF80E100E047
:1032500008240004004002402DE9F04100F51C5311
:103260008EB01A7805460AB901221A702B8B9BB2D0
:10327000002B4CD142F60C130122EB585A4903F0B3
:103280001F005B0905F5D856824041F823201A3605
:10329000B3889BB241F61A38FBB135F808301A21D1
:1032A00003F00F0301FB03611831182208A808ACD2
:1032B00000F01AF90FCC02AF0FC794E8030087E8BB
:1032C00003009DF91C104B1C43D0484B0B441B01C1
:1032D0001B68C3F30363082B66D042F60C1301216D
:1032E000EA5853099B0003F1604303F5614302F080
:1032F0001F0201FA02F21A602B8BB0889BB280B2D7
:103300001B0380B2002118430EB0BDE8F0810023FA
:103310000824049308A98DF81340182205F114001D
:1033200008AC02930393059306930793FFF7ACFE53
:103330000FCC02AE0FC694E8030086E803000EA986
:103340009DF81C3001F8313D02AA2846FEF766F9C7
:1033500090E7274F3C6814F000543AD13B68244F63
:1033600007E03B68013403F07F03E4B201339C4281
:10337000B3D21E4B23441B011B68C3F30363082B0A
:10338000EFD102AA21462846FDF752FD33880133CA
:1033900003F01F033380B3889BB2002BE1D0B388C6
:1033A000013B9BB2B380DCE702AAC9B22846FDF715
:1033B0003FFD35F80830013303F01F0325F80830CE
:1033C000B3889BB2002B88D0B388013B9BB2B380FB
:1033D00083E7FDF795F93B6803F07F0301338342F0
:1033E0000446BCD879E700BF80E100E008A40004EF
:1033F00000400A403449354B3548364A2DE9F04FF4
:1034000041F6D24C086041F61A3B41F61C3A41F6AF
:103410001E3941F6D04841F6D44E41F6985741F650
:103420009A5601F51C5041F69C5542F20174196000
:1034300000238B82CB820B8321F80B3021F80A30DA
:1034400021F8093021F8083021F80C3021F80E302D
:10345000CB538B534B5303700B5542F60C10938296
:10346000D382138322F80B3022F80A3022F8093075
:1034700042F6101A42F6141922F80830DFF8648078
:1034800022F80C300B5022F80E3041F80A30D3539A
:1034900001F809309353C2F80080535302F51C55CC
:1034A0000D492B70135583B0096801910B4C0C49E1
:1034B000135042F80A3002F80930019B22600B6079
:1034C00003B0BDE8F08F00BFDC11FF1F1064FF1FC9
:1034D00024980000F43AFF1F1C64FF1F1464FF1FB0
:1034E0000C64FF1F4898000001B441EA000313F088
:1034F00003036FD1403A41D351F8043B40F8043BF9
:1035000051F8043B40F8043B51F8043B40F8043BBD
:1035100051F8043B40F8043B51F8043B40F8043BAD
:1035200051F8043B40F8043B51F8043B40F8043B9D
:1035300051F8043B40F8043B51F8043B40F8043B8D
:1035400051F8043B40F8043B51F8043B40F8043B7D
:1035500051F8043B40F8043B51F8043B40F8043B6D
:1035600051F8043B40F8043B51F8043B40F8043B5D
:1035700051F8043B40F8043B403ABDD2303211D3FD
:1035800051F8043B40F8043B51F8043B40F8043B3D
:1035900051F8043B40F8043B51F8043B40F8043B2D
:1035A000103AEDD20C3205D351F8043B40F8043BFD
:1035B000043AF9D204320AD0D2071CBF11F8013BF9
:1035C00000F8013B03D30B7803704B78437001BCC8
:1035D000704700BF0C2A4AD310F0030311D0C3F187
:1035E0000403D21ADB071CBF11F8013B00F8013BB2
:1035F00007D311F8013B00F8013B11F8013B00F83B
:10360000013B11F003033FF475AF30B4043AC91A1B
:10361000C3F1040C51F8044B022B19D0032B0BD02F
:10362000240A51F8043B1D0644EA050440F8044B03
:103630001C46043AF4D216E0240E51F8043B1D0255
:1036400044EA050440F8044B1C46043AF4D20AE06C
:10365000240C51F8043B1D0444EA050440F8044BD3
:103660001C46043AF4D20432B1EB0C0130BC043AEB
:10367000A0D3013A11F8013B00F8013BF9D20B78D5
:1036800003704B7843708B78837001BC704700BF28
:1036900008B5104C08E0236859050DD423681A05B5
:1036A0000FD42368DB0411D423685803F3D500F04A
:1036B000ADFA23685905F1D500F00EF823681A0514
:1036C000EFD500F009F82368DB04EDD500F004F82D
:1036D000EAE700BF3480044008B5FFF7D9FF00BF18
:1036E000014B10221A80704700200540704700BF30
:1036F000094908B50B6830B16A461844A2F5005272
:10370000904202D20860184608BD02F0AFF80C23C0
:1037100003604FF0FF3008BD4C07FF1F084A1378C5
:10372000802B01D0002070470649074B07480860EE
:10373000002119701378802BFCD00120704700BF46
:1037400003E007404480044001E0074000002822D5
:10375000094A1378012B01D00020704703F1804300
:1037600003F5FC23602119701378802BFCD1034BE7
:10377000034A1A600120704703E007404480044078
:103780000000060210B4114B53F8302092F880422A
:1037900034B1012379B182F880305DF8044B704771
:1037A00003EBC0035B681A6851B922F002021A6089
:1037B0005DF8044B704782F800315DF8044B7047A8
:1037C00042F003021A605DF8044B70471C99000038
:1037D0001C4A02EBC00301295B6811D004291BD0ED
:1037E00052F83000002280F8802229B1022920D02E
:1037F000032922D01A6070474FF480721A60704714
:1038000052F830004FF4A27280F880121A601A68E1
:1038100022F020021A60704752F830104FF4A27262
:10382000012081F880021A601A6842F020021A60B2
:10383000704740F203121A6070474FF481721A60A9
:10384000704700BF1C99000030B4054B054D064C75
:10385000002210211A602A602060196030BC704775
:1038600014D0034004D0034000D00340704700BF91
:103870003F2801D8FFF786BF704700BF3F2801D817
:10388000FFF7A6BF704700BF2DE9F843054672B6A3
:10389000224F234B234A1B683C68126862B65201D0
:1038A00002D5322B88BF0134B5B3C3F52F3303F2F1
:1038B0001F331D4EDFF86890DFF868809B084FF4D7
:1038C0007A72A6FB031302FB04F404EB930472B6B2
:1038D000D9F800103A68D8F800E062B6C1F52F3385
:1038E00003F21F339B08A6FB03031EF0806FC4EB9B
:1038F00093034FF47A7002D0322988BF013200FB63
:103900000233B3F57A7F04D3013D05D004F57A7410
:10391000DDE701F067F8DAE7BDE8F8831C64FF1F14
:1039200018E000E004ED00E0176CC116F8B54F4B4D
:103930004F48DFF860C14F4C4F49DFF85CE14F4E14
:103940004F4D504F4FF000621A604FF080521A6096
:103950004FF000521A604FF080421A604FF0004260
:103960001A600022282302604EF6FF70CCF8000097
:10397000CEF8003023600EF5012E0B6033602B6013
:1039800006F500263B6005F50025A36207F5002734
:103990008B6204F5012401F5012106F6E87605F6AF
:1039A000E87507F57F6710310EF1100E2034336093
:1039B0002B60CEF800303B600B602360324CBB6163
:1039C0008B6109212160A7F5002704F58054203F71
:1039D00008343A602060BB60E36047F8041C04F5DB
:1039E000FD2407F5FE27043704F2FC7422603860DA
:1039F000A360FB6044F8041C083404F6FC74C7F8A8
:103A0000FC2F2060A4F5E124A4F2DC7433602B6069
:103A1000C7F8F81F21681D4841F400712160016852
:103A20001B4C0EF57F4E0EF1E80E07F5883706F5B4
:103A3000803605F5803541F000710160CEF8002038
:103A400047F6FF710822396033602B60226001F075
:103A50003FF8FFF70BFF1420FFF716FF00F010FDF3
:103A60004FF48C70BDE8F840FFF70EBF04E100E0B2
:103A700004800340148003401C80034024800340E2
:103A80002C800340348003400080034004800440C5
:103A900000900C40088003400C800340431E032B21
:103AA00014D872B60A4951F8230068B170B4094CB1
:103AB000058834F81320466841F82360521B24F827
:103AC000132062B670BC704762B670470020704722
:103AD0007864FF1F8865FF1F013803280BD872B672
:103AE000074B53F8203043B100205B680130002BB6
:103AF000FBD162B67047002070471846F9E700BF57
:103B0000CC64FF1FF0B472B61A491B4E012311F8A2
:103B1000014B194F9A00240742F0010505D556F8CC
:103B2000324064B156F83520BAB10133052BEED1DD
:103B300062B6124B00221A70F0BC00F023BD0F4C8D
:103B40000F4D217807EB431308300139586021707D
:103B500047F8325062B6F0BC7047084A09491378FA
:103B600007EBC5040830013B6060137047F835105F
:103B700062B6F0E7449B00000000FF1FF564FF1FE2
:103B800088004000C8004000431E032B1DD81B4A7C
:103B9000400140F0100030B4104472B6184CE25CA2
:103BA000032A1BD8DFE802F00212151703220D8842
:103BB000E25410F0080F14BFC823882343EA0543DA
:103BC00008314160036062B630BC704708300222A1
:103BD000EDE70522EBE708300422E8E7094A52F84E
:103BE000230038B1084A52F82300416042F82310FC
:103BF00062B6E9E742F82310034AF7E70000FF1F27
:103C00000465FF1FCC64FF1FDC64FF1F2DE9F04F2C
:103C1000DFF814B3DFF814A387B044E0AD4F4FEAE8
:103C2000930807EBC809013ED9F8042003F0080304
:103C3000F6B2A2F1080003F0FF04002B40F003816C
:103C400057F838301B0C99B222F8081C002B00F0F2
:103C5000F180A14B22F8064C42F8044C53F8262080
:103C6000002A00F06C819D4D55F8263058609C4C20
:103C700045F8260034F81630194424F8161000F0E0
:103C800061FC002800F05481964A974B19F0080F08
:103C900000F1080018BF1346C9F8040047F838308F
:103CA00008238BF800309BF80040E4B260071BD576
:103CB0008E4B1B78ABB18E490A7802F0FF032AB114
:103CC000013BDBB20B70002B00F0B58389490A7809
:103CD00002F0FF032AB1013BDBB20B70002B00F0B6
:103CE000F68004238BF8003004F0080303F0FF0291
:103CF000002B00F0D5809AF80030DBB21E098DD180
:103D00009C08744F57F8342007EBC401C2F38302B8
:103D1000013A49680C2A7ED8DFE802F081817D7D76
:103D20007D7D7D7D427D7D7D07000868724B734DF2
:103D300001936C4B4A68724E47F8343081B240F2BE
:103D400081646D4B6A60286000220120A1423A61C3
:103D50001A60BA61307000F2F680B1F5D06F80F071
:103D6000E882B1F5817F00F0D38200F2D88180290A
:103D700000F04D81822940F09282A988614B01F0C8
:103D80007F01042900F28C825F4C89000B44227071
:103D900062701A78930740F13883207002203AE16C
:103DA000554B01931A6862B3584B5949544E1888C1
:103DB0000C7896F800E04028054684F0010C28BFF6
:103DC000402544F00204BEF1000F81F800C0A0EBD2
:103DD000050007EBC40C0CBF8821C82180B28EF00F
:103DE000010E41EA0541CCF80420188086F800E075
:103DF0002A4447F8341010B9402D18BF0022019B07
:103E00001A603E4B1A88B2F5A06F04D100219A784F
:103E10005970404B1A70404A0123137040E7374AEB
:103E2000158842F22100854200F052812D4A47F860
:103E30003420F0E72B4A2C4B19F0080F18BF13461B
:103E400047F838302CE700F09DFB344A344952F8EB
:103E50002630002B00F02D8158688C5D42F826003A
:103E600003F10802C9F80420032C05D8DFE804F0A8
:103E7000120F150204228A551A8819F0080F0CBF78
:103E80008823C82343EA024347F8383008E7022270
:103E90008A55F1E703228A55EEE705228A55EBE7BA
:103EA000E00700F17881210600F1A281A20706D582
:103EB0001C4A1D4913780220DBB213700870E30618
:103EC00002D5194B10221A7007B0BDE8F08F00F030
:103ED000C5FC06E70000FF1F7864FF1F2464FF1F76
:103EE0008865FF1FC8004000880040000065FF1F74
:103EF0008964FF1F0865FF1F2064FF1FEC64FF1F1C
:103F00008864FF1FC0200740F864FF1F3464FF1F50
:103F1000F464FF1F9820074094200740CC64FF1FE3
:103F20000465FF1F8820074080200740902007403D
:103F3000B74A47F83800137801331370B0E643F8F6
:103F40002600B44D93E642F22104A14200F0AD8078
:103F500000F20E81B1F5086F00F05481B1F5106FD9
:103F600040F09D81AC4AA9781170AC4D042402E068
:103F70000134142C0CD057F834301906F8D505EB61
:103F8000C40301345868083800F0FCFA142CF2D14C
:103F9000A349A44BA44A0291A449A54C9D4D039466
:103FA00005964FF0000988461C4616460495206881
:103FB00028B1456800F0E6FA2846002DF9D1002323
:103FC0002360049B30681A46002342F8293028B148
:103FD000456800F0D7FA2846002DF9D1002232605A
:103FE000029A98F800301146002241F8042B039AF7
:103FF0000291023B4FF0000122F81910032B00F24E
:10400000B481DFE813F0E201AE01E201AE01894CB8
:10401000022022706270EA88824280F00D82864916
:104020000D78402A45F0020E944607EBCE0028BFDB
:104030004FF0400C04EB0C0344600293CCEB020005
:104040004FEA0C484FF001090022C82444EA080353
:1040500085F0010447F83E3032700C70DFF8BCE1A7
:10406000764BDFF8D481002840F02081BCF1400F6E
:104070001BD144F0020407EBC403029FDFF89CE16C
:104080005F60002A40F02781020442F0880286F82F
:1040900000900D7007444EF834203B46402804D170
:1040A0000020674A019910800B60664A0123137053
:1040B000B1E68B5D032B00F2248101A252F823F0BC
:1040C000A13C0000A13C0000E5410000EB410000E4
:1040D000928862B95C4ACD1D11F8013B02F8013F9C
:1040E0008D42F9D1594A1268862A00F0C980524996
:1040F000524E0878327840F0020580F001000870D6
:1041000007EBC501002A4FF00000486082F0010271
:104110000CBF8821C82147F83510327086E640F27E
:104120000232914240F0B080A98801F07F01042959
:1041300000F2B5806A88002A40F0B180444C8900C2
:104140000C448146217841F0020121700020029048
:1041500080468446044638490D7845F0020E07EB48
:10416000CE03B9F1000F5C600CBF8824C8246DE752
:1041700042F22124A14240F08E80A988002940F01B
:104180004281344B344A354C1B68AD78136081460C
:104190000A462570DAE72B49204B3148264EDFF8D6
:1041A000B0C0304DDFF8D4E02F4F02240C702F4CFC
:1041B00018605C6098602E48D8601A619A610D237F
:1041C00032702C4C8CF800302B4EFF232B700120CA
:1041D0009F258EF800303A7033702570087007B054
:1041E000BDE8F08F00238B555AE501238B5557E529
:1041F0001749224B80220D2008701A70A2077FF504
:104200005EAE55E6044A0B4C1278227003E700BFFD
:10421000F564FF1F2464FF1F0065FF1F0000FF1FE0
:10422000DC64FF1F7864FF1FCC64FF1F0465FF1F61
:104230008865FF1FF864FF1FF464FF1F8864FF1F79
:104240003464FF1F942007408F65FF1F9065FF1F98
:10425000C02007401C64FF1F9865FF1F1865FF1FE3
:104260008800400088200740982007403864FF1FDE
:104270008C64FF1F842007408C200740802007406B
:10428000754A0F21117032E7B1F5A06F07D10022F6
:104290004FF001095AE742F221329142F7D06F4BB9
:1042A0000F221A706E4A01231370B4E540287FF67E
:1042B000E0AE44F002040EEBC401029E4E60AAB1CF
:1042C00083F80090674A88F80050334640384033FE
:1042D0004EF83420E5E6029B86F80090020442F096
:1042E000C8020D7003444EF83420D7E683F80090DE
:1042F000029B5D4A88F80050403840334EF8342025
:10430000CFE619F0080F0CBF022303238B55C7E437
:10431000A98801F07F010429C1D86A88002ABED18A
:104320004E4C89000C448146217821F00201217015
:104330000CE74E4A5468002CB1D06888B5F804E008
:1043400003E00C325468002CA9D013888342F8D1C2
:1043500053887345F5D1000A03280CBF20781089D3
:1043600059E64FF0010388F8003009F10109B9F16D
:10437000040F04F1040406F1040608F101087FF4B7
:1043800016AE3B4B059E3B4DDFF8F08000201870C9
:104390004FF0010918F8013B05F8043B1A0719D43E
:1043A0004FEA890444F0020244F00304002347F872
:1043B000323047F83430304B9D4209F10109E9D1E0
:1043C00096F8009089F00102C0E64FF0000388F8EB
:1043D0000030CAE700F0B6F818B307EB49134FEA0C
:1043E000890408305860204B47F8343000F0AAF8B0
:1043F00068B144F0010307EBC30208305060194A6A
:1044000047F83320CEE78146A0E6022003E6184BAA
:1044100044F001021B7847F83200154A013313704B
:10442000C0E7134B124A1B784FEA8904013347F85F
:1044300034001370DAE700BE4028844628BF4FF0EE
:10444000400C04EB0C03CCEB00004FEA0C48029349
:1044500000224FF001097EE68964FF1FC02007405B
:1044600094200740C800400088004000489B00009E
:10447000F564FF1FC4200740D4200740449B000080
:10448000F8B500F0BBFB002324491A4601EBC3003A
:1044900041F833200133142B42604FF000041F48D1
:1044A000F4D11F491F4A0B68DFF890C01E4E1F4F02
:1044B0001F4DDFF88CE043F480230B60136843F05A
:1044C0004073136003238CF8003001F52831A023DA
:1044D00033707C3102F5C922C0F307233B701032E0
:1044E000C0F307430B70000EFF2328708EF80030D6
:1044F000104D0CF8BC3C10481370012306F8AC3C7E
:1045000081F8504070264FF40014102107F8183C31
:104510002E70046082F8F810F8BD00BF0000FF1F85
:104520003480044000D80040402107409C200740D0
:10453000B420074035E400E004E100E044210740F6
:104540008020074072B60D480268B2FA82F30B2B46
:1045500010DC4FF00041D94022EA0102026062B64D
:10456000074803EBC303DB00C2180021C15010460B
:104570005160704762B60020704700BF5007FF1FB0
:10458000D003FF1F0D4B0E4AC31AA2FB03231B09C6
:104590000B2B0CD80B4A127852B972B60A484FF05E
:1045A0000041026821FA03F31A43026062B67047C1
:1045B000064A1278002AF0D0FFF7A4BAD003FF1FF2
:1045C000398EE338F564FF1F5007FF1F0065FF1F9A
:1045D00038B50F4D286878B143880288C118013377
:1045E00093420C7A02D24380204638BDFFF7CAFFBF
:1045F000002320462B6038BD064B1B782BB10320CF
:10460000FFF74CFA28600028E6D14FF0FF3038BDA4
:104610001465FF1F0065FF1F10B5094C206818B115
:1046200043881844007A10BD064B1B782BB1032039
:10463000FFF734FA20600028F2D14FF0FF3010BDB0
:104640001465FF1F0065FF1F044B054A1B68908817
:104650001BB11A885B88D31A184470471465FF1F72
:104660008865FF1F0B4B1B789BB110B50A4C206867
:1046700048B1FFF787FF002303202360FFF70EFAFE
:1046800030B1FFF77FFF0320FFF708FA0028F8D1C9
:1046900010BD70470065FF1F1465FF1F2DE9F04F27
:1046A000DFF8F89083B0012289F80020019169B306
:1046B000DFF8EC80354F019E8346D8F80000B0B398
:1046C000334D4488C4F14001B14228BF314604EB68
:1046D000010E00221FFA8EFE2A70761AA0F802E060
:1046E00000F1080251B1013C224459441BF8014B2E
:1046F00002F8014F8B45F9D1B0F802E0BEF13F0F4F
:104700000BD8244A05211170002ED6D10198002320
:1047100089F8003003B0BDE8F08F402202800146E6
:104720000420FFF731FA0022C8F80020E9E73A78C0
:1047300022B3194C164D4FF0010A07E0013C16D088
:104740002A78A2B900F04EF93A78BAB10420FFF7FE
:10475000C3F90728F2D889F800A0FFF7F3FEC8F8DC
:1047600000000028ADD10D4B013C1870E8D10123A9
:104770004FF0FF302B7003B0BDE8F08F00234FF0F7
:10478000FF3089F8003003B0BDE8F08F0065FF1FEF
:104790001065FF1F0865FF1F214801000965FF1F05
:1047A0000C65FF1F00B583B002AB012103F8010DBA
:1047B0001846FFF773FF03B05DF804FB38B50E4DE4
:1047C0000E4C28680123237028B1408800232370F1
:1047D000C0F1400038BD0A4B1B7813B9002020708F
:1047E00038BD0420FFF778F90728F7D8FFF7AAFEAD
:1047F00028600028E9D1F1E70C65FF1F0965FF1F5C
:104800000065FF1FF8B5114B1B788BB1104E114D91
:10481000346801272F7064B10F4A6388002717702E
:10482000214623800420FFF7AFF9376000232B7067
:10483000F8BDFFF787FE084B28B1014604201C7025
:10484000FFF7A2F9F2E71F70F0E700BF0065FF1F56
:104850000C65FF1F0965FF1F0865FF1F38B50E4B6C
:104860001B7873B90D4C216861B103F0FF054B88CB
:104870000B800420FFF788F9256038BD084B012222
:104880001A7038BDFFF75EFE0028F7D00146BDE87C
:1048900038400420FFF778B90965FF1F0C65FF1F3A
:1048A0000865FF1F70B5EFF3108272B60C4C2068DC
:1048B00080B10C4E00254369236073B19D6102B93C
:1048C00062B6457783689847EFF3108272B6206826
:1048D0000028F0D102B962B670BD3360EFE700BFC7
:1048E0001C65FF1F2065FF1FFFF7DCBF024A13682E
:1048F00001331360704700BF1C64FF1F10B50368CD
:1049000014465B689847204610BD00BF0EB400B542
:1049100082B003AA52F8041B019201F005FE02B016
:104920005DF804EB03B07047F0B5164D2A680AB382
:104930001549164BDFF85CE082FB016781FB02142E
:10494000D617D1191444C6EB2141C6EB244403FB0E
:1049500004F40EFB112244F2A71303FB0243002BC5
:1049600002DA03F10043013BB3FBF0F22B6000FBE2
:104970001230F0BD064B2B60B3FBF0F200FB12309F
:10498000F0BD00BF3065FF1F5F0B4E83ECF4FFFFEF
:1049900042CE0C1F1DF30100884206DA10B5044612
:1049A000081AFFF7C1FF204410BD704708B5FCF797
:1049B000D1F9FDF7B1FF00F015F8FAE7FFF752BEA5
:1049C000FFF72ABEFFF704BEFFF73EBEFFF71ABF90
:1049D000FFF7F4BE08461146FFF760BE0846FFF732
:1049E000E1BE00BF2DE9F843314E337893B1314F2A
:1049F0003A787AB90122D9073A7036D49A0719D48D
:104A000000225B073A7005D52B4B1A6812B1EFF301
:104A100005820AB1BDE8F883EFF3108172B6186819
:104A200018B1264C2278002A2ED00029F2D162B685
:104A3000BDE8F883DFF8908098F80020002ADFD0E6
:104A4000DFF88890002405E0013498F80030E4B2E3
:104A5000A34212D959F824502B6828461B6998475D
:104A60000028F1D02B699847EEE7FFF7EDFDC8B9B4
:104A7000134B1B781BB93378C0E73378C0E7337822
:104A800003F0FE033370B9E745691D60012323700D
:104A90005DB1AA6101B962B6002545778368984780
:104AA0002570B7E700F0ECF8E2E7064B1D60F1E790
:104AB0006407FF1F3465FF1F2865FF1F2C65FF1F5C
:104AC0000A08FF1F2465FF1F5065FF1F3865FF1F81
:104AD00030B42948294A2A4B2A4D6024E121047028
:104AE00011701B78284C082B30D00A2B27482849F6
:104AF00037D00C2B0CBF35225D2212232A60236095
:104B000002600B60234B24491B78244ABBB101236C
:104B10000B601360224B23491B78234A012B26D9B3
:104B2000042B0FD9082B1ED9102B94BF8623872363
:104B30000B6013601D4B01221A7030BC70470B6074
:104B40001360E7E784230B601360F3E700F58E2022
:104B50000F490830212213232A60236002600B6072
:104B6000D0E73922F7E785230B601360E2E7802363
:104B70000B601360DEE700BF0040074001400740C4
:104B80006507FF1F08B003400CB0034008B00B409E
:104B90000CB00B403665FF1F20B0034020B00B4027
:104BA0006607FF1F24B0034024B00B403565FF1F8C
:104BB000F0B44D1E2E46002400E00134B0FBF2F3A9
:104BC00002FB1300092800F130078ABF3730F8B222
:104BD000C0B206F8010F1846002BEED10A19537027
:104BE0004CB1107815F8016F28700133E01A834238
:104BF00002F80169F5DB0846F0BC704710B584B0D7
:104C000072B6FEF78BFD184A184B194911607022D5
:104C100080211A701A46197013781B06FCD5154BA3
:104C20001C68FEF795FD62B6134B9C429CBF04EBDB
:104C3000840464002046114C01A90A22FFF7B8FF42
:104C400001A92046002311F8012B01333AB10A2BA8
:104C500020F8022FF7D11623237004B010BD5B009B
:104C6000DBB2237004B010BD04000240000002401B
:104C7000000007410C0002407F969800F407FF1FD8
:104C8000704700BF81F0004102E000BF83F00043A5
:104C900030B54FEA41044FEA430594EA050F08BFD7
:104CA00090EA020F1FBF54EA000C55EA020C7FEA9B
:104CB000645C7FEA655C00F0E2804FEA5454D4EB18
:104CC0005555B8BF6D420CDD2C4480EA020281EAE2
:104CD000030382EA000083EA010180EA020281EA1A
:104CE0000303362D88BF30BD11F0004F4FEA01316C
:104CF0004FF4801C4CEA113102D0404261EB41017B
:104D000013F0004F4FEA03334CEA133302D0524200
:104D100063EB430394EA050F00F0A780A4F10104BC
:104D2000D5F1200E0DDB02FA0EFC22FA05F28018F6
:104D300041F1000103FA0EF2801843FA05F35941DC
:104D40000EE0A5F120050EF1200E012A03FA0EFC5B
:104D500028BF4CF0020C43FA05F3C01851EBE37185
:104D600001F0004507D54FF0000EDCF1000C7EEBA2
:104D700000006EEB0101B1F5801F1BD3B1F5001FE0
:104D80000CD349085FEA30004FEA3C0C04F10104FF
:104D90004FEA445212F5800F80F09A80BCF1004F28
:104DA00008BF5FEA500C50F1000041EB045141EAAA
:104DB000050130BD5FEA4C0C404141EB010111F4AB
:104DC000801FA4F10104E9D191F0000F04BF014656
:104DD0000020B1FA81F308BF2033A3F10B03B3F134
:104DE00020020CDA0C3208DD02F1140CC2F10C02C4
:104DF00001FA0CF021FA02F10CE002F11402D8BF22
:104E0000C2F1200C01FA02F120FA0CFCDCBF41EAED
:104E10000C019040E41AA2BF01EB0451294330BDBC
:104E20006FEA04041F3C1CDA0C340EDC04F1140499
:104E3000C4F1200220FA04F001FA02F340EA030070
:104E400021FA04F345EA030130BDC4F10C04C4F1B6
:104E5000200220FA02F001FA04F340EA0300294696
:104E600030BD21FA04F0294630BD94F0000F83F4E0
:104E7000801306BF81F480110134013D4EE77FEAC3
:104E8000645C18BF7FEA655C29D094EA050F08BF0F
:104E900090EA020F05D054EA000C04BF19461046F0
:104EA00030BD91EA030F1EBF0021002030BD5FEA34
:104EB000545C05D14000494128BF41F0004130BD5C
:104EC00014F580043CBF01F5801130BD01F00045B0
:104ED00045F0FE4141F470014FF0000030BD7FEA23
:104EE000645C1ABF194610467FEA655C1CBF0B461E
:104EF000024650EA013406BF52EA033591EA030F35
:104F000041F4002130BD00BF90F0000F04BF00212C
:104F1000704730B54FF4806404F132044FF000055F
:104F20004FF0000150E700BF90F0000F04BF0021D8
:104F3000704730B54FF4806404F1320410F000453E
:104F400048BF40424FF000013EE700BF42004FEA39
:104F5000E2014FEA31014FEA02701FBF12F07F43B6
:104F600093F07F4F81F06051704792F0000F14BFB3
:104F700093F07F4F704730B54FF4607401F00045F7
:104F800021F0004120E700BF50EA010208BF70474E
:104F900030B54FF000050AE050EA010208BF704743
:104FA00030B511F0004502D5404261EB41014FF4AC
:104FB000806404F132045FEA915C3FF4DCAE4FF0B0
:104FC00003025FEADC0C18BF03325FEADC0C18BF97
:104FD000033202EBDC02C2F1200300FA03FC20FAE8
:104FE00002F001FA03FE40EA0E0021FA02F1144435
:104FF000C1E600BF70B54FF0FF0C4CF4E06C1CEA4A
:1050000011541DBF1CEA135594EA0C0F95EA0C0FBE
:1050100000F0DEF82C4481EA030621EA4C5123EA31
:105020004C5350EA013518BF52EA033541F4801160
:1050300043F4801338D0A0FB02CE4FF00005E1FB13
:1050400002E506F00042E0FB03E54FF00006E1FB5D
:1050500003569CF0000F18BF4EF0010EA4F1FF04A0
:10506000B6F5007F64F5407404D25FEA4E0E6D41E0
:1050700046EB060642EAC62141EA55514FEAC520F1
:1050800040EA5E504FEACE2EB4F1FD0C88BFBCF56D
:10509000E06F1ED8BEF1004F08BF5FEA500E50F11E
:1050A000000041EB045170BD06F0004646EA0101E4
:1050B00040EA020081EA0301B4EB5C04C2BFD4EB16
:1050C0000C0541EA045170BD41F480114FF0000E0F
:1050D000013C00F3AB8014F1360FDEBF002001F07D
:1050E000004170BDC4F10004203C35DA0C341BDCF7
:1050F00004F11404C4F1200500FA05F320FA04F0C9
:1051000001FA05F240EA020001F0004221F00041FC
:1051100010EBD37021FA04F642EB06015EEA430E6F
:1051200008BF20EAD37070BDC4F10C04C4F120059F
:1051300000FA04F320FA05F001FA04F240EA020052
:1051400001F0004110EBD37041F100015EEA430E23
:1051500008BF20EAD37070BDC4F1200500FA05F243
:105160004EEA020E20FA04F301FA05F243EA0203C2
:1051700021FA04F001F0004121FA04F220EA0200D1
:1051800000EBD3705EEA430E08BF20EAD37070BD17
:1051900094F0000F0FD101F00046400041EB0101F7
:1051A00011F4801F08BF013CF7D041EA060195F0D9
:1051B000000F18BF704703F00046520043EB030393
:1051C00013F4801F08BF013DF7D043EA0603704780
:1051D00094EA0C0F0CEA135518BF95EA0C0F0CD08B
:1051E00050EA410618BF52EA4306D1D181EA0301D1
:1051F00001F000414FF0000070BD50EA410606BFCB
:105200001046194652EA430619D094EA0C0F02D10F
:1052100050EA013613D195EA0C0F05D152EA033654
:105220001CBF104619460AD181EA030101F0004172
:1052300041F0FE4141F470014FF0000070BD41F0BB
:10524000FE4141F4780170BD70B54FF0FF0C4CF495
:10525000E06C1CEA11541DBF1CEA135594EA0C0FB4
:1052600095EA0C0F00F0A7F8A4EB050481EA030E01
:1052700052EA03354FEA013100F088804FEA0333E8
:105280004FF0805545EA131343EA12634FEA0222B6
:1052900045EA111545EA10654FEA00260EF0004177
:1052A0009D4208BF964244F1FD0404F5407402D2C9
:1052B0005B084FEA3202B61A65EB03055B084FEA5A
:1052C00032024FF480104FF4002CB6EB020E75EB57
:1052D000030E22BFB61A754640EA0C005B084FEA7F
:1052E0003202B6EB020E75EB030E22BFB61A7546FC
:1052F00040EA5C005B084FEA3202B6EB020E75EB47
:10530000030E22BFB61A754640EA9C005B084FEABE
:105310003202B6EB020E75EB030E22BFB61A7546CB
:1053200040EADC0055EA060E18D04FEA051545EABA
:1053300016754FEA06164FEAC30343EA52734FEA63
:10534000C2025FEA1C1CC0D111F4801F0BD141EADC
:1053500000014FF000004FF0004CB6E711F4801F41
:1053600004BF01430020B4F1FD0C88BFBCF5E06F21
:105370003FF6AFAEB5EB030C04BFB6EB020C5FEA31
:10538000500C50F1000041EB045170BD0EF0004E86
:105390004EEA113114EB5C04C2BFD4EB0C0541EAB8
:1053A000045170BD41F480114FF0000E013C90E6B5
:1053B00045EA060E8DE60CEA135594EA0C0F08BF79
:1053C00095EA0C0F3FF43BAF94EA0C0F0AD150EA78
:1053D00001347FF434AF95EA0C0F7FF425AF10460B
:1053E00019462CE795EA0C0F06D152EA03353FF433
:1053F000FDAE1046194622E750EA410618BF52EAB0
:1054000043067FF4C5AE50EA41047FF40DAF52EA83
:1054100043057FF4EBAE12E74FF0FF3C06E000BF20
:105420004FF0010C02E000BF4FF0010C4DF804CD2D
:105430004FEA410C7FEA6C5C4FEA430C18BF7FEAED
:105440006C5C1BD001B050EA410C0CBF52EA430C1B
:1054500091EA030F02BF90EA020F0020704710F19B
:10546000000F91EA030F58BF994208BF90422CBF2A
:10547000D8176FEAE37040F0010070474FEA410C23
:105480007FEA6C5C02D150EA013C07D14FEA430C41
:105490007FEA6C5CD6D152EA033CD3D05DF8040BB2
:1054A000704700BF8446104662468C4619466346E4
:1054B00000E000BF01B5FFF7B7FF002848BF10F1BB
:1054C000000F01BD4DF808EDFFF7F4FF0CBF012000
:1054D00000205DF808FB00BF4DF808EDFFF7EAFF7C
:1054E00034BF012000205DF808FB00BF4DF808ED37
:1054F000FFF7E0FF94BF012000205DF808FB00BF2C
:105500004DF808EDFFF7CEFF94BF012000205DF8B5
:1055100008FB00BF4DF808EDFFF7C4FF34BF0120C2
:1055200000205DF808FB00BF4FEA410C7FEA6C5C8D
:1055300002D150EA013C0AD14FEA430C7FEA6C5C8D
:1055400002D152EA033C02D14FF0000070474FF005
:105550000100704753B94AB9002908BF00281CBF91
:105560004FF0FF314FF0FF3000F07EB9ADF1080C85
:105570006DE904CE00F006F8DDF804E0DDE9022371
:1055800004B070472DE9F0478C460E460446089D4E
:10559000002B50D18A4217466CD9B2FA82FEBEF176
:1055A000000F0BD0CEF1200420FA04F401FA0EF61D
:1055B00044EA060C02FA0EF700FA0EF44FEA174915
:1055C000220CBCFBF9F01FFA87F809FB10C642EA6F
:1055D000064600FB08F3B34209D9F61900F1FF3281
:1055E00080F02281B34240F21F8102383E44F61A15
:1055F000A2B2B6FBF9F309FB136642EA064403FBC9
:1056000008F8A04509D9E41903F1FF3280F00A81B6
:10561000A04540F20781023B3C44C8EB040443EA46
:1056200000400021002D62D024FA0EF400232C60EB
:105630006B60BDE8F0878B4207D9002D55D0002163
:1056400085E841000846BDE8F087B3FA83F10029F8
:1056500040F09080B34202D3824200F2F880841A74
:1056600066EB03060120B446002D40D085E81010FB
:10567000BDE8F08712B90127B7FBF2F7B7FA87FE4A
:10568000BEF1000F35D1F31B4FEA17481FFA87FC14
:105690000121B3FBF8F0220C08FB103642EA064663
:1056A0000CFB00F3B34207D9F61900F1FF3202D226
:1056B000B34200F2CE801046F61AA2B2B6FBF8F35F
:1056C00008FB136642EA06440CFB03FCA44507D919
:1056D000E41903F1FF3202D2A44500F2B58013466B
:1056E000CCEB040443EA00409CE729462846BDE889
:1056F000F087CEF1200106FA0EF307FA0EF720FA32
:1057000001F94FEA1748CE4049EA0309B6FBF8FA17
:105710004FEA194408FB1A661FFA87FC44EA06435D
:105720000AFB0CF29A4200FA0EF40AD9DB190AF1CC
:10573000FF3180F087809A4240F28480AAF1020A09
:105740003B449B1A1FFA89F9B3FBF8F108FB1133AC
:1057500049EA034301FB0CF69E4207D9DB1901F12C
:10576000FF326BD29E4269D902393B449B1B41EA0E
:105770000A418EE7C1F1200E22FA0EF48B4023433A
:1057800020FA0EF706FA01F44FEA134C26FA0EF649
:105790003C43B6FBFCF9270C0CFB19661FFA83F897
:1057A00047EA064609FB08F7B74202FA01F200FA97
:1057B00001FA08D9F61809F1FF3041D2B7423FD9B2
:1057C000A9F102091E44F61BA0B2B6FBFCF40CFBC7
:1057D000146640EA064704FB08F8B84507D9FF18E5
:1057E00004F1FF3028D2B84526D9023C1F4444EAD0
:1057F0000940C8EB0707A0FB02894F4544464E46C7
:1058000014D329D065B3BAEB040367EB060707FA94
:105810000EFECB40CF404EEA030385E8880000210E
:10582000BDE8F0871346F8E61046E0E6B8EB020460
:1058300069EB03060138E5E70446D8E7114695E72A
:105840008146C0E78A467CE7023B3C4448E708467D
:105850000AE702383E442FE7C245E7D33E46D1E788
:105860002946BDE8F08700BF704700BF014B1868AC
:10587000704700BF380CFF1F70B50F4E0F4D761BE1
:10588000B61018BF002405D0013455F8043B9847E2
:10589000A642F9D10A4E0B4D761B04F0C5FAB6109C
:1058A00018BF002406D0013455F8043B9847A6429F
:1058B000F9D170BD70BD00BF349E0000349E000061
:1058C000409E0000349E0000024B0146186800F024
:1058D00003B800BF380CFF1F2DE9F04F01F10B0595
:1058E000162D83B0064640F29F8035F0070500F183
:1058F000BF80A94200F2BC8000F06EFBB5F5FC7FD2
:10590000C0F09C826B0A00F0BA80042B00F2838105
:10591000A80900F1390E4FEA4E033830C44F07EBA7
:105920008303A3F108015C68A14207D1ACE0002A1F
:1059300080F2AC80E468A14200F0A680636823F0A6
:1059400003035A1B0F2AF2DDB9493C6901F1080E25
:10595000744500F0B381636823F003035A1B0F2AD8
:1059600000F39981002AC1F814E0C1F810E080F238
:105970009E80B3F5007F80F06781DB0803F1010CA6
:1059800001229B1002FA03F34A6851F83C80C4F8E4
:10599000088001EBCC091A43A9F10803E3604A60CF
:1059A00041F83C40C8F80C40831001249C409442CC
:1059B00000F28A80144206D120F0030064001442F1
:1059C00000F10400FAD007EBC009CC468046DCF8B1
:1059D0000C108C4507D173E1002A80F28181C968DF
:1059E0008C4500F06D814B6823F003035A1B0F2A8E
:1059F000F2DD0C46D1F80CC054F8088F4B1945F075
:105A000001054D6042F00101C8F80CC03046CCF8E9
:105A100008807B613B61C3F80CE0C3F808E0596083
:105A20009A5000F0DBFA1FE0102921D800F0D4FAD8
:105A30001025062302207E4F07EB8303A3F1080203
:105A40005C68944200F045816368E168A56823F0D2
:105A50000303234430465A68E96042F001028D6036
:105A60005A6000F0BBFA0834204603B0BDE8F08F5E
:105A700000240C232046336003B0BDE8F08F802360
:105A80004FF0400E3F2049E770465DE72344E16850
:105A90005A68A56842F00102E96030468D605A609C
:105AA00000F09CFA0834204603B0BDE8F08F234490
:105AB00030465A6842F001025A6000F08FFA08340A
:105AC000204603B0BDE8F08FBC68636823F003088C
:105AD000A84504D3C5EB08030F2B00F38C80554B6E
